:020000040800F2
:10000000F8580020D50000084DB30008BD9C00083A
:1000100000000000000000000000000000000000E0
:1000200000000000000000000000000059BB0008B4
:100030000000000000000000F5B30008EDBB000860
:10004000E7000008E7000008E7000008E7000008F4
:10005000E7000008E7000008E7000008213C00086E
:1000600009CF00082D2B00083D2B0008E7000008F1
:10007000E7000008E7000008E7000008E7000008C4
:10008000E70000080000000000000000C1BC0008FC
:1000900000000000E7000008E7000008C19C00081D
:1000A000E7000008E7000008E7000008E700000894
:1000B000A1C60008000000000000000000000000D1
:1000C0000348854600F0CCFE00480047E90A0108D5
:1000D000F85800200448804704480047FEE7FEE740
:1000E000FEE7FEE7FEE7FEE7B1BC0008C10000083E
:1000F00030B5434351435C18010C130C0D465D436E
:100100002C1980B292B20546554351430A0C09049A
:100110004D1962415843010C00044019514130BD52
:1001200000487047E415010810B50446FFF7F8FFD2
:100130000068005DC007C00F10BD01466139192974
:1001400000D82038704701464139192900D820309D
:10015000704703460B439B0703D009E008C9121FF1
:1001600008C0042AFAD203E00B780370401C491C33
:10017000521EF9D27047D2B201E00270401C491EF3
:10018000FBD270470022F6E710B513460A46044634
:100190001946FFF7F0FF204610BD10B5044605E0F4
:1001A0000B780370401C002B00D0491C521EF7D264
:1001B000204610BDCAB2401E4178401C8A4202D07F
:1001C0000029F9D100207047421C0178401C002909
:1001D000FBD1801A704710B5002200E0521C835CEE
:1001E0008C5CA34201D1002BF8D1D8B2E1B2401A05
:1001F00010BD30B504460020034600E05B1C93426E
:1002000003D2E05CCD5C401BF8D030BD03460A78D9
:100210000270401C491C002AF9D118467047F8B5F5
:100220000E460546002400E0641C285DFFF78BFFA6
:100230000746305DFFF787FF381A02D1295D002994
:10024000F2D1F8BD0FB400B58DB009900B9010A994
:1002500000200091C0430A9000200C9006480690B0
:10026000064807906A4609A80F9900F0D5FA0DB024
:1002700008BC04B0184700003908000859080008F5
:10028000FFB50027FF4383B000205C6801909E68A3
:100290001D46A9697F1C049888470090296A8847F1
:1002A0000028F6D10098401C0CD003204002844363
:1002B000002E19DD600614D500982B2809D02D28B2
:1002C0000FD103E00020C04307B0F0BD0120800241
:1002D0000443A9697F1C04988847761E0090002E6D
:1002E00002DD0098302803D00598002825D035E09D
:1002F000012040020443A969761E7F1C04988847A8
:100300000090002E03DD782805D0582803D00598EA
:10031000002810D022E00598002801D010281DD117
:10032000012040028443A969761E7F1C04988847F7
:100330000090102002E0082000E00A2005900DE067
:10034000012149020C43059A0199761E5143081870
:100350000190A9697F1C049888470090002E05DD54
:100360000599009800F042FA0028E9DAE969049852
:100370008847A00502D40120C043A5E7E00722D1A9
:10038000600611D56005019800D5404229680A1D14
:100390002A600968220501D5087014E0220701D5FA
:1003A000088010E008600EE02868011D29600068E0
:1003B000210502D50199017005E02107019901D5B8
:1003C000018000E0016038467EE7F7B582B00F4655
:1003D0000026029C10F03AFC0090006801902578FD
:1003E000641C002D05D0FFF79BFE0068405DC00730
:1003F000F5D12B2D02D02D2D1CD0641E009800218C
:10040000016039462046049A00F038FA0146002F70
:1004100004D03868A04201D1029838600098006882
:1004200002280BD00098019A0260700506D5484258
:1004300005B0F0BD012080020643DFE70846F7E77C
:1004400070B5064610F002FC046805460A22002139
:10045000304600F067FA2C6070BD70B5064610F0AB
:10046000F5FB046805460A220021304600F05AFADE
:100470002C6070BDF8B502464A40D40F42004B00D4
:1004800052085B089A4202D20246084611464A00C8
:1004900023D0C30D4A00DDB2120EAD1A202D35DA7D
:1004A00049020126490AF6058A19002C00D0524259
:1004B00020214F1B1146B9402A411018C20D9A4203
:1004C00021D0002C17D0012D08DCDA05801AD20FBC
:1004D0008019D207DBB200F065FAF8BDDA05801AA0
:1004E000012340001B06C01880185A428018CA0F0A
:1004F0001043490007E04908C2071143DA05801A92
:1005000080194008801800F045FAF8BD610001220A
:10051000511A001BF7E70122D2075140AAE7012236
:10052000D2075040A6E7024670B54A40D30FDB071A
:1005300040002DD04A002AD0010E140E00021202F3
:100540000919400A520A8418E50104465443000A76
:10055000120A2E045043A4194219200CC543AA18AC
:10056000120C0125AD03521C521912047F392404C8
:1005700000D0521C104301D44000491EC2B20C06E8
:10058000C0092018401C4008802A02D003E0002047
:1005900070BD40084000002900DA0020184370BDFB
:1005A00070B502464A40D50F40004A00ED074008AA
:1005B0005208002814D0002A12D0C40DD30D4102D5
:1005C0000120C0055202490A520AE41A09181218F9
:1005D0007D34914201D3641C00E04900002C01DA13
:1005E000002070BD0023914201D3891A03434008C3
:1005F00049000028F7D100290AD0914202D10121F7
:10060000C90705E0914201D2012101E00121C9435E
:10061000E005C018401900F0BDF970BD0122D207F5
:10062000002800DB101A002900DB511A814201D892
:1006300001207047002070470122D207002800DB0C
:10064000101A002900DB511A814201D201207047A3
:10065000002070470122D207002800DB101A002971
:1006600000DB511A814201D30120704700207047FE
:100670000122D207002800DB101A002900DB511AE2
:10068000814201D901207047002070470122D20722
:10069000002800DB101A002900DB511A814201D129
:1006A0000120704700207047C217C10F504010B59D
:1006B0004018CA079623002100F074F910BD10B548
:1006C00000229623114600F06DF910BD0EB5C21739
:1006D000C10F5040CA0740180021054B02930192F8
:1006E00000910A460B4600F0A3F903B000BD0000DC
:1006F00033040000C20F410040020123400ADB0521
:10070000D207090EC0187F2901DA00207047962908
:1007100003DC9623591AC84001E096398840002A24
:10072000F4D040427047C20FD207400040080BD0BF
:10073000C10D0723DB01C91840020905400A114316
:10074000C20840071143704700200146704770B54A
:100750000446002903D000202022012310E00028B5
:1007600001D00020C043C046C0460DE02546D5401C
:100770008D4205D30D469540641B1D46954040199A
:100780001546521E002DF1DC214670BDF0B51FB498
:100790000646002082B005464024019100901BE0EF
:1007A000019922460F46304600F082FB049A059BD1
:1007B000801A994110D310461946224600F068FB72
:1007C000361A8F410197224601200021009F00F038
:1007D0005FFB38184D4100902046641E0028DFDC86
:1007E000019B00982946324607B0F0BD3A2800D256
:1007F0003038202302469A43412A01D31046373825
:10080000884201D30020C04370470000026813787B
:10081000511801601846704710B5D1600449516104
:100820000449116200211161114600F065FB10BD01
:100830000D080008290100084268002A08D0016854
:100840000B78491C002B03D0521E06C01846704777
:100850000121C160881E70474268002A0BD0C3681E
:100860000168002B07D183688B4204D0491E521CBB
:1008700006C0002070470020C0437047F7B582B023
:10088000029C00272078641C15460197302802D06E
:10089000002D15D015E020780127641C782804D09D
:1008A000582802D0002D09D00BE0002D01D0102DCA
:1008B00007D1002710252078641C02E0082500E0FD
:1008C0000A250026009610E00099012769430818C0
:1008D000020C294680B2714300908E18380486427B
:1008E00001D3012001902078641C2946FFF77EFF88
:1008F0000028E9DA0398002805D0002F01D0641EF3
:1009000000E0029C04600198002806D010F09EF9D7
:1009100002210160C81E05B0F0BD009930040843F3
:10092000F9E70000F7B5009C0F4600262578641C07
:10093000002D05D0FFF7F4FB0068405DC007F5D13E
:100940002B2D02D02D2D18D0641E39462046029A38
:10095000FFF794FF002F04D03968A14201D100991C
:1009600039607105022400290BDA4042002803DDBA
:1009700010F06CF90460A007FEBD01208002064360
:10098000E3E70028F8DA10F061F904600048FEBDE2
:10099000FFFFFF7F002904DA401C490001D1400815
:1009A0004000704770B40024050C05D110240004E9
:1009B00002D1002921D01124050E01D100020834F2
:1009C000050F01D10001241D850F01D18000A41C59
:1009D000002801DB4000641C002908D020252E1BC4
:1009E0000D46F540A14000D00121294308430106EE
:1009F0001B1B000ADB1D02D5002070BC7047DB0505
:100A0000181880180029F8DA401C4900F5D170BC8C
:100A100040084000704710B5002B08DA0024401C45
:100A2000614192185B411A4301D14008400010BD5A
:100A3000F0B51FB482B005460C0003D0084610F094
:100A4000EDF802E010F0EAF820300246009021466E
:100A5000284600F01DFA049B059A04460F461843E9
:100A60001143084314D0184610431BD0009840216E
:100A70000A1A1846059900F01BFA05460E46009A18
:100A80000599049800F004FA084305D0012004E019
:100A90002046394607B0F0BD0020C11705430E437C
:100AA0002C43374300990E986305401A7905E40AF0
:100AB00000220C43FD0A0A3002D500200146E9E776
:100AC0000105101969410C9C0D9D00196941FFF742
:100AD000A2FFDFE7F0B507460846584087B0C00FD1
:100AE000049048000E46590040084908BC1A884145
:100AF00005D2384631461E4617460B460246580078
:100B0000400810434CD0300D039040055900400D73
:100B1000490D0590401A0290402872DA180301210D
:100B2000000B09050843019004980092002805D0A5
:100B30000199524200208841009201900298402180
:100B40000A1A0199009800F0A3F905460C466B4675
:100B500007CB00F0BEF9C0197141039A0E0D0023B6
:100B6000D71756401A467A40164344D0049A002AB2
:100B70002DD0029A012A039A15DC1205C01A914160
:100B800001263605001C7141D20F059ED207009345
:100B9000019202962A462346FFF74AFF07B0F0BDAE
:100BA00038463146FAE71605224A0F46B218C01AEF
:100BB000B74101210905001C4F4100187F41114632
:100BC00018187941E20F10436D19644113E0E207F0
:100BD0006D0815436408C2071443039A01261205E1
:100BE000C01A91413605001C7141CE0740083043C0
:100BF0004908C01851412A462346FFF70CFFCDE7AC
:100C0000FFE7049801224000C117121A00238B410C
:100C100004983146C417381AA141EEE730B40124D4
:100C2000E407634030BC55E730B40124E407614079
:100C300030BC4FE70000E0FFF0B51FB488B00B995F
:100C40000998002448400999C00F490049080991B2
:100C5000C0070B990090490049080B910999089821
:100C6000A64608431CD00B990A98084318D0099847
:100C700001244000420D4800410D0998240500035D
:100C8000000B204309900B980003000B20430B90AE
:100C900050181C494018002201901446104605E0E7
:100CA000002001460DB0F0BD032801DA034600E044
:100CB00003239C46C11A0AAE0AE05F0008ADED5B53
:100CC0004F00F75B7D430027AA187C41491C5B1E3F
:100CD0006145F2DD410004AB5A522104120C0A4373
:100CE000240C401C0828DFDB019802900099704614
:100CF00001910090059B049A07990698FFF798FECA
:100D0000D0E700000DFCFFFFF0B50C465C4085B05D
:100D1000E40FE40703944C0000266408590094464D
:100D2000490802460296224321D062460A431ED059
:100D30006200570D4A000E032303550D012402469D
:100D40002C492405781B1B0B360B401823432643E4
:100D5000614600901C46501AB44103D30098401CD1
:100D6000009002E0921800985B41002803DA00200E
:100D7000014605B0F0BD0020012109050746864661
:100D800011E064461D46141BB54106D36546521B4F
:100D9000B341744607430C43A646CD0740084908B3
:100DA000284392185B4105460D43EAD1104618438B
:100DB00013D06046194650407140084306D0604643
:100DC000101AB34106D20122002306E000220123BB
:100DD000DB0702E00122D24353100098744601055C
:100DE000381C6141029C039D00196941FFF713FE05
:100DF000BFE70000FD0300004A0009030123090BBF
:100E00001B0519430A4B10B5520D9A4202DA002015
:100E1000014610BD064B34339A4203DC9A1A00F0A7
:100E200047F810BD034BD21800F032F810BD000097
:100E3000FF030000CDFBFFFF10B5002904DB0124F8
:100E4000E40740428C412146002B04DB1C46012371
:100E5000DB075242A341994200D1904210BD0000ED
:100E60001CB5094800900948019005460126009CE0
:100E700005E0E36807CC33430C3C98471034AC42A0
:100E8000F7D3FFF721F90000147701083477010840
:100E900010B5202A04DB0146203A9140002010BD05
:100EA000914020239C1A0346E3401943904010BD13
:100EB00010B5202A04DB0846203AD040002110BD9E
:100EC0000B46D340D0402024A21A91400843194633
:100ED00010BD10B5202A06DBCB170846203A10417A
:100EE000C1170B4306E00B461341D0402024A21A41
:100EF00091400843194610BDF3B58DB000200A900B
:100F000001200B90002608460C300C4609906269BF
:100F1000012109989047051E2ED0252D2DD0216A3C
:100F20008847002818D06269012109989047216AF2
:100F300088470028F7D1411E62690998904700E070
:100F4000761CA1690D988847216A88470028F7D147
:100F5000E1690D988847DAE7A1690D988847074647
:100F6000A84201D1761CD2E7E1690D9888477F1C21
:100F700002D10A98002877D049E1002762693D46EE
:100F80003946099890472A280CD1626901210998AD
:100F90009047012506E00A214F433F18303FEBD42C
:100FA00010200543626901210998904701463039B4
:100FB0000A2903D29B498F42DEDCECE7E90600D424
:100FC000994F6C280AD04C2810D0682824D06A2861
:100FD0002ED074280CD07A280AD00DE06269012145
:100FE000099890476C2823D004211CE02020054359
:100FF0006269012109989047A760656065284FD014
:1010000026DC582839D01ADC452849D012DC25289E
:1010100034D04128B0D143E062690121099890475A
:10102000682802D008210D43E6E70120C002DEE770
:101030000220DCE7462833D047282CD130E05B285B
:1010400070D061282CD063286CD0642823D161E053
:101050006F284FD009DC662822D0672820D0692865
:1010600026D06E2817D12EE0CDE070284DD0732801
:101070006FD075284ED078280DD154E0A1690D9815
:1010800088470546252800D16CE7E1690D98884717
:101090006D1C00D16DE7BAE00A224CE00A2252E052
:1010A000012023466A46C0430D99C046C046A3E0CE
:1010B0002846402108436060A807234601D5002246
:1010C00039E000223FE0E80700D020E72068011D5A
:1010D00021600068290501D5067018E7290701D5A8
:1010E000068014E7A90703D5F117066041600EE7F3
:1010F00006600CE72846402108436060A8072346A5
:1011000001D5082217E008221DE04849284608407A
:10111000606016E02846402108436060A807234627
:10112000BCD5B9E715E02846402108436060A80710
:1011300007D5234610220120C0430D99C046C04662
:101140005AE0234610220120C0430D99FFF798F87A
:1011500052E000210C910B460091632802D05B28DD
:1011600007D043E0E80601D40120A06001200090F0
:101170003CE062690121099890475E2805D1012071
:101180000C9001466269099890472169002906D1AF
:101190000B4601AA8F00491CD3510829FADB00280D
:1011A00035D0216900290ED1C117C90E09184A117D
:1011B000930001AA9A1849094901411A01201368AC
:1011C00088400343136062690121099890475D28B4
:1011D000E5D10C98002808D0002001AB81005A58B6
:1011E000401CD2435A500828F8DB01AB01202246AC
:1011F000C0430D99C046C04600280ADA401C06D1FB
:101200000B98002803D00020C0430FB0F0BD0A980F
:10121000FBE7E90702D10A99491C0A913618002018
:101220000B9074E6CCCCCC0CFFFFFF7FF1F7FFFFF7
:10123000F0B581B005460024009400688168C907B4
:101240001CD181682B4A2F3211420AD0A86D10217F
:101250000143A965E86D01242043E865204601B0FB
:10126000F0BD8168234A114001273943816022483B
:101270000068000205D4687E012825D1204601B00F
:10128000F0BD1E4800681E49FFF761FA401C00903F
:1012900000980028EFD00098401E00900098002889
:1012A000E9D00098401E009000980028E3D00098F4
:1012B000401E009000980028DDD00098401E00904D
:1012C00000980028E7D1D6E704F042FC064604E087
:1012D00004F03EFC801B0328B8D228680168C907C7
:1012E000CCD18168C907F3D18168024A11403943E2
:1012F0008160EDE7E8FFFF7F082701403000002014
:10130000400D0300F0B583B067490A684968401A88
:1013100086185249CF6801200023BE4202460EDDE6
:101320004C68A64205460FDA1543012D10D14D69D0
:10133000AE4213DC0022BE42034613DA13E01A4623
:101340004C68A6420546EFDB1D461543012DEED045
:101350000D4608350868A74217D043E00122BE4277
:10136000034600DB1346012B06D1CB699E420EDCFF
:101370000022AE420EDA0EE028460D461035083146
:101380003C4607460868A7422CD103B0F0BD0122B5
:10139000AE4200DB1046029500281BD0A6423BDA85
:1013A000886809680291FFF7B6F80546381BFFF711
:1013B0007BF901462846FFF7F3F80546301BFFF797
:1013C00073F901462846FFF7AEF80299FFF752F885
:1013D00003B0F0BD0D4618351031029C1F46086859
:1013E000A742D2D0391B07460846FFF75DF90290A5
:1013F00028683946FFF78FF80299FFF7D1F80546BC
:10140000301BFFF751F901462846FFF78CF83946A3
:10141000FFF730F803B0F0BD8869019009691C46F8
:10142000FFF779F807460298201AFFF73DF90146C1
:101430003846FFF7B5F80546301BFFF735F901468A
:101440002846FFF770F80199FFF714F803B0F0BDD4
:1014500002484068144908607047C0468000002078
:1014600080B5322004F0FEF9004880BDF8950300F5
:1014700080B503A010F064F80B490C48486080BDAB
:10148000414453313233323A205461726520656DE4
:10149000206D6F646F2064652073696D756C616386
:1014A000616F2E0D000000003C010020CD9703006D
:1014B0007D200001054948607047C0467047000024
:1014C0007D200001014988607047C046B4010020BA
:1014D0007D4801218170704710B59548954901F00C
:1014E00077FB104C204602F0F9FA0F4802F044FC5A
:1014F0000E480AF003F809F0CFFE01F0AFFE0AF043
:101500002DFB02F09BFBFFF7A3FF204600F06AFBD8
:1015100002F080FD064809F00BFF064809F010FFB5
:1015200010BDC0462009002044080020540C0020B3
:1015300000008E420AD7CD41F0B583B0624C2078CE
:10154000022865D0012871D10EF092F80EF08EFCC1
:101550000EF014FD724805F055F9642004F082F98C
:10156000052000070290012671020191324604F025
:10157000E7FA19204701384604F074F96948202534
:101580002946324604F0DCFA384604F06BF9664826
:101590006649016000242046314606F0AFF90AF0A2
:1015A0002BFB142004F05EF909F0C6FD09F02AFEB9
:1015B00009F08EFD5E485F4901F00AFB5E480FF0BE
:1015C000BFFF58482946224604F0BAFA384604F0CC
:1015D00049F902980199224604F0B2FA384604F01B
:1015E00041F9632001F09AFA01F008FB002805D0C8
:1015F00001F0F6FD01F002FB0028F9D104F0A8FA91
:101600003149486088608C700220087003B0F0BDDA
:10161000A078012823D100202070A07036A00FF000
:101620008FFF082000F08AF803B0F0BD00F054FBF3
:1016300001F0D6FD00F030FD01F0ECFA02F0A2FB63
:101640000AF098FA09F032FE01F010FE60780128E5
:1016500037D1012020700020607003B0F0BD04F08D
:1016600077FA6168401A194DA84206D918A00FF000
:1016700067FF0120207003B0F0BD04F069FAA16893
:10168000401A19214901C731884216D904F060FA7D
:10169000A06004F05DFA6168441A7D20C100204614
:1016A000FFF755F8AC4202D80521081A00E00020E7
:1016B00001B21520000201F04DFB01F091FD01F097
:1016C000A9FA03B0F0BDC0466801002088130000ED
:1016D00054696D656F75742120566F6C74616E640A
:1016E0006F2070617261206F206D6F646F20537482
:1016F0006F702E0D00000000436F6E6669726D61A1
:10170000646F21205265746F726E616E646F206128
:101710006F206D6F646F20617469766F2E0D00000D
:1017200074090020000400501870004001000100FE
:10173000AC0D0020CD270008E7700108F0B583B09C
:10174000044642A00FF0FCFE4A484BA10FF00EFAEF
:101750000025284601F0E2F901F042FD4D4804F071
:1017600081F80AF07DFB00286AD00294414C4A4976
:1017700020460FF0FBF90120019001F0CFF901F0B4
:101780002FFD7D20C6003746C837384604F06AF87A
:10179000424920460FF0EAF9022001F0BFF901F0BA
:1017A0001FFD384604F05EF83D4920460FF0DEF993
:1017B000032001F0B3F901F013FD304604F052F8B4
:1017C000FFF756FE37A120460FF0D0F9042001F0B4
:1017D000A5F901F005FD304604F044F80AF0DCFA02
:1017E00009F0AAFD36A120460FF0C0F9052001F04E
:1017F00095F901F0F5FC6436304604F033F802F058
:101800007FF9002817D01B4836490FF0AFF90620A2
:1018100001F084F901F0E4FC304604F023F832488A
:101820000FF08EFE029801F079F901F0D9FC019DCC
:10183000284603B0F0BD3B2001F070F901F0D0FC68
:1018400027480FF07DFE284603B0F0BD0D0A3E3E4E
:101850003E20494E494349414E444F204155544F43
:10186000444941474E4F535449434F203C3C3C0D63
:10187000000000009070010845786962696E646F2D
:10188000204C6F676F206520566572736F65732EED
:101890002E2E0000B80B00006C7101085071010879
:1018A0003971010856657269666963616E646F20FB
:1018B0005465726D6F6D6574726F2E2E2E00000070
:1018C00056657269666963616E646F204D656D6F00
:1018D00072696120454550524F4D2E2E2E0000005A
:1018E000C670010826710108A270010880B588B091
:1018F00015A00FF03BF916480FF038F907A806A914
:1019000005AA09F0D3FD002808D005A8037806A889
:10191000027807A801780FA00FF028F904A803A9FE
:1019200002AA01AB09F068FD002808D002A80378DC
:1019300003A8027804A8017811A00FF017F91BA0E2
:101940000FF014F908B080BD0A0D0A0D0000000068
:10195000EB1A0108417373696E617475726120201E
:10196000202020202020202020202020253032640C
:101970003A253032643A253032640A0D0000000006
:10198000526573706F6E736176656C202020202025
:101990002020202020202020253032642F253032A6
:1019A000642F253032640A0D000000000A0D0A0D74
:1019B0000A0D0A0D0000000010B586B0072901D8F5
:1019C0004C482FE0801D891F89B203AA0B2301F028
:1019D000C5FB002825D003A80078002829D0684638
:1019E000002484720481019400940B2102F08AF98E
:1019F000002826D069468C7203A8FEF7ECFB00286D
:101A000024D003A824A10822FEF7F3FB002825D048
:101A100023A003A90FF0AAF83E2001F07FF806B03A
:101A200010BD12A00FF08CFD3B2001F077F806B03E
:101A300010BD2F480FF084FD3E2001F06FF806B076
:101A400010BD3B2001F06AF806B010BD27480FF02A
:101A500077FD172001F062F806B010BD1AA00FF054
:101A60006FFD2E2001F05AF806B010BD4175746864
:101A70003A2046616C6861206E6F207061727365F8
:101A80007220726F627573746F2064612073656E6B
:101A900068612E0D0000000047484B403132330092
:101AA000417574683A2053656E686120696E636F92
:101AB00072726574612E20446967697461646F3A5B
:101AC00020272573270D0A00417574683A20456E5A
:101AD0007472616E646F206E612074656C61206445
:101AE00065205365727669636F210D0024740108C7
:101AF0003A7401085774010810B584B0082904D25B
:101B00003B2001F00BF804B010BD801D891F89B285
:101B100001AA0B2301F022FB002816D001A8FEF732
:101B200053FB002813D02E4C2178002917D0002019
:101B30002070641C01A92046FEF74DFB002820D030
:101B4000402000F0EBFF04B010BD12A000E01BA08D
:101B50000FF0F6FC3B2000F0E1FF04B010BD0428BC
:101B600004D23F2000F0DAFF04B010BD601C01A9D0
:101B7000FEF74CFB012020701F2000F0CFFF04B0C7
:101B800010BD204602F0F8F9172000F0C7FF04B09E
:101B900010BDC046417574683A2046616C6861208A
:101BA0006E6F20706172736572206465206E6F764F
:101BB000612073656E68612E0D00000041757468C8
:101BC0003A204E6F76612073656E68612076617A87
:101BD000696120646573636172746164612E0D00D4
:101BE000A001002070B582B01E4D286001AC002617
:101BF000267021460EF0B4FD002811D120780A2865
:101C00000ED119A00A2100F00FFA2868D2210EF097
:101C10000DFC00280AD01FA000F006FA02B070BD2B
:101C20002C4800F001FA2E6002B070BD28680EF05A
:101C3000EDFB002804D0254800F0F6F902B070BD95
:101C40002868D22421460EF099FD0EF00BFFFEF716
:101C50006AFD02460B461E48214600F0E5F902B037
:101C600070BDC046AC010020424154455249413A42
:101C700020425132353632322064657465637461B6
:101C8000646F2E2049443A203078253032580D0AAE
:101C900000000000424154455249413A2046414C1F
:101CA000484120616F20636F6E666967757261726B
:101CB00020706172616D6574726F7320646F204271
:101CC0005132353632322E0D0A000000C876010836
:101CD000887601085B760108F0B583B04C4C20682B
:101CE000002800D192E00EF035FE03F031FF61686C
:101CF000401AC0087D2800D288E003F029FF606008
:101D00000EF0ACFE4349FEF7B3FC002801D00424DA
:101D100023E00EF0A7FE04463F49FEF7A9FC002889
:101D200001D0032419E03D492046FEF7A1FC00281C
:101D300001D0022411E03A492046FEF799FC002820
:101D400001D0012409E037492046FEF767FC00284E
:101D500001D1044601E00020C443334D2888A1B2DC
:101D6000814205D01120000221B200F0F3FF2C8047
:101D700000F0D0FE682849D10EF070FE05460EF046
:101D800069FE04460EF05EFE07460EF05FFE01900F
:101D90000EF068FE02900EF051FE244E28463146A9
:101DA000FEF7C1FBFEF7A6FC0146214D284601F0D7
:101DB00031F820463146FEF7B6FBFEF79BFC0146A4
:101DC0002846703001F026F81A493846FEF7ABFB7A
:101DD000FEF790FC01462846803001F01BF8164CB7
:101DE00001982146FEF79FFBFEF784FC014628463A
:101DF000903001F00FF802982146FEF794FBFEF7B1
:101E000079FC0146A035284601F004F803B0F0BD86
:101E1000AC010020000090400000AA4200004842AF
:101E20000000F04100007041A600002000007A444C
:101E30009022000000401C460000204180B503486D
:101E400000F006F8774800F029F980BD6D1E000803
:101E500080B5E84900224A804A6088600A70012003
:101E60000102E648FEF78EF980BDC04670B5A0B00D
:101E7000002800D1A9E001466D467F26284632465B
:101E8000FEF78BF90024AC55FEF74AF906460168C7
:101E900028780A5CD20706D068780A5CD207AD1CA5
:101EA000002AF5D16D1E002800D18BE020212846A4
:101EB000FEF780F900281ED000210170811C3268D5
:101EC0004C1E2078135CDB0712D00878135CDB070C
:101ED0000DD04878135CDB0759D08878135CDB079A
:101EE000091D002BECD18C1E002803D003E00C460A
:101EF000002800D1044636492846FEF790F900280C
:101F000041D035492846FEF78AF9324E00283CD0A8
:101F100032492846FEF783F900283CD0304928464C
:101F2000FEF77DF9002838D02E492846FEF777F9CC
:101F3000002834D02C492846FEF771F9002830D00B
:101F40002A492846FEF76BF900282CD02849284654
:101F5000FEF765F9002828D026492846FEF75FF9E4
:101F6000002824D024492846FEF759F9002820D01B
:101F700022492846FEF753F900281CD020A0294604
:101F800000F052F81EE0134E16E0083614E04C1C28
:101F90000028AFD0AFE710360EE018360CE0203640
:101FA0000AE0283608E0303606E0383604E04036ED
:101FB00002E0483600E0503619A000F035F87168AC
:101FC00020468847174800F069F820B070BDC04629
:101FD00084730108F83C0108537301087A730108FF
:101FE00061730108697301086C7301087F7301084C
:101FF000897301088E730108597301087173010810
:102000000D0A436F6D616E646F20646573636F6E5C
:1020100068656369646F3A20222573222E000000F0
:102020000D0A00003573010883B0F0B582B007AC2B
:102030000EC4002828D0044607AB019301200102FA
:10204000144822460EF0D2FD01281DDB80480068AE
:10205000002819D00F4C2046FEF7B6F8002813D000
:1020600005467C4887884688701C03214902FEF794
:102070006EFBB94208D02078774A90557548418068
:10208000641C6D1E8EB2EFD102B0F0BC01BC03B077
:102090000047C046EC01002070470000F0B581B059
:1020A00000281ED004466A480068002819D020463F
:1020B000FEF78AF8002814D00546664887884688C7
:1020C000701C03214902FEF742FBB94209D0207877
:1020D000614A90555F4841806D1E641C8EB2002D90
:1020E000EED101B0F0BDC046F0B583B0594D2978AE
:1020F000002901D003B0F0BD0C2835DC08284CD0F5
:102100000A2835D0EC88FE2CF4D80646FEF708F8ED
:102110000068805D8006C00EECD038480655601C13
:10212000E88002A800224270067049480068002832
:10213000E0D002A8FEF748F80028DBD00446A888C3
:1021400001906E8802AF701C03214902FEF7FFFA6E
:1021500001988142CED038783F4A905569807F1CE3
:10216000641E8EB2EFD1C5E77F2816D00D28C9D1E5
:10217000E8880028BED0214900240C5401262E7086
:10218000A968002901D01D488847EC8031021B480E
:10219000FDF7F8FF2C7003B0F0BDE8880028A9D047
:1021A000401EE8802A4800680028A3D0032044028B
:1021B000688886B2701C2146FEF7C9FAA888814259
:1021C00098D0254A0823935569804E1CA64200D119
:1021D000002686428ED0202757546E80711CA14263
:1021E00001D305497118814284D09355698003B0A9
:1021F000F0BDC046C000002001FAFFFFD40F002050
:10220000B0B582B01248006800281FD0114CA088D9
:10221000618881421AD0002201920325814200D8B0
:102220006902091A89B2402900D340210A4A1018CC
:1022300001AA0AF055FA002808D10198002805D013
:10224000A18840186902FEF782FAA18002B0B0BDF1
:10225000D8070020C0000020D4100020F0B581B0C5
:102260001E4D281D1E49FDF78DFF1E4801210091BE
:1022700029606121A860E96000272F827F20C005C6
:1022800068611948E8611948281819491CC91CC017
:102290000A880280897881708726164C284620306B
:1022A00021681022FDF779FF30202F542846313065
:1022B0000A221149FDF74DFF28463030E16A226BB2
:1022C000C2828182A1692964C77228354034761E92
:1022D000E4D10A480099017001B0F0BDD416002085
:1022E000D816000073656E6805000200C81600006D
:1022F000F8760108101B010808770108600100202A
:10230000B0B58CB0002005900BA80AA909AA09F065
:10231000CDF8044608A807A906AA05AB09F06CF891
:10232000002C15D0002813D007A8037808A802783D
:1023300006A800780BA909780AAC247809AD2D7895
:1023400000AF33C70DA005A9FFF76EFE0CB0B0BDFE
:1023500002A0FFF7A3FE0CB0B0BDC0464572726F7D
:1023600020616F206C657220646174612F686F72E8
:102370006120646F205254432E0000004461746158
:102380002F486F72613A20257320253032752F2532
:102390003032752F32302530327520253032753A83
:1023A000253032753A2530327500000070B50028AE
:1023B00022D004462021FDF7FDFE002820D0002178
:1023C0000170861CFDF7ACFE0168751E28780A5C5A
:1023D000D20718D030780A5CD20713D070780A5C24
:1023E000D2073BD0B0780A5CD207361D002AECD168
:1023F000B51E002809D009E02DA0FFF74FFE70BDE3
:10240000002503E03546002800D105461A4920463C
:10241000FDF705FF002817D019492046FDF7FFFEFC
:10242000164E002815D017492046FDF7F8FE002863
:1024300018D015492046FDF7F2FE002817D013A04A
:102440002146FFF7F1FD70BD0C4E716828468847A4
:1024500070BD083671682846884770BD751C002815
:10246000D3D0D3E7103671682846884770BD183638
:1024700071682846884770BD55730108503D0108B2
:10248000A97301083A730108AD73010853756263BB
:102490006F6D616E646F204457494E2064657363AD
:1024A0006F6E68656369646F3A20222573220000AD
:1024B00055736F3A204457494E203C5049437C495C
:1024C0004E547C494E5433327C5241573E202E2E7E
:1024D0002E202876656A612048454C50290000006E
:1024E00080B586B0684608F0CDFE0AA0FFF7D6FD9D
:1024F0000198FEF718F902460CA00B46FFF794FD71
:102500000298FEF710F902460EA00B46FFF78CFD6D
:1025100006B080BD4461646F7320646520467265B7
:102520007175656E6369613A0D0A0000202050756F
:102530006C736F7320283173293A20252E31660D74
:102540000A0000002020457363616C6120413A203D
:10255000252E32660D0A000080B586B0684608F068
:1025600091FE0098FEF7DFF8024603A00B46FFF746
:102570005BFD06B080BDC0465065736F3A20252EC6
:10258000326620670D0A000080B509F005FCFEF7F1
:10259000CAF8024602A00B46FFF746FD80BDC046C2
:1025A00054656D706572617475726120696E7465D1
:1025B000726E6120646F204D43553A20252E32669D
:1025C00020430D0A0000000080B50248FFF766FDB9
:1025D00080BDC046A616010880B52E2000F050FB35
:1025E00080BD0000B0B584B0002825D001A90091BD
:1025F00019A103AD02AC2A462346FDF723FE0328AA
:102600001FD12878411EC9B21E291AD821784A1E26
:10261000D2B20B2A15D801AA127808F093FF00282D
:1026200014D001A8037802A8027803A801782848EA
:10263000FFF7FAFC04B0B0BD2648FFF72FFD04B049
:10264000B0BD09A0FFF72AFD04B0B0BD15A0FFF78B
:1026500025FD04B0B0BDC046256868752F256868A3
:10266000752F256868750000466F726D61746F2064
:10267000696E76616C69646F2E2055736F3A2053D2
:1026800045544441544520444428312D3331292FA9
:102690004D4D28312D3132292F59592830302D39BF
:1026A00039292E004572726F20616F207365746145
:1026B0007220612064617461206E6F2068617264B1
:1026C0007761726520646F205254432E0000000031
:1026D000C7730108B173010870B584B0002822D017
:1026E00001AE009617A103AD02AC2A462346FDF7C2
:1026F000A9FD03281CD12878172819D821783B294F
:1027000016D832783B2A13D808F02EFF002814D0B0
:1027100001A8037802A8027803A801782748FFF7E8
:1027200083FC04B070BD2648FFF7B8FC04B070BD50
:1027300008A0FFF7B3FC04B070BD15A0FFF7AEFC16
:1027400004B070BD256868753A256868753A2568D3
:1027500068750000466F726D61746F20696E7661F6
:102760006C69646F2E2055736F3A20534554544959
:102770004D4520484828302D3233293A4D4D2830D8
:102780002D3539293A535328302D3539292E00005B
:102790004572726F20616F207365746172206120D1
:1027A000686F7261206E6F20686172647761726514
:1027B00020646F205254432E00000000EE73010885
:1027C0009373010880B50BF069FB80BD10B5062935
:1027D00000D262E102785A2A00D05EE14278A52A4E
:1027E00000D05AE1C278832A00D056E142790379B9
:1027F0001B029A18082992B214D30023A94CA242B2
:102800000ED0A94CA2420BD0A84CA24208D083788B
:10281000DC1C8C4206D8C3189C785B781B021B1901
:10282000A34C2380A34B9A4218DDA44B9A4200DCB0
:102830006FE0A34B9A4200DD80E0A44B9A4200DD9A
:10284000C7E0A548824200D115E1A448824200D0E9
:1028500023E19748008800F017FE10BDA54B9A426F
:1028600015DCA64B9A4200DC77E0A548824200DDE9
:102870009BE081208001824200D1D9E0A3488242BE
:1028800000D00AE18A48008800F068FE10BD8A4B3B
:10289000D318312B00D97EE05B00C0467B449B8877
:1028A0005B009F443100BF00FA00FA00FA00FA0012
:1028B000FA00FA00FA00FA00FA00FA00FA00FA0048
:1028C000FA00FA00FA00AD00FA00FA00FA00FA0085
:1028D000FA00FA00FA00FA00FA00FA00FA00FA0028
:1028E000FA00FA00FA00BA00FA00FA00FA00FA0058
:1028F000FA00FA00FA00FA00FA00FA00FA00FA0008
:10290000FA00FA00FA00B200694A128808F050FF93
:1029100010BD734B9A422FDD724B9A424EDC8120E0
:10292000C001824200D189E005200003824200D02C
:10293000B3E05F48008807F089F910BD614B9A4207
:1029400053DC614B9A4200D198E081231B029A42EA
:1029500000D0A2E002F022F810BD19231B029A4217
:1029600000D180E06A4B9A4273D04E4B9A4200D01D
:1029700093E0FFF721F810BD6123DB019A4275D087
:102980005B4B9A426AD031200002824200D084E040
:1029900001F01CF810BD454B9A427FD05648824248
:1029A0007BD12020FEF7CAFE10BD5648824242D09D
:1029B0005548824271D109F04DF810BD4A4B9A42F8
:1029C00042D04A4B9A4268D1394A128808F032FE06
:1029D00010BD3F4B9A4257D03E4882425DD152498A
:1029E0003820088000F04CF910BD2120800282427E
:1029F0004FD08520000282424FD101F08BFF10BDE5
:102A00002B48008800F0D8FE10BD29480088411EE0
:102A10004842484100F0A0FE10BD2548008800F063
:102A200055FE10BD40491920088000F029F910BD5D
:102A300001F0B6FE10BD00F0E1FF10BD00201C4902
:102A4000085E01F0E1FE10BD1948008800F058FD55
:102A500010BD1748008800F035FD10BD144A1288DB
:102A600000F0D6FD10BDFEF733FD10BD104A1288F0
:102A700000F0E6FE10BD00F0B3FF10BD2A4968204B
:102A8000088000F0FDF810BD094A128800F036FFFA
:102A900010BD0748007801F085FB10BDFFF72CF84A
:102AA00010BDC046302000000F3000006030000034
:102AB000D00F00207F300000F1CFFFFF2F7000000B
:102AC0001F710000FF830000207100006F70000084
:102AD00070700000907000003070000060700000A6
:102AE0007F4000000F700000107000002070000098
:102AF000903000000E300000703000003F200000D9
:102B00005F200000602000009020000050200000A6
:102B100020200000044800887047C04680B5024964
:102B2000088000F0ADF880BDA400002080B5024808
:102B300002F040FD80BDC0466808002080B5024814
:102B400002F038FD80BDC046C408002010B5016801
:102B5000E84CA0680268914200D010BD002161706D
:102B6000E18006F0F5FAA06801680E220A621434CA
:102B70004022214606F021FA10BDC04610B5026879
:102B8000DC4CA06803689A4200D010BD6278012A2C
:102B90000BD106F0DDFAA06801680E220A62143437
:102BA0004022214606F009FA10BD0029EDD0206927
:102BB000401C2061E1800120607010BD0168CD489B
:102BC00082681268914200D07047002101707047FE
:102BD00010B5C84C00222261227062706280A06031
:102BE000E160A28006F0B4FAA06801680E220A62D1
:102BF00014344022214606F0E0F910BDBD480178AA
:102C0000002901D00120704741888088081A411EA0
:102C100088417047F0B591B0F44F787801282CD1F5
:102C200072B6FC8838693E46143601AD28463146F6
:102C30002246FDF78EFA00207870F88062B6B868F8
:102C400006F086FAB86801680E220A624022314610
:102C500006F0B3F9042C10D328785A280DD16878DF
:102C6000A5280AD101A88078C01CC1B28C4204D327
:102C7000FA68002A01D001A8904711B0F0BDC04603
:102C8000F0B581B072B6D9494B888C88D84AA34236
:102C90000CD28B884C88E4431B199BB20A2B0CD2B4
:102CA00062B6092B53D9012001B0F0BD4B888C8846
:102CB000E31A9B189BB20A2BF2D3040A00944F88A4
:102CC000CC4C5A26E6554F887F1C17404F804F88C2
:102CD000A525E5554D886D1C15404D804D8807276D
:102CE00067554D886D1C15404D804D88822767556E
:102CF0004D886D1C15404D804D88002767554D88C7
:102D00006D1C15404D804D88842767554D886D1C7E
:102D100015404D804D8866554D886D1C15404D8081
:102D20004D88012666554D886D1C15404D804D8897
:102D3000009E66554D886D1C15404D804D88605530
:102D40004888401C1040488062B6092BABD8002050
:102D500001B0F0BDF0B582B072B6A44A548895882F
:102D6000A34EAC420CD294885588ED436419A4B2AA
:102D7000082C0CD262B6072C48D9012002B0F0BD55
:102D8000548895882C1BA419A4B2082CF2D38DB2B8
:102D9000030A00932B0A01935388EF4D5A27EF54EF
:102DA00053885B1C334053805388A527EF545388C6
:102DB0005B1C3340538053880527EF5453885B1CBA
:102DC0003340538053888227EF5453885B1C334031
:102DD00053805388009FEF5453885B1C33405380CB
:102DE0005388E8545088401C304050805088019BE4
:102DF0002B545088401C30405080508829545088B3
:102E0000401C3040508062B6072CB6D8002002B07B
:102E1000F0BDC046F0B584B072B6CD4A54889588EE
:102E2000CC4FAC420CD294885588ED436419A4B2BF
:102E30000A2C0CD262B6092C59D9012004B0F0BD7D
:102E4000548895882C1BE419A4B20A2CF2D30B0ADF
:102E500003930B0C02930B0E0193030A0093538808
:102E6000FB4D5A26EE5453885B1C3B4053805388DD
:102E7000A526EE5453885B1C3B405380538807269D
:102E8000EE5453885B1C3B40538053888226EE549B
:102E900053885B1C3B4053805388009EEE545388FC
:102EA0005B1C3B4053805388E8545088401C38409A
:102EB00050805088019B2B545088401C38405080D3
:102EC0005088029B2B545088401C384050805088BA
:102ED000039B2B545088401C384050805088295404
:102EE0005088401C3840508062B6092CA5D800207C
:102EF00004B0F0BDCC000020F0B582B00022002963
:102F000024D0002822D0D14B9C68002C1ED072B651
:102F10005D889E88D04CB54210D29D885E88F6436D
:102F2000AD19ADB2A94210D803250A462A40009235
:102F30004E1E032E01900CD2002732E05D889E8841
:102F4000751B2D19ADB2A942EED962B6104602B07A
:102F5000F0BDA9430027019EF05D5A881D46BC4B79
:102F600098546A88521C22406A80F019427826469A
:102F70006C881A556A88521C32406A8082786C8844
:102F80001A556A88521C32406A80C2786C881A5579
:102F90002B4634466A88521C32406A803F1DB94233
:102FA000D9D1009A002A01981AD0C65D5D88A84937
:102FB0004E555E88761C26405E80012A10D0C019CE
:102FC00045785E888D555D886D1C25405D80022AA0
:102FD00006D080785A8888545888401C20405880F1
:102FE00062B60122104602B0F0BDC046CC000020FF
:102FF000FF010000B42E0020F0B5C3B00025002A68
:103000003DD000293BD01746904A9268002A36D01E
:10301000064602910846FDF7D7F80446B84200D3A9
:103020003C46611DCAB250087E2828D803AF7E7185
:103030008220F8700191B970A52078705A203870FC
:10304000300A3871B81D029915462246FDF781F8FD
:10305000E019FF21C171817172B67C4E7288E91C42
:10306000B3887D4C9A420DD2B2887388DB43D21864
:1030700092B291420DD8012591420DD962B62846EF
:1030800043B0F0BD7288B3889A1A121992B2914275
:10309000F1D900259142F1D8324626460295032304
:1030A0000846184000900198040628D09943002350
:1030B000674C104603ADEF5C4288A7544288521C0F
:1030C00032404280ED186A784788E2554288521CA7
:1030D00032404280AA784788E2554288521C3240EA
:1030E0004280EA78458862554288521C32404280CC
:1030F0001B1D9942DED1009A002A05D123E000234E
:103100001046009A002A1ED003A9CC5C458850497D
:103110004C554488641C34404480012A13D003ACCD
:10312000E418647845884C554488641C34404480D5
:10313000022A08D003AAD21892784388CA54418838
:10314000491C3140418062B6029D284643B0F0BD23
:10315000CC000020FF010000B42E0020F0B583B0A9
:103160001D4614460746501E164686417A1E3B46AB
:10317000934133400291012901D8002100E001214F
:103180000B406E1E2846B04118401CD001902046CE
:103190002946FCF7F7FF022D1BD30022022110461F
:1031A000029D7B185B1E1B78FF2B0AD0202B01D3BE
:1031B000A354401CC2B2964203D94B1CA9421946E3
:1031C000EFD3C0B206E0002C01D0002D04D103B033
:1031D000F0BD0020241801980021217003B0F0BD3B
:1031E000F0B581B072B6194C2078002803D1608800
:1031F000A188884202D162B601B0F0BD01202070E2
:1032000062B6A0886188884201D1002512E00021C1
:103210000F48104A104BA588455D5554A5886D1C74
:103220001D40A580A6884D1C6788BE4202D0FF299C
:103230002946F0D3A068AAB2064906F0D9FA0028B8
:1032400001D00020207001B0F0BDC046CC000020AD
:10325000B42E0020B42D0020FF010000E848012119
:1032600001707B48002101707047C046F0B58DB0F9
:103270007D20C700764E3078002805D002F068FC2B
:103280007168401AB84244D202F062FCB168401A38
:10329000B84257D302F05CFCB060FFF73BFC352826
:1032A00001D038284CD1FFF7A9FC00284AD1684644
:1032B00007F0E8FF72490198FDF735F9FDF71AFAB2
:1032C0000146704C20462030FFF7A4FDCE490298FD
:1032D000FDF729F9FDF70EFA014620463030FFF7D9
:1032E00099FD7078401C7070C0B205282AD3002068
:1032F000707008F051FD054608F01EF8C2492846D6
:10330000FDF711F9FDF7F6F901462046FFF722FD1A
:1033100018E002F01DFC70603078401E062800D9CD
:1033200081E0C0467844007940008744037F70768E
:103330006A858B00022030700E20FFF7EFFBA3E7B9
:103340000020707002F004FCF168401AB84200D20C
:1033500055E002F0FDFBF060FFF7DCFB01460839A9
:10336000292900D949E0C0467944097949008F44A8
:103370001446464646464646464646144646464651
:103380004614464646464646461446464646464641
:10339000464646464646464646140CA80BA90AAA87
:1033A00008F084F800282AD009A808A907AA06ABC3
:1033B00008F022F8002822D068461021417100212F
:1033C00001718222C2700B228270A52242705A22A1
:1033D0000270079A8271089AC27103224272099A96
:1033E00002720C9A82720B9AC27241730A9901732B
:1033F0000E21FFF781FD0DB0F0BD7728CDD00DB0C7
:10340000F0BD062030701220FFF788FB3CE7042057
:1034100030701020FFF782FB36E705203070112056
:10342000FFF77CFB30E7002030702DE70320307081
:103430000F20FFF773FB27E707203070002000F014
:103440008DF821E70020307002A00EF079F81BE71C
:1034500090010020444953504C41593A2053657122
:1034600075656E636961206465206D65646963617B
:103470006F2066696E616C697A6164612E0D00006F
:103480000AD7233C3022000080B5044804A1202242
:10349000FFF7B2FD3520FFF741FB80BD96400000ED
:1034A00041646A7573744672657175656E63793AC5
:1034B00020333030302E304B487A2B2F2D322E30A7
:1034C00000000000B0B505460824102809D02046A9
:1034D000FFF724FB102D09D107482146FFF70CFD0B
:1034E000B0BD0B20FFF71AFB102DF5D00348214685
:1034F000FFF702FDB0BDC04648160108501601088E
:1035000010B50A4C002807D0FEF7A8FE08A10F222C
:103510002046FFF771FD10BD09A11B222046FFF7D1
:103520006BFD3020FFF7FAFA10BDC0469640000050
:10353000506573657420636F6D706C65746F2100E6
:10354000507265736574207265646566696E652086
:103550006F7320616A75737465732100F0B591B063
:1035600085490978012903D1002803D008F0A0F982
:1035700011B0F0BD06AC204600F0AEFB207807AEDF
:10358000314600F08FFB684607F07CFE00F0B0FB90
:1035900004461C4D102228463146FFF72DFD202001
:1035A000315E2846C030FFF7D5FB0A2710987843D4
:1035B00001B22846E030FFF7CDFBF08C784301B232
:1035C0002846F030FFF7C6FB012C01D00F4900E080
:1035D0000D490598FCF7A7FFFDF78CF801469035DB
:1035E0002846FFF7B7FB012C04D07720FFF796FAA7
:1035F00011B0F0BD1320FFF791FA11B0F0BDC04635
:10360000A800002070200000000020410000C842F7
:10361000B0B594B0502A1ED101AC002020750590A1
:1036200004900390029001901521204600F026FBA3
:1036300007AD21A1284622460DF0C4FA2846FCF722
:10364000C3FD82B21B482946FFF7D6FC2320FFF7B3
:1036500065FA14B0B0BD01AC002222750592049247
:10366000039202920192801D891F89B2152322467E
:10367000FFF774FD002814D02078002811D001AC89
:10368000204600F041FC07AD07A1284622460DF078
:1036900099FA2846FCF798FD82B206482946FFF7BA
:1036A000ABFC14B0B0BDC046456D70726573613A35
:1036B0002025730096400000417475616C20456DB3
:1036C00070726573613A20257300000070B58AB08E
:1036D000154C502814D100F00BFB02466D4618A182
:1036E00028460DF06FFA2846FCF76EFD82B22046A0
:1036F0002946FFF781FC1B20FFF710FA0AB070BDC6
:10370000054600F029FC6E4608A130462A460DF019
:1037100059FA3046FCF758FD82B220463146FFF791
:103720006BFC0AB070BDC0469640000043617361F7
:103730007320646563696D6169733A2025750000C3
:10374000417475616C204E525F446563696D616CB4
:10375000733A20257500000080B5074908700028DD
:1037600004D109A10CA00DF001FA80BD03A10AA0AB
:103770000DF0FCF980BDC046A80000204841424938
:103780004C495441444100004445534142494C494D
:103790005441444100000000446973706C61792019
:1037A00048616E646C65723A20496D70726573731E
:1037B000616F2025730D0A0070B58AB0154C502832
:1037C00014D100F099FA02466D4617A128460DF073
:1037D000F9F92846FCF7F8FC82B220462946FFF7A3
:1037E0000BFC1A20FFF79AF90AB070BD054600F0ED
:1037F000BBFB6E4608A130462A460DF0E3F9304681
:10380000FCF7E2FC82B220463146FFF7F5FB0AB036
:1038100070BDC04696400000526570657469636F64
:1038200065733A2025750000417475616C204E5215
:103830005F52657065746974696F6E3A2025750012
:10384000B0B594B0502A1ED101AC0020207505906F
:1038500004900390029001901521204600F078FA20
:1038600007AD21A1284622460DF0ACF92846FCF709
:10387000ABFC82B21B482946FFF7BEFB2220FFF7B4
:103880004DF914B0B0BD01AC00222275059204922E
:10389000039202920192801D891F89B2152322464C
:1038A000FFF75CFC002814D02078002811D001AC70
:1038B000204600F091FB07AD07A1284622460DF0F7
:1038C00081F92846FCF780FC82B206482946FFF7BA
:1038D00093FB14B0B0BDC0465573756172696F3A01
:1038E0002025730096400000417475616C2055736B
:1038F000756172696F3A20257300000070B592B04F
:1039000014460D46064605A83221FCF73BFC002C68
:1039100022D06C4600202074039002900190009009
:10392000701D691F89B211232246FFF717FC00287A
:103930002CD02078002829D015A06C4621460DF007
:1039400015F9204600F02CFB05AD1DA128462246A6
:103950000DF038F9284612E03620FFF7DFF86C4604
:1039600000202074039002900190009011212046C5
:1039700000F0DAF905AD28462146FCF747FCFCF7D4
:1039800023FC82B21B482946FFF736FB12B070BDFC
:10399000446973706C61792048616E646C65723A39
:1039A00020526563656269646F206E6F766F207365
:1039B000657269616C3A20272573270A00000000B0
:1039C00053657269616C3A202573000080B509481F
:1039D00009490E22FFF710FB2120FFF79FF880BD59
:1039E00080B5044804490E22FFF706FB3220FFF79A
:1039F00095F880BD964000001574010810B5084C7C
:103A00002078002800D010BD06A00DF099FD0120FF
:103A1000207002F09DF860600D20FFF77FF810BD68
:103A200090010020444953504C41593A20496E6955
:103A30006369616E646F2073657175656E6369613A
:103A4000206465206D65646963616F2E2E2E0D0004
:103A50000148012101707047DC07002070B582B079
:103A60006E4D287803281BD001282DD1A989002963
:103A70001ED028696B692A8900937F231340802414
:103A8000E61A8E4200D30E460196A0210224234658
:103A900002F086FC00280DD001202871052412E0D8
:103AA00002F056F8A969401A05280DD301240AE04E
:103AB000042408E0686980196861A889801BA881CE
:103AC0002889801928812C7002B070BD534908796B
:103AD000012801D100220A717047C0464F490022D7
:103AE0000A710A70086170474C480078FB21014058
:103AF0004A1E9141401F421E904108407047C046F7
:103B000010B5464C2069002817D0A021022264235A
:103B100002F058F9002812D02069002811D02F484F
:103B20000DF00EFD206902F05DF8052001F09AFE0F
:103B3000206902F0EDF8206904E0002010BD0120AA
:103B400010BD0020A0210222642302F03BF90146AF
:103B50004042484110BDC046F0B583B00446002045
:103B6000002A38D00E46002935D015462B490A695F
:103B7000002A30D07D20C700009601950297A02131
:103B800002231046224602F0D9F9002814D0234817
:103B90000069002813D011480DF0D2FC1F480069BD
:103BA00002F020F8052001F05DFE1C48006902F0DB
:103BB000AFF81A48006903E0012003B0F0BD00200F
:103BC000009601950297A0210223224602F0B6F941
:103BD00001464042484103B0F0BDC046573E01088F
:103BE00070B50E4C2378FB251D406E426E415B1F65
:103BF0005D425D4135434B1E0E469E412E40551E93
:103C00001346AB413340012B06D161612081A28173
:103C10000020207101202070184670BD2001002076
:103C200080B5802001F0AEFE202001F0ABFE80BD0B
:103C300072B6FEE707480068406A704780B50548DD
:103C400004F0CEFD80BDC0460248006800214162FC
:103C50007047C046600D002010B54A1E0B469341C8
:103C6000441E0246A2411A40012A04D1D84B5C6985
:103C7000046098690860104610BDC046B0B54C1E7F
:103C8000A141421E054695410D40012D07D1A9498C
:103C9000DD4A51182246FCF780FA002101552846DA
:103CA000B0BDC04670B50246872801D3002300E0AE
:103CB00001234C1E0846A041184001280AD12823A0
:103CC0005343D14AD218203238CA38C138CA38C111
:103CD00078CA78C170BDC046002805D0CA49497964
:103CE000872900D300210170411E88417047C046DA
:103CF000C548C08B7047C046C348808B7047C046DC
:103D000087207047B0B54C1EA141421E0546954123
:103D10000D40012D06D1BC4908312246FCF73DFA81
:103D2000002101552846B0BDB0B54C1EA141421E30
:103D3000054695410D40012D07D1A449B24A5118BD
:103D40002246FCF72AFA002101552846B0BDC0469C
:103D5000B0B54C1EA141421E054695410D40012DB6
:103D600007D1A849A84A51182246FCF716FA0021A3
:103D700001552846B0BDC046A54900220A704860DA
:103D80004A707047B0B5FFF769FEFFF7ADFE002837
:103D900008D03F484078072811D801218140A82049
:103DA00001420CD0FFF792FE002809D054480DF0D4
:103DB000C7FB3748092141700DE035494870B0BD57
:103DC000334D687878440079400087440C1D2E11EB
:103DD00046523A5817044B480DF0B2FB2C480121CB
:103DE00081700020E9E728780028E8D00120E4E786
:103DF000FFF77AFE0028E2D10420DEE725A00DF0CF
:103E00009FFB00202870D8E73C480DF099FB6868BC
:103E1000002806D0D64CD84A214601F0D5F9D84919
:103E200060500020A8700220C7E733480DF088FBDF
:103E30000020CF49CF4AFFF7D3FE002817D0032038
:103E4000BBE721A00DF07CFBCF48C949C94AFFF769
:103E5000C7FE00280BD00720AFE726480DF070FB07
:103E6000C349C4480246FFF7BBFE00280DD1092014
:103E7000A3E7FFF739FE0028A1D106209DE7FFF751
:103E800033FE00289BD1082097E7052095E7C04620
:103E90006001002046534D20476572656E6369617D
:103EA000646F723A2053616C76616D656E746F2039
:103EB000617373696E63726F6E6F20636F6E636C94
:103EC0007569646F2E0D000046534D20476572657D
:103ED0006E636961646F723A2045736372657665DB
:103EE0006E646F206261636B757020322E2E2E0D12
:103EF000000000003B3F0108643F0108933F0108B8
:103F0000083F0108C83F0108B0B5044600280CD09E
:103F10000848974D281814222146FCF73EF9064818
:103F200000212954914801210170601E84412046DE
:103F3000B0BDC0464C1500005F150000862804D8AF
:103F40008A4901220A708A494871872801D30020D2
:103F5000704701207047C046844A01211170844A8D
:103F6000D08308467047C046804A01211170804ABC
:103F7000908308467047C046B0B5044600280BD071
:103F80007B4D284608300A222146FCF706F977487F
:103F9000012101700020A874601E84412046B0BD3C
:103FA000B0B5044600280CD07A48714D281810226C
:103FB0002146FCF7F2F80748002129546B480121FB
:103FC0000170601E84412046B0BDC046C816000086
:103FD000D4160020D7160000B0B5044600280CD037
:103FE0000848634D281814222146FCF7D6F80748E4
:103FF000002129545D4801210170601E8441204642
:10400000B0BDC04638150000D41600204B15000086
:1040100060010020F0B583B054484068002818D0F3
:104020000024534E534F204631463A46FFF794FD45
:1040300001210291504A00280ED0514835584B4872
:104040004068314601F0C0F8A8420AD1029803B096
:10405000F0BD002003B0F0BD484800210CF086FD03
:1040600005E00246474800212B460CF07FFD404EFC
:10407000384631463A46FFF76FFD002813D04048D6
:1040800035583A4A5068314616463B4A01F09CF88A
:104090000246A8420299084664D03A4835492B4660
:1040A0000CF064FD04E0354832490CF05FFD2F4E02
:1040B00035482F4D29463A46FFF74EFD002811D0CE
:1040C0002F482B490F5870682B4A01F07DF80246A3
:1040D000B8420299084645D02A482B493B460CF085
:1040E00045FD03E0254828490CF040FD281D2449E2
:1040F000FCF748F825480121019129606121A86059
:10410000E9602C827F20C00568612148E861214870
:10411000281821494CC94CC00A88028089788170CE
:1041200087271E4E2846203031681022FCF735F8CC
:1041300030202C54284631300A221949FCF709F85E
:1041400028463030F16A326BC2828182B1692964BB
:10415000C472283540367F1EE4D1044E0198307079
:1041600020460299317003B0F0BDC04660010020C6
:10417000D4160020DC160000B6050000823E0108BF
:10418000D8160000B83E0108B82D000073656E68AF
:1041900005000200C8160000F8760108101B01088F
:1041A00008770108F0B581B0134D69780A224A43B7
:1041B00080181249401880B2114E7178884219D285
:1041C000400030180421445E0EA021460CF0CEFCC5
:1041D000748000273770E0B2FFF7B0FE77700122DD
:1041E0006A702A70852000021449FEF705FF082036
:1041F000FEF794FC01B0F0BD2C000020F6FF00009B
:10420000C001002053656C6563616F207669612091
:10421000706573717569736120636F6E6669726D25
:104220006164612E20496E6469636520646F204774
:1042300072616F3A2025642E0D0A0000D8660108CD
:10424000F0B58FB00646C64C00276770FFF758FDE3
:104250000546002E009069D03078002866D0002DE9
:1042600000D147E1029603E07F1CAF4200D141E15B
:10427000F8B205A9FFF716FD0028F5D0317805A89A
:1042800003910029014600D000210078002831D098
:104290000197354605AE06E0049D6D1C0146707819
:1042A000761C00282FD02F78002F27D004950D469C
:1042B000FBF749FF04463846FBF745FF844204D12B
:1042C000002D3046E8D02846E6E7002D00D06E1CD1
:1042D0003078FBF738FF07460398FBF734FF874237
:1042E000314600D00021874201D0029DD7E70298D5
:1042F000451CD4E7039800060CD10CE0984C009DB7
:10430000029E019F07E02878954C009D029E019F28
:10431000000600D000210029A6D060781328A3D879
:10432000411C61704000201887809DE76178002D56
:1043300000D1E3E0132900D9E0E048002018002272
:104340008280481C022D00D2EAE0122900D9E7E061
:104350004000201801228280881C032D00D2DFE05B
:10436000112900D9DCE04000201802228280C81CFC
:10437000042D00D2D4E0102900D9D1E0400020184B
:1043800003228280081D052D00D2C9E00F2900D923
:10439000C6E04000201804228280481D062D00D26D
:1043A000BEE00E2900D9BBE0400020180522828023
:1043B000881D072D00D2B3E00D2900D9B0E04000E0
:1043C000201806228280C81D082D00D2A8E00C29E2
:1043D00000D9A5E040002018072282800846083056
:1043E000092D00D29CE00B2900D999E0400020184B
:1043F00008228280084609300A2D00D290E00A295E
:1044000000D98DE0400020180922828008460A3039
:104410000B2D00D284E0092900D981E0400020184A
:104420000A22828008460B300C2D79D3082977D8D0
:10443000400020180B22828008460C300D2D6FD3CF
:1044400007296DD8400020180C22828008460D30C4
:104450000E2D64D3062962D84000414A10180D225F
:10446000828008460E30009A0F2A58D3052956D864
:1044700040003B4A10180E22828008460F30009AF6
:10448000102A4CD304294AD84000354A10180F226C
:104490008280102208461043009B112B3FD3032932
:1044A0003DD843002E4CE3189A800A461132009BF7
:1044B000122B53D3122851D85000294A1018112218
:1044C000828008461230009A132A29D3012927D85E
:1044D0004000234A10181222828008461330009AA6
:1044E000142A1DD300291BD14000201813218180DC
:1044F000142015E06078002813D102E00846002857
:104500000FD1184831460CF031FB3C20FEF706FB7A
:10451000154816A11822FEF76FFD0FB0F0BD104C24
:104520006070EB4901224A70401EC0B2CD23434364
:10453000D80A431C0B7005AC124920460CF042FB14
:104540002046FBF741FE8521090282B2084621463A
:10455000FEF752FD00F018F80FB0F0BD1046DFE78F
:10456000C001002009760108964000004E656E6883
:10457000756D206772616F20656E636F6E74726116
:10458000646F210055760108F0B58BB0F64840788D
:104590000A2141437F4FCE193046083880B2F34D8F
:1045A00069787D4C88420DD240002818007901A915
:1045B000FFF778FB00280CD02046203880B201A9F4
:1045C000102204E02046203880B2C2490122FEF7C2
:1045D00013FDF01F80B2697888420AD24000281883
:1045E000007901A9FFF75EFB002807D001A910227E
:1045F00001E0B84901222046FEF7FEFCB01F38401A
:10460000697888420DD240002818007901A9FFF787
:1046100049FB00280CD02046203080B201A910228E
:1046200004E02046203080B2AA490122FEF7E4FCD3
:10463000701F80B2697888420DD240002818007936
:1046400001A9FFF72FFB00280CD02046403080B294
:1046500001A9102204E02046403080B29D49012289
:10466000FEF7CAFC301F3840697888420CD24000FF
:104670002818007901A9FFF715FB00280AD060343B
:10468000A0B201A9102203E06034A0B29149012236
:10469000FEF7B2FCF01E80B26978404C88420DD221
:1046A00040002818007901A9FFF7FCFA00280CD077
:1046B0002046203880B201A9102204E0204620388C
:1046C00080B284490122FEF797FCB01E3840697819
:1046D00088420AD240002818007901A9FFF7E2FABF
:1046E000002807D001A9102201E07A4901222046C2
:1046F000FEF782FC701E80B2697888420DD24000BD
:104700002818007901A9FFF7CDFA00280CD020461F
:10471000203080B201A9102204E02046203080B26F
:104720006C490122FEF768FC3740687887420DD259
:1047300078002818007901A9FFF7B4FA00280CD0F6
:104740002046403080B201A9102204E020464030CB
:1047500080B260490122FEF74FFC701C80B269787C
:1047600088420CD240002818007901A9FFF79AFA74
:1047700000280AD06034A0B201A9102203E06034FE
:10478000A0B254490122FEF737FC6520FEF7C6F9B6
:104790000BB0F0BDFEFF000020820000208300006F
:1047A000B0B582B00AA00CF0CBFE894D0120287074
:1047B00001AC002020702046FFF78EFA2078688038
:1047C0000BF0CAFD6620FEF7A9F902B0B0BDC046E5
:1047D0004772616F735F48616E646C65723A204521
:1047E0006E7472616E646F206E612074656C6120FE
:1047F00064652073656C6563616F20646520677212
:10480000616F732E0D000000B0B50446234D28786B
:10481000012841D1FFF774FA00283DD0611E052917
:104820003AD8C0467944097949008F4402190E35B7
:1048300035240220295E28A00CF098F900242C7061
:10484000A878FFF77BFB6C701AE06988491E0AB2F2
:10485000002A00D5411E698008B20BF07DFDB0BD75
:104860006988491C0AB28242F5DB0021698008B2DE
:104870000BF072FDB0BD0AA00CF062FE0020288093
:104880001348012242700270852000021149FEF790
:10489000B3FB0820FEF742F9B0BDC046C0010020BE
:1048A0004772616F735F48616E646C65723A205342
:1048B000656C6563616F202876696120736574613A
:1048C00073292063616E63656C6164612E0D000065
:1048D0002C000020D86601084772616F735F486141
:1048E0006E646C65723A204772616F202876696148
:1048F0002073657461732920696E6469636520277C
:104900002564272073656C6563696F6E61646F2E23
:104910000D0A0000B0B582B0134D2C78022C20D3C4
:104920001248007801281CD168782146FBF70FFF58
:10493000491C69700EA022460CF018F96A782B7891
:104940006C46154920460CF03DF92046FBF73CFC2F
:104950008521090282B208462146FEF74DFBFFF78A
:1049600013FE02B0B0BDC0462C000020C0010020E4
:10497000506167696E6163616F3A204D7564616E65
:10498000646F207061726120706167696E612025BB
:10499000642F25640D0A00005576010880B586B0A5
:1049A0000B4A1278012A10D1801D891F89B201AAF1
:1049B0001123FEF7D3FB002804D001A8FFF740FC29
:1049C00006B080BD03A00CF0BBFD06B080BDC046A4
:1049D000C001002046616C686120616F20657874B9
:1049E0007261697220746578746F206461207065EB
:1049F00073717569736120646F207061796C6F6188
:104A000064204457494E2E0D00000000F0B587B0D9
:104A1000002506955422825C012A03D102242046F7
:104A200007B0F0BD0646543601243470026893681E
:104A30005B0714D407694B68022B18D10420074385
:104A4000994887426DD19748C0430B68D9430143C9
:104A5000906A084090620024002B66D4D2E0816DF9
:104A600020220A4382653570204607B0F0BD0593C9
:104A700004231F438C4CA74262D10F683846894BF0
:104A80001840936A034393623802536983438968E9
:104A9000014086480840184350610024002F00D48C
:104AA000B0E0032082058248036819461140384669
:104AB000804F0490B84200D096E07A4F7F1CB942F4
:104AC00000D391E07A48036893431943754A51181B
:104AD000491C0160794800687949FBF738FE0C21D0
:104AE0004143481C06900698002800D18AE00698A9
:104AF000401E06900698002800D183E00698401ECC
:104B00000690069800287DD00698401E06900698CC
:104B1000002877D00698401E069006980028E6D117
:104B200070E00B680024002B6CD5FA480168624ADB
:104B300093426BD05F4A934264D10122920567E0B1
:104B40001F27059C27400F2400940397BC40076E45
:104B50000194A74302970C68524F3C42049462D0E0
:104B6000E4072F4667D1049FBC075FD47C075FD45E
:104B70003C075FD4FC061F465DD4049CA30671D499
:104B8000630671D4230671D4E30571D4049B9B059D
:104B900070D4049B5B056FD4049B1B056ED4049BEF
:104BA000DB046DD4049B9B046CD4049B5B046BD42A
:104BB000049B1B04009F3ED4049BDB0366D4049B30
:104BC0009B0365D4049B5B0364D4049B1B0363D4E5
:104BD000049BDB0262D4049B9B0261D4049B5B02B6
:104BE000DB1716271F4026E0334F0498B84209D13F
:104BF0000127BF053B4005D1C648036893431943CD
:104C000039430BE03570204607B0F0BD254A521CF1
:104C100011400322920503689343591801603570CF
:104C2000204607B0F0BD6300DF0E04E0012702E07C
:104C3000022700E00327039CA740029B1F4307664F
:104C4000059B9B08C06998420AD90198C043936AA2
:104C50000340049FB800000FA0401843906213E780
:104C6000049F11E70527E6E70627E4E70727E2E7C1
:104C70000827E0E70927DEE70A27DCE70B27DAE762
:104C80000C27D8E70D27D6E70E27D4E71027D2E761
:104C90001127D0E71227CEE71327CCE71427CAE75E
:104CA0001527C8E7FFFF7F000400008000FFFF7F9B
:104CB00008270140000200A4000400A830000020E2
:104CC000400D03000068006C70470000F0B589B02B
:104CD000044600200890002C76D00790A06D002894
:104CE00007D125465435204600F016F900202870DB
:104CF000E06501273D072668B068C00026D4B0688B
:104D00007F4901402943B1607E4800687E49FBF736
:104D10001EFD400008900898002817D00898401EF3
:104D200008900898002811D00898401E089008980C
:104D300000280BD00898401E08900898002805D03D
:104D40000898401E089008980028E7D1B0682842CB
:104D500008D1A06D10210143A165E06D01210791EB
:104D60000843E065B06804210140A26D10200240B4
:104D70005118A16D2BD106900F20C7433A46F33A44
:104D80001140891CA165B168C9077DD103900497C2
:104D900027462037216B4A1E91410D03A168227ED0
:104DA00092030A43617EC9031143A27E5003084364
:104DB000E36803432B430120C507216900290590BF
:104DC000029509DAA94308E0012009B0F0BD0143CA
:104DD000A165384609B0F0BD41050B43387B45005D
:104DE0001D433878012809D1002A11D0A06D202157
:104DF0000143A165E06D05990843E065626A002AF8
:104E00000CD0072080010240A16A1143294306E02B
:104E1000059800040543626A002AF2D12946F06829
:104E20003A4A02400A43F2600320820763681D4643
:104E30001540E16C387F01280ED1206C0090676C22
:104E4000A06C019000980743019807432F430F433C
:104E5000059807433D4600E00D43049F30692C4907
:104E60000140294331610298834203990CD0934257
:104E70000AD005988007834206D08804034025495C
:104E80000A688243D0180860706907229043656BF6
:104E900028437061706970218843A16B0901014347
:104EA0007161216901235805814203D000290BD18A
:104EB000B06A07E0B06AE06980001C301C21014044
:104EC0008F40206E3843B06270691040A8420AD10A
:104ED0000020E065A06D0121014302208143A1650E
:104EE000079809B0F0BDA06D0699084302218843D8
:104EF000A065E06D1843E065184609B0F0BDC046F6
:104F0000E8FFFF6F30000020400D03000102DEFFCC
:104F100002FCFF1F0827014080B58AB000210991DB
:104F200008910791069105910491039100680D493C
:104F3000884201D00AB080BD2020029002A802F071
:104F40001FFD002801D0FEF773FE01200005064971
:104F50000A6802430A6009680140019101980AB099
:104F600080BDC0460024014040100240F0B581B031
:104F70000D4604464069082801D1082704E020684E
:104F8000C068C0073FD1042700F0E2FD0646216853
:104F9000086838421CD001204202A36D1343A36568
:104FA000CA681205920F4AD1A27E002A47D10A6828
:104FB000120744D58A68520738D4224658324B68C3
:104FC0000C25AB434B60FF2502351368AB4334E03F
:104FD000002D1FD0681C10D108683842DBD108684A
:104FE0003842D8D108683842D5D108683842F3D061
:104FF000D1E7216808683842CDD100F0A9FD801BB7
:10500000A842F6D908E0A06D20210143A165012046
:1050100001B0F0BD00F09CFD542000212154A06D92
:1050200004210143A165032001B0F0BDA26D20233E
:105030001343A36522465C32E36D03431360227E73
:105040000020002A01D001B0F0BD0C220A6001B09E
:10505000F0BD000070B5014600688268022052076A
:1050600011D454228A5C012A0DD00C4654340120FC
:10507000054620700E460846FCF7DAF8002803D0F3
:1050800000202070284670BDB06D09490140012004
:1050900000020818B0650020F06531681C220A6023
:1050A00020708A68304B13401A1D8A6070BDC0465C
:1050B000FEF0FFFFF0B581B004465420205C0128CB
:1050C00002D1022001B0F0BD2646543601273770C8
:1050D0002068816849071FD481688268D20737D069
:1050E0000222114034D1816805220A40012A27D1C9
:1050F00081681D4A0A40911C81600321016000F013
:1051000027FD054620688068C00721D000F020FDFB
:10511000401B0328F6D313E08168890704D4816813
:10512000114A0A401032826000F012FD05462068E4
:1051300081684907D0D500F00BFD401B0328F6D34A
:10514000A06D10210143A165E16D5C34384605E096
:10515000FF200230A16D81435834002000223270BC
:105160003943216001B0F0BDE8FFFF7F70B5034611
:105170000120CC0720D0114C0C40651EAC41032609
:105180001546F541032D17D87D442D796D00AF44A8
:105190000B0105090B4C0C400ED105E0084C0C40EE
:1051A0000AD101E0002C07D11868416181681823F9
:1051B000994311438160002070BDC04680FFFF7F8E
:1051C00000FFFF7F0000FF7FF0B584B00E46022194
:1051D00041770468A16801252943A160016A01297A
:1051E0001ED002290ED0032928D1002A00D103E1C4
:1051F0000395032511462940042A00D3D2E0334603
:105200000025DEE057081ED0039503213B460B40E6
:1052100000937B1E032B029601971AD2002133E0E4
:10522000970814D003950323394619400091791E3D
:1052300003290296019349D200257AE0002145779F
:10524000084604B0F0BD0021D2073CD1D4E00021D3
:105250009EE08F43002135466B882E883604F31874
:105260002360EB88AE883604F31823606B892E899F
:105270003604F3182360EB89AE893604F3182360F3
:105280001035091D8F42E7D1009F002F029E14D0D8
:105290008B00F1184D88F35A1B045B192360012F12
:1052A0000BD0CB888D882D04EB182360022F04D0FF
:1052B0004B8909890904C918216001998900039D56
:1052C000D20700D198E0715A218095E09F430025D4
:1052D00031460E7836064B781B049B198E783602C1
:1052E0009B19CE789B1923600B791B064E793604E7
:1052F000F3188E7936029B19CE799B1923600B7AAD
:105300001B064E7A3604F3188E7A36029B19CE7A33
:105310009B1923600B7B1B064E7B3604F3188E7B98
:1053200036029B19CE7B9B19236010312D1DAF4295
:10533000CFD1009F002F029E26D0A900735C1B06D0
:1053400071184D782D04EB188D782D025B19CD78EE
:105350005B192360012F17D00B791B064D792D04A3
:10536000EB188D792D025B19CD795B192360022F23
:105370000AD00B7A1B064D7A2D04EB188D7A2D027C
:105380005B19C97A591821601146019B9943039D05
:1053900003231A407A441279520097442C011C24AA
:1053A000715C27E0AA430025334637682760776899
:1053B0002760B7682760F768276010362D1DAA425E
:1053C000F3D1002905D0AA001D469B58236001296E
:1053D00017D1039D10E072185278715C0902891888
:1053E0002180046808E072185378715C0902C918BA
:1053F000218091782170046821684577084604B0BF
:10540000F0BDAA18536823600229039DF4D0916867
:105410002160F1E7B0B50125002814D00446407F93
:10542000002804D100202077204600F031F8022027
:1054300060772079002808D0A168E2682046FFF74D
:1054400095FE002808D02846B0BD20680F4941616C
:10545000816818229143816000256079002801D07D
:10546000216900E0E943206801618168602291437D
:1054700062690A438260816880229143A2690A437B
:105480008260012060772846B0BDC046B71DC104C8
:1054900081B000680849884201D001B070470120FE
:1054A000000306490A6802430A6009680140009146
:1054B000009801B07047C0460030024038100240EA
:1054C00070B500282CD0014624314A78022A29D10F
:1054D000046822680E239A432260426C1568314B9F
:1054E0001D4015602568012295432560046C1C252C
:1054F00025401446AC40DA4D2E6826432E60846C5D
:10550000C56C6560046D002C05D025681D402560C4
:10551000436D806D58604A70002000220A7070BD93
:10552000012070BD0422C263012000220A7070BDF8
:1055300070B5242101244454014624314A78022ABA
:105540002BD103681A680E24A2431A601C6801223A
:1055500094431C60446C2568124B1D402560046C0C
:105560001C2525401446AC40BD4D2E6826432E60B8
:10557000846CC56C6560046D002C05D025681D40E9
:105580002560436D846D5C6000240C704A70816BF3
:10559000002900D08847204670BD0421C163204601
:1055A00070BDC046FFFEFFFFC06B70472521405C09
:1055B00070470000F0B585B0016C1C240C4004233A
:1055C0001946A140A64A121F15680A4603952A40AB
:1055D00056425641049005682A6817461F40784293
:1055E0007841304332D002950121022610463040E6
:1055F00047424741A640039B1E420D46019400D0FE
:105600003946049F3C462434002931D0082002400A
:10561000564256410198C340180700D53546002D23
:1056200024D1029A10680E2188431060012001469F
:10563000019A91408A4B1A680A431A60F863002164
:1056400021706070796B00290ED10FE02868800608
:1056500002D4286898432860814A10680843106083
:10566000049F396B002901D03846884705B0F0BD4A
:10567000029A1068800605D410680A2188431060D9
:105680000120607000202070754908683043086070
:10569000F96A0029E8D1E9E7F0B587B000284AD0D7
:1056A0000446014624310220069148702768386874
:1056B000344901403960344E30468030A06433486C
:1056C000381814252946FBF742F880008119206418
:1056D00005916164FC20384008382946FBF737F80B
:1056E0001C22024001210B469340E364A068049011
:1056F000E5682646103645CE0196E6690296266A8A
:10570000039628431043019A10430E46029908431A
:105710000399084339680143049A11433960B1037E
:105720001B488A420AD1002205990A606260036020
:10573000154613461BE0012007B0F0BD6168CFB2EB
:10574000059A17600360491E002203291546134677
:105750000DD8791E8A0082180023D36703250D40D7
:105760003346AB400B490B607C32BC300546002011
:10577000E06322656565A365069908704E7007B001
:10578000F0BDC0460F80FFFF00080240F8FFFDBFDC
:105790008408024044090240F0B583B00446242046
:1057A000205C012802D1022003B0F0BD254624353B
:1057B0006878012830D10092022068700020E063F0
:1057C0002668326801270297BA433260A26CE76C00
:1057D0005760226D0192002A02D0626DA76D57605A
:1057E000226C1C271740029ABA401D4F3F6817438E
:1057F0001B4A17607360A368102B009F3A4600D0C5
:105800000A46B260102B00D03946F1603168226B35
:10581000002A06D00E2209E002200021297003B0E0
:10582000F0BD04229143316032680A211143316096
:1058300002990902626C1368DB0302D513680B43FB
:105840001360019B002B02D01A680A431A6031686A
:10585000029A114331600021297003B0F0BDC046A7
:1058600004000240B0B5044600F072F90546601C21
:1058700002D004480078241800F06AF9401BA042C6
:10588000FAD3B0BD08000020F0B58AB0039000291B
:1058900070D00E46A648039A824201D0062000E04E
:1058A00005200B221207039B9B180A22D341029367
:1058B000042B00D302900398203001900027394632
:1058C0003C463A46009626E08F40039D28683843C0
:1058D00028601C203C46099F38400691079981406A
:1058E000D0088000019E33588B4306993350A86836
:1058F000A043A8606868089EB0436860E868A04359
:10590000E860009E059C521C3046D0403F1D891C1B
:10591000083400282ED00120904005463540F2D0B2
:10592000089009971820059420400F24079484407C
:1059300003271646BE437F4B9B1904931E6E0694A5
:105940002640029B83409E42BED1049C60347A4B29
:105950001868A84318605868A8435860754B1868C1
:10596000A84318605868A84358602068069B98436D
:105970002060A9E70AB0F0BD80B5202801D1FEF76C
:1059800067F880BDB0B50446074D2868204203D0B3
:105990002C60204600F00AF86868204203D06C6052
:1059A0002046FFF7E9FFB0BD0C1802407047000029
:1059B000F0B58AB0069009910B68002B00D1B4E0D5
:1059C0005B480699814201D0062000E005200B22A9
:1059D0001207069989180A22D1410091042900D39F
:1059E000009006982030019000252E460795294604
:1059F0000FE01A4362600899491C09980368184629
:105A0000C8400835B61C079A121D0792002800D11D
:105A10008BE0012420460891884003400393EAD09C
:105A2000049509994A6810211143122915D11C21A6
:105A3000079A114005960F2632468A40089BDB08DC
:105A40009F00019BDD599543099A12693240059EDA
:105A50008A402A43DA5109994A68032311461940BA
:105A6000B1400293B3403746069E35689D430D43CF
:105A700035603E46D9430591122A049D15D89440BD
:105A80002E490C420FD0069CA168059B1940099B2A
:105A9000DB68B3400B43A3601109089B994063681E
:105AA00083430B436360032AA5D0069BD8680599FE
:105AB000084009998968B1400143D960D0009AD55E
:105AC000182028400F218140089A029B9A43194CC4
:105AD000A218136E8B430099814019431166164832
