:020000040800F2
:1000000008560020D5000008E5B3000825A0000828
:1000100000000000000000000000000000000000E0
:10002000000000000000000000000000EDBA000821
:1000300000000000000000008DB4000881BB000833
:10004000E7000008E7000008E7000008E7000008F4
:10005000E7000008E7000008E70000088D3D000801
:10006000BDCE00086928000879280008E7000008CC
:10007000E7000008E7000008E7000008E7000008C4
:10008000E7000008000000000000000051BC00086C
:1000900000000000E7000008E700000829A00008B1
:1000A000E7000008E7000008E7000008E700000894
:1000B00055C600080000000000000000000000001D
:1000C0000348854600F068FE00480047D903010850
:1000D000085600200448804704480047FEE7FEE732
:1000E000FEE7FEE7FEE7FEE741BC0008C1000008AE
:1000F00030B5434351435C18010C130C0D465D436E
:100100002C1980B292B20546554351430A0C09049A
:100110004D1962415843010C00044019514130BD52
:1001200000487047D00E010810B50446FFF7F8FFED
:100130000068005DC007C00F10BD01466139192974
:1001400000D82038704701464139192900D820309D
:10015000704703460B439B0703D009E008C9121FF1
:1001600008C0042AFAD203E00B780370401C491C33
:10017000521EF9D27047D2B201E00270401C491EF3
:10018000FBD270470022F6E710B513460A46044634
:100190001946FFF7F0FF204610BD10B5044605E0F4
:1001A0000B780370401C002B00D0491C521EF7D264
:1001B000204610BDCAB2401E4178401C8A4202D07F
:1001C0000029F9D100207047421C0178401C002909
:1001D000FBD1801A704710B5002200E0521C835CEE
:1001E0008C5CA34201D1002BF8D1D8B2E1B2401A05
:1001F00010BD30B504460020034600E05B1C93426E
:1002000003D2E05CCD5C401BF8D030BD03460A78D9
:100210000270401C491C002AF9D118467047F8B5F5
:100220000E460546002400E0641C285DFFF78BFFA6
:100230000746305DFFF787FF381A02D1295D002994
:10024000F2D1F8BD0FB400B58DB009900B9010A994
:1002500000200091C0430A9000200C9006480690B0
:10026000064807906A4609A80F9900F0A9FA0DB050
:1002700008BC04B018470000E107000801080008A6
:10028000FFB50027FF4383B000205C6801909E68A3
:100290001D46A9697F1C049888470090296A8847F1
:1002A0000028F6D10098401C0CD003204002844363
:1002B000002E19DD600614D500982B2809D02D28B2
:1002C0000FD103E00020C04307B0F0BD0120800241
:1002D0000443A9697F1C04988847761E0090002E6D
:1002E00002DD0098302803D00598002825D035E09D
:1002F000012040020443A969761E7F1C04988847A8
:100300000090002E03DD782805D0582803D00598EA
:10031000002810D022E00598002801D010281DD117
:10032000012040028443A969761E7F1C04988847F7
:100330000090102002E0082000E00A2005900DE067
:10034000012149020C43059A0199761E5143081870
:100350000190A9697F1C049888470090002E05DD54
:100360000599009800F016FA0028E9DAE96904987E
:100370008847A00502D40120C043A5E7E00722D1A9
:10038000600611D56005019800D5404229680A1D14
:100390002A600968220501D5087014E0220701D5FA
:1003A000088010E008600EE02868011D29600068E0
:1003B000210502D50199017005E02107019901D5B8
:1003C000018000E0016038467EE70000F7B5009C40
:1003D0000F4600262578641C002D05D0FFF7A0FEEF
:1003E0000068405DC007F5D12B2D02D02D2D18D00F
:1003F000641E39462046029A00F014FA002F04D0F9
:100400003968A14201D1009939607105022400299F
:100410000BDA4042002803DD10F08EF80460A007DC
:10042000FEBD012080020643E3E70028F8DA10F061
:1004300083F804600048FEBDFFFFFF7F70B50646ED
:1004400010F07AF8046805460A2200213046FFF7CA
:10045000BDFF2C6070BD70B5064610F06DF80468E5
:1004600005460A2200213046FFF7B0FF2C6070BD20
:10047000F8B502464A40D40F42004B0052085B08D0
:100480009A4202D20246084611464A0023D0C30DC2
:100490004A00DDB2120EAD1A202D35DA49020126CE
:1004A000490AF6058A19002C00D0524220214F1B20
:1004B0001146B9402A411018C20D9A4221D0002C91
:1004C00017D0012D08DCDA05801AD20F8019D20767
:1004D000DBB200F002FAF8BDDA05801A0123400011
:1004E0001B06C01880185A428018CA0F10434900D2
:1004F00007E04908C2071143DA05801A801940084D
:10050000801800F0E2F9F8BD61000122511A001BC9
:10051000F7E70122D2075140AAE70122D207504053
:10052000A6E7024670B54A40D30FDB0740002DD046
:100530004A002AD0010E140E000212020919400AC4
:10054000520A8418E50104465443000A120A2E0494
:100550005043A4194219200CC543AA18120C0125B6
:10056000AD03521C521912047F39240400D0521CCE
:10057000104301D44000491EC2B20C06C009201825
:10058000401C4008802A02D003E0002070BD4008D3
:100590004000002900DA0020184370BD70B5024603
:1005A0004A40D50F40004A00ED0740085208002895
:1005B00014D0002A12D0C40DD30D41020120C00571
:1005C0005202490A520AE41A091812187D3491425B
:1005D00001D3641C00E04900002C01DA002070BD4A
:1005E0000023914201D3891A03434008490000289F
:1005F000F7D100290AD0914202D10121C90705E0B3
:10060000914201D2012101E00121C943E005C01856
:10061000401900F05AF970BD0122D207002800DB12
:10062000101A002900DB511A814201D201207047C3
:10063000002070470122D207002800DB101A002991
:1006400000DB511A814201D9012070470020704718
:10065000C217C10F504010B54018CA079623002199
:1006600000F03BF910BD10B500229623114600F0B2
:1006700034F910BD0EB5C217C10F5040CA0740185B
:100680000021054B0293019200910A460B4600F0AF
:100690006AF903B000BD000033040000C20F41003E
:1006A00040020123400ADB05D207090EC0187F294A
:1006B00001DA00207047962903DC9623591AC840B6
:1006C00001E096398840002AF4D040427047C20FBA
:1006D000D207400040080BD0C10D0723DB01C91829
:1006E00040020905400A1143C20840071143704700
:1006F00000200146704770B50446002903D0002051
:100700002022012310E0002801D00020C043C04671
:10071000C0460DE02546D5408D4205D30D46954097
:10072000641B1D46954040191546521E002DF1DCF4
:10073000214670BDF0B51FB40646002082B00546C4
:100740004024019100901BE0019922460F4630465B
:1007500000F04AFB049A059B801A994110D3104679
:100760001946224600F030FB361A8F410197224687
:1007700001200021009F00F027FB38184D41009018
:100780002046641E0028DFDC019B00982946324683
:1007900007B0F0BD3A2800D23038202302469A43F1
:1007A000412A01D310463738884201D30020C04384
:1007B00070470000026813785118016018467047AE
:1007C00010B5D160044951610449116200211161E1
:1007D000114600F02DFB10BDB507000829010008E7
:1007E0004268002A08D001680B78491C002B03D00E
:1007F000521E06C0184670470121C160881E70470E
:100800004268002A0BD0C3680168002B07D18368B7
:100810008B4204D0491E521C06C0002070470020A5
:10082000C0437047F7B582B0029C00272078641C53
:1008300015460197302802D0002D15D015E02078FC
:100840000127641C782804D0582802D0002D09D034
:100850000BE0002D01D0102D07D1002710252078A6
:10086000641C02E0082500E00A250026009610E03E
:100870000099012769430818020C294680B2714388
:1008800000908E183804864201D301200190207810
:10089000641C2946FFF77EFF0028E9DA0398002848
:1008A00005D0002F01D0641E00E0029C0460019876
:1008B000002806D00FF040FE02210160C81E05B0DE
:1008C000F0BD009930040843F9E7002904DA401C20
:1008D000490001D140084000704770B40024050C65
:1008E00005D11024000402D1002921D01124050EC5
:1008F00001D100020834050F01D10001241D850F2C
:1009000001D18000A41C002801DB4000641C0029E8
:1009100008D020252E1B0D46F540A14000D0012116
:100920002943084301061B1B000ADB1D02D50020DA
:1009300070BC7047DB05181880180029F8DA401CD5
:100940004900F5D170BC40084000704710B5002B3D
:1009500008DA0024401C614192185B411A4301D11E
:100960004008400010BDF0B51FB482B005460C0031
:1009700003D008460FF0C8FD02E00FF0C5FD20309F
:10098000024600902146284600F01EFA049B059A74
:1009900004460F4618431143084314D01846104329
:1009A0001BD0009840210A1A1846059900F01CFA3D
:1009B00005460E46009A0599049800F005FA08438A
:1009C00005D0012004E02046394607B0F0BD0020E4
:1009D000C11705430E432C43374300990E98630516
:1009E000401A7905E40A00220C43FD0A0A3002D5B8
:1009F00000200146E9E70105101969410C9C0D9D95
:100A000000196941FFF7A2FFDFE70000F0B50746D4
:100A10000846584087B0C00F049048000E46590061
:100A200040084908BC1A884105D2384631461E465E
:100A300017460B4602465800400810434CD0300D74
:100A4000039040055900400D490D0590401A029051
:100A5000402872DA18030121000B090508430190B0
:100A600004980092002805D0019952420020884144
:100A700000920190029840210A1A0199009800F012
:100A8000A3F905460C466B4607CB00F0BEF9C0192A
:100A90007141039A0E0D0023D71756401A467A402B
:100AA000164344D0049A002A2DD0029A012A039AB0
:100AB00015DC1205C01A914101263605001C714152
:100AC000D20F059ED2070093019202962A46234632
:100AD000FFF749FF07B0F0BD38463146FAE7160583
:100AE000224A0F46B218C01AB74101210905001C5D
:100AF0004F4100187F41114618187941E20F104309
:100B00006D19644113E0E2076D0815436408C207DC
:100B10001443039A01261205C01A91413605001CA0
:100B20007141CE07400830434908C01851412A4658
:100B30002346FFF70BFFCDE7FFE7049801224000B3
:100B4000C117121A00238B4104983146C417381A72
:100B5000A141EEE730B40124E407634030BC55E71F
:100B600030B40124E407614030BC4FE70000E0FFEF
:100B7000F0B51FB488B00B99099800244840099932
:100B8000C00F490049080991C0070B99009049001E
:100B900049080B9109990898A64608431CD00B995F
:100BA0000A98084318D0099801244000420D4800D3
:100BB000410D099824050003000B204309900B9870
:100BC0000003000B20430B9050181C4940180022D2
:100BD00001901446104605E0002001460DB0F0BD1E
:100BE000032801DA034600E003239C46C11A0AAE3B
:100BF0000AE05F0008ADED5B4F00F75B7D43002727
:100C0000AA187C41491C5B1E6145F2DD410004AB22
:100C10005A522104120C0A43240C401C0828DFDB22
:100C2000019802900099704601910090059B049AEA
:100C300007990698FFF797FED0E700000DFCFFFF2D
:100C4000F0B50C465C4085B0E40FE40703944C001B
:100C50000026640859009446490802460296224339
:100C600021D062460A431ED06200570D4A000E038F
:100C70002303550D012402462C492405781B1B0B28
:100C8000360B401823432643614600901C46501AF9
:100C9000B44103D30098401C009002E092180098E1
:100CA0005B41002803DA0020014605B0F0BD0020BA
:100CB000012109050746864611E064461D46141BBE
:100CC000B54106D36546521BB341744607430C43F6
:100CD000A646CD0740084908284392185B410546BF
:100CE0000D43EAD11046184313D0604619465040D0
:100CF0007140084306D06046101AB34106D2012263
:100D0000002306E000220123DB0702E00122D24398
:100D10005310009874460105381C6141029C039DE4
:100D200000196941FFF712FEBFE70000FD03000054
:100D30004A0009030123090B1B0519430A4B10B58F
:100D4000520D9A4202DA0020014610BD064B3433A0
:100D50009A4203DC9A1A00F047F810BD034BD218F0
:100D600000F032F810BD0000FF030000CDFBFFFFD4
:100D700010B5002904DB0124E40740428C412146E0
:100D8000002B04DB1C460123DB075242A34199429E
:100D900000D1904210BD00001CB5094800900948E0
:100DA000019005460126009C05E0E36807CC33432B
:100DB0000C3C98471034AC42F7D3FFF785F900009C
:100DC000C06E0108E06E010810B5202A04DB014660
:100DD000203A9140002010BD914020239C1A0346E8
:100DE000E3401943904010BD10B5202A04DB0846AB
:100DF000203AD040002110BD0B46D340D0402024E3
:100E0000A21A91400843194610BD10B5202A06DBEE
:100E1000CB170846203A1041C1170B4306E00B469A
:100E20001341D0402024A21A91400843194610BD16
:100E3000F3B58DB000200A9001200B9000260846E3
:100E40000C300C4609906269012109989047051EF3
:100E50002ED0252D2DD0216A8847002818D0626910
:100E6000012109989047216A88470028F7D1411E3F
:100E700062690998904700E0761CA1690D9888473F
:100E8000216A88470028F7D1E1690D988847DAE799
:100E9000A1690D9888470746A84201D1761CD2E780
:100EA000E1690D9888477F1C02D10A98002877D005
:100EB00049E1002762693D463946099890472A284A
:100EC0000CD16269012109989047012506E00A21A9
:100ED0004F433F18303FEBD4102005436269012196
:100EE00009989047014630390A2903D29B498F421D
:100EF000DEDCECE7E90600D4994F6C280AD04C28D8
:100F000010D0682824D06A282ED074280CD07A28D3
:100F10000AD00DE062690121099890476C2823D01E
:100F200004211CE0202005436269012109989047B3
:100F3000A760656065284FD026DC582839D01ADCB8
:100F4000452849D012DC252834D04128B0D143E0CF
:100F50006269012109989047682802D008210D4351
:100F6000E6E70120C002DEE70220DCE7462833D0B6
:100F700047282CD130E05B2870D061282CD0632822
:100F80006CD0642823D161E06F284FD009DC66283B
:100F900022D0672820D0692826D06E2817D12EE0CD
:100FA000CDE070284DD073286FD075284ED07828AA
:100FB0000DD154E0A1690D9888470546252800D138
:100FC0006CE7E1690D9888476D1C00D16DE7BAE0C8
:100FD0000A224CE00A2252E0012023466A46C0431E
:100FE0000D99C046C046A3E02846402108436060F2
:100FF000A807234601D5002239E000223FE0E80798
:1010000000D020E72068011D21600068290501D576
:10101000067018E7290701D5068014E7A90703D54C
:10102000F117066041600EE706600CE72846402194
:1010300008436060A807234601D5082217E008226C
:101040001DE0484928460840606016E028464021D7
:1010500008436060A8072346BCD5B9E715E02846D9
:10106000402108436060A80707D5234610220120CD
:10107000C0430D99C046C0465AE0234610220120C5
:10108000C0430D99FFF7FCF852E000210C910B468C
:101090000091632802D05B2807D043E0E80601D422
:1010A0000120A060012000903CE0626901210998C4
:1010B00090475E2805D101200C900146626909988D
:1010C00090472169002906D10B4601AA8F00491CCF
:1010D000D3510829FADB002835D0216900290ED127
:1010E000C117C90E09184A11930001AA9A18490993
:1010F0004901411A01201368884003431360626963
:101100000121099890475D28E5D10C98002808D066
:10111000002001AB81005A58401CD2435A50082885
:10112000F8DB01AB01202246C0430D99C046C04602
:1011300000280ADA401C06D10B98002803D00020B2
:10114000C0430FB0F0BD0A98FBE7E90702D10A9946
:10115000491C0A91361800200B9074E6CCCCCC0CBC
:10116000FFFFFF7FF1F7FFFFF0B581B005460024D8
:10117000009400688168C9071CD181682B4A2F320E
:1011800011420AD0A86D10210143A965E86D012420
:101190002043E865204601B0F0BD8168234A114034
:1011A00001273943816022480068000205D4687E27
:1011B000012825D1204601B0F0BD1E4800681E4917
:1011C000FFF799FA401C009000980028EFD0009893
:1011D000401E009000980028E9D00098401E009022
:1011E00000980028E3D00098401E00900098002846
:1011F000DDD00098401E009000980028E7D1D6E787
:1012000004F05AFE064604E004F056FE801B032854
:10121000B8D228680168C907CCD18168C907F3D161
:101220008168024A114039438160EDE7E8FFFF7FA2
:101230000827014030000020400D0300F0B583B0C6
:1012400067490A684968401A86185249CF680120E0
:101250000023BE4202460EDD4C68A64205460FDA68
:101260001543012D10D14D69AE4213DC0022BE4260
:10127000034613DA13E01A464C68A6420546EFDB34
:101280001D461543012DEED00D4608350868A742CE
:1012900017D043E00122BE42034600DB1346012B78
:1012A00006D1CB699E420EDC0022AE420EDA0EE081
:1012B00028460D46103508313C4607460868A742C7
:1012C0002CD103B0F0BD0122AE4200DB10460295E6
:1012D00000281BD0A6423BDA886809680291FFF714
:1012E00018F90546381BFFF7B3F901462846FFF702
:1012F00055F90546301BFFF7ABF901462846FFF7C5
:1013000010F90299FFF7B4F803B0F0BD0D46183597
:101310001031029C1F460868A742D2D0391B0746ED
:101320000846FFF795F9029028683946FFF7F1F86B
:101330000299FFF733F90546301BFFF789F901469B
:101340002846FFF7EEF83946FFF792F803B0F0BDF4
:101350008869019009691C46FFF7DBF80746029887
:10136000201AFFF775F901463846FFF717F90546C9
:10137000301BFFF76DF901462846FFF7D2F80199B7
:10138000FFF776F803B0F0BD0248406814490860E2
:101390007047C0468000002080B5322004F016FC63
:1013A000004880BDF895030080B503A00FF03EFD16
:1013B0000B490C48486080BD414453313233323AC6
:1013C000205461726520656D206D6F646F206465C7
:1013D0002073696D756C6163616F2E0D00000000F4
:1013E0003C010020CD9703007D20000105494860A5
:1013F0007047C046704700007D20000101498860A9
:101400007047C046900100207948012181707047E3
:1014100080B59148914901F0F9FA0E4802F09AFB23
:101420000D4802F06FFE0D480AF0B4F809F080FF95
:1014300001F00EFF0AF05CFB02F0BEFDFFF7A4FF17
:1014400002F084FF064809F0BFFF064809F0C4FF18
:1014500080BDC046FC08002020080020300C002081
:1014600000008E420AD7CD41F0B583B0604C2078A1
:10147000022865D0012871D10EF0D4F80EF0D0FC0E
:101480000EF056FD704805F009FB642004F09EFB49
:10149000052000070290012671020191324604F0F6
:1014A00003FD19204701384604F090FB67482025CA
:1014B0002946324604F0F8FC384604F087FB6448BD
:1014C0006449016000242046314606F063FB0AF0BF
:1014D0005BFB142004F07AFB09F07AFE09F0DEFED3
:1014E00009F042FE5C485D4901F090FA5C480FF05B
:1014F0009DFC56482946224604F0D6FC384604F0A6
:1015000065FB02980199224604F0CEFC384604F0AF
:101510005DFB632001F0A0F901F0AEFA002805D0D0
:1015200001F046FE01F0A8FA0028F9D104F0C4FC4D
:101530002F49486088608C700220087003B0F0BDAD
:10154000A07801281FD100202070A07034A00FF0D7
:101550006DFC082000F086F803B0F0BD01F028FE15
:1015600000F05AFB01F094FA0AF0CEFA09F0EAFE14
:1015700001F076FE6078012837D10120207000202C
:10158000607003B0F0BD04F097FC6168401A194D1B
:10159000A84206D918A00FF049FC0120207003B022
:1015A000F0BD04F089FCA168401A19214901C73136
:1015B000884216D904F080FCA06004F07DFC6168CC
:1015C000441A7D20C1002046FFF795F8AC4202D8AE
:1015D0000521081A00E0002001B21520000201F0E8
:1015E0005BFB01F0E5FD01F053FA03B0F0BDC0462E
:1015F0004C0100208813000054696D656F757421DB
:1016000020566F6C74616E646F2070617261206F20
:10161000206D6F646F2053746F702E0D00000000FA
:10162000436F6E6669726D61646F21205265746FDD
:10163000726E616E646F20616F206D6F646F2061E8
:101640007469766F2E0D00005009002000040050D0
:101650001870004001000100880D00205525000889
:10166000CE6A0108F0B583B0044642A00FF0DEFB5D
:101670004A484BA10EF0F0FE0025284601F0ECF898
:1016800001F096FD4D4804F0A1FA0AF0B1FB0028E4
:101690006AD00294414C4A4920460EF0DDFE0120FA
:1016A000019001F0D9F801F083FD7D20C600374696
:1016B000C837384604F08AFA424920460EF0CCFE7C
:1016C000022001F0C9F801F073FD384604F07EFAFB
:1016D0003D4920460EF0C0FE032001F0BDF801F0A8
:1016E00067FD304604F072FAFFF75EFE37A1204630
:1016F0000EF0B2FE042001F0AFF801F059FD3046C3
:1017000004F064FA0AF010FB09F062FE36A12046EC
:101710000EF0A2FE052001F09FF801F049FD6436AD
:10172000304604F053FA02F01BFA002817D01B4889
:1017300036490EF091FE062001F08EF801F038FDDA
:10174000304604F043FA32480FF070FB029801F083
:1017500083F801F02DFD019D284603B0F0BD3B202C
:1017600001F07AF801F024FD27480FF05FFB2846CE
:1017700003B0F0BD0D0A3E3E3E20494E494349416B
:101780004E444F204155544F444941474E4F5354C6
:1017900049434F203C3C3C0D00000000776A0108A3
:1017A00045786962696E646F204C6F676F206520B1
:1017B000566572736F65732E2E2E0000B80B0000F5
:1017C000536B0108376B0108206B0108566572697D
:1017D000666963616E646F205465726D6F6D6574C8
:1017E000726F2E2E2E000000566572696669636165
:1017F0006E646F204D656D6F726961204545505272
:101800004F4D2E2E2E000000AD6A01080D6B010811
:10181000896A010880B588B015A00EF01DFE164833
:101820000EF01AFE07A806A905AA09F08BFE0028EB
:1018300008D005A8037806A8027807A801780FA0A9
:101840000EF00AFE04A803A902AA01AB09F020FECB
:10185000002808D002A8037803A8027804A8017819
:1018600011A00EF0F9FD1BA00EF0F6FD08B080BD32
:101870000A0D0A0D00000000920F01084173736900
:101880006E6174757261202020202020202020208D
:1018900020202020253032643A253032643A253029
:1018A00032640A0D00000000526573706F6E736140
:1018B00076656C2020202020202020202020202041
:1018C000253032642F253032642F253032640A0DE2
:1018D000000000000A0D0A0D0A0D0A0D00000000AC
:1018E00010B586B0072901D84C482FE0801D891F0C
:1018F00089B203AA0B2301F0FDFB002825D003A821
:101900000078002829D0684600248472048101945C
:1019100000940B2102F0BCFB002826D069468C7293
:1019200003A8FEF758FC002824D003A824A108220D
:10193000FEF75FFC002825D023A003A90EF08CFD44
:101940003E2000F089FF06B010BD12A00FF06EFA25
:101950003B2000F081FF06B010BD2F480FF066FA63
:101960003E2000F079FF06B010BD3B2000F074FF70
:1019700006B010BD27480FF059FA172000F06CFF91
:1019800006B010BD1AA00FF051FA2E2000F064FF2F
:1019900006B010BD417574683A2046616C686120DC
:1019A0006E6F2070617273657220726F62757374EE
:1019B0006F2064612073656E68612E0D0000000069
:1019C00047484B4031323300417574683A205365C3
:1019D0006E686120696E636F72726574612E204457
:1019E0006967697461646F3A20272573270D0A00BF
:1019F000417574683A20456E7472616E646F206E32
:101A0000612074656C61206465205365727669633A
:101A10006F210D004D6C0108636C0108A06C01087A
:101A2000B0B584B0082921D3801D891F89B201AACD
:101A30000B2301F05FFB002813D001A8FEF7C4FBC5
:101A4000002810D04A4C2178002914D000202070A2
:101A5000641C01A92046FEF7BEFB002817D04020D9
:101A600005E030A000E039A00FF0E0F93B2000F0E5
:101A7000F3FE04B0B0BD042801D23F20F7E7601C9C
:101A800001A9FEF7C3FB012020701F20EFE72046CD
:101A900002F012FC3C2000F0DFFE364D36A1112290
:101AA000284601F071FA00F0E7FF002805D001F0A8
:101AB0007FFB00F0E1FF0028F9D1642004F086F8F4
:101AC00002F026FB0446002812D0172000F0C4FEC6
:101AD00032A10F22284601F057FA00F0CDFF00286E
:101AE0001AD001F065FB00F0C7FF0028F9D111E022
:101AF0003B2000F0B1FE25A10F22284601F044FA58
:101B000000F0BAFF0028B4D001F052FB00F0B4FF9F
:101B10000028F9D1002CACD024480FF087F904B08C
:101B2000B0BDC046417574683A2046616C6861205A
:101B30006E6F20706172736572206465206E6F76BF
:101B4000612073656E68612E0D0000004175746838
:101B50003A204E6F76612073656E68612076617AF7
:101B6000696120646573636172746164612E0D0044
:101B7000840100209640000053616C76616E646FB2
:101B80002073656E68612E2E2E0000004572726F04
:101B900020616F2073616C766172210053656E68FD
:101BA0006120616C7465726164612100806C010860
:101BB00083B0F0B582B0044607A80EC007AB01930E
:101BC00001200102134822460EF086FC01281CDB8E
:101BD000C7480068002818D00E4C2046FEF7F4FADB
:101BE000002812D00546C34EC34F0320410270881F
:101BF000401CFEF780FDB088814206D070882278B4
:101C00003A547180641C6D1EEFD102B0F0BC01BC6F
:101C100003B00047C8010020F0B581B0594E3078BC
:101C2000012800D0ACE058A0FFF7C2FFFEF778FA19
:101C300005460068554C2778C15DC90706D067780E
:101C4000C15DC907A41C0029F5D1641E20212046CE
:101C5000FEF7B0FA00281AD000210170811C2A6812
:101C60004D1E2878135CDB0716D00878135CDB0761
:101C700011D04878135CDB075ED08878135CDB07F3
:101C8000091D002BECD18D1E002807D007E0002590
:101C9000002F07D16AE00D46002800D105462778BD
:101CA000002F63D03A492046FEF7B9FA002841D008
:101CB00039492046FEF7B3FA364F002840D037495D
:101CC0002046FEF7ACFA00283CD035492046FEF706
:101CD000A6FA002838D033492046FEF7A0FA00289B
:101CE00034D031492046FEF79AFA002830D02F49E7
:101CF0002046FEF794FA00282CD02D492046FEF706
:101D00008EFA002828D02B492046FEF788FA0028B2
:101D100024D029492046FEF782FA002820D02749FE
:101D20002046FEF77CFA00281CD025A02146FFF7AC
:101D30003FFF1BE0174F16E04D1C0028AED0AEE76A
:101D4000083710E010370EE018370CE020370AE0B3
:101D5000283708E0303706E0383704E0403702E043
:101D6000483700E05037796828468847074880217F
:101D7000FEF708FA00203070F0804648FFF718FFA1
:101D800001B0F0BDB80000200D0A0000200E0020B8
:101D9000A7370108A0310108763701089D370108EF
:101DA000843701088C3701088F370108A2370108F2
:101DB000AC370108B13701087C37010894370108B6
:101DC000436F6D616E646F20646573636F6E6865E9
:101DD0006369646F3A20222573222E00F0B581B02A
:101DE000294D297800294DD10C2833DC08283FD013
:101DF0000A2833D0EC887E2C44D80646FEF790F9AA
:101E00000068805D8006C00E3CD021480655601CED
:101E1000E880684600224270067035480068002855
:101E200030D06846FEF7D0F900282BD004466E4625
:101E3000314F032041026888401CFEF75CFCA888F3
:101E400081421FD0688832783A546980761C641EBB
:101E5000EFD117E07F280BD00D28CBD1E8880028E0
:101E60000DD00B4900220A540120287001B0F0BDAA
:101E7000E888002806D0401EE88004A000E005485D
:101E8000FFF796FE01B0F0BDB80000200820080062
:101E9000200E0020AD360108B0B582B014480068AD
:101EA000002823D0134C6088A18888421ED0608807
:101EB0000325A188884201D9618800E06902A288CF
:101EC000A0880D4B1818891A89B2402900D34021E7
:101ED00001AA0AF0DFFB002808D10198002805D0EC
:101EE000A18840186902FEF706FCA18002B0B0BDCF
:101EF000B4070020B8000020A00E0020F0B581B08B
:101F00001E4D281D1E49FEF73DF91E480121009176
:101F100029606121A860E96000272F827F20C00529
:101F200068611948E8611948281819491CC91CC07A
:101F30000A880280897881708726164C28462030CE
:101F400021681022FEF729F930202F54284631301D
:101F50000A221149FEF7FDF828463030E16A226B6B
:101F6000C2828182A1692964C77228354034761EF5
:101F7000E4D10A480099017001B0F0BDA01400201E
:101F8000D816000073656E6805000200C8160000D0
:101F9000A46E0108B80F0108B46E010844010020C6
:101FA000B0B58CB00BA80AA909AA09F0CBFA04466F
:101FB00008A807A906AA05AB09F06AFA002C15D0F3
:101FC000002813D007A8037808A8027806A800788C
:101FD0000BA909780AAC247809AD2D7800AF33C776
:101FE00011A005A9FFF7E4FD0CB0B0BD02A0FFF7FA
:101FF000DFFD0CB0B0BDC0464572726F3A204E6135
:102000006F20666F6920706F73736976656C206CE2
:102010006572206120646174612F686F7261206451
:102020006F205254432E0000446174612F486F7238
:10203000613A20257320253032752F253032752FD7
:1020400032302530327520253032753A25303275E0
:102050003A2530327500000070B5002822D00446C1
:102060002021FEF7A7F8002820D000210170861C4F
:10207000FEF756F80168751E28780A5CD20718D05A
:1020800030780A5CD20713D070780A5CD2073BD054
:10209000B0780A5CD207361D002AECD1B51E0028A4
:1020A00009D009E02DA0FFF783FD70BD002503E0F6
:1020B0003546002800D105461A492046FEF7AFF8FC
:1020C000002817D019492046FEF7A9F8164E002817
:1020D00015D017492046FEF7A2F8002818D0154958
:1020E0002046FEF79CF8002817D013A02146FFF7E2
:1020F0005FFD70BD0C4E71682846884770BD08367C
:1021000071682846884770BD751C0028D3D0D3E776
:10211000103671682846884770BD183671682846A1
:10212000884770BD78370108F8310108E5370108A4
:102130005D370108E9370108537562636F6D616EA1
:10214000646F204457494E20646573636F6E686501
:102150006369646F3A20222573220000537562631D
:102160006F6D616E646F204457494E2066616C74D8
:10217000616E646F2E20557365202748454C5027AB
:102180002E00000080B586B0684609F0C7F80AA0A6
:10219000FFF70EFD0198FEF79AFA02460CA00B46D7
:1021A000FFF706FD0298FEF792FA02460FA00B46D3
:1021B000FFF7FEFC06B080BD4461646F7320646568
:1021C000204672657175656E6369613A0D0A00009B
:1021D00020202D2050756C736F732028656D203181
:1021E00073293A20252E31660D0A000020202D206B
:1021F000457363616C612041202863616C63293AF7
:1022000020252E32660D0A0080B586B0684609F09A
:1022100085F80098FEF75BFA024603A00B46FFF72D
:10222000C7FC06B080BDC0464461646F7320646122
:102230002042616C616E63613A0D0A20202D2050AE
:1022400065736F3A20252E326620670D0A00000064
:1022500080B509F069FDFEF73AFA024602A00B4686
:10226000FFF7A6FC80BDC04654656D706572617451
:1022700075726120696E7465726E6120646F204DA5
:1022800043553A20252E326620430D0A00000000F7
:10229000F0B581B035480068002865D00025344E7F
:1022A000032044027088401C2146FEF724FAB088BF
:1022B000814259D02F48405D72882F4B98547180CD
:1022C0007088401C2146FEF716FAB08881424BD038
:1022D0002848471978787288274B985471807088FD
:1022E000401C2146FEF707FAB08881423CD0B878FE
:1022F0007288214B985471807088401C2146FEF7EB
:10230000FAF9B08881422FD0F87872881A4B985425
:1023100071807088401C2146FEF7EDF9B08881423B
:1023200022D038797288144B985471807088401C80
:102330002146FEF7E0F9B088814215D0787972889D
:102340000D4B985471807088401C2146FEF7D3F9DC
:10235000B088814208D0B8797288074B9854718050
:10236000ED1D064885429BD101B0F0BDB4070020A9
:10237000B800002068320108A00E002044040000CC
:1023800080B52E2000F012FC80BD0000B0B584B0F6
:10239000002825D001A9009119A103AD02AC2A465D
:1023A0002346FDF74FFF03281FD12878411EC9B2ED
:1023B0001E291AD821784A1ED2B20B2A15D801AA92
:1023C000127809F00BF9002814D001A8037802A8AC
:1023D000027803A801781BA0FFF7EAFB04B0B0BDA8
:1023E0002248FFF7E5FB04B0B0BD0948FFF7E0FB6A
:1023F00004B0B0BD07A0FFF7DBFB04B0B0BDC04622
:10240000256868752F256868752F25686875000030
:10241000FF3601084572726F3A2046616C68612090
:10242000616F207365746172206120646174612042
:102430006E6F20686172647761726520646F2052EC
:1024400054432E004F4B2E2052544320617475612B
:102450006C697A61646F2070617261202530327519
:102460002F253032752F253032750000ED370108E9
:1024700070B584B0002822D001AE009617A103AD3C
:1024800002AC2A462346FDF7DDFE03281CD128783E
:10249000172819D821783B2916D832783B2A13D827
:1024A00009F0AEF8002814D001A8037802A8027839
:1024B00003A801781AA0FFF77BFB04B070BD224887
:1024C000FFF776FB04B070BD0848FFF771FB04B05E
:1024D00070BD07A0FFF76CFB04B070BD2568687580
:1024E0003A256868753A256868750000B2360108B3
:1024F0004572726F3A2046616C686120616F20738B
:1025000065746172206120686F7261206E6F20684F
:102510006172647761726520646F205254432E00AB
:102520004F4B2E2052544320617475616C697A615F
:10253000646F207061726120253032753A25303227
:10254000753A253032750000B637010880B50BF0BA
:102550007FFC80BD10B5062900D233E102785A2AEB
:1025600000D02FE14278A52A00D02BE1C278832A3F
:1025700000D027E1427903791B029A18082992B208
:1025800014D300239A4CA2420ED09A4CA2420BD0F4
:10259000994CA24208D08378DC1C8C4206D8C31820
:1025A0009C785B781B021B19944C2380944B9A42B5
:1025B0001ADD954B9A4200DD5BE09A4B9A4200DCB3
:1025C00087E0994B9A4200DDA9E08120C001824258
:1025D00000D1E2E005200003824200D0F2E087480B
:1025E000008807F0E7FC10BD934B9A4200DC52E0F4
:1025F000844BD318312B00D987E05B007B449B8848
:102600005B009F443100B400DF00DF00DF00DF002B
:10261000DF00DF00DF00DF00DF00DF00DF00DF00C2
:10262000DF00DF00DF00AF00DF00DF00DF00DF00E2
:10263000DF00DF00DF00DF00DF00DF00DF00DF00A2
:10264000DF00DF00DF00AA00DF00DF00DF00DF00C7
:10265000DF00DF00DF00DF00DF00DF00DF00DF0082
:10266000DF00DF00DF00A200644A128809F0ECF806
:1026700010BD664B9A423ADD654B9A425ADC654B77
:102680009A4200D18FE081231B029A4200D099E048
:1026900002F038FB10BD6A4B9A420DDC19231B0275
:1026A0009A4274D0694B9A4267D0514B9A4200D0FB
:1026B00088E0FFF715F910BD81208001824269D0C2
:1026C000604882425ED0604882427BD101F012FABB
:1026D00010BD6123DB019A427FD0564B9A4272D0E3
:1026E0003120000282426DD101F0ECF910BD4A4B5D
:1026F0009A4277D0494B9A426AD0494B9A4261D16B
:102700003E4A128801F05AF910BD3B4B9A426CD0F8
:102710004A48824256D12020FEF7A4FF10BD434B09
:102720009A4246D0424B9A424CD1344A128808F021
:10273000CDFF10BD2120800282423FD085200002C3
:1027400082423FD102F090FA10BD2C480088411E11
:102750004842484101F038F810BD2848008800F090
:10276000D9FF10BD2548008801F05EF810BD3D4935
:102770001920088000F01AFA10BD2048008800F0E7
:102780009BFE10BD1D48008800F0FAFE10BDFEF74C
:102790003BFE10BD02F0B0F910BD00201749085EE5
:1027A00002F0DEF910BD2F493820088000F0FEF954
:1027B00010BD1248008800F09DFE10BD0F48007843
:1027C00001F08CFE10BD0D4A128800F033FF10BDE1
:1027D0000A48008800F052FE10BD084A128801F035
:1027E0007BF810BD01F078F910BDFFF719F910BDA5
:1027F000302000000F300000603000001C0E002070
:102800007F300000F1CFFFFF2F7000008F700000BD
:10281000FF830000907000003070000060700000C6
:10282000707000007F4000000F700000107000000A
:1028300020700000903000000E300000703000006A
:102840003F200000502000006020000020200000F9
:10285000044800887047C04680B50249088000F0EF
:10286000A5F980BDA000002080B5024803F056F80D
:1028700080BDC0464408002080B5024803F04EF8F1
:1028800080BDC046A0080020F0B581B02A4FF8688E
:1028900000284FD029A00EF0C9FAF86806F0A4FD70
:1028A000FC682068C169090714D532A00EF0BEFA91
:1028B000FC682068082101620CE0416AC169890650
:1028C0000BD5416AC169890607D5416AC169890684
:1028D00003D5416AC1698906EFD400207861387058
:1028E0007870B880F880B87031493961B8613D4678
:1028F0002035402628463146FDF744FC01204102A0
:10290000E448FDF73FFC5B483146FDF73BFC2046C1
:102910002946324606F09DFC00280BD0F86806F0E8
:10292000EDFDF8684022294606F093FC002801D00E
:1029300001F034FA01B0F0BDC00000204457494E08
:10294000204472697665723A20466F7263616E64E4
:102950006F20726573657420636F6D706C65746F42
:102960002064612055415254206520444D412E0D74
:10297000000000004457494E204472697665723A5F
:1029800020466C6167206465204F76657272756EB3
:1029900020284F5245292064657465637461646121
:1029A0002E204C696D70616E646F2E2E2E0D00000E
:1029B0005525000880B500680E21016203F07CFAFD
:1029C000EA49886100208870487080BD10B50068B1
:1029D0000B4A904200D010BDE44C60783F22D243B5
:1029E0000B46413B9342F6D3C007F4D16069401CCB
:1029F000606121810120607003F05EFAE06110BD2A
:102A000000440040D948002101707047F0B581B002
:102A10000546D64F0020786138707870B880F8800D
:102A2000B870FD603961B8613C46203440262046CC
:102A30003146FDF7A7FB01204102CD48FDF7A2FB7F
:102A40000C483146FDF79EFB28462146324606F0EB
:102A500000FC00280BD0F86806F050FDF868402212
:102A6000214606F0F6FB002801D001F097F901B0ED
:102A7000F0BDC046802B0020BC480178002901D061
:102A8000012070478188C088081A411E884170471C
:102A9000F0B591B003F010FAF34DA969002907D001
:102AA000A969411A64296DD30021A9610121A97086
:102AB000A97801291CD10020A8706870E86806F088
:102AC0001DFDE8682C4620344022214606F0C1FB5B
:102AD000002857D0E86806F011FDE868402221463A
:102AE00006F0B7FB00284DD001F058F911B0F0BD49
:102AF0006978012946D1E969401A322842D31C2657
:102B0000304603F0A9FE0927384603F0A5FE2A89BE
:102B100068692C46203401A821460092FDF719FB74
:102B2000002068702881384603F0A6FE304603F086
:102B3000A3FEE8684022214606F08BFB00280BD05C
:102B4000E86806F0DBFCE8684022214606F081FBDD
:102B5000002801D001F022F901AB987859781A7851
:102B6000009E062E10D15A2A0ED1A5290CD1032879
:102B70000AD1DC78822C07D11C794F2C04D15B79E7
:102B80004B2B01D111B0F0BD042EFBD35A2AF9D141
:102B9000A529F7D1C01CC1B28E42F3D32A69002AFD
:102BA000F0D001A8904711B0F0BDC046F0B581B09B
:102BB00004461C2003F050FE0A2003F04DFEEF48AF
:102BC0008288C388EE499A4207D2C2888388DB4351
:102BD000D21895B20A2D07D24DE08288C3889A1A7E
:102BE000521895B20A2D46D3220A00928788E54AE8
:102BF0005A26D65587887F1C0F4087808788A52353
:102C0000D35583885B1C0B40838083880727D75468
:102C100083885B1C0B40838083888227D7548388FA
:102C20005B1C0B40838083880027D75483885B1C00
:102C30000B40838083888427D75483885B1C0B4098
:102C400083808388D65483885B1C0B408380838871
:102C50000126D65483885B1C0B4083808388009EAA
:102C6000D65483885B1C0B4083808388D45482882D
:102C7000521C0A4082800A2003F0FEFD1C2003F053
:102C8000FBFD092D02D8002001B0F0BD012001B0EC
:102C9000F0BDC046C02B0020F0B583B00F460546FE
:102CA0001C2003F0D9FD0A2003F0D6FDB34882882A
:102CB000C388B3499A4207D2C2888388DB43D218BB
:102CC00096B2082E07D242E08288C3889A1A521818
:102CD00096B2082E3BD3BAB22B0A0193120A029283
:102CE0008488A84A5A23135583885B1C0B40838031
:102CF0008388A524D45483885B1C0B4083808388FD
:102D00000524D45483885B1C0B40838083888224F1
:102D1000D45483885B1C0B4083808388019CD454EB
:102D200083885B1C0B4083808388D55483885B1C1D
:102D30000B4083808388029CD45483885B1C0B40A7
:102D400083808388D7548288521C0A4082800A205C
:102D500003F092FD1C2003F08FFD072E02D8002007
:102D600003B0F0BD012003B0F0BDC046C00000209C
:102D7000C02B0020F0B585B00C4607461C2003F0A0
:102D80006BFD0A2003F068FDD7488288C388D749C5
:102D90009A4207D2C2888388DB43D21896B20A2EA1
:102DA00007D253E08288C3889A1A521896B20A2E24
:102DB0004CD3220A0492220C0392220E02923A0A67
:102DC00001928588CA4A5A23535583885B1C0B405D
:102DD00083808388A525D55483885B1C0B40838022
:102DE00083880725D55483885B1C0B4083808388A8
:102DF0008225D55483885B1C0B4083808388019D8A
:102E0000D55483885B1C0B4083808388D754838888
:102E10005B1C0B4083808388029DD55483885B1C98
:102E20000B4083808388039DD55483885B1C0B40B3
:102E300083808388049DD55483885B1C0B408380EA
:102E40008388D4548288521C0A4082800A2003F06E
:102E500013FD1C2003F010FD092E02D8002005B040
:102E6000F0BD012005B0F0BDC0000020F0B583B07A
:102E7000002400297FD0054600287CD0F04FF86858
:102E8000002878D00E461C2003F0E6FC0A2003F050
:102E9000E3FCB988FA88ED4891420AD2F988BA88E9
:102EA000D243891889B28E420AD801248E420AD9A7
:102EB0005BE0B988FA88511A091889B28E42F4D9B0
:102EC00000248E4251D801940321304608400090DE
:102ED000721E032A01D2002225E08E4302960022B0
:102EE000D84BDA4EA95CBC881955B988491C3140C9
:102EF000B980A9184C78B8881C54B888401C304058
:102F0000B8808878BC881855B888401C3040B88094
:102F1000C878B9885854B888401C3040B880121D11
:102F200002989042DED1009E002E019C1DD0A85C2C
:102F3000B988C44B5854B888401CC4490840B8806C
:102F4000012E12D0A9184878BA889854B888401C25
:102F5000BE4A1040B880022E07D08878B9885854ED
:102F6000B888401CB9490840B8800A2003F084FCA6
:102F70001C2003F081FC204603B0F0BDC0000020FF
:102F8000FF010000C02B0020F0B593B00026002AFE
:102F900000D1A5E0002900D1A2E01446A84FFA68AC
:102FA000002A00D19CE0019002910846FDF70CF93F
:102FB0000546A04200D325466A1DD1B23D2900D95D
:102FC0008EE003AC019B63718221E170A270A520A9
:102FD00060705A202070180A2071A01D02992A469C
:102FE000FDF7B7F82819FF21C17181711C2003F08A
:102FF00033FC0A2003F030FCBA880835E9B2FB88BC
:1030000092489A420BD2FA88BB88DB43D21892B21C
:103010008A420BD3012302938A420BD259E0BA8829
:10302000FB889A1A121892B28A42F3D200230293B2
:103030008A424ED30322154001954A1E032A01D22B
:10304000002224E0FC22114000227E4B03ACA65C4F
:10305000BD885E55BD886D1C0540BD80A41865788F
:10306000BE889D55BD886D1C0540BD80A578BE8875
:103070009D55BD886D1C0540BD80E478BD885C55BC
:10308000BC88641C0440BC80121D9142DED1019DAD
:10309000002D1ED003A98B5CBC886A490B55BB88E8
:1030A0005B1C0340BB80012D13D003AB9B185B78E6
:1030B000BC880B55BB885B1C0340BB80022D08D02D
:1030C00003AB9A189278BB88CA54B988491C01404E
:1030D000B9800A2003F0D0FB1C2003F0CDFB029E38
:1030E000304613B0F0BDC046C0000020FF01000014
:1030F000C02B0020F0B583B01C4615460E46521E6C
:1031000029469141421E019090410840012E01D86C
:10311000002100E001210140601E274687410F4049
:10312000012F42D128462146FDF72CF8022C38D336
:10313000B01EA11E884200D308460290401C009099
:103140000122002305E0D01C1B1D121D009988429E
:1031500027D00198C6187178FF2922D0202900D3E2
:10316000E954029898421CD0B178FF2919D020293F
:1031700001D3E81841700298824212D0F178FF29F9
:103180000FD0202901D3E8188170901C0099884243
:1031900007D03179FF2904D02029D4D3E818C17091
:1031A000D1E72819401E00210170384603B0F0BD58
:1031B000F0B581B0224C207800283ED1A088E1886B
:1031C00088423AD01C2003F047FB0A2003F044FB5E
:1031D0002078012807D10A2003F04EFB1C2003F0C1
:1031E0004BFB01B0F0BD01202070E088A18888422F
:1031F00001D1002512E000211248134A134BE58843
:10320000455D5554E5886D1C1D40E580E6884D1CE4
:10321000A788BE4202D03F292946F0D30A2003F0F6
:103220002BFB1C2003F028FBE068AAB2064906F03D
:10323000BDFC002801D00020207001B0F0BDC046C8
:10324000C0000020C02B0020802B0020FF010000C8
:10325000F448012101707B48002101707047C0468D
:10326000F0B58DB07D20C700764E3078002805D0AF
:1032700002F022FE7168401AB84244D202F01CFEED
:10328000B168401AB84257D302F016FEB060FFF79B
:10329000DFFA352801D038284CD1FFF7EDFB0028A4
:1032A0004AD1684608F03AF872490198FDF739F9B1
:1032B000FDF7F4F90146704C20462030FFF75AFD27
:1032C000DA490298FDF72DF9FDF7E8F901462046A5
:1032D0003030FFF74FFD7078401C7070C0B2052889
:1032E0002AD30020707008F01FFD054608F070F822
:1032F000CE492846FDF715F9FDF7D0F901462046DD
:10330000FFF7CAFC18E002F0D7FD70603078401E6D
:10331000062800D981E0C0467844007940008744FF
:10332000037F70766A858B00022030700E20FFF7D5
:1033300093FAA3E70020707002F0BEFDF168401A16
:10334000B84200D255E002F0B7FDF060FFF780FA16
:1033500001460839292900D949E0C046794409794C
:1033600049008F441446464646464646464646145D
:103370004646464646144646464646464614464651
:1033800046464646464646464646464646140CA8E7
:103390000BA90AAA08F0D6F800282AD009A808A97B
:1033A00007AA06AB08F074F8002822D0684610215E
:1033B0004171002101718222C2700B228270A5220C
:1033C00042705A220270079A8271089AC2710322CF
:1033D0004272099A02720C9A82720B9AC2724173FB
:1033E0000A9901730E21FFF741FD0DB0F0BD77285A
:1033F000CDD00DB0F0BD062030701220FFF72CFAB2
:103400003CE7042030701020FFF726FA36E705204D
:1034100030701120FFF720FA30E7002030702DE7E0
:10342000032030700F20FFF717FA27E707203070CE
:10343000002000F0A5F821E70020307002A00DF078
:10344000F5FC1BE774010020444953504C41593AA4
:103450002053657175656E636961206465206D65D3
:10346000646963616F2066696E616C697A61646129
:103470002E0D00000AD7233C3022000080B50448FE
:1034800004A12022FFF780FD3520FFF7E5F980BD7C
:103490009640000041646A75737446726571756583
:1034A0006E63793A20333030302E304B487A2B2FF0
:1034B0002D322E3000000000B0B50546082410283B
:1034C00009D02046FFF7C8F9102D09D10748214639
:1034D000FFF7CCFCB0BD0B20FFF7BEF9102DF5D0E7
:1034E00003482146FFF7C2FCB0BDC046340F0108B7
:1034F0003C0F010880B500280BD0FEF7FFFC09A0A7
:103500002E2100F04DFC002802D00BA00DF08EFC07
:1035100080BD134813A11B22FFF736FD3020FFF7B3
:103520009BF980BD50726573657420636F6D706C1C
:1035300065746F2100000000446973706C61793A12
:103540002050726573657420657865637574616475
:103550006F20636F6D207375636573736F2E0D003D
:1035600096400000507265736574207265646566EC
:10357000696E65206F7320616A75737465732100CD
:10358000F0B591B098490978012903D1002803D0FA
:1035900008F0DAF911B0F0BD06AC204600F062FD8B
:1035A000207807AE314600F043FD684607F0B6FECE
:1035B00000F064FD04461C4D102228463146FFF7FA
:1035C000E3FC2020315E2846C030FFF765FB0A2768
:1035D0001098784301B22846E030FFF75DFBF08C8D
:1035E000784301B22846F030FFF756FB012C01D09A
:1035F0000F4900E00D490598FCF793FFFDF74EF8E1
:10360000014690352846FFF747FB012C04D0772070
:10361000FFF722F911B0F0BD1320FFF71DF911B02B
:10362000F0BDC046A2000020702000000000204134
:103630000000C842B0B594B0502A1ED101AC0020A1
:10364000207505900490039002900190152120466A
:1036500000F0D2FC07AD2AA1284622460CF028FF34
:103660002846FCF7B1FD82B2D3482946FFF78CFC0F
:103670002320FFF7F1F814B0B0BD01AC0022227591
:1036800005920492039202920192801D891F89B2D1
:1036900015232246FFF72EFD002815D0207800289C
:1036A00012D001AC204600F0CFFD07AD07A128469F
:1036B00022460CF0FDFE1721284600F071FB002881
:1036C00002D005A00DF0B2FB14B0B0BD456D707214
:1036D0006573613A20257300446973706C61793AAF
:1036E00020456D70726573612073616C7661206333
:1036F0006F6D207375636573736F2E0D000000008E
:10370000417475616C20456D70726573613A202556
:1037100073000000B0B58AB0502814D100F0AEFCA0
:1037200002466C4622A120460CF0C2FE2046FCF761
:103730004BFD82B2ED482146FFF726FC1B20FFF728
:103740008BF80AB0B0BD044600F0A6FD6D4608A196
:10375000284622460CF0ACFE1721284600F020FB3C
:10376000002802D007A00DF061FB0AB0B0BDC04632
:10377000436173617320646563696D6169733A20A5
:1037800025750000446973706C61793A204E525F70
:10379000446563696D616C732073616C766F20633F
:1037A0006F6D207375636573736F2E0D00000000DD
:1037B000417475616C204E525F446563696D616C44
:1037C000733A20257500000080B50749087000286D
:1037D00004D109A10CA00CF03FFE80BD03A10AA0FA
:1037E0000CF03AFE80BDC046A2000020484142498C
:1037F0004C495441444100004445534142494C49DD
:103800005441444100000000446973706C617920A8
:1038100048616E646C65723A20496D7072657373AD
:10382000616F2025730D0A00B0B58AB0502814D1FD
:1038300000F028FC02466C4621A120460CF038FE20
:103840002046FCF7C1FC82B2A8482146FFF79CFB4A
:103850001A20FFF701F80AB0B0BD044600F024FDBD
:103860006D4608A1284622460CF022FE1721284664
:1038700000F096FA002802D006A00DF0D7FA0AB0A0
:10388000B0BDC046526570657469636F65733A2058
:1038900025750000446973706C61793A204E525F5F
:1038A00052657065746974696F6E732073616C76AC
:1038B0006F20636F6D207375636573736F2E0D00DA
:1038C000417475616C204E525F5265706574697405
:1038D000696F6E3A20257500B0B594B0502A1ED19C
:1038E00001AC002020750590049003900290019097
:1038F0001521204600F0F2FB07AD2AA128462246FA
:103900000CF0D6FD2846FCF75FFC82B277482946CA
:10391000FFF73AFB2220FEF79FFF14B0B0BD01ACC9
:103920000022227505920492039202920192801D58
:10393000891F89B215232246FFF7DCFB002815D02A
:103940002078002812D001AC204600F0E3FC07AD3F
:1039500007A1284622460CF0ABFD1721284600F0AF
:103960001FFA002802D005A00DF060FA14B0B0BD17
:103970005573756172696F3A2025730044697370DD
:103980006C61793A205573756172696F2073616C4F
:10399000766F20636F6D207375636573736F2E0D83
:1039A00000000000417475616C2055737561726987
:1039B0006F3A2025730000009640000070B592B069
:1039C00014460D46064605A83221FCF7DBFB002C09
:1039D0002BD06C4600202074039002900190009040
:1039E000701D691F89B211232246FFF783FB00284F
:1039F00019D02078002816D01AA06C4621460CF069
:103A00002BFD204600F06CFC05AD22A12846224685
:103A10000CF04EFD2E21284600F0C2F9002802D0FD
:103A20001FA00DF003FA12B070BD3620FEF714FF90
:103A30006C460020207403900290019000901121A8
:103A4000204600F037FB05AD28462146FCF7DEFB9B
:103A5000FCF7BAFB82B225482946FFF795FA12B067
:103A600070BDC046446973706C61792048616E64B2
:103A70006C65723A20526563656269646F206E6F8F
:103A8000766F2073657269616C3A20272573270A67
:103A90000000000053657269616C3A2025730000D4
:103AA000446973706C61793A2053657269616C2066
:103AB00073616C766F20636F6D20737563657373CC
:103AC0006F2E0D0080B5DD4809490E22FFF75CFA24
:103AD0002120FEF7C1FE80BD80B5D84804490E22E2
:103AE000FFF752FA3220FEF7B7FE80BD9640000085
:103AF0003E6C010810B5084C2078002800D010BD9D
:103B000006A00DF093F90120207002F0D5F9606055
:103B10000D20FEF7A1FE10BD740100204449535052
:103B20004C41593A20496E696369616E646F207334
:103B3000657175656E636961206465206D65646992
:103B400063616F2E2E2E0D00014801210170704718
:103B5000B80700208A4900220A710A70086170477C
:103B600010B5874C2069002817D0A02102226423B9
:103B700002F0DCFA002812D02069002811D0824817
:103B80000DF054F9206902F0E1F9052002F01EF869
:103B9000206902F071FA206904E0002010BD0120C4
:103BA00010BD0020A0210222642302F0BFFA0146CA
:103BB0004042484110BDC046F0B583B004460020E5
:103BC000002A38D00E46002935D015466C490A69BE
:103BD000002A30D07D20C700009601950297A021D1
:103BE00002231046224602F049FB002814D0644804
:103BF0000069002813D064480DF018F96048006986
:103C000002F0A4F9052001F0E1FF5D48006902F02F
:103C100033FA5B48006903E0012003B0F0BD0020E7
:103C2000009601950297A0210223224602F026FB6E
:103C300001464042484103B0F0BDC046F0B589B0EE
:103C400003460020002A7CD000297AD04C4C2469FD
:103C5000002C76D0154604917D20C00006901C46AD
:103C600000263746039246480069A02102226423B9
:103C700002F05CFA7F21234621408022521A0797E6
:103C8000E91B89B28A4200D30A4604998D19052797
:103C9000002838461C463A4E08920FD130690595E7
:103CA00000950192069902911546A2B2A021022325
:103CB00002F0FEFB002833D00A20059D01F086FFAC
:103CC0003069A0210222642302F030FA002838462D
:103CD0000FD1306905950095089D019506990291CF
:103CE000A2B2A021022302F0E3FB002818D00A2090
:103CF000059D01F06BFF3069A0210222642302F0D0
:103D000015FA002820D130690095089D0195069983
:103D10000291A2B2A021022302F0CAFB002812D114
:103D2000079FEF193069A0210522642302F0FEF9F4
:103D30000028F7D108980419BEB2039DAE4292D371
:103D4000012009B0F0BD0A27384601F03FFFA1B2BB
:103D50000C480CF081FB316900200029F1D00A49A0
:103D6000044608460DF062F8306902F0EFF80520CD
:103D700001F02CFF306902F07FF9204609B0F0BD58
:103D8000200100201C3801086338010880B580201C
:103D900001F0ACFF202001F0A9FF80BD72B6FEE764
:103DA000F0B581B00F4606463C20FEF755FD234D89
:103DB00023A10B222846FFF7E7F8FEF75DFE002857
:103DC00005D0FFF7F5F9FEF757FE0028F9D164207A
:103DD00001F0FCFE00F09CF90446002817D038469C
:103DE000FEF73AFD3046FCF7EFF982B2284631463D
:103DF000FFF7CAF8FEF740FE002805D0FFF7D8F914
:103E0000FEF73AFE0028F9D1204601B0F0BD0FA020
:103E10000DF00CF83B20FEF71FFD18A10F222846DD
:103E2000FFF7B2F8FEF728FE0028EDD0FFF7C0F943
:103E3000FEF722FE0028F9D1E6E7C04696400000D2
:103E400053616C76616E646F2E2E2E004552524F78
:103E5000204352495449434F3A2046616C686120DF
:103E6000616F2073616C76617220636F6E66696743
:103E700075726163616F210D000000004572726F01
:103E800020616F2073616C7661722100B0B50546C8
:103E90003C20FEF7E1FC204C20A10B222046FFF73E
:103EA00073F8FEF7E9FD002805D0FFF781F9FEF76A
:103EB000E3FD0028F9D1E8B200F0E0F900F028F9BC
:103EC000002812D028A00CF0B1FF36480021417024
:103ED0003548012242700270852000023349FFF705
:103EE00053F80820FEF7B8FC10E00FA00CF09EFF7E
:103EF0003B20FEF7B1FC18A10F222046FFF744F843
:103F000004E0FFF755F9012001F060FEFEF7B4FD73
:103F10000028F6D1B0BDC0469640000053616C76D3
:103F2000616E646F2E2E2E004552524F204352492F
:103F30005449434F3A2046616C686120616F207399
:103F4000616C766172206120636F6E66696775725D
:103F50006163616F210D00004572726F20616F20F7
:103F600073616C766172210053616C76616D656E70
:103F7000746F2062656D2D737563656469646F2E5F
:103F8000205265746F726E616E646F207061726131
:103F900020612074656C61207072696E6369706164
:103FA0006C2E0D009C0100202C000020BF60010839
:103FB00007480068406A704780B5054804F05CFD1A
:103FC00080BDC04602480068002141627047C0467B
:103FD0003C0D002010B54A1E0B469341441E02467C
:103FE000A2411A40012A04D1D64B5C690460986949
:103FF0000860104610BDC046B0B54C1EA141421E1F
:10400000054695410D40012D07D19A49CD4A5118D9
:104010002246FCF7C2F8002101552846B0BDC04633
:1040200080B5002803D0C749744AFCF792F880BDD8
:1040300070B50246872801D3002300E001234C1EFF
:104040000846A041184001280AD128235343BD4AFD
:10405000D218203238CA38C138CA38C178CA78C1B3
:1040600070BDC046002805D0B6494979872900D3DC
:1040700000210170411E88417047C046B148C08B85
:104080007047C046AF48808B7047C0468720704756
:10409000B0B54C1EA141421E054695410D40012D73
:1040A00006D1A84908312246FCF777F800210155CE
:1040B0002846B0BDB0B54C1EA141421E05469541F3
:1040C0000D40012D07D191499E4A51182246FCF717
:1040D00064F8002101552846B0BDC046B0B54C1E5D
:1040E000A141421E054695410D40012D07D194493D
:1040F000ED4A51182246FCF750F800210155284698
:10410000B0BDC046E74900220A7048607047C0460B
:10411000F0B581B02A4F38780126012836D129A080
:104120000CF084FE1C2002F097FB092002F094FBA7
:104130007868002806D02E4C2E4A214601F0F8F966
:104140002D49605000242A492C4D20462A46FFF76D
:1041500075FD00281ED0264928462A46FFF76EFD29
:10416000002819D0D64822492A46FFF767FD0028C3
:1041700014D0092002F080FB1C2002F07DFBFEF72A
:1041800083FB30480CF052FE002038703446204645
:1041900001B0F0BD1AA002E0274800E027480CF06B
:1041A00045FE092002F068FB1C2002F065FBFEF7CB
:1041B0006BFB23480CF03AFE204601B0F0BDC04630
:1041C00044010020496E696369616E646F20736108
:1041D0006C76616D656E746F2073696E63726F6E5D
:1041E0006F206E6120454550524F4D2E2E2E0D00F2
:1041F000A0140020B6050000D8160000DC16000050
:104200004552524F3A2046616C686120616F2065CB
:1042100073637265766572206E6F20626C6F636F78
:10422000207072696D6172696F206461204545502C
:10423000524F4D2E0D00000014390108433901087A
:1042400072390108BD390108B0B5044600280CD008
:104250000848954D281814222146FBF79EFF064872
:10426000002129548F4801210170601E844120469D
:10427000B0BDC0464C1500005F150000862804D86C
:10428000884901220A7088494871872801D3002093
:10429000704701207047C046824A01211170824A4E
:1042A000D08308467047C0467E4A012111707E4A7D
:1042B000908308467047C046B0B5044600280BD02E
:1042C000794D284608300A222146FBF766FF7548DB
:1042D000012101700020A874601E84412046B0BDF9
:1042E000B0B5044600280CD078486F4D281810222D
:1042F0002146FBF752FF0648002129546948012155
:104300000170601E84412046B0BDC046C816000042
:10431000D7160000B0B5044600280CD00848624DFE
:10432000281814222146FBF738FF0748002129549A
:104330005C4801210170601E84412046B0BDC0462A
:1043400038150000A01400204B150000F0B583B014
:1043500054484068002818D00024534E534F20463C
:1043600031463A46FFF728FC01210291504A0028C5
:104370000ED0514835584B484068314601F0D8F8C6
:10438000A8420AD1029803B0F0BD002003B0F0BDEE
:10439000484800210CF060F805E00246474800213B
:1043A0002B460CF059F8404E384631463A46FFF756
:1043B00003FC002813D0404835583A4A506831462B
:1043C00016463B4A01F0B4F80246A8420299084654
:1043D00064D03A4835492B460CF03EF804E03548A5
:1043E00032490CF039F82F4E35482F4D29463A46C0
:1043F000FFF7E2FB002811D02F482B490F587068B7
:104400002B4A01F095F80246B8420299084645D079
:104410002A482B493B460CF01FF803E02548284961
:104420000CF01AF8281D2449FBF7ACFE25480121A1
:10443000019129606121A860E9602C827F20C0057C
:1044400068612148E8612148281821494CC94CC0BD
:104450000A8802808978817087271E4E284620307E
:1044600031681022FBF799FE30202C542846313059
:104470000A221949FBF76DFE28463030F16A326B8B
:10448000C2828182B1692964C472283540367F1E98
:10449000E4D1044E0198307020460299317003B087
:1044A000F0BDC04644010020A0140020DC1600002E
:1044B000B60500008E380108D8160000C43801087F
:1044C000B82D000073656E6805000200C816000074
:1044D000A46E0108B80F0108B46E0108B0B50D490B
:1044E00049780A224A4380180B49401880B20B4D84
:1044F000697888420DD2400028180421445E08A043
:1045000021460BF0A9FF6C80002028702046FFF7A1
:10451000BDFCB0BD2C000020F6FF00009C01002077
:1045200053656C6563616F20766961207065737196
:104530007569736120636F6E6669726D6164612E67
:1045400020496E6469636520646F204772616F3A29
:104550002025642E0D0A0000F0B58FB00646D14C20
:1045600000276770FFF792FD0546002E009069D086
:104570003078002866D0002D00D149E1029603E092
:104580007F1CAF4200D143E1F8B205A9FFF750FD0F
:104590000028F5D0317805A803910029014600D004
:1045A00000210078002831D00197354605AE06E09D
:1045B000049D6D1C01467078761C00282FD02F7842
:1045C000002F27D004950D46FBF7BDFD0446384665
:1045D000FBF7B9FD844204D1002D3046E8D02846CF
:1045E000E6E7002D00D06E1C3078FBF7ACFD0746E7
:1045F0000398FBF7A8FD8742314600D0002187428F
:1046000001D0029DD7E70298451CD4E70398000625
:104610000CD10CE0A34C009D029E019F07E028787E
:10462000A04C009D029E019F000600D000210029A1
:10463000A6D060781328A3D8411C617040002018D0
:1046400087809DE76178002D00D1E5E0132900D92E
:10465000E2E04800201800228280481C022D00D28F
:10466000F6E0122900D9F3E04000201801228280F0
:10467000881C032D00D2EBE0112900D9E8E04000AE
:10468000201802228280C81C042D00D2E0E01029EC
:1046900000D9DDE04000201803228280081D052D8E
:1046A00000D2D5E00F2900D9D2E040002018042222
:1046B0008280481D062D00D2CAE00E2900D9C7E02D
:1046C0004000201805228280881D072D00D2BFE0FF
:1046D0000D2900D9BCE04000201806228280C81DA8
:1046E000082D00D2B4E00C2900D9B1E04000201818
:1046F0000722828008460830092D00D2A8E00B2945
:1047000000D9A5E040002018082282800846093020
:104710000A2D00D29CE00A2900D999E04000201817
:104720000922828008460A300B2D00D290E0092928
:1047300000D98DE0400020180A22828008460B3004
:104740000C2D00D284E0082900D981E04000201817
:104750000B22828008460C300D2D79D3072977D89B
:10476000400020180C22828008460D300E2D6ED39A
:1047700006296CD840004B4A10180D22828008464A
:104780000E30009A0F2A62D3052960D84000454AAE
:1047900010180E22828008460F30009A102A56D335
:1047A000042954D840003F4A10180F22828010225A
:1047B00008461043009B112B49D3032947D84300D7
:1047C000384CE3189A800A461132009B122B67D3AB
:1047D000122865D85000334A1018112282800846EA
:1047E0001230009A132A33D3012931D840002D4AC0
:1047F00010181222828008461330009A142A27D3F8
:10480000002925D1400020181321818014201FE0A9
:10481000607800281DD102E00846002819D12248FE
:1048200031460BF019FE3C20FEF716F81F4820A178
:104830001822FEF7A9FBFEF71FF9002805D0FEF7A6
:10484000B7FCFEF719F90028F9D10FB0F0BD154CEF
:104850006070F44901224A70401EC0B2CD23434328
:10486000D80A431C0B7005AC174920460BF020FEFC
:104870002046FBF7A9FC8521090282B208462146A1
:10488000FEF782FBFEF7F8F8002805D0FEF790FC53
:10489000FEF7F2F80028F9D100F018F80FB0F0BDDB
:1048A0001046D5E79C010020526E0108964000009A
:1048B0004E656E68756D206772616F20656E636FFF
:1048C0006E747261646F21009E6E0108F0B58BB04A
:1048D000D44840780A214143844FCE1930460838E5
:1048E00080B2C34D6978824C88420DD240002818AE
:1048F000007901A9FFF79CFB00280CD02046203846
:1049000080B201A9102204E02046203880B2C649B6
:104910000122FEF739FBF01F80B2697888420AD283
:1049200040002818007901A9FFF782FB002807D072
:1049300001A9102201E0BC4901222046FEF724FB18
:10494000B01F3840697888420DD24000281800799D
:1049500001A9FFF76DFB00280CD02046203080B263
:1049600001A9102204E02046203080B2AE49012285
:10497000FEF70AFB701F80B2697888420DD24000B2
:104980002818007901A9FFF753FB00280CD0204616
:10499000403080B201A9102204E02046403080B2AD
:1049A000A1490122FEF7F0FA301F384069788842A9
:1049B0000CD240002818007901A9FFF739FB002824
:1049C0000AD06034A0B201A9102203E06034A0B282
:1049D00095490122FEF7D8FAF01E80B26978454C5D
:1049E00088420DD240002818007901A9FFF720FB6A
:1049F00000280CD02046203880B201A9102204E003
:104A00002046203880B288490122FEF7BDFAB01E48
:104A10003840697888420AD240002818007901A9F4
:104A2000FFF706FB002807D001A9102201E07E490C
:104A300001222046FEF7A8FA701E80B269788842EB
:104A40000DD240002818007901A9FFF7F1FA0028DB
:104A50000CD02046203080B201A9102204E020466C
:104A6000203080B270490122FEF78EFA3740687814
:104A700087420DD278002818007901A9FFF7D8FAEB
:104A800000280CD02046403080B201A9102204E05A
:104A90002046403080B264490122FEF775FA701C4E
:104AA00080B2697888420CD240002818007901A9A8
:104AB000FFF7BEFA00280AD06034A0B201A9102284
:104AC00003E06034A0B258490122FEF75DFA652088
:104AD000FDF7C2FEFDF7D0FF002805D0FEF768FB0A
:104AE000FDF7CAFF0028F9D10BB0F0BDFEFF0000B2
:104AF0002082000020830000B0B582B00AA00CF034
:104B000095F98D4D0120287001AC002020702046C1
:104B1000FFF7A8FA207868800BF0F8FB6620FDF715
:104B20009BFE02B0B0BDC0464772616F735F4861C3
:104B30006E646C65723A20456E7472616E646F20AB
:104B40006E612074656C612064652073656C6563BB
:104B5000616F206465206772616F732E0D00000025
:104B6000B0B50446224D2878012840D1FFF78EFACF
:104B700000283CD0611E052939D8C04679440979FE
:104B800049008F4402180D3434230224295F27A0E2
:104B90000BF062FC00202870285FFFF777F9B0BDAA
:104BA0006988491E0AB2002A00D5411E698008B2F0
:104BB0000BF0ACFBB0BD6988491C0AB28242F5DB40
:104BC0000021698008B20BF0A1FBB0BD09A00CF078
:104BD0002DF90020288013480122427002708520A0
:104BE00000021149FEF7D0F90820FDF735FEB0BDEF
:104BF0009C0100204772616F735F48616E646C6551
:104C0000723A2053656C6563616F20287669612074
:104C10007365746173292063616E63656C6164619F
:104C20002E0D00002C000020BF6001084772616F4C
:104C3000735F48616E646C65723A204772616F20E1
:104C4000287669612073657461732920696E6469CF
:104C5000636520272564272073656C6563696F6E23
:104C600061646F2E0D0A0000B0B582B0184D2C782B
:104C7000022C2AD317480078012826D168782146CB
:104C8000FBF739FD491C697013A022460BF0E4FBC9
:104C90006A782B786C461A4920460BF009FC2046AE
:104CA000FBF792FA8521090282B208462146FEF7F7
:104CB0006BF9FDF7E1FE002805D0FEF779FAFDF764
:104CC000DBFE0028F9D1FFF701FE02B0B0BDC046FF
:104CD0002C0000209C010020506167696E616361B7
:104CE0006F3A204D7564616E646F2070617261204F
:104CF000706167696E612025642F25640D0A0000CC
:104D00009E6E010880B586B00B4A1278012A10D138
:104D1000801D891F89B201AA1123FEF7EBF9002833
:104D200004D001A8FFF718FC06B080BD03A00CF06A
:104D30007DF806B080BDC0469C01002046616C68CD
:104D40006120616F20657874726169722074657882
:104D5000746F20646120706573717569736120647C
:104D60006F207061796C6F6164204457494E2E0D3D
:104D700000000000F0B587B0002506955422825C43
:104D8000012A03D10224204607B0F0BD064654365E
:104D900001243470026893685B0714D407694B6878
:104DA000022B18D104200743994887426DD19748B8
:104DB000C0430B68D9430143906A084090620024C5
:104DC000002B66D4D2E0816D20220A4382653570C3
:104DD000204607B0F0BD059304231F438C4CA74227
:104DE00062D10F683846894B1840936A0343936237
:104DF0003802536983438968014086480840184354
:104E000050610024002F00D4B0E0032082058248C6
:104E10000368194611403846804F0490B84200D0CC
:104E200096E07A4F7F1CB94200D391E07A4803683C
:104E300093431943754A5118491C01607948006829
:104E40007949FBF758FC0C214143481C0690069811
:104E5000002800D18AE00698401E06900698002897
:104E600000D183E00698401E0690069800287DD069
:104E70000698401E06900698002877D00698401E97
:104E8000069006980028E6D170E00B680024002BFD
:104E90006CD5FA480168624A93426BD05F4A9342EC
:104EA00064D10122920567E01F27059C27400F244B
:104EB00000940397BC40076E0194A74302970C68C7
:104EC000524F3C42049462D0E4072F4667D1049FBE
:104ED000BC075FD47C075FD43C075FD4FC061F4649
:104EE0005DD4049CA30671D4630671D4230671D4E7
:104EF000E30571D4049B9B0570D4049B5B056FD4C0
:104F0000049B1B056ED4049BDB046DD4049B9B04A3
:104F10006CD4049B5B046BD4049B1B04009F3ED4A5
:104F2000049BDB0366D4049B9B0365D4049B5B0357
:104F300064D4049B1B0363D4049BDB0262D4049BF4
:104F40009B0261D4049B5B02DB1716271F4026E0FF
:104F5000334F0498B84209D10127BF053B4005D122
:104F6000C64803689343194339430BE03570204624
:104F700007B0F0BD254A521C114003229205036878
:104F80009343591801603570204607B0F0BD6300A7
:104F9000DF0E04E0012702E0022700E00327039C64
:104FA000A740029B1F430766059B9B08C069984268
:104FB0000AD90198C043936A0340049FB800000FC8
:104FC000A0401843906213E7049F11E70527E6E726
:104FD0000627E4E70727E2E70827E0E70927DEE7F7
:104FE0000A27DCE70B27DAE70C27D8E70D27D6E7F7
:104FF0000E27D4E71027D2E71127D0E71227CEE7F4
:105000001327CCE71427CAE71527C8E7FFFF7F005F
:105010000400008000FFFF7F08270140000200A479
:10502000000400A830000020400D03000068006C60
:1050300070470000F0B589B0044600200890002CAD
:1050400076D00790A06D002807D12546543520461C
:1050500000F016F900202870E06501273D0726685A
:10506000B068C00026D4B0687F4901402943B160D0
:105070007E4800687E49FBF73EFB40000890089898
:10508000002817D00898401E08900898002811D0D2
:105090000898401E0890089800280BD00898401ED9
:1050A00008900898002805D00898401E0890089895
:1050B0000028E7D1B068284208D1A06D1021014333
:1050C000A165E06D012107910843E065B068042106
:1050D0000140A26D102002405118A16D2BD1069005
:1050E0000F20C7433A46F33A1140891CA165B168C5
:1050F000C9077DD10390049727462037216B4A1EAC
:1051000091410D03A168227E92030A43617EC90387
:105110001143A27E50030843E36803432B4301205D
:10512000C507216900290590029509DAA94308E01D
:10513000012009B0F0BD0143A165384609B0F0BDBA
:1051400041050B43387B45001D433878012809D1C0
:10515000002A11D0A06D20210143A165E06D0599C1
:105160000843E065626A002A0CD0072080010240F3
:10517000A16A1143294306E0059800040543626AC9
:10518000002AF2D12946F0683A4A02400A43F26006
:105190000320820763681D461540E16C387F0128B3
:1051A0000ED1206C0090676CA06C019000980743B2
:1051B000019807432F430F43059807433D4600E0FE
:1051C0000D43049F30692C49014029433161029805
:1051D000834203990CD093420AD0059880078342FA
:1051E00006D08804034025490A688243D018086025
:1051F000706907229043656B284370617069702164
:105200008843A16B0901014371612169012358059C
:10521000814203D000290BD1B06A07E0B06AE0698F
:1052200080001C301C2101408F40206E3843B0624A
:1052300070691040A8420AD10020E065A06D0121EC
:10524000014302208143A165079809B0F0BDA06D1C
:105250000699084302218843A065E06D1843E06584
:10526000184609B0F0BDC046E8FFFF6F30000020CF
:10527000400D03000102DEFF02FCFF1F0827014072
:1052800080B58AB000210991089107910691059196
:105290000491039100680D49884201D00AB080BD95
:1052A0002020029002A802F0B7FC002801D0FEF7EF
:1052B00075FD0120000506490A6802430A60096875
:1052C0000140019101980AB080BDC0460024014010
:1052D00040100240F0B581B00D46044640690828F0
:1052E00001D1082704E02068C068C0073FD1042727
:1052F00000F0E2FD06462168086838421CD0012013
:105300004202A36D1343A365CA681205920F4AD1E6
:10531000A27E002A47D10A68120744D58A6852073C
:1053200038D4224658324B680C25AB434B60FF25DE
:1053300002351368AB4334E0002D1FD0681C10D138
:1053400008683842DBD108683842D8D1086838424A
:10535000D5D108683842F3D0D1E7216808683842CF
:10536000CDD100F0A9FD801BA842F6D908E0A06DC0
:1053700020210143A165012001B0F0BD00F09CFD9A
:10538000542000212154A06D04210143A165032074
:1053900001B0F0BDA26D20231343A36522465C3209
:1053A000E36D03431360227E0020002A01D001B088
:1053B000F0BD0C220A6001B0F0BD000070B50146DE
:1053C000006882680220520711D454228A5C012AA4
:1053D0000DD00C4654340120054620700E46084678
:1053E000FBF7C2FE002803D000202070284670BDC5
:1053F000B06D09490140012000020818B065002085
:10540000F06531681C220A6020708A68304B1340B6
:105410001A1D8A6070BDC046FEF0FFFFF0B581B076
:1054200004465420205C012802D1022001B0F0BDC6
:1054300026465436012737702068816849071FD4F3
:1054400081688268D20737D00222114034D1816846
:1054500005220A40012A27D181681D4A0A40911C71
:1054600081600321016000F027FD05462068806807
:10547000C00721D000F020FD401B0328F6D313E025
:105480008168890704D48168114A0A401032826019
:1054900000F012FD0546206881684907D0D500F06C
:1054A0000BFD401B0328F6D3A06D10210143A1651D
:1054B000E16D5C34384605E0FF200230A16D814388
:1054C00058340020002232703943216001B0F0BD11
:1054D000E8FFFF7F70B503460120CC0720D0114CB8
:1054E0000C40651EAC4103261546F541032D17D827
:1054F0007D442D796D00AF440B0105090B4C0C4028
:105500000ED105E0084C0C400AD101E0002C07D177
:105510001868416181681823994311438160002014
:1055200070BDC04680FFFF7F00FFFF7F0000FF7F50
:10553000F0B584B00E46022141770468A1680125C8
:105540002943A160016A01291ED002290ED0032936
:1055500028D1002A00D103E10395032511462940F3
:10556000042A00D3D2E033460025DEE057081ED0DF
:10557000039503213B460B4000937B1E032B0296B1
:1055800001971AD2002133E0970814D00395032322
:10559000394619400091791E03290296019349D298
:1055A00000257AE000214577084604B0F0BD0021CF
:1055B000D2073CD1D4E000219EE08F430021354644
:1055C0006B882E883604F3182360EB88AE88360487
:1055D000F31823606B892E893604F3182360EB8956
:1055E000AE893604F31823601035091D8F42E7D1C8
:1055F000009F002F029E14D08B00F1184D88F35AA3
:105600001B045B192360012F0BD0CB888D882D04E0
:10561000EB182360022F04D04B8909890904C918AB
:10562000216001998900039DD20700D198E0715A49
:10563000218095E09F43002531460E7836064B7851
:105640001B049B198E7836029B19CE789B19236018
:105650000B791B064E793604F3188E7936029B19A6
:10566000CE799B1923600B7A1B064E7A3604F31809
:105670008E7A36029B19CE7A9B1923600B7B1B0610
:105680004E7B3604F3188E7B36029B19CE7B9B191A
:10569000236010312D1DAF42CFD1009F002F029EFD
:1056A00026D0A900735C1B0671184D782D04EB18E9
:1056B0008D782D025B19CD785B192360012F17D0EF
:1056C0000B791B064D792D04EB188D792D025B1992
:1056D000CD795B192360022F0AD00B7A1B064D7A15
:1056E0002D04EB188D7A2D025B19C97A59182160A7
:1056F0001146019B9943039D03231A407A44127972
:10570000520097442C011C24715C27E0AA43002519
:1057100033463768276077682760B7682760F7687F
:10572000276010362D1DAA42F3D1002905D0AA000A
:105730001D469B582360012917D1039D10E0721864
:105740005278715C090289182180046808E0721897
:105750005378715C0902C91821809178217004681E
:1057600021684577084604B0F0BDAA185368236045
:105770000229039DF4D091682160F1E7B0B50125BD
:10578000002814D00446407F002804D10020207750
:10579000204600F031F8022060772079002808D0F8
:1057A000A168E2682046FFF795FE002808D0284649
:1057B000B0BD20680F494161816818229143816022
:1057C00000256079002801D0216900E0E9432068C4
:1057D000016181686022914362690A438260816845
:1057E00080229143A2690A438260012060772846A3
:1057F000B0BDC046B71DC10481B0006808498842E9
:1058000001D001B070470120000306490A68024335
:105810000A60096801400091009801B07047C046D5
:10582000003002403810024070B500282CD00146EC
:1058300024314A78022A29D1046822680E239A4327
:105840002260426C1568314B1D40156025680122AD
:1058500095432560046C1C2525401446AC40DA4D68
:105860002E6826432E60846CC56C6560046D002C28
:1058700005D025681D402560436D806D58604A70D5
:10588000002000220A7070BD012070BD0422C26396
:10589000012000220A7070BD70B5242101244454F7
:1058A000014624314A78022A2BD103681A680E2453
:1058B000A2431A601C68012294431C60446C256852
:1058C000124B1D402560046C1C2525401446AC403D
:1058D000BD4D2E6826432E60846CC56C6560046DDA
:1058E000002C05D025681D402560436D846D5C60EB
:1058F00000240C704A70816B002900D08847204634
:1059000070BD0421C163204670BDC046FFFEFFFF8D
:10591000C06B70472521405C70470000F0B585B032
:10592000016C1C240C4004231946A140A64A121FF6
:1059300015680A4603952A40564256410490056868
:105940002A6817461F4078427841304332D002958A
:10595000012102261046304047424741A640039BA2
:105960001E420D46019400D03946049F3C46243423
:10597000002931D008200240564256410198C340C8
:10598000180700D53546002D24D1029A10680E2143
:105990008843106001200146019A91408A4B1A68A1
:1059A0000A431A60F863002121706070796B002946
:1059B0000ED10FE02868800602D42868984328603A
:1059C000814A106808431060049F396B002901D098
:1059D0003846884705B0F0BD029A1068800605D4A5
:1059E00010680A2188431060012060700020207038
:1059F0007549086830430860F96A0029E8D1E9E789
:105A0000F0B587B000284AD0044601462431022070
:105A10000691487027683868344901403960344E2F
:105A200030468030A0643348381814252946FAF7E8
:105A300062FE80008119206405916164FC20384079
:105A400008382946FAF757FE1C22024001210B466E
:105A50009340E364A0680490E5682646103645CE7E
:105A60000196E6690296266A039628431043019A36
:105A700010430E46029908430399084339680143CD
:105A8000049A11433960B1031B488A420AD10022AB
:105A900005990A6062600360154613461BE0012009
:105AA00007B0F0BD6168CFB2059A17600360491E68
:105AB00000220329154613460DD8791E8A00821844
:105AC0000023D36703250D403346AB400B490B60E1
:105AD0007C32BC3005460020E06322656565A36525
