:020000040800F2
:10000000004F0020D50000085DA30008CD97000830
:1000100000000000000000000000000000000000E0
:1000200000000000000000000000000031AB0008EC
:10003000000000000000000005A40008C5AB000897
:10004000E7000008E7000008E7000008E7000008F4
:10005000E7000008E7000008E70000088D3C000802
:1000600001BF0008492B0008592B0008E7000008D1
:10007000E7000008E7000008E7000008E7000008C4
:10008000E7000008000000000000000095AC000838
:1000900000000000E7000008E7000008E700000893
:1000A000E7000008E7000008E7000008E700000894
:1000B00099B60008000000000000000000000000E9
:1000C0000348854600F068FE0048004711F3000829
:1000D000004F00200448804704480047FEE7FEE741
:1000E000FEE7FEE7FEE7FEE785AC0008C10000087A
:1000F00030B5434351435C18010C130C0D465D436E
:100100002C1980B292B20546554351430A0C09049A
:100110004D1962415843010C00044019514130BD52
:100120000048704704FE000810B50446FFF7F8FFCA
:100130000068005DC007C00F10BD01466139192974
:1001400000D82038704701464139192900D820309D
:10015000704703460B439B0703D009E008C9121FF1
:1001600008C0042AFAD203E00B780370401C491C33
:10017000521EF9D27047D2B201E00270401C491EF3
:10018000FBD270470022F6E710B513460A46044634
:100190001946FFF7F0FF204610BD10B5044605E0F4
:1001A0000B780370401C002B00D0491C521EF7D264
:1001B000204610BDCAB2401E4178401C8A4202D07F
:1001C0000029F9D100207047421C0178401C002909
:1001D000FBD1801A704710B5002200E0521C835CEE
:1001E0008C5CA34201D1002BF8D1D8B2E1B2401A05
:1001F00010BD30B504460020034600E05B1C93426E
:1002000003D2E05CCD5C401BF8D030BD03460A78D9
:100210000270401C491C002AF9D118467047F8B5F5
:100220000E460546002400E0641C285DFFF78BFFA6
:100230000746305DFFF787FF381A02D1295D002994
:10024000F2D1F8BD0FB400B58DB009900B9010A994
:1002500000200091C0430A9000200C9006480690B0
:10026000064807906A4609A80F9900F0A9FA0DB050
:1002700008BC04B018470000E107000801080008A6
:10028000FFB50027FF4383B000205C6801909E68A3
:100290001D46A9697F1C049888470090296A8847F1
:1002A0000028F6D10098401C0CD003204002844363
:1002B000002E19DD600614D500982B2809D02D28B2
:1002C0000FD103E00020C04307B0F0BD0120800241
:1002D0000443A9697F1C04988847761E0090002E6D
:1002E00002DD0098302803D00598002825D035E09D
:1002F000012040020443A969761E7F1C04988847A8
:100300000090002E03DD782805D0582803D00598EA
:10031000002810D022E00598002801D010281DD117
:10032000012040028443A969761E7F1C04988847F7
:100330000090102002E0082000E00A2005900DE067
:10034000012149020C43059A0199761E5143081870
:100350000190A9697F1C049888470090002E05DD54
:100360000599009800F016FA0028E9DAE96904987E
:100370008847A00502D40120C043A5E7E00722D1A9
:10038000600611D56005019800D5404229680A1D14
:100390002A600968220501D5087014E0220701D5FA
:1003A000088010E008600EE02868011D29600068E0
:1003B000210502D50199017005E02107019901D5B8
:1003C000018000E0016038467EE70000F7B5009C40
:1003D0000F4600262578641C002D05D0FFF7A0FEEF
:1003E0000068405DC007F5D12B2D02D02D2D18D00F
:1003F000641E39462046029A00F014FA002F04D0F9
:100400003968A14201D1009939607105022400299F
:100410000BDA4042002803DD0FF028F80460A00743
:10042000FEBD012080020643E3E70028F8DA0FF062
:100430001DF804600048FEBDFFFFFF7F70B5064653
:100440000FF014F8046805460A2200213046FFF731
:10045000BDFF2C6070BD70B506460FF007F804684C
:1004600005460A2200213046FFF7B0FF2C6070BD20
:10047000F8B502464A40D40F42004B0052085B08D0
:100480009A4202D20246084611464A0023D0C30DC2
:100490004A00DDB2120EAD1A202D35DA49020126CE
:1004A000490AF6058A19002C00D0524220214F1B20
:1004B0001146B9402A411018C20D9A4221D0002C91
:1004C00017D0012D08DCDA05801AD20F8019D20767
:1004D000DBB200F002FAF8BDDA05801A0123400011
:1004E0001B06C01880185A428018CA0F10434900D2
:1004F00007E04908C2071143DA05801A801940084D
:10050000801800F0E2F9F8BD61000122511A001BC9
:10051000F7E70122D2075140AAE70122D207504053
:10052000A6E7024670B54A40D30FDB0740002DD046
:100530004A002AD0010E140E000212020919400AC4
:10054000520A8418E50104465443000A120A2E0494
:100550005043A4194219200CC543AA18120C0125B6
:10056000AD03521C521912047F39240400D0521CCE
:10057000104301D44000491EC2B20C06C009201825
:10058000401C4008802A02D003E0002070BD4008D3
:100590004000002900DA0020184370BD70B5024603
:1005A0004A40D50F40004A00ED0740085208002895
:1005B00014D0002A12D0C40DD30D41020120C00571
:1005C0005202490A520AE41A091812187D3491425B
:1005D00001D3641C00E04900002C01DA002070BD4A
:1005E0000023914201D3891A03434008490000289F
:1005F000F7D100290AD0914202D10121C90705E0B3
:10060000914201D2012101E00121C943E005C01856
:10061000401900F05AF970BD0122D207002800DB12
:10062000101A002900DB511A814201D201207047C3
:10063000002070470122D207002800DB101A002991
:1006400000DB511A814201D9012070470020704718
:10065000C217C10F504010B54018CA079623002199
:1006600000F03BF910BD10B500229623114600F0B2
:1006700034F910BD0EB5C217C10F5040CA0740185B
:100680000021054B0293019200910A460B4600F0AF
:100690006AF903B000BD000033040000C20F41003E
:1006A00040020123400ADB05D207090EC0187F294A
:1006B00001DA00207047962903DC9623591AC840B6
:1006C00001E096398840002AF4D040427047C20FBA
:1006D000D207400040080BD0C10D0723DB01C91829
:1006E00040020905400A1143C20840071143704700
:1006F00000200146704770B50446002903D0002051
:100700002022012310E0002801D00020C043C04671
:10071000C0460DE02546D5408D4205D30D46954097
:10072000641B1D46954040191546521E002DF1DCF4
:10073000214670BDF0B51FB40646002082B00546C4
:100740004024019100901BE0019922460F4630465B
:1007500000F04AFB049A059B801A994110D3104679
:100760001946224600F030FB361A8F410197224687
:1007700001200021009F00F027FB38184D41009018
:100780002046641E0028DFDC019B00982946324683
:1007900007B0F0BD3A2800D23038202302469A43F1
:1007A000412A01D310463738884201D30020C04384
:1007B00070470000026813785118016018467047AE
:1007C00010B5D160044951610449116200211161E1
:1007D000114600F02DFB10BDB507000829010008E7
:1007E0004268002A08D001680B78491C002B03D00E
:1007F000521E06C0184670470121C160881E70470E
:100800004268002A0BD0C3680168002B07D18368B7
:100810008B4204D0491E521C06C0002070470020A5
:10082000C0437047F7B582B0029C00272078641C53
:1008300015460197302802D0002D15D015E02078FC
:100840000127641C782804D0582802D0002D09D034
:100850000BE0002D01D0102D07D1002710252078A6
:10086000641C02E0082500E00A250026009610E03E
:100870000099012769430818020C294680B2714388
:1008800000908E183804864201D301200190207810
:10089000641C2946FFF77EFF0028E9DA0398002848
:1008A00005D0002F01D0641E00E0029C0460019876
:1008B000002806D00EF0DAFD02210160C81E05B046
:1008C000F0BD009930040843F9E7002904DA401C20
:1008D000490001D140084000704770B40024050C65
:1008E00005D11024000402D1002921D01124050EC5
:1008F00001D100020834050F01D10001241D850F2C
:1009000001D18000A41C002801DB4000641C0029E8
:1009100008D020252E1B0D46F540A14000D0012116
:100920002943084301061B1B000ADB1D02D50020DA
:1009300070BC7047DB05181880180029F8DA401CD5
:100940004900F5D170BC40084000704710B5002B3D
:1009500008DA0024401C614192185B411A4301D11E
:100960004008400010BDF0B51FB482B005460C0031
:1009700003D008460EF062FD02E00EF05FFD20306D
:10098000024600902146284600F01EFA049B059A74
:1009900004460F4618431143084314D01846104329
:1009A0001BD0009840210A1A1846059900F01CFA3D
:1009B00005460E46009A0599049800F005FA08438A
:1009C00005D0012004E02046394607B0F0BD0020E4
:1009D000C11705430E432C43374300990E98630516
:1009E000401A7905E40A00220C43FD0A0A3002D5B8
:1009F00000200146E9E70105101969410C9C0D9D95
:100A000000196941FFF7A2FFDFE70000F0B50746D4
:100A10000846584087B0C00F049048000E46590061
:100A200040084908BC1A884105D2384631461E465E
:100A300017460B4602465800400810434CD0300D74
:100A4000039040055900400D490D0590401A029051
:100A5000402872DA18030121000B090508430190B0
:100A600004980092002805D0019952420020884144
:100A700000920190029840210A1A0199009800F012
:100A8000A3F905460C466B4607CB00F0BEF9C0192A
:100A90007141039A0E0D0023D71756401A467A402B
:100AA000164344D0049A002A2DD0029A012A039AB0
:100AB00015DC1205C01A914101263605001C714152
:100AC000D20F059ED2070093019202962A46234632
:100AD000FFF749FF07B0F0BD38463146FAE7160583
:100AE000224A0F46B218C01AB74101210905001C5D
:100AF0004F4100187F41114618187941E20F104309
:100B00006D19644113E0E2076D0815436408C207DC
:100B10001443039A01261205C01A91413605001CA0
:100B20007141CE07400830434908C01851412A4658
:100B30002346FFF70BFFCDE7FFE7049801224000B3
:100B4000C117121A00238B4104983146C417381A72
:100B5000A141EEE730B40124E407634030BC55E71F
:100B600030B40124E407614030BC4FE70000E0FFEF
:100B7000F0B51FB488B00B99099800244840099932
:100B8000C00F490049080991C0070B99009049001E
:100B900049080B9109990898A64608431CD00B995F
:100BA0000A98084318D0099801244000420D4800D3
:100BB000410D099824050003000B204309900B9870
:100BC0000003000B20430B9050181C4940180022D2
:100BD00001901446104605E0002001460DB0F0BD1E
:100BE000032801DA034600E003239C46C11A0AAE3B
:100BF0000AE05F0008ADED5B4F00F75B7D43002727
:100C0000AA187C41491C5B1E6145F2DD410004AB22
:100C10005A522104120C0A43240C401C0828DFDB22
:100C2000019802900099704601910090059B049AEA
:100C300007990698FFF797FED0E700000DFCFFFF2D
:100C4000F0B50C465C4085B0E40FE40703944C001B
:100C50000026640859009446490802460296224339
:100C600021D062460A431ED06200570D4A000E038F
:100C70002303550D012402462C492405781B1B0B28
:100C8000360B401823432643614600901C46501AF9
:100C9000B44103D30098401C009002E092180098E1
:100CA0005B41002803DA0020014605B0F0BD0020BA
:100CB000012109050746864611E064461D46141BBE
:100CC000B54106D36546521BB341744607430C43F6
:100CD000A646CD0740084908284392185B410546BF
:100CE0000D43EAD11046184313D0604619465040D0
:100CF0007140084306D06046101AB34106D2012263
:100D0000002306E000220123DB0702E00122D24398
:100D10005310009874460105381C6141029C039DE4
:100D200000196941FFF712FEBFE70000FD03000054
:100D30004A0009030123090B1B0519430A4B10B58F
:100D4000520D9A4202DA0020014610BD064B3433A0
:100D50009A4203DC9A1A00F047F810BD034BD218F0
:100D600000F032F810BD0000FF030000CDFBFFFFD4
:100D700010B5002904DB0124E40740428C412146E0
:100D8000002B04DB1C460123DB075242A34199429E
:100D900000D1904210BD00001CB5094800900948E0
:100DA000019005460126009C05E0E36807CC33432B
:100DB0000C3C98471034AC42F7D3FFF785F900009C
:100DC0001C5D01083C5D010810B5202A04DB0146CA
:100DD000203A9140002010BD914020239C1A0346E8
:100DE000E3401943904010BD10B5202A04DB0846AB
:100DF000203AD040002110BD0B46D340D0402024E3
:100E0000A21A91400843194610BD10B5202A06DBEE
:100E1000CB170846203A1041C1170B4306E00B469A
:100E20001341D0402024A21A91400843194610BD16
:100E3000F3B58DB000200A9001200B9000260846E3
:100E40000C300C4609906269012109989047051EF3
:100E50002ED0252D2DD0216A8847002818D0626910
:100E6000012109989047216A88470028F7D1411E3F
:100E700062690998904700E0761CA1690D9888473F
:100E8000216A88470028F7D1E1690D988847DAE799
:100E9000A1690D9888470746A84201D1761CD2E780
:100EA000E1690D9888477F1C02D10A98002877D005
:100EB00049E1002762693D463946099890472A284A
:100EC0000CD16269012109989047012506E00A21A9
:100ED0004F433F18303FEBD4102005436269012196
:100EE00009989047014630390A2903D29B498F421D
:100EF000DEDCECE7E90600D4994F6C280AD04C28D8
:100F000010D0682824D06A282ED074280CD07A28D3
:100F10000AD00DE062690121099890476C2823D01E
:100F200004211CE0202005436269012109989047B3
:100F3000A760656065284FD026DC582839D01ADCB8
:100F4000452849D012DC252834D04128B0D143E0CF
:100F50006269012109989047682802D008210D4351
:100F6000E6E70120C002DEE70220DCE7462833D0B6
:100F700047282CD130E05B2870D061282CD0632822
:100F80006CD0642823D161E06F284FD009DC66283B
:100F900022D0672820D0692826D06E2817D12EE0CD
:100FA000CDE070284DD073286FD075284ED07828AA
:100FB0000DD154E0A1690D9888470546252800D138
:100FC0006CE7E1690D9888476D1C00D16DE7BAE0C8
:100FD0000A224CE00A2252E0012023466A46C0431E
:100FE0000D99C046C046A3E02846402108436060F2
:100FF000A807234601D5002239E000223FE0E80798
:1010000000D020E72068011D21600068290501D576
:10101000067018E7290701D5068014E7A90703D54C
:10102000F117066041600EE706600CE72846402194
:1010300008436060A807234601D5082217E008226C
:101040001DE0484928460840606016E028464021D7
:1010500008436060A8072346BCD5B9E715E02846D9
:10106000402108436060A80707D5234610220120CD
:10107000C0430D99C046C0465AE0234610220120C5
:10108000C0430D99FFF7FCF852E000210C910B468C
:101090000091632802D05B2807D043E0E80601D422
:1010A0000120A060012000903CE0626901210998C4
:1010B00090475E2805D101200C900146626909988D
:1010C00090472169002906D10B4601AA8F00491CCF
:1010D000D3510829FADB002835D0216900290ED127
:1010E000C117C90E09184A11930001AA9A18490993
:1010F0004901411A01201368884003431360626963
:101100000121099890475D28E5D10C98002808D066
:10111000002001AB81005A58401CD2435A50082885
:10112000F8DB01AB01202246C0430D99C046C04602
:1011300000280ADA401C06D10B98002803D00020B2
:10114000C0430FB0F0BD0A98FBE7E90702D10A9946
:10115000491C0A91361800200B9074E6CCCCCC0CBC
:10116000FFFFFF7FF1F7FFFFF0B581B005460024D8
:10117000009400688168C9071CD181682B4A2F320E
:1011800011420AD0A86D10210143A965E86D012420
:101190002043E865204601B0F0BD8168234A114034
:1011A00001273943816022480068000205D4687E27
:1011B000012825D1204601B0F0BD1E4800681E4917
:1011C000FFF799FA401C009000980028EFD0009893
:1011D000401E009000980028E9D00098401E009022
:1011E00000980028E3D00098401E00900098002846
:1011F000DDD00098401E009000980028E7D1D6E787
:1012000004F082FB064604E004F07EFB801B03280A
:10121000B8D228680168C907CCD18168C907F3D161
:101220008168024A114039438160EDE7E8FFFF7FA2
:101230000827014030000020400D0300F0B583B0C6
:101240005E490A684968401A86185B49CF680120E0
:101250000023BE4202460EDD4C68A64205460FDA68
:101260001543012D10D14D69AE4213DC0022BE4260
:10127000034613DA13E01A464C68A6420546EFDB34
:101280001D461543012DEED00D4608350868A742CE
:1012900017D043E00122BE42034600DB1346012B78
:1012A00006D1CB699E420EDC0022AE420EDA0EE081
:1012B00028460D46103508313C4607460868A742C7
:1012C0002CD103B0F0BD0122AE4200DB10460295E6
:1012D00000281BD0A6423BDA886809680291FFF714
:1012E00018F90546381BFFF7B3F901462846FFF702
:1012F00055F90546301BFFF7ABF901462846FFF7C5
:1013000010F90299FFF7B4F803B0F0BD0D46183597
:101310001031029C1F460868A742D2D0391B0746ED
:101320000846FFF795F9029028683946FFF7F1F86B
:101330000299FFF733F90546301BFFF789F901469B
:101340002846FFF7EEF83946FFF792F803B0F0BDF4
:101350008869019009691C46FFF7DBF80746029887
:10136000201AFFF775F901463846FFF717F90546C9
:10137000301BFFF76DF901462846FFF7D2F80199B7
:10138000FFF776F803B0F0BDB0B50A4C0125002296
:101390002046294604F0AFFA284604F0B1F9204669
:1013A00029462A4604F0A7FA034840680349086022
:1013B000B0BDC0460004005080000020180100208D
:1013C000F0B585B000252C46009505E0019F790019
:1013D0000D18641C182C4ED00195102101223D4897
:1013E00004F089FA009803900398072817D8039807
:1013F000401C03900398072811D80398401C0390C1
:10140000039807280BD80398401C039003980728DB
:1014100005D80398401C039003980828E7D320219F
:101420002C4F384604F062FA054610210026384653
:10143000324604F060FA0496691E48424841049915
:101440000729C3D80499491C049104990729BDD8D8
:101450000499491C049104990729B7D80499491C97
:10146000049104990729B1D80499491C049104995D
:101470000829E7D3AAE710210122164804F03BFA15
:1014800002960298072817D80298401C02900298EA
:10149000072811D80298401C0290029807280BD800
:1014A0000298401C02900298072805D80298401C18
:1014B000029002980828E7D310210022054804F082
:1014C0001AFA780202D5FF2000060543284605B027
:1014D000F0BDC04600080050B0B5FFF771FF0446EC
:1014E000FFF76EFF8442254609DA84420ADDFFF7E2
:1014F00067FF84420BDAA5420CDD2846B0BD0546E5
:101500008442F4DC0446FFF75BFF8442F3DB0446CD
:10151000A542F2DC25462846B0BD0000F0B591B0EA
:10152000012080050B90FF20019000060A9000200A
:10153000FD4F0C900290FD494D1C0C9A1446134629
:1015400003E0641C202C00D1D3E107940893099296
:10155000069128460C9D2C46059005E00E99490001
:101560000D18641C182C4ED00E95102101223846FF
:1015700004F0C1F90C9810901098072817D810980B
:10158000401C10901098072811D81098401C1090FB
:10159000109807280BD81098401C10901098072816
:1015A00005D81098401C109010980828E7D32021E7
:1015B000384604F09BF9054610210026384632468D
:1015C00004F099F90D961096691E48424841109909
:1015D0000729C3D81099491C109110990729BDD823
:1015E0001099491C109110990729B7D81099491CD6
:1015F000109110990729B1D81099491C1091109990
:101600000829E7D3AAE710210122384604F073F92C
:101610000D9810901098072817D81098401C10901B
:101620001098072811D81098401C1090109807287F
:101630000BD81098401C10901098072805D81098C7
:10164000401C109010980828E7D3102138460D9CB4
:10165000224604F050F929460A98014304910B9858
:101660000E9901400E912646204606E00F9949004A
:101670000818761C182EAC4F4ED00F901021012266
:10168000384604F038F90D9810901098072817D8AC
:101690001098401C10901098072811D81098401CE2
:1016A0001090109807280BD81098401C1090109894
:1016B000072805D81098401C109010980828E7D3E8
:1016C0002021384604F012F93A460746102100243A
:1016D0001046224604F00FF91094791E4842484102
:1016E00010990729C2D81099491C109110990729FF
:1016F000BCD81099491C109110990729B6D8109997
:10170000491C109110990729B0D81099491C1091C3
:1017100010990829E7D3A9E70D9010210122384636
:1017200004F0E9F810940E98002800D0049D049568
:101730001098072817D81098401C10901098072868
:1017400011D81098401C1090109807280BD81098AA
:10175000401C10901098072805D81098401C109035
:1017600010980828E7D310213846224604F0C3F821
:101770000D990A98014303910B980F9901400F911D
:101780002546274605E00E9949000F186D1C182DB7
:101790004ED00E9710210122634E304604F0ABF874
:1017A00010941098072817D81098401C1090109883
:1017B000072811D81098401C1090109807280BD8B3
:1017C0001098401C10901098072805D81098401CBD
:1017D000109010980828E7D32021304604F086F8AE
:1017E00032460746102100261046324604F083F8A0
:1017F0001096791E4842484110990729C3D810997C
:10180000491C109110990729BDD81099491C1091B5
:1018100010990729B7D81099491C109110990729D8
:10182000B1D81099491C109110990829E7D3AAE75B
:10183000102101223C4804F05EF810960F98002811
:1018400001D003980D9010980728079C049D17D885
:101850001098401C10901098072811D81098401C20
:101860001090109807280BD81098401C10901098D2
:10187000072805D81098401C109010980828E7D326
:101880001021002228480F9204F035F80A2003F0B6
:1018900037FF0B980E99014201D00A980743099A25
:1018A000089B069E0D998D42284611DDB84212DA3A
:1018B0008D4213DA85421C4F00DC0546E8175B19A0
:1018C00042410598854229460DDDB1420FDA38E6DE
:1018D0000846B842ECDB38468D42EBDB0D468542CC
:1018E000114FEADDEAE70546B14200DA29E6314662
:1018F00027E6681A01992C318842029807DD401CBE
:101900000A2800D016E60A48406811B0F0BDD0178A
:10191000C00E18180F9951414009C90640180449D2
:10192000486011B0F0BDC04600080050FFFFFF7FC7
:10193000180100207D200001054948607047C0461D
:10194000704700007D200001014988607047C04653
:10195000700100209D4801218170704780B500F022
:1019600091FB9248924901F021F90E4802F0EEF8FD
:101970000D4802F03DFA0D4808F0C8FD08F094FC4F
:1019800001F006FD09F0D6F802F08CF9FFF7FCFC37
:1019900002F046FB064808F0D3FC064808F0D8FCE5
:1019A00080BDC046F008002014080020240C002050
:1019B00000008E420AD7CD41F0B583B0614C20784B
:1019C000022865D0012871D10CF0C8FD0DF0C4F9D2
:1019D0000DF04AFA714804F0CBFC642003F090FE4D
:1019E000052000070290012671020191324603F0A2
:1019F00082FF19204701384603F082FE68482025FF
:101A00002946324603F077FF384603F079FE6548F1
:101A10006549016000242046314605F025FD09F0A6
:101A2000D5F8142003F06CFE08F08EFB08F0F2FBF2
:101A300008F056FB5D485E4901F0B8F85D480EF0CD
:101A40008FF957482946224603F055FF384603F0E0
:101A500057FE02980199224603F04DFF384603F0E5
:101A60004FFE632001F062F901F0D4F8002805D0A0
:101A700001F044FC01F0CEF80028F9D103F044FF56
:101A80003049486088608C700220087003B0F0BD57
:101A9000A078012821D100202070A07035A00EF080
:101AA0005FF9672000F094F803B0F0BD01F026FC68
:101AB00000F022FB01F0BAF809F048F808F0FEFB4C
:101AC00001F06EFC02F09CF96078012837D101200A
:101AD00020700020607003B0F0BD03F015FF616856
:101AE000401A194DA84206D918A00EF039F9012064
:101AF000207003B0F0BD03F007FFA168401A192160
:101B00004901C731884216D903F0FEFEA06003F0F8
:101B1000FBFE6168441A7D20C1002046FEF7EBFD04
:101B2000AC4202D80521081A00E0002001B21520BD
:101B3000000201F06BF901F0E1FB01F077F803B06E
:101B4000F0BDC0462C0100208813000054696D656B
:101B50006F75742120566F6C74616E646F207061B4
:101B60007261206F206D6F646F2053746F702E0D43
:101B700000000000436F6E6669726D61646F212022
:101B80005265746F726E616E646F20616F206D6F4D
:101B9000646F20617469766F2E0D00004409002087
:101BA0000004005018700040010001007C0D00206E
:101BB000A92800086A58010880B57D20800003F03C
:101BC0009FFD02480121417080BDC0462C010020CC
:101BD000F0B583B0044642A00EF0C2F84A484BA1CB
:101BE0000DF0D4FB0025284601F0A0F801F086FB9B
:101BF0004D4803F085FD09F01DF900286AD00294D4
:101C0000414C4A4920460DF0C1FB0120019001F0F2
:101C10008DF801F073FB7D20C6003746C837384683
:101C200003F06EFD424920460DF0B0FB022001F0AA
:101C30007DF801F063FB384603F062FD3D49204624
:101C40000DF0A4FB032001F071F801F057FB3046C2
:101C500003F056FDFFF762FC37A120460DF096FB1E
:101C6000042001F063F801F049FB304603F048FD21
:101C700009F07CF808F068FB36A120460DF086FBE1
:101C8000052001F053F801F039FB6436304603F0CB
:101C900037FD01F061FF002817D01B4836490DF0D1
:101CA00075FB062001F042F801F028FB304603F0F6
:101CB00027FD32480EF054F8029801F037F801F091
:101CC0001DFB019D284603B0F0BD3B2001F02EF81E
:101CD00001F014FB27480EF043F8284603B0F0BD8E
:101CE0000D0A3E3E3E20494E494349414E444F2055
:101CF0004155544F444941474E4F535449434F2057
:101D00003C3C3C0D00000000135801084578696216
:101D1000696E646F204C6F676F2065205665727323
:101D20006F65732E2E2E0000B80B0000EF580108CF
:101D3000D3580108BC580108566572696669636129
:101D40006E646F205465726D6F6D6574726F2E2EA8
:101D50002E00000056657269666963616E646F20CB
:101D60004D656D6F72696120454550524F4D2E2E65
:101D70002E00000049580108A958010825580108FB
:101D800080B588B015A00DF001FB16480DF0FEFAE5
:101D900007A806A905AA08F091FB002808D005A805
:101DA000037806A8027807A801780FA00DF0EEFAD4
:101DB00004A803A902AA01AB08F026FB002808D05A
:101DC00002A8037803A8027804A8017811A00DF0F6
:101DD000DDFA1BA00DF0DAFA08B080BD0A0D0A0D7D
:101DE000000000009C020108417373696E61747504
:101DF0007261202020202020202020202020202050
:101E0000253032643A253032643A253032640A0D86
:101E100000000000526573706F6E736176656C2010
:101E20002020202020202020202020202530326447
:101E30002F253032642F253032640A0D0000000057
:101E40000A0D0A0D0A0D0A0D0000000010B586B03B
:101E5000072901D84C482FE0801D891F89B203AAA9
:101E60000B2301F0EDF9002825D003A80078002805
:101E700029D06846002484720481019400940B21C7
:101E800001F07CFF002826D069468C7203A8FEF77B
:101E9000A2F9002824D003A824A10822FEF7A9F95A
:101EA000002825D023A003A90DF070FA3E2000F0F1
:101EB0003DFF06B010BD12A00DF052FF3B2000F018
:101EC00035FF06B010BD2F480DF04AFF3E2000F050
:101ED0002DFF06B010BD3B2000F028FF06B010BD5E
:101EE00027480DF03DFF172000F020FF06B010BD81
:101EF0001AA00DF035FF2E2000F018FF06B010BD1F
:101F0000417574683A2046616C6861206E6F20707C
:101F1000617273657220726F627573746F20646191
:101F20002073656E68612E0D0000000047484B402D
:101F300031323300417574683A2053656E68612010
:101F4000696E636F72726574612E2044696769748B
:101F500061646F3A20272573270D0A004175746864
:101F60003A20456E7472616E646F206E61207465F4
:101F70006C61206465205365727669636F210D0082
:101F8000E9590108FF5901081C5A010810B584B02D
:101F9000082904D23B2000F0C9FE04B010BD801D0A
:101FA000891F89B201AA0B2301F04AF9002816D033
:101FB00001A8FEF709F9002813D0314C2178002937
:101FC00017D000202070641C01A92046FEF703F9F9
:101FD000002820D0402000F0A9FE04B010BD15A0BC
:101FE00000E01EA00DF0BCFE3B2000F09FFE04B000
:101FF00010BD042804D23F2000F098FE04B010BDAC
:10200000601C01A9FEF702F9012020701F2000F0DA
:102010008DFE04B010BD204601F0B8FF002804D1A9
:102020003B2000F083FE04B010BD172000F07EFEC0
:1020300004B010BD417574683A2046616C68612037
:102040006E6F20706172736572206465206E6F76AA
:10205000612073656E68612E0D0000004175746823
:102060003A204E6F76612073656E68612076617AE2
:10207000696120646573636172746164612E0D002F
:102080006401002080B502A000F01AF880BDC046AF
:102090000D0A434C492050726F6E74612E204469C2
:1020A00067697465202748454C502720706172612C
:1020B00020636F6D616E646F732E0D0A3E20000009
:1020C00083B010B583B0044605A80EC005AB0293DB
:1020D00001200102074822460DF098F9012804DB8F
:1020E0000146044801AA09F0F7FA03B010BC01BC8C
:1020F00003B00047BC010020F0B581B0554E3078E8
:10210000012800D0A4E054A0FFF7DAFFFEF708F89A
:1021100005460068514C2778C15DC90706D067782D
:10212000C15DC907A41C0029F5D1641E20212046E9
:10213000FEF740F800281AD000210170811C2A689F
:102140004D1E2878135CDB0716D00878135CDB077C
:1021500011D04878135CDB0758D08878135CDB0714
:10216000091D002BECD18D1E002807D007E00025AB
:10217000002F07D162E00D46002800D105462778E0
:10218000002F5BD036492046FEF749F800283BD0A7
:1021900035492046FEF743F8324F00283AD03349FC
:1021A0002046FEF73CF8002836D031492046FEF79D
:1021B00036F8002832D02F492046FEF730F80028A4
:1021C0002ED02D492046FEF72AF800282AD02B4988
:1021D0002046FEF724F8002826D029492046FEF79D
:1021E0001EF8002822D027492046FEF718F80028BC
:1021F0001ED025492046FEF712F800281AD023A049
:102200002146FFF75DFF19E0164F14E04D1C002832
:10221000B4D0B4E708370EE010370CE018370AE006
:10222000203708E0283706E0303704E0383702E08E
:10223000403700E0483779682846884707488021BA
:10224000FDF7A0FF0020307070803648FFF738FFA0
:1022500001B0F0BDB80000200D0A0000140E0020EF
:1022600059260108A8240108312601084F26010833
:102270003F260108472601084A260108542601087E
:102280005E2601086326010837260108436F6D6149
:102290006E646F20646573636F6E68656369646FF5
:1022A0003A20222573222E0070B51B4C217800297C
:1022B00030D10C2817DC082822D00A2817D06588CE
:1022C0007E2D27D80646FDF72BFF0068805D80062F
:1022D000C00E1FD0314612484655681C608012A0BF
:1022E000FFF7EEFE70BD7F280AD00D28E7D1608889
:1022F00000280CD00A4900220A540120207070BD29
:102300006088002806D0401E608004A000E00548D8
:10231000FFF7D6FE70BDC046B800002008200800B8
:10232000140E00206825010825630000F0B581B077
:102330001E4D281D1E49FDF725FF1E480121009155
:1023400029606121A860E96000272F827F20C005F5
:1023500068611948E8611948281819491CC91CC046
:102360000A880280897881708726164C284620309A
:1023700021681022FDF711FF30202F5428463130FC
:102380000A221149FDF7E5FE28463030E16A226B4A
:10239000C2828182A1692964C77228354034761EC1
:1023A000E4D10A480099417101B0F0BD940E0020BB
:1023B000D816000073656E6805000200C81600009C
:1023C000005D0108C0020108105D01082001002025
:1023D000B0B58CB00BA80AA909AA08F06FF804469A
:1023E00008A807A906AA05AB08F00EF8002C15D01E
:1023F000002813D007A8037808A8027806A8007858
:102400000BA909780AAC247809AD2D7800AF33C741
:1024100011A005A9FFF754FE0CB0B0BD02A0FFF754
:102420004FFE0CB0B0BDC0464572726F3A204E618F
:102430006F20666F6920706F73736976656C206CAE
:102440006572206120646174612F686F726120641D
:102450006F205254432E0000446174612F486F7204
:10246000613A20257320253032752F253032752FA3
:1024700032302530327520253032753A25303275AC
:102480003A2530327500000070B5002822D004468D
:102490002021FDF78FFE002820D000210170861C2E
:1024A000FDF73EFE0168751E28780A5CD20718D039
:1024B00030780A5CD20713D070780A5CD2073BD020
:1024C000B0780A5CD207361D002AECD1B51E002870
:1024D00009D009E02DA0FFF7F3FD70BD002503E052
:1024E0003546002800D105461A492046FDF797FEDB
:1024F000002817D019492046FDF791FE164E0028F6
:1025000015D017492046FDF78AFE002818D0154936
:102510002046FDF784FE002817D013A02146FFF7C0
:10252000CFFD70BD0C4E71682846884770BD0836D7
:1025300071682846884770BD751C0028D3D0D3E742
:10254000103671682846884770BD1836716828466D
:10255000884770BD33260108F82401089726010832
:10256000182601089B260108537562636F6D616E22
:10257000646F204457494E20646573636F6E6865CD
:102580006369646F3A2022257322000053756263E9
:102590006F6D616E646F204457494E2066616C74A4
:1025A000616E646F2E20557365202748454C502777
:1025B0002E00000080B586B0684607F06BFE0AA0CA
:1025C000FFF77EFD0198FEF782F802460CA00B464D
:1025D000FFF776FD0298FEF77AF802460FA00B4649
:1025E000FFF76EFD06B080BD4461646F73206465C3
:1025F000204672657175656E6369613A0D0A000067
:1026000020202D2050756C736F732028656D20314C
:1026100073293A20252E31660D0A000020202D2036
:10262000457363616C612041202863616C63293AC2
:1026300020252E32660D0A0080B586B0684607F068
:1026400029FE0098FEF743F8024603A00B46FFF769
:1026500037FD06B080BDC0464461646F732064617D
:102660002042616C616E63613A0D0A20202D20507A
:1026700065736F3A20252E326620670D0A00000030
:1026800080B508F073FBFEF722F8024602A00B4665
:10269000FFF716FD80BDC04654656D7065726174AC
:1026A00075726120696E7465726E6120646F204D71
:1026B00043553A20252E326620430D0A00000000C3
:1026C00080B582B00348044901AA09F005F802B0B8
:1026D00080BDC0468DFE00080E04000080B52E208F
:1026E00000F024FB80BD0000B0B584B0002825D0E8
:1026F00001A9009119A103AD02AC2A462346FDF7BA
:10270000A1FD03281FD12878411EC9B21E291AD85D
:1027100021784A1ED2B20B2A15D801AA127807F0E6
:1027200019FF002814D001A8037802A8027803A892
:1027300001781BA0FFF7C4FC04B0B0BD2248FFF72E
:10274000BFFC04B0B0BD0948FFF7BAFC04B0B0BD8F
:1027500007A0FFF7B5FC04B0B0BDC046256868759A
:102760002F256868752F256868750000BA2501084F
:102770004572726F3A2046616C686120616F207308
:102780006574617220612064617461206E6F2068DD
:102790006172647761726520646F205254432E0029
:1027A0004F4B2E2052544320617475616C697A61DD
:1027B000646F207061726120253032752F253032B0
:1027C000752F2530327500009F26010870B584B042
:1027D000002822D001AE009617A103AD02AC2A4614
:1027E0002346FDF72FFD03281CD12878172819D878
:1027F00021783B2916D832783B2A13D807F0BCFE43
:10280000002814D001A8037802A8027803A8017850
:102810001AA0FFF755FC04B070BD2248FFF750FC2A
:1028200004B070BD0848FFF74BFC04B070BD07A0B2
:10283000FFF746FC04B070BD256868753A256868E6
:10284000753A2568687500006D2501084572726F3C
:102850003A2046616C686120616F20736574617213
:10286000206120686F7261206E6F206861726477EA
:1028700061726520646F205254432E004F4B2E200E
:1028800052544320617475616C697A61646F207081
:1028900061726120253032753A253032753A253023
:1028A000327500006826010810B5062900D2DCE068
:1028B00002785A2A00D0D8E04278A52A00D0D4E085
:1028C000C278832A00D0D0E0427903791B029A189B
:1028D000082992B214D300237C4CA2420ED07C4C27
:1028E000A2420BD07B4CA24208D08378DC1C8C42E5
:1028F00006D8C3189C785B781B021B19764C238082
:10290000764B9A4214DC814B9A4226DD804B9A42E8
:102910004ADD804B9A427DDCC1239B019A4200D163
:102920008FE06C4B9A4200D09FE0FFF72FFB10BD69
:102930006B4B9A4223DD6B4B9A4243DD6A4B9A42C2
:1029400074DC6A4B9A4200D183E081231B029A42D5
:1029500000D08AE001F062FF10BD724B9A423FDC6A
:1029600019231B029A4200D186E0714B9A4200D192
:102970009CE0564B9A4278D1FFF768FA10BD5F4B46
:102980009A423ADC604B9A4279D03120000282426E
:1029900000D18EE08120C001824266D100204E49E4
:1029A000085E01F07FFE10BD494B9A425ED05B4845
:1029B000824271D05A48824257D14748008800F07D
:1029C000FDFE10BD4A4B9A4253D04A4B9A4268D002
:1029D000494B9A4249D1404A128801F011F810BD82
:1029E0008120800182424FD04F48824264D04F48BC
:1029F00082423AD101F078F810BD05231B039A42B8
:102A000045D03F4B9A425CD03E4B9A422DD107F0C5
:102A100019FE10BD404B9A421FD06123DB019A4240
:102A200023D12D4A128800F089FF10BD2120800299
:102A3000824216D085200002824216D101F0A0FE0B
:102A400010BD25480088411E4842484100F0FEFE66
:102A500010BD3C483821018010BD2020FFF7B8F898
:102A600010BD1D48007801F0A3FB10BD07F0D6FE95
:102A700010BD01F02BF810BDFEF76CFF10BD164A1B
:102A8000128800F039FE10BD01F0EEFD10BD06F019
:102A900073FE01F0FBFE10BD0F48008800F006FF3A
:102AA00010BD0D48008800F07FFD10BDFFF784F8D1
:102AB00010BD01F001F810BD0748008800F0C2FD0C
:102AC00010BD0548008800F08DFD10BD30200000CD
:102AD0000F30000060300000100E00208F3000002A
:102AE0002F7000008F700000FF83000090700000C6
:102AF000307000006070000070700000FF4F000038
:102B00001070000020700000903000000E300000B7
:102B10003F3000006F3000007030000020300000B7
:102B2000303000003F2000005020000060200000F6
:102B300020200000034800887047C04601490880F3
:102B40007047C046A000002080B5024802F080FC1B
:102B500080BDC0463808002080B5024802F078FCED
:102B600080BDC0469408002080B500680E21016237
:102B700002F0CAFED849486100208870487080BDC4
:102B800010B54A1E3F2A0AD80068054A904206D16D
:102B9000D14C21810120607002F0B6FEA06110BD11
:102BA00000440040CC48002101707047F0B581B06E
:102BB0000546C94F002038707870B880F880B8702A
:102BC000FD60396178613C461C3440262046314620
:102BD000FDF7D8FA01200102C048FDF7D3FA0C48EE
:102BE0003146FDF7CFFA28462146324605F09BFFD5
:102BF00000280BD0F86806F063F8F86840222146F8
:102C000005F091FF002801D001F045F801B0F0BDBA
:102C100078250020EE480178002901D00120704776
:102C20008188C088081A411E8841704770B590B0ED
:102C300002F06AFEE64E7169002907D07169411AF7
:102C400064295FD3002171610121B170B17801293C
:102C50001CD10020B0707070F06806F031F8F06898
:102C600034461C344022214605F05DFF002849D03F
:102C7000F06806F025F8F0684022214605F053FF81
:102C800000283FD001F007F810B070BD717801291D
:102C900038D1B169401A142834D372B63489354614
:102CA0001C35684629462246FDF753FA002070700D
:102CB000308162B6F0684022294605F034FF0028D2
:102CC0000BD0F06805F0FCFFF0684022294605F0C3
:102CD0002AFF002801D000F0DEFF6B469878597873
:102CE0001A78062C10D15A2A0ED1A5290CD1032806
:102CF0000AD1DD78822D07D11D794F2D04D15B7962
:102D00004B2B01D110B070BD042CFBD35A2AF9D142
:102D1000A529F7D1C01CC1B28C42F3D33269002A75
:102D2000F0D06846904710B070BDC046F0B581B095
:102D300004461C2003F0FAF90B2003F0F7F9E648EB
:102D40008188C288914207D2C1888288D24389187B
:102D50008DB20A2D07D24BE08188C288511AFF310B
:102D60008DB20A2D44D3220A8688DC495A238B551A
:102D70008688761CF6B286808688A5278F55868839
:102D8000761CF6B28680868807278F558688761C43
:102D9000F6B28680868882278F558688761CF6B2A2
:102DA0008680868800278F558688761CF6B28680B6
:102DB000868884278F558688761CF6B2868086881A
:102DC0008B5583885B1CDBB2838083880126CE54BD
:102DD00083885B1CDBB283808388CA548288521C40
:102DE000D2B2828082888C548188491CC9B2818089
:102DF0001C2003F0ABF90B2003F0A8F9092D02D831
:102E0000002001B0F0BD012001B0F0BDF0B581B0EF
:102E10000C4605461C2003F089F90B2003F086F9C7
:102E2000AD488188C288914207D2C1888288D24346
:102E300089188EB2082E07D240E08188C288511AC4
:102E4000FF318EB2082E39D3A1B22B0A090A0091A4
:102E50008788FA495A22CA558288521CD2B2828087
:102E60008288A5278F548288521CD2B282808288A1
:102E700005278F548288521CD2B282808288822792
:102E80008F548288521CD2B2828082888B5482886E
:102E9000521CD2B2828082888D548288521CD2B257
:102EA00082808288009B8B548288521CD2B282809E
:102EB00082888C548188491CC9B281801C2003F00F
:102EC00045F90B2003F042F9072E02D8002001B08B
:102ED000F0BD012001B0F0BDBC000020B8250020ED
:102EE000F0B583B00C4605461C2003F01FF90B20FB
:102EF00003F01CF9D0488188C288914207D2C1886A
:102F00008288D24389188EB20A2E07D251E0818876
:102F1000C288511AFF318EB20A2E4AD3210A029179
:102F2000210C0191210E00912B0A8188C34A5A2756
:102F300057548188491CC9B281808188A52757547C
:102F40008188491CC9B281808188072757548188AC
:102F5000491CC9B281808188822757548188491CC5
:102F6000C9B28180818853548188491CC9B281804B
:102F7000818855548188491CC9B281808188009B11
:102F800053548188491CC9B281808188019B535464
:102F90008188491CC9B281808188029B53548188F1
:102FA000491CC9B28180818854548188491CC9B2A6
:102FB00081801C2003F0CAF80B2003F0C7F8092E0B
:102FC00002D8002003B0F0BD012003B0F0BDC04620
:102FD000BC000020F0B583B00024002978D005465D
:102FE000002875D0E74FF868002871D00E461C20E5
:102FF00003F09CF80B2003F099F8B888F988884210
:103000000AD2F888B988C943401880B286420AD8E3
:10301000012486420AD955E0B888F988081AFF3099
:1030200080B28642F4D9002486424BD80294032110
:10303000304608400190721E032A01D2002122E08E
:103040008E430021D04A6B5CB8881354B888401C6A
:10305000C0B2B88068184378BC881355BB885B1C25
:10306000DBB2BB808378BC881355BB885B1CDBB2AA
:10307000BB80C078BB88D054B888401CC0B2B88030
:10308000091D8E42DFD1019E002E029C1AD0685C81
:10309000BB88BD4AD054B888401CC0B2B880012E4D
:1030A00010D069184878BB88D054B888401CC0B28A
:1030B000B880022E06D08878B9885054B888401C51
:1030C000C0B2B8801C2003F041F80B2003F03EF89A
:1030D000204603B0F0BDC046BC000020B82500204B
:1030E000F0B591B00025002A00D1A2E0002900D15E
:1030F0009FE01446A34FFA68002A00D199E00646E3
:1031000000910846FDF760F80346A04200D323462D
:103110005A1DD1B23D2900D98BE001AC66718221E4
:10312000E170A270A52060705A202070300A2071D2
:10313000A01D00991A461D46FDF70BF82819FF211E
:10314000C17181711C2002F0F1FF0B2002F0EEFF33
:10315000B9880835E8B2FA8891420BD2F988BA8862
:10316000D243891889B281420BD301220092814255
:103170000BD257E0B988FA88511AFF3189B28142DF
:10318000F3D20022009281424CD303210D40411E14
:10319000032901D2002124E0FC21084000217A4AC1
:1031A00001AB5C5CBE889455BC88641CE4B2BC80F6
:1031B0005B185C78BE889455BC88641CE4B2BC8003
:1031C0009C78BE889455BC88641CE4B2BC80DB78D3
:1031D000BC881355BB885B1CDBB2BB80091D8842D1
:1031E000DED1002D1ED001A8425CBB886648C254C7
:1031F000BA88521CD2B2BA80012D13D001AA52183B
:103200005278BB88C254BA88521CD2B2BA80022DFE
:1032100008D001AA51188978BA888154B888401C0E
:10322000C0B2B8801C2002F091FF0B2002F08EFF8C
:10323000009D284611B0F0BDBC000020B82500203C
:10324000F0B583B01C4615460E46521E29469141E4
:10325000421E019090410840012E01D8002100E05B
:1032600001210140601E274687410F40012F42D1B6
:1032700028462146FCF786FF022C38D3B01EA11E3B
:10328000884200D308460290401C0090012200238F
:1032900005E0D01C1B1D121D0099884227D0019803
:1032A000C6187178FF2922D0202900D3E95402984A
:1032B00098421CD0B178FF2919D0202901D3E818F1
:1032C00041700298824212D0F178FF290FD0202954
:1032D00001D3E8188170901C0099884207D0317999
:1032E000FF2904D02029D4D3E818C170D1E72819C8
:1032F000401E00210170384603B0F0BD70B5214C6E
:10330000207800283CD1A088E188884238D01C2051
:1033100002F00CFF0B2002F009FF2078012806D1F3
:103320001C2002F013FF0B2002F010FF70BD0120E3
:103330002070E088A188884201D1002511E0002199
:103340001148124AE388C35C5354E3885B1CDBB228
:10335000E380E3884D1CA688B34202D03F2929466A
:10336000F0D31C2002F0F2FE0B2002F0EFFEE0682A
:10337000AAB2064905F0FCFF002801D00020207009
:1033800070BDC046BC000020B82500207825002074
:10339000D548012101706D48002101707047C04679
:1033A000F0B591B07D20C700684E3078002805D078
:1033B00002F0AAFA7168401AB84244D202F0A4FAA4
:1033C000B168401AB84255D302F09EFAB060FFF7D8
:1033D000B1FB352801D038284AD1FFF71BFC002863
:1033E00048D101A806F056FF64490298FDF799F804
:1033F000FDF754F90146624C20462030FFF770FD7E
:1034000060490398FDF78DF8FDF748F9014620461D
:103410003030FFF765FD7078401C7070C0B2052831
:1034200028D30020707007F0A1FC054606F08CFF41
:1034300054492846FDF775F8FDF730F90146204656
:10344000FFF7E4FC16E002F05FFA70603078401E8F
:10345000062865D878440079400087440364555BAA
:103460004F6A7000022030700E20FFF75FFCA5E766
:103470000020707002F048FAF168401AB8423BD35D
:1034800002F042FAF060FFF755FB672834D10DA82F
:103490000CA90BAA07F012F800282DD00AA809A938
:1034A00008AA07AB06F0B0FF002825D00CA80378C7
:1034B0000DA802780BA80078009001AC32A120463C
:1034C0000BF090FF0AA8027809A8037808A80078F2
:1034D00000900EAD30A128460BF084FF012046037A
:1034E0000827304621463A46FFF7FAFD10363046A7
:1034F00029463A46FFF7F4FD11B0F0BD06203070C2
:103500001220FFF713FC59E7042030701020FFF75A
:103510000DFC53E7052030701120FFF707FC4DE745
:10352000002030704AE7032030700F20FFF7FEFBC9
:1035300044E707203070002000F084F83EE70020C8
:10354000307003A00CF00CFC38E7C046540100209A
:10355000444953504C41593A2053657175656E6327
:103560006961206465206D65646963616F206669C7
:103570006E616C697A6164612E0D00000AD7233C8C
:103580003022000000002041253032643A253032DC
:10359000643A253032640000253032642F25303201
:1035A000642F25303264000080B5044804A1202235
:1035B000FFF796FD3520FFF7B9FB80BD9640000070
:1035C00041646A7573744672657175656E63793AA4
:1035D00020333030302E304B487A2B2F2D322E3086
:1035E0000000000010B50A4C002807D0FEF79EFE30
:1035F00008A110222046FFF773FD10BD0AA11B226F
:103600002046FFF76DFD3020FFF790FB10BDC04650
:103610009640000050726573657420436F6D706C46
:1036200065746F210000000050726573657420722C
:1036300065646566696E65206F7320616A75737471
:1036400065732100F0B591B088490978012903D14B
:10365000002803D007F09AF911B0F0BD06AC20465F
:1036600000F076FB207807AE314600F057FB684645
:1036700006F010FE00F078FB04461C4D1022284690
:103680003146FFF72DFD2020315E2846C030FFF780
:10369000BDFB0A271098784301B22846E030FFF7B7
:1036A000B5FBF08C784301B22846F030FFF7AEFB53
:1036B000012C01D00F4900E00D490598FCF731FFBE
:1036C000FCF7ECFF014690352846FFF79FFB012CE5
:1036D00004D07720FFF72AFB11B0F0BD1320FFF7CD
:1036E00025FB11B0F0BDC046A200002070200000F4
:1036F000000020410000C842B0B594B0502A1ED14D
:1037000001AC002020750590049003900290019078
:103710001521204600F0E6FA07AD23A128462246EF
:103720000BF060FE2846FCF74FFD82B21D4829468B
:10373000FFF7D6FC2320FFF7F9FA14B0B0BD01ACB7
:103740000022227505920492039202920192801D3A
:10375000891F89B215232246FFF772FD002814D075
:103760002078002811D001AC204600F0CFFB07AD37
:1037700007A1284622460BF035FE2846FCF724FD1B
:1037800082B208482946FFF7ABFC14B0B0BDC04672
:103790004E6F766120456D70726573613A202573B6
:1037A0000000000096400000417475616C20456D7A
:1037B00070726573613A20257300000070B58AB09D
:1037C000154C502814D100F0CFFA02466D4619A1CD
:1037D00028460BF007FE2846FCF7F6FC82B220468E
:1037E0002946FFF77DFC1B20FFF7A0FA0AB070BD49
:1037F000054600F0B3FB6E4608A130462A460BF0A2
:10380000F1FD3046FCF7E0FC82B220463146FFF77E
:1038100067FC0AB070BDC046964000004E6F766FE0
:10382000204E525F446563696D616C733A20257563
:1038300000000000417475616C204E525F44656366
:10384000696D616C733A20257500000080B50749E9
:103850000870002804D109A10CA00BF097FD80BDD1
:1038600003A10AA00BF092FD80BDC046A20000207B
:10387000484142494C495441444100004445534168
:1038800042494C495441444100000000446973706E
:103890006C61792048616E646C65723A20496D7084
:1038A00072657373616F2025730D0A0070B58AB05D
:1038B000154C502814D100F05BFA02466D4619A150
:1038C00028460BF08FFD2846FCF77EFC82B220468E
:1038D0002946FFF705FC1A20FFF728FA0AB070BD49
:1038E000054600F047FB6E4608A130462A460BF01D
:1038F00079FD3046FCF768FC82B220463146FFF77E
:10390000EFFB0AB070BDC046964000004E6F766F68
:10391000204E525F52657065746974696F6E3A200B
:1039200025750000417475616C204E525F526570C0
:1039300065746974696F6E3A20257500B0B594B0EE
:10394000502A1ED101AC00202075059004900390F0
:10395000029001901521204600F036FA07AD23A110
:10396000284622460BF03EFD2846FCF72DFC82B28D
:103970001D482946FFF7B4FB2220FFF7D7F914B002
:10398000B0BD01AC0022227505920492039202920E
:103990000192801D891F89B215232246FFF750FC32
:1039A000002814D02078002811D001AC204600F067
:1039B0001BFB07AD07A1284622460BF013FD284646
:1039C000FCF702FC82B208482946FFF789FB14B0D5
:1039D000B0BDC0464E6F766F205573756172696FCA
:1039E0003A20257300000000964000004174756184
:1039F0006C205573756172696F3A20257300000061
:103A000070B592B014460D46064605A83221FCF763
:103A1000B9FB002C1BD06C46002020740390029050
:103A200001900090701D691F89B211232246FFF793
:103A300007FC002825D02078002822D012A06C4650
:103A400021460BF0A3FC204600F0B4FA0DE036202E
:103A5000FFF76CF96C4600202074039002900190EF
:103A600000901121204600F09BF905AD2846214623
:103A7000FCF7CCFBFCF7A8FB82B219482946FFF7FC
:103A80002FFB12B070BDC046446973706C61792021
:103A900048616E646C65723A205265636562696460
:103AA0006F206E6F766F2073657269616C3A2027A4
:103AB0002573270A0000000080B5094809490E2235
:103AC000FFF70EFB2120FFF731F980BD80B50448D8
:103AD00004490E22FFF704FB3220FFF727F980BDCF
:103AE00096400000DA59010810B5084C20780028EB
:103AF00000D010BD06A00CF033F90120207001F0B9
:103B000003FF60600D20FFF711F910BD5401002084
:103B1000444953504C41593A20496E696369616E7A
:103B2000646F2073657175656E63696120646520DB
:103B30006D65646963616F2E2E2E0D0001480121B1
:103B400001707047AC070020002070474D490860A5
:103B50007047C0460020704780B54A48006800287A
:103B600008D0A0210222642301F070FF01464042E8
:103B7000484180BD002080BDF0B585B006460020DC
:103B8000002A21D00D4600291ED0144909680029B9
:103B90001AD003901148006864210291049297B2F0
:103BA000802F00D3802700950197B4B2A021022373
:103BB000224601F0F1FF002808D1ED19F619049A08
:103BC000D21B1004E6D1012005B0F0BD04A02146AF
:103BD0000BF0DCFB039805B0F0BDC0467425002057
:103BE000454550524F4D2052656164204552523A2E
:103BF0002046616C686120656D20626C6F636F2088
:103C00006E6F206164647220307825580D0A0000C0
:103C100001207047F0B585B007460020002A28D063
:103C2000002926D01546174A1268002A21D0039091
:103C30001448006864220292049100917F21394067
:103C40008022561AA9B28E4200D30E460196BCB20B
:103C5000A0210223224602F0B9F800280BD105204A
:103C600001F04EFD04998919F719AD1B2804DFD125
:103C7000012005B0F0BD044821460BF087FB0398F6
:103C800005B0F0BD74250020CE26010880B5802047
:103C900001F04EFD80BD72B6FEE7000007480068E7
:103CA000406A704780B5054804F050FB80BDC046AF
:103CB00002480068002141627047C046300D002074
:103CC00010B54A1E0B469341441E0246A2411A40BB
:103CD000012A04D1D04B5C690460986908601046E1
:103CE00010BDC046B0B54C1EA141421E05469541CF
:103CF0000D40012D07D19049C74A51182246FCF7C3
:103D00004CFA002101552846B0BDC04680B50028B8
:103D100003D0C1497B4AFCF71CFA80BD70B502464E
:103D2000872801D3002300E001234C1E0846A04150
:103D3000184001280AD128235343B74AD218203209
:103D400038CA38C138CA38C178CA78C170BDC046CF
:103D5000002805D0B0494979872900D30021017096
:103D6000411E88417047C046AB48C08B7047C04673
:103D7000A948808B7047C04687207047B0B54C1E5D
:103D8000A141421E054695410D40012D06D1A24993
:103D900008312246FCF701FA002101552846B0BD42
:103DA000B0B54C1EA141421E054695410D40012D66
:103DB00007D18B49984A51182246FCF7EEF90021A9
:103DC00001552846B0BDC046B0B54C1EA141421EAB
:103DD000054695410D40012D07D18E49E74A5118FE
:103DE0002246FCF7DAF9002101552846B0BDC0464D
:103DF000E14900224A710A7108608A717047C04621
:103E000070B5DD4D2879002818D0A97901294AD14B
:103E1000401E05283FD8C0467844007940008744BA
:103E20002D024D574362FFF7F3FE00283BD0FFF70A
:103E30008BFE00285FD10320287170BD68790128AE
:103E400026D1FFF787FE00282DD101F05DFDA9687E
:103E5000401A2D49884226D3002068710126AE7190
:103E60002868002806D0C54CC64A214601F000F952
:103E7000C64960502E71A879002814D00020BF498F
:103E8000BF4AFFF7C7FE002835D00220287170BD59
:103E9000A879002807D0012068710020A871287136
:103EA00001F032FDA86070BDBA48B449B44AFFF7CA
:103EB000B1FE00281FD00620287170BDAF49B04860
:103EC0000246FFF7A7FE002815D00420287170BD18
:103ED000FFF79EFE0028E6D0FFF736FE00280AD145
:103EE0000520287170BDFFF793FE0028DBD0FFF797
:103EF0002BFE002802D00720287170BD00202871F9
:103F0000A87170BDDC16000088130000B0B5014632
:103F1000002000290ED0984CA279002A0AD1064828
:103F2000964D28181422FCF738F90448002129542A
:103F300001206071B0BDC0464C1500005F15000047
:103F400001460020862907D88B4A9379002B03D19C
:103F500001205071894A51717047C0460146864A16
:103F60009079002803D101235371844AD183012120
:103F7000484070470146804A9079002803D10123C8
:103F800053717E4A9183012148407047B0B5014684
:103F9000002000290DD0784CA279002A09D1774D54
:103FA000284608300A22FCF7F8F801206071002149
:103FB000A974B0BDB0B50146002000290ED06E4CEA
:103FC000A279002A0AD176486C4D28181022FCF7F5
:103FD000E4F804480021295401206071B0BDC046B6
:103FE000C8160000D7160000B0B501460020002911
:103FF0000ED0614CA279002A0AD106485F4D2818DC
:104000001422FCF7CAF805480021295401206071E8
:10401000B0BDC04638150000940E00204B150000BE
:10402000F0B583B054480068002818D00024534EDF
:10403000534F204631463A46FFF79EFD012102913B
:10404000504A00280ED0514835584B480068314638
:1040500001F00EF8A8420AD1029803B0F0BD00208A
:1040600003B0F0BD484800210BF090F905E002468E
:10407000474800212B460BF089F9404E384631461F
:104080003A46FFF779FD002813D0404835583A4AA0
:104090001068314616463B4A00F0EAFF0246A84245
:1040A0000299084664D03A4835492B460BF06EF920
:1040B00004E0354832490BF069F92F4E35482F4D51
:1040C00029463A46FFF758FD002811D02F482B49C2
:1040D0000F5830682B4A00F0CBFF0246B8420299D5
:1040E000084645D02A482B493B460BF04FF903E0E0
:1040F000254828490BF04AF9281D2449FCF742F8C5
:1041000025480121019129606121A860E9602C8284
:104110007F20C00568612148E861214828182149AD
:104120004CC94CC00A8802808978817087271E4E4E
:104130002846203031681022FCF72FF830202C540C
:10414000284631300A221949FCF703F82846303056
:10415000F16A326BC2828182B1692964C4722835E6
:1041600040367F1EE4D1044E0198707120460299BA
:10417000717103B0F0BDC04620010020940E0020F4
:10418000DC160000B6050000FE260108D816000067
:1041900034270108B82D000073656E680500020021
:1041A000C8160000005D0108C0020108105D01088A
:1041B000F0B581B09F4949780A224A4380181B49CB
:1041C000401880B2924F797888422CD2400038183B
:1041D0000421445E164821460BF0D8F87C80002666
:1041E0003E70E0B2FFF7ACFE12480BF0B9FD0124BF
:1041F0003C706D462E702846FFF7AAFD287878801F
:104200000BF020F866252846FEF798FC2846FEF7B6
:104210008DFD7E7087484470047085200002064939
:104220002246FEF75DFF01B0F0BDC046F6FF00007C
:10423000EC5B0108BB5C01085B4E0108F0B58FB078
:104240000446734E00257570FFF796FD0746002C57
:104250006CD02078002869D0002F00D190E0009722
:10426000029403E06D1CBD4200D189E0E8B205A9CB
:10427000FFF754FD0028F5D0217805A80391002907
:10428000014600D000210078002833D0019505AE0A
:10429000254606E0049D6D1C01467078761C0028BA
:1042A00031D02F78002F29D004950D46FBF74BFF16
:1042B00004463846FBF747FF844204D1002D3046C0
:1042C000E8D02846E6E72846002D029D00D0461C8F
:1042D0003078FBF738FF07460398FBF734FF874237
:1042E000314602D18742D8D102E000218742D4D1A1
:1042F0006D1CD2E7039800060CD10CE0444E009FE1
:10430000029C019D07E02878414E009F029C019D80
:10431000000600D000210029A4D070781D28A1D863
:10432000411C71704000301885809BE77078002F29
:1043300027D01D2825D8410089190A31002422469A
:104340008B1F1C800319641CBC4234D21C2B32D836
:104350000D1F2C80641CBC422FD21B2B2DD88D1E10
:104360002C80641CBC422AD21A2B28D80C80641CD6
:10437000BC4202D208311A2BE1D3111D40181FE0B4
:10438000707800281DD1234821460AF0FFFF3C2009
:10439000FEF7CCFC204821A11822FEF7A1FEFEF773
:1043A00039FC002805D0FEF7A9FFFEF733FC0028F2
:1043B000F9D10FB0F0BD581C02E0981C00E0D81CE9
:1043C0007070EC4901224A70401EC0B2CD234343B5
:1043D000D80A431C0B7005AC174920460BF002F8B5
:1043E0002046FBF7F1FE8521090282B208462146EC
:1043F000FEF776FEFEF70EFC002805D0FEF77EFFE6
:10440000FEF708FC0028F9D100F018F80FB0F0BD55
:104410007C010020765C0108964000004E656E68C5
:10442000756D206772616F20656E636F6E74726167
:10443000646F21002C000020F85C0108F0B58BB0FF
:10444000E94840780A214143844FCE193046083864
:1044500080B2E64D6978824C88420DD2400028181F
:10446000007901A9FFF75AFC00280CD0204620381B
:1044700080B201A9102204E02046203880B2BE4953
:104480000122FEF72DFEF01F80B2697888420AD221
:1044900040002818007901A9FFF740FC002807D048
:1044A00001A9102201E0B44901222046FEF718FEBE
:1044B000B01F3840697888420DD240002818007932
:1044C00001A9FFF72BFC00280CD02046203080B239
:1044D00001A9102204E02046203080B2F4490122D4
:1044E000FEF7FEFD701F80B2697888420DD2400051
:1044F0002818007901A9FFF711FC00280CD02046EC
:10450000403080B201A9102204E02046403080B241
:10451000E7490122FEF7E4FD301F38406978884200
:104520000CD240002818007901A9FFF7F7FB0028FA
:104530000AD06034A0B201A9102203E06034A0B216
:10454000DB490122FEF7CCFDF01E80B26978454CB4
:1045500088420DD240002818007901A9FFF7DEFB40
:1045600000280CD02046203880B201A9102204E097
:104570002046203880B2CE490122FEF7B1FDB01EA0
:104580003840697888420AD240002818007901A989
:10459000FFF7C4FB002807D001A9102201E0C4499D
:1045A00001222046FEF79CFD701E80B26978884289
:1045B0000DD240002818007901A9FFF7AFFB0028B1
:1045C0000CD02046203080B201A9102204E0204601
:1045D000203080B2B6490122FEF782FD374068786C
:1045E00087420DD278002818007901A9FFF796FBC1
:1045F00000280CD02046403080B201A9102204E0EF
:104600002046403080B2AA490122FEF769FD701CA5
:1046100080B2697888420CD240002818007901A93C
:10462000FFF77CFB00280AD06034A0B201A9102259
:1046300003E06034A0B29E490122FEF751FD6520DF
:10464000FEF774FBFEF7E6FA002805D0FEF756FEEB
:10465000FEF7E0FA0028F9D10BB0F0BDFEFF000034
:104660002082000020830000B0B582B00C480BF01F
:1046700077FB8E4D0120287001AC00202070204671
:10468000FFF766FB207868800AF0DCFD6624204690
:10469000FEF754FA2046FEF749FB02B0B0BDC04613
:1046A000BB5C0108B0B50446254D2878012845D1EA
:1046B000FFF762FB002841D0611E05293ED8C046A5
:1046C0007944097949008F4402190E3939240220AE
:1046D000295E2A480AF05AFE00242C70A878FFF7B9
:1046E0002FFC6C701AE06988491E0AB2002A00D5B6
:1046F000411E698008B20AF0A5FDB0BD6988491C59
:104700000AB28242F5DB0021698008B20AF09AFD04
:10471000B0BD0CA00BF024FB0020288062480122D1
:1047200042700270852000026149FEF7D9FC6724BF
:104730002046FEF703FA2046FEF7F8FAB0BDC04661
:104740007C0100204772616F735F48616E646C6525
:10475000723A2053656C6563616F20287669612029
:104760007365746173292063616E63656C61646154
:104770002E0D00002C0000205B4E01082F5C01086C
:10478000B0B582B0184D2C78022C2AD31748007887
:10479000012826D168782146FBF7ADFF491C6970D6
:1047A00013A022460AF0F2FD6A782B786C461A496B
:1047B00020460AF017FE2046FBF706FD8521090278
:1047C00082B208462146FEF78BFCFEF723FA00284A
:1047D00005D0FEF793FDFEF71DFA0028F9D1FFF78B
:1047E0002DFE02B0B0BDC0462C0000207C01002090
:1047F000506167696E6163616F3A204D7564616EE7
:10480000646F207061726120706167696E6120253C
:10481000642F25640D0A0000F85C010880B586B09D
:104820000B4A1278012A10D1801D891F89B201AA72
:104830001123FEF705FD002804D001A8FFF7FEFCB8
:1048400006B080BD03A00BF08BFA06B080BDC04659
:104850007C01002046616C686120616F206578747E
:104860007261697220746578746F2064612070656C
:1048700073717569736120646F207061796C6F6109
:1048800064204457494E2E0D0000000080B50648B4
:1048900001224270054900234B70027085200002FE
:1048A0000349FEF71DFC80BD2C0000207C01002088
:1048B0005B4E0108F0B587B0002506955422825C56
:1048C000012A03D10224204607B0F0BD0646543623
:1048D00001243470026893685B0714D407694B683D
:1048E000022B18D104200743994887426DD197487D
:1048F000C0430B68D9430143906A0840906200248A
:10490000002B66D4D2E0816D20220A438265357087
:10491000204607B0F0BD059304231F438C4CA742EB
:1049200062D10F683846894B1840936A03439362FB
:104930003802536983438968014086480840184318
:1049400050610024002F00D4B0E00320820582488B
:104950000368194611403846804F0490B84200D091
:1049600096E07A4F7F1CB94200D391E07A48036801
:1049700093431943754A5118491C016079480068EE
:104980007949FBF7B8FE0C214143481C0690069874
:10499000002800D18AE00698401E0690069800285C
:1049A00000D183E00698401E0690069800287DD02E
:1049B0000698401E06900698002877D00698401E5C
:1049C000069006980028E6D170E00B680024002BC2
:1049D0006CD5FA480168624A93426BD05F4A9342B1
:1049E00064D10122920567E01F27059C27400F2410
:1049F00000940397BC40076E0194A74302970C688C
:104A0000524F3C42049462D0E4072F4667D1049F82
:104A1000BC075FD47C075FD43C075FD4FC061F460D
:104A20005DD4049CA30671D4630671D4230671D4AB
:104A3000E30571D4049B9B0570D4049B5B056FD484
:104A4000049B1B056ED4049BDB046DD4049B9B0468
:104A50006CD4049B5B046BD4049B1B04009F3ED46A
:104A6000049BDB0366D4049B9B0365D4049B5B031C
:104A700064D4049B1B0363D4049BDB0262D4049BB9
:104A80009B0261D4049B5B02DB1716271F4026E0C4
:104A9000334F0498B84209D10127BF053B4005D1E7
:104AA000C64803689343194339430BE035702046E9
:104AB00007B0F0BD254A521C11400322920503683D
:104AC0009343591801603570204607B0F0BD63006C
:104AD000DF0E04E0012702E0022700E00327039C29
:104AE000A740029B1F430766059B9B08C06998422D
:104AF0000AD90198C043936A0340049FB800000F8D
:104B0000A0401843906213E7049F11E70527E6E7EA
:104B10000627E4E70727E2E70827E0E70927DEE7BB
:104B20000A27DCE70B27DAE70C27D8E70D27D6E7BB
:104B30000E27D4E71027D2E71127D0E71227CEE7B8
:104B40001327CCE71427CAE71527C8E7FFFF7F0024
:104B50000400008000FFFF7F08270140000200A43E
:104B6000000400A830000020400D03000068006C25
:104B700070470000F0B589B0044600200890002C72
:104B800076D00790A06D002807D1254654352046E1
:104B900000F016F900202870E06501273D0726681F
:104BA000B068C00026D4B0687F4901402943B16095
:104BB0007E4800687E49FBF79EFD400008900898FB
:104BC000002817D00898401E08900898002811D097
:104BD0000898401E0890089800280BD00898401E9E
:104BE00008900898002805D00898401E089008985A
:104BF0000028E7D1B068284208D1A06D10210143F8
:104C0000A165E06D012107910843E065B0680421CA
:104C10000140A26D102002405118A16D2BD10690C9
:104C20000F20C7433A46F33A1140891CA165B16889
:104C3000C9077DD10390049727462037216B4A1E70
:104C400091410D03A168227E92030A43617EC9034C
:104C50001143A27E50030843E36803432B43012022
:104C6000C507216900290590029509DAA94308E0E2
:104C7000012009B0F0BD0143A165384609B0F0BD7F
:104C800041050B43387B45001D433878012809D185
:104C9000002A11D0A06D20210143A165E06D059986
:104CA0000843E065626A002A0CD0072080010240B8
:104CB000A16A1143294306E0059800040543626A8E
:104CC000002AF2D12946F0683A4A02400A43F260CB
:104CD0000320820763681D461540E16C387F012878
:104CE0000ED1206C0090676CA06C01900098074377
:104CF000019807432F430F43059807433D4600E0C3
:104D00000D43049F30692C490140294331610298C9
:104D1000834203990CD093420AD0059880078342BE
:104D200006D08804034025490A688243D0180860E9
:104D3000706907229043656B284370617069702128
:104D40008843A16B09010143716121690123580561
:104D5000814203D000290BD1B06A07E0B06AE06954
:104D600080001C301C2101408F40206E3843B0620F
:104D700070691040A8420AD10020E065A06D0121B1
:104D8000014302208143A165079809B0F0BDA06DE1
:104D90000699084302218843A065E06D1843E06549
:104DA000184609B0F0BDC046E8FFFF6F3000002094
:104DB000400D03000102DEFF02FCFF1F0827014037
:104DC00080B58AB00021099108910791069105915B
:104DD0000491039100680D49884201D00AB080BD5A
:104DE0002020029002A802F081FB002801D0FEF7EB
:104DF00052FF0120000506490A6802430A6009685B
:104E00000140019101980AB080BDC04600240140D4
:104E100040100240F0B581B00D46044640690828B4
:104E200001D1082704E02068C068C0073FD10427EB
:104E300000F06AFD06462168086838421CD001204F
:104E40004202A36D1343A365CA681205920F4AD1AB
:104E5000A27E002A47D10A68120744D58A68520701
:104E600038D4224658324B680C25AB434B60FF25A3
:104E700002351368AB4334E0002D1FD0681C10D1FD
:104E800008683842DBD108683842D8D1086838420F
:104E9000D5D108683842F3D0D1E721680868384294
:104EA000CDD100F031FD801BA842F6D908E0A06DFD
:104EB00020210143A165012001B0F0BD00F024FDD7
:104EC000542000212154A06D04210143A165032039
:104ED00001B0F0BDA26D20231343A36522465C32CE
:104EE000E36D03431360227E0020002A01D001B04D
:104EF000F0BD0C220A6001B0F0BD000070B50146A3
:104F0000006882680220520711D454228A5C012A68
:104F10000DD00C4654340120054620700E4608463C
:104F2000FCF722F9002803D000202070284670BD2D
:104F3000B06D09490140012000020818B065002049
:104F4000F06531681C220A6020708A68304B13407B
:104F50001A1D8A6070BDC046FEF0FFFFF0B581B03B
:104F600004465420205C012802D1022001B0F0BD8B
:104F700026465436012737702068816849071FD4B8
:104F800081688268D20737D00222114034D181680B
:104F900005220A40012A27D181681D4A0A40911C36
:104FA00081600321016000F0AFFC05462068806845
:104FB000C00721D000F0A8FC401B0328F6D313E063
:104FC0008168890704D48168114A0A4010328260DE
:104FD00000F09AFC0546206881684907D0D500F0AA
:104FE00093FC401B0328F6D3A06D10210143A1655B
:104FF000E16D5C34384605E0FF200230A16D81434D
:1050000058340020002232703943216001B0F0BDD5
:10501000E8FFFF7F70B503460120CC0720D0114C7C
:105020000C40651EAC4103261546F541032D17D8EB
:105030007D442D796D00AF440B0105090B4C0C40EC
:105040000ED105E0084C0C400AD101E0002C07D13C
:1050500018684161816818239943114381600020D9
:1050600070BDC04680FFFF7F00FFFF7F0000FF7F15
:10507000F0B584B00E46022141770468A16801258D
:105080002943A160016A01291ED002290ED00329FB
:1050900028D1002A00D103E10395032511462940B8
:1050A000042A00D3D2E033460025DEE057081ED0A4
:1050B000039503213B460B4000937B1E032B029676
:1050C00001971AD2002133E0970814D003950323E7
:1050D000394619400091791E03290296019349D25D
:1050E00000257AE000214577084604B0F0BD002194
:1050F000D2073CD1D4E000219EE08F430021354609
:105100006B882E883604F3182360EB88AE8836044B
:10511000F31823606B892E893604F3182360EB891A
:10512000AE893604F31823601035091D8F42E7D18C
:10513000009F002F029E14D08B00F1184D88F35A67
:105140001B045B192360012F0BD0CB888D882D04A5
:10515000EB182360022F04D04B8909890904C91870
:10516000216001998900039DD20700D198E0715A0E
:10517000218095E09F43002531460E7836064B7816
:105180001B049B198E7836029B19CE789B192360DD
:105190000B791B064E793604F3188E7936029B196B
:1051A000CE799B1923600B7A1B064E7A3604F318CE
:1051B0008E7A36029B19CE7A9B1923600B7B1B06D5
:1051C0004E7B3604F3188E7B36029B19CE7B9B19DF
:1051D000236010312D1DAF42CFD1009F002F029EC2
:1051E00026D0A900735C1B0671184D782D04EB18AE
:1051F0008D782D025B19CD785B192360012F17D0B4
:105200000B791B064D792D04EB188D792D025B1956
:10521000CD795B192360022F0AD00B7A1B064D7AD9
:105220002D04EB188D7A2D025B19C97A591821606B
:105230001146019B9943039D03231A407A44127936
:10524000520097442C011C24715C27E0AA430025DE
:1052500033463768276077682760B7682760F76844
:10526000276010362D1DAA42F3D1002905D0AA00CF
:105270001D469B582360012917D1039D10E0721829
:105280005278715C090289182180046808E072185C
:105290005378715C0902C9182180917821700468E3
:1052A00021684577084604B0F0BDAA18536823600A
:1052B0000229039DF4D091682160F1E7B0B5012582
:1052C000002814D00446407F002804D10020207715
:1052D000204600F031F8022060772079002808D0BD
:1052E000A168E2682046FFF795FE002808D028460E
:1052F000B0BD20680F4941618168182291438160E7
:1053000000256079002801D0216900E0E943206888
:10531000016181686022914362690A438260816809
:1053200080229143A2690A43826001206077284667
:10533000B0BDC046B71DC10481B0006808498842AD
:1053400001D001B070470120000306490A680243FA
:105350000A60096801400091009801B07047C0469A
:10536000003002403810024070B500282CD00146B1
:1053700024314A78022A29D1046822680E239A43EC
:105380002260426C1568314B1D4015602568012272
:1053900095432560046C1C2525401446AC40D74D30
:1053A0002E6826432E60846CC56C6560046D002CED
:1053B00005D025681D402560436D806D58604A709A
:1053C000002000220A7070BD012070BD0422C2635B
:1053D000012000220A7070BD70B5242101244454BC
:1053E000014624314A78022A2BD103681A680E2418
:1053F000A2431A601C68012294431C60446C256817
:10540000124B1D402560046C1C2525401446AC4001
:10541000BA4D2E6826432E60846CC56C6560046DA1
:10542000002C05D025681D402560436D846D5C60AF
:1054300000240C704A70816B002900D088472046F8
:1054400070BD0421C163204670BDC046FFFEFFFF52
:10545000F0B585B0016C1C240C4004231946A14012
:10546000A64A121F15680A4603952A40564256411D
:10547000049005682A6817461F40784278413043F7
:1054800032D0029501210226104630404742474162
:10549000A640039B1E420D46019400D03946049F4E
:1054A0003C462434002931D008200240564256415F
:1054B0000198C340180700D53546002D24D1029A23
:1054C00010680E218843106001200146019A914026
:1054D0008A4B1A680A431A60F863002121706070D1
:1054E000796B00290ED10FE02868800602D4286865
:1054F00098432860814A106808431060049F396B04
:10550000002901D03846884705B0F0BD029A1068DE
:10551000800605D410680A2188431060012060705D
:10552000002020707549086830430860F96A002936
:10553000E8D1E9E7F0B587B000284AD00446014633
:1055400024310220069148702768386834490140A8
:105550003960344E30468030A06433483818142502
:105560002946FBF7C8F88000811920640591616421
:10557000FC20384008382946FBF7BDF81C220240C1
:1055800001210B469340E364A0680490E568264639
:10559000103645CE0196E6690296266A03962843A0
:1055A0001043019A10430E46029908430399084399
:1055B00039680143049A11433960B1031B488A4298
:1055C0000AD1002205990A606260036015461346FD
:1055D0001BE0012007B0F0BD6168CFB2059A1760EB
:1055E0000360491E00220329154613460DD8791E73
:1055F0008A0082180023D36703250D403346AB4051
:105600000B490B607C32BC3005460020E06322650C
:105610006565A365069908704E7007B0F0BDC04679
:105620000F80FFFF00080240F8FFFDBF8408024022
:1056300044090240F0B583B004462420205C0128D0
:1056400002D1022003B0F0BD254624356878012838
:1056500030D10092022068700020E0632668326832
:1056600001270297BA433260A26CE76C5760226D43
:105670000192002A02D0626DA76D5760226C1C2730
:105680001740029ABA401D4F3F6817431B4A1760E4
:105690007360A368102B009F3A4600D00A46B260A0
:1056A000102B00D03946F1603168226B002A06D0F9
:1056B0000E2209E002200021297003B0F0BD04226F
:1056C0009143316032680A21114331600299090225
:1056D000626C1368DB0302D513680B431360019BF4
:1056E000002B02D01A680A431A603168029A1143EB
:1056F00031600021297003B0F0BDC04604000240B3
:10570000B0B5044600F000F90546601C02D004481C
:105710000078241800F0F8F8401BA042FAD3B0BD7E
:105720000800002080B5202801D1FEF707FA80BDCF
:10573000B0B50446074D2868204203D02C602046AF
:1057400000F00AF86868204203D06C602046FFF73A
:10575000E9FFB0BD0C18024070470000F0B58AB0F8
:10576000069009910B68002B00D1B4E05B480699C4
:10577000814201D0062000E005200B221207069985
:1057800089180A22D1410091042900D3009006987B
:105790002030019000252E46079529460FE01A4338
:1057A00062600899491C099803681846C840083582
:1057B000B61C079A121D0792002800D18BE0012425
:1057C00020460891884003400393EAD00495099944
:1057D0004A6810211143122915D11C21079A114042
:1057E00005960F2632468A40089BDB089F00019BE6
:1057F000DD599543099A12693240059E8A402A4331
:10580000DA5109994A68032311461940B1400293BD
:10581000B3403746069E35689D430D4335603E468E
:10582000D9430591122A049D15D894402E490C4263
:105830000FD0069CA168059B1940099BDB68B3400B
:105840000B43A3601109089B9940636883430B4392
:105850006360032AA5D0069BD8680599084009997A
:105860008968B1400143D960D0009AD518202840FA
:105870000F218140089A029B9A43194CA218136E7B
:105880008B430099814019431166164802680998B4
:105890004068C10302D5039B1A4301E0039B9A436E
:1058A00010490A604A68810301D51A4300E09A430F
:1058B0000C494A602268C10205D51A432260626819
:1058C000800206D56BE79A4322606268800200D5A9
:1058D00065E79A4364E70AB0F0BDC0460014005083
:1058E00000180240801802400600060000690840C7
:1058F000411E88417047002A02D01822815070470B
:105900002822815070470000014800687047C04657
:10591000F8260020B0B50246034640335C780220EA
:10592000202C17D11C78012C14D02420587010681A
:1059300002680124A24302602203056895430560C2
:1059400002680A4302600168214301600020187068
:1059500020215970B0BDB0B50246034640335C7893
:105960000220202C17D11C78012C14D02420587030
:10597000106802680124A24302600F221202056827
:105980009543090229430160016821430160002019
:10599000187020215970B0BDF0B581B0002822D018
:1059A000054640356978002905D100212970044653
:1059B00000F026FB20462421697001680B68012253
:1059C00093430B600F231B0644689C430C618C6857
:1059D0001C4B1C408C608468C668012E06D1D6031F
:1059E00034438C600CE0012001B0F0BD2127BF02E0
:1059F0003C438C60022E03D1D4024E68264302E061
:105A0000D4024E68A6434E604C680F4E26434E604B
:105A1000CC681C40CC60036944691C4383691B0249
:105A20002343CB60C369046A1C430C600B681343B7
:105A30000B600021416420226A7001630846A9704E
:105A400001B0F0BDFF7FFFFF00800002F0B589B01C
:105A500007930546002408940346403358780227EC
:105A6000202800D090E028688069000400D58BE0F1
:105A70001878012800D187E0242058700120039372
:105A80000290187004946C64CD4801400692059110
:105A900013E0C46100972024002228462146079B7A
:105AA00003F054FF00285DD00898401C0890089827
:105AB0000898069A904205995ED2E8680128344811
:105AC00000D03448401829684860FFF71DFF07469A
:105AD0002868816920263140826910242240891873
