:020000040800F2
:10000000004F0020D5000008A5A30008159800089F
:1000100000000000000000000000000000000000E0
:10002000000000000000000000000000B9AA000865
:1000300000000000000000004DA400084DAB0008C7
:10004000E7000008E7000008E7000008E7000008F4
:10005000E7000008E7000008E7000008AD3C0008E2
:1000600089BE0008792B0008892B0008E7000008EA
:10007000E7000008E7000008E7000008E7000008C4
:10008000E700000800000000000000001DAC0008B0
:1000900000000000E7000008E7000008E700000893
:1000A000E7000008E7000008E7000008E700000894
:1000B00021B6000800000000000000000000000061
:1000C0000348854600F068FE00480047F1F200084A
:1000D000004F00200448804704480047FEE7FEE741
:1000E000FEE7FEE7FEE7FEE70DAC0008C1000008F2
:1000F00030B5434351435C18010C130C0D465D436E
:100100002C1980B292B20546554351430A0C09049A
:100110004D1962415843010C00044019514130BD52
:1001200000487047E4FD000810B50446FFF7F8FFEB
:100130000068005DC007C00F10BD01466139192974
:1001400000D82038704701464139192900D820309D
:10015000704703460B439B0703D009E008C9121FF1
:1001600008C0042AFAD203E00B780370401C491C33
:10017000521EF9D27047D2B201E00270401C491EF3
:10018000FBD270470022F6E710B513460A46044634
:100190001946FFF7F0FF204610BD10B5044605E0F4
:1001A0000B780370401C002B00D0491C521EF7D264
:1001B000204610BDCAB2401E4178401C8A4202D07F
:1001C0000029F9D100207047421C0178401C002909
:1001D000FBD1801A704710B5002200E0521C835CEE
:1001E0008C5CA34201D1002BF8D1D8B2E1B2401A05
:1001F00010BD30B504460020034600E05B1C93426E
:1002000003D2E05CCD5C401BF8D030BD03460A78D9
:100210000270401C491C002AF9D118467047F8B5F5
:100220000E460546002400E0641C285DFFF78BFFA6
:100230000746305DFFF787FF381A02D1295D002994
:10024000F2D1F8BD0FB400B58DB009900B9010A994
:1002500000200091C0430A9000200C9006480690B0
:10026000064807906A4609A80F9900F0A9FA0DB050
:1002700008BC04B018470000E107000801080008A6
:10028000FFB50027FF4383B000205C6801909E68A3
:100290001D46A9697F1C049888470090296A8847F1
:1002A0000028F6D10098401C0CD003204002844363
:1002B000002E19DD600614D500982B2809D02D28B2
:1002C0000FD103E00020C04307B0F0BD0120800241
:1002D0000443A9697F1C04988847761E0090002E6D
:1002E00002DD0098302803D00598002825D035E09D
:1002F000012040020443A969761E7F1C04988847A8
:100300000090002E03DD782805D0582803D00598EA
:10031000002810D022E00598002801D010281DD117
:10032000012040028443A969761E7F1C04988847F7
:100330000090102002E0082000E00A2005900DE067
:10034000012149020C43059A0199761E5143081870
:100350000190A9697F1C049888470090002E05DD54
:100360000599009800F016FA0028E9DAE96904987E
:100370008847A00502D40120C043A5E7E00722D1A9
:10038000600611D56005019800D5404229680A1D14
:100390002A600968220501D5087014E0220701D5FA
:1003A000088010E008600EE02868011D29600068E0
:1003B000210502D50199017005E02107019901D5B8
:1003C000018000E0016038467EE70000F7B5009C40
:1003D0000F4600262578641C002D05D0FFF7A0FEEF
:1003E0000068405DC007F5D12B2D02D02D2D18D00F
:1003F000641E39462046029A00F014FA002F04D0F9
:100400003968A14201D1009939607105022400299F
:100410000BDA4042002803DD0FF018F80460A00753
:10042000FEBD012080020643E3E70028F8DA0FF062
:100430000DF804600048FEBDFFFFFF7F70B5064663
:100440000FF004F8046805460A2200213046FFF741
:10045000BDFF2C6070BD70B506460EF0F7FF046856
:1004600005460A2200213046FFF7B0FF2C6070BD20
:10047000F8B502464A40D40F42004B0052085B08D0
:100480009A4202D20246084611464A0023D0C30DC2
:100490004A00DDB2120EAD1A202D35DA49020126CE
:1004A000490AF6058A19002C00D0524220214F1B20
:1004B0001146B9402A411018C20D9A4221D0002C91
:1004C00017D0012D08DCDA05801AD20F8019D20767
:1004D000DBB200F002FAF8BDDA05801A0123400011
:1004E0001B06C01880185A428018CA0F10434900D2
:1004F00007E04908C2071143DA05801A801940084D
:10050000801800F0E2F9F8BD61000122511A001BC9
:10051000F7E70122D2075140AAE70122D207504053
:10052000A6E7024670B54A40D30FDB0740002DD046
:100530004A002AD0010E140E000212020919400AC4
:10054000520A8418E50104465443000A120A2E0494
:100550005043A4194219200CC543AA18120C0125B6
:10056000AD03521C521912047F39240400D0521CCE
:10057000104301D44000491EC2B20C06C009201825
:10058000401C4008802A02D003E0002070BD4008D3
:100590004000002900DA0020184370BD70B5024603
:1005A0004A40D50F40004A00ED0740085208002895
:1005B00014D0002A12D0C40DD30D41020120C00571
:1005C0005202490A520AE41A091812187D3491425B
:1005D00001D3641C00E04900002C01DA002070BD4A
:1005E0000023914201D3891A03434008490000289F
:1005F000F7D100290AD0914202D10121C90705E0B3
:10060000914201D2012101E00121C943E005C01856
:10061000401900F05AF970BD0122D207002800DB12
:10062000101A002900DB511A814201D201207047C3
:10063000002070470122D207002800DB101A002991
:1006400000DB511A814201D9012070470020704718
:10065000C217C10F504010B54018CA079623002199
:1006600000F03BF910BD10B500229623114600F0B2
:1006700034F910BD0EB5C217C10F5040CA0740185B
:100680000021054B0293019200910A460B4600F0AF
:100690006AF903B000BD000033040000C20F41003E
:1006A00040020123400ADB05D207090EC0187F294A
:1006B00001DA00207047962903DC9623591AC840B6
:1006C00001E096398840002AF4D040427047C20FBA
:1006D000D207400040080BD0C10D0723DB01C91829
:1006E00040020905400A1143C20840071143704700
:1006F00000200146704770B50446002903D0002051
:100700002022012310E0002801D00020C043C04671
:10071000C0460DE02546D5408D4205D30D46954097
:10072000641B1D46954040191546521E002DF1DCF4
:10073000214670BDF0B51FB40646002082B00546C4
:100740004024019100901BE0019922460F4630465B
:1007500000F04AFB049A059B801A994110D3104679
:100760001946224600F030FB361A8F410197224687
:1007700001200021009F00F027FB38184D41009018
:100780002046641E0028DFDC019B00982946324683
:1007900007B0F0BD3A2800D23038202302469A43F1
:1007A000412A01D310463738884201D30020C04384
:1007B00070470000026813785118016018467047AE
:1007C00010B5D160044951610449116200211161E1
:1007D000114600F02DFB10BDB507000829010008E7
:1007E0004268002A08D001680B78491C002B03D00E
:1007F000521E06C0184670470121C160881E70470E
:100800004268002A0BD0C3680168002B07D18368B7
:100810008B4204D0491E521C06C0002070470020A5
:10082000C0437047F7B582B0029C00272078641C53
:1008300015460197302802D0002D15D015E02078FC
:100840000127641C782804D0582802D0002D09D034
:100850000BE0002D01D0102D07D1002710252078A6
:10086000641C02E0082500E00A250026009610E03E
:100870000099012769430818020C294680B2714388
:1008800000908E183804864201D301200190207810
:10089000641C2946FFF77EFF0028E9DA0398002848
:1008A00005D0002F01D0641E00E0029C0460019876
:1008B000002806D00EF0CAFD02210160C81E05B056
:1008C000F0BD009930040843F9E7002904DA401C20
:1008D000490001D140084000704770B40024050C65
:1008E00005D11024000402D1002921D01124050EC5
:1008F00001D100020834050F01D10001241D850F2C
:1009000001D18000A41C002801DB4000641C0029E8
:1009100008D020252E1B0D46F540A14000D0012116
:100920002943084301061B1B000ADB1D02D50020DA
:1009300070BC7047DB05181880180029F8DA401CD5
:100940004900F5D170BC40084000704710B5002B3D
:1009500008DA0024401C614192185B411A4301D11E
:100960004008400010BDF0B51FB482B005460C0031
:1009700003D008460EF052FD02E00EF04FFD20308D
:10098000024600902146284600F01EFA049B059A74
:1009900004460F4618431143084314D01846104329
:1009A0001BD0009840210A1A1846059900F01CFA3D
:1009B00005460E46009A0599049800F005FA08438A
:1009C00005D0012004E02046394607B0F0BD0020E4
:1009D000C11705430E432C43374300990E98630516
:1009E000401A7905E40A00220C43FD0A0A3002D5B8
:1009F00000200146E9E70105101969410C9C0D9D95
:100A000000196941FFF7A2FFDFE70000F0B50746D4
:100A10000846584087B0C00F049048000E46590061
:100A200040084908BC1A884105D2384631461E465E
:100A300017460B4602465800400810434CD0300D74
:100A4000039040055900400D490D0590401A029051
:100A5000402872DA18030121000B090508430190B0
:100A600004980092002805D0019952420020884144
:100A700000920190029840210A1A0199009800F012
:100A8000A3F905460C466B4607CB00F0BEF9C0192A
:100A90007141039A0E0D0023D71756401A467A402B
:100AA000164344D0049A002A2DD0029A012A039AB0
:100AB00015DC1205C01A914101263605001C714152
:100AC000D20F059ED2070093019202962A46234632
:100AD000FFF749FF07B0F0BD38463146FAE7160583
:100AE000224A0F46B218C01AB74101210905001C5D
:100AF0004F4100187F41114618187941E20F104309
:100B00006D19644113E0E2076D0815436408C207DC
:100B10001443039A01261205C01A91413605001CA0
:100B20007141CE07400830434908C01851412A4658
:100B30002346FFF70BFFCDE7FFE7049801224000B3
:100B4000C117121A00238B4104983146C417381A72
:100B5000A141EEE730B40124E407634030BC55E71F
:100B600030B40124E407614030BC4FE70000E0FFEF
:100B7000F0B51FB488B00B99099800244840099932
:100B8000C00F490049080991C0070B99009049001E
:100B900049080B9109990898A64608431CD00B995F
:100BA0000A98084318D0099801244000420D4800D3
:100BB000410D099824050003000B204309900B9870
:100BC0000003000B20430B9050181C4940180022D2
:100BD00001901446104605E0002001460DB0F0BD1E
:100BE000032801DA034600E003239C46C11A0AAE3B
:100BF0000AE05F0008ADED5B4F00F75B7D43002727
:100C0000AA187C41491C5B1E6145F2DD410004AB22
:100C10005A522104120C0A43240C401C0828DFDB22
:100C2000019802900099704601910090059B049AEA
:100C300007990698FFF797FED0E700000DFCFFFF2D
:100C4000F0B50C465C4085B0E40FE40703944C001B
:100C50000026640859009446490802460296224339
:100C600021D062460A431ED06200570D4A000E038F
:100C70002303550D012402462C492405781B1B0B28
:100C8000360B401823432643614600901C46501AF9
:100C9000B44103D30098401C009002E092180098E1
:100CA0005B41002803DA0020014605B0F0BD0020BA
:100CB000012109050746864611E064461D46141BBE
:100CC000B54106D36546521BB341744607430C43F6
:100CD000A646CD0740084908284392185B410546BF
:100CE0000D43EAD11046184313D0604619465040D0
:100CF0007140084306D06046101AB34106D2012263
:100D0000002306E000220123DB0702E00122D24398
:100D10005310009874460105381C6141029C039DE4
:100D200000196941FFF712FEBFE70000FD03000054
:100D30004A0009030123090B1B0519430A4B10B58F
:100D4000520D9A4202DA0020014610BD064B3433A0
:100D50009A4203DC9A1A00F047F810BD034BD218F0
:100D600000F032F810BD0000FF030000CDFBFFFFD4
:100D700010B5002904DB0124E40740428C412146E0
:100D8000002B04DB1C460123DB075242A34199429E
:100D900000D1904210BD00001CB5094800900948E0
:100DA000019005460126009C05E0E36807CC33432B
:100DB0000C3C98471034AC42F7D3FFF785F900009C
:100DC000A85E0108C85E010810B5202A04DB0146B0
:100DD000203A9140002010BD914020239C1A0346E8
:100DE000E3401943904010BD10B5202A04DB0846AB
:100DF000203AD040002110BD0B46D340D0402024E3
:100E0000A21A91400843194610BD10B5202A06DBEE
:100E1000CB170846203A1041C1170B4306E00B469A
:100E20001341D0402024A21A91400843194610BD16
:100E3000F3B58DB000200A9001200B9000260846E3
:100E40000C300C4609906269012109989047051EF3
:100E50002ED0252D2DD0216A8847002818D0626910
:100E6000012109989047216A88470028F7D1411E3F
:100E700062690998904700E0761CA1690D9888473F
:100E8000216A88470028F7D1E1690D988847DAE799
:100E9000A1690D9888470746A84201D1761CD2E780
:100EA000E1690D9888477F1C02D10A98002877D005
:100EB00049E1002762693D463946099890472A284A
:100EC0000CD16269012109989047012506E00A21A9
:100ED0004F433F18303FEBD4102005436269012196
:100EE00009989047014630390A2903D29B498F421D
:100EF000DEDCECE7E90600D4994F6C280AD04C28D8
:100F000010D0682824D06A282ED074280CD07A28D3
:100F10000AD00DE062690121099890476C2823D01E
:100F200004211CE0202005436269012109989047B3
:100F3000A760656065284FD026DC582839D01ADCB8
:100F4000452849D012DC252834D04128B0D143E0CF
:100F50006269012109989047682802D008210D4351
:100F6000E6E70120C002DEE70220DCE7462833D0B6
:100F700047282CD130E05B2870D061282CD0632822
:100F80006CD0642823D161E06F284FD009DC66283B
:100F900022D0672820D0692826D06E2817D12EE0CD
:100FA000CDE070284DD073286FD075284ED07828AA
:100FB0000DD154E0A1690D9888470546252800D138
:100FC0006CE7E1690D9888476D1C00D16DE7BAE0C8
:100FD0000A224CE00A2252E0012023466A46C0431E
:100FE0000D99C046C046A3E02846402108436060F2
:100FF000A807234601D5002239E000223FE0E80798
:1010000000D020E72068011D21600068290501D576
:10101000067018E7290701D5068014E7A90703D54C
:10102000F117066041600EE706600CE72846402194
:1010300008436060A807234601D5082217E008226C
:101040001DE0484928460840606016E028464021D7
:1010500008436060A8072346BCD5B9E715E02846D9
:10106000402108436060A80707D5234610220120CD
:10107000C0430D99C046C0465AE0234610220120C5
:10108000C0430D99FFF7FCF852E000210C910B468C
:101090000091632802D05B2807D043E0E80601D422
:1010A0000120A060012000903CE0626901210998C4
:1010B00090475E2805D101200C900146626909988D
:1010C00090472169002906D10B4601AA8F00491CCF
:1010D000D3510829FADB002835D0216900290ED127
:1010E000C117C90E09184A11930001AA9A18490993
:1010F0004901411A01201368884003431360626963
:101100000121099890475D28E5D10C98002808D066
:10111000002001AB81005A58401CD2435A50082885
:10112000F8DB01AB01202246C0430D99C046C04602
:1011300000280ADA401C06D10B98002803D00020B2
:10114000C0430FB0F0BD0A98FBE7E90702D10A9946
:10115000491C0A91361800200B9074E6CCCCCC0CBC
:10116000FFFFFF7FF1F7FFFFF0B581B005460024D8
:10117000009400688168C9071CD181682B4A2F320E
:1011800011420AD0A86D10210143A965E86D012420
:101190002043E865204601B0F0BD8168234A114034
:1011A00001273943816022480068000205D4687E27
:1011B000012825D1204601B0F0BD1E4800681E4917
:1011C000FFF799FA401C009000980028EFD0009893
:1011D000401E009000980028E9D00098401E009022
:1011E00000980028E3D00098401E00900098002846
:1011F000DDD00098401E009000980028E7D1D6E787
:1012000004F098FB064604E004F094FB801B0328DE
:10121000B8D228680168C907CCD18168C907F3D161
:101220008168024A114039438160EDE7E8FFFF7FA2
:101230000827014030000020400D0300F0B583B0C6
:101240005E490A684968401A86185B49CF680120E0
:101250000023BE4202460EDD4C68A64205460FDA68
:101260001543012D10D14D69AE4213DC0022BE4260
:10127000034613DA13E01A464C68A6420546EFDB34
:101280001D461543012DEED00D4608350868A742CE
:1012900017D043E00122BE42034600DB1346012B78
:1012A00006D1CB699E420EDC0022AE420EDA0EE081
:1012B00028460D46103508313C4607460868A742C7
:1012C0002CD103B0F0BD0122AE4200DB10460295E6
:1012D00000281BD0A6423BDA886809680291FFF714
:1012E00018F90546381BFFF7B3F901462846FFF702
:1012F00055F90546301BFFF7ABF901462846FFF7C5
:1013000010F90299FFF7B4F803B0F0BD0D46183597
:101310001031029C1F460868A742D2D0391B0746ED
:101320000846FFF795F9029028683946FFF7F1F86B
:101330000299FFF733F90546301BFFF789F901469B
:101340002846FFF7EEF83946FFF792F803B0F0BDF4
:101350008869019009691C46FFF7DBF80746029887
:10136000201AFFF775F901463846FFF717F90546C9
:10137000301BFFF76DF901462846FFF7D2F80199B7
:10138000FFF776F803B0F0BDB0B50A4C0125002296
:101390002046294604F0C5FA284604F0C7F920463D
:1013A00029462A4604F0BDFA03484068034908600C
:1013B000B0BDC0460004005080000020180100208D
:1013C000F0B585B000252C46009505E0019F790019
:1013D0000D18641C182C4ED00195102101223D4897
:1013E00004F09FFA009803900398072817D80398F1
:1013F000401C03900398072811D80398401C0390C1
:10140000039807280BD80398401C039003980728DB
:1014100005D80398401C039003980828E7D320219F
:101420002C4F384604F078FA05461021002638463D
:10143000324604F076FA0496691E484248410499FF
:101440000729C3D80499491C049104990729BDD8D8
:101450000499491C049104990729B7D80499491C97
:10146000049104990729B1D80499491C049104995D
:101470000829E7D3AAE710210122164804F051FAFF
:1014800002960298072817D80298401C02900298EA
:10149000072811D80298401C0290029807280BD800
:1014A0000298401C02900298072805D80298401C18
:1014B000029002980828E7D310210022054804F082
:1014C00030FA780202D5FF2000060543284605B011
:1014D000F0BDC04600080050B0B5FFF771FF0446EC
:1014E000FFF76EFF8442254609DA84420ADDFFF7E2
:1014F00067FF84420BDAA5420CDD2846B0BD0546E5
:101500008442F4DC0446FFF75BFF8442F3DB0446CD
:10151000A542F2DC25462846B0BD0000F0B591B0EA
:10152000012080050B90FF20019000060A9000200A
:10153000FD4F0C900290FD494D1C0C9A1446134629
:1015400003E0641C202C00D1D3E107940893099296
:10155000069128460C9D2C46059005E00E99490001
:101560000D18641C182C4ED00E95102101223846FF
:1015700004F0D7F90C9810901098072817D81098F5
:10158000401C10901098072811D81098401C1090FB
:10159000109807280BD81098401C10901098072816
:1015A00005D81098401C109010980828E7D32021E7
:1015B000384604F0B1F90546102100263846324677
:1015C00004F0AFF90D961096691E484248411099F3
:1015D0000729C3D81099491C109110990729BDD823
:1015E0001099491C109110990729B7D81099491CD6
:1015F000109110990729B1D81099491C1091109990
:101600000829E7D3AAE710210122384604F089F916
:101610000D9810901098072817D81098401C10901B
:101620001098072811D81098401C1090109807287F
:101630000BD81098401C10901098072805D81098C7
:10164000401C109010980828E7D3102138460D9CB4
:10165000224604F066F929460A98014304910B9842
:101660000E9901400E912646204606E00F9949004A
:101670000818761C182EAC4F4ED00F901021012266
:10168000384604F04EF90D9810901098072817D896
:101690001098401C10901098072811D81098401CE2
:1016A0001090109807280BD81098401C1090109894
:1016B000072805D81098401C109010980828E7D3E8
:1016C0002021384604F028F93A4607461021002424
:1016D0001046224604F025F91094791E48424841EC
:1016E00010990729C2D81099491C109110990729FF
:1016F000BCD81099491C109110990729B6D8109997
:10170000491C109110990729B0D81099491C1091C3
:1017100010990829E7D3A9E70D9010210122384636
:1017200004F0FFF810940E98002800D0049D049552
:101730001098072817D81098401C10901098072868
:1017400011D81098401C1090109807280BD81098AA
:10175000401C10901098072805D81098401C109035
:1017600010980828E7D310213846224604F0D9F80B
:101770000D990A98014303910B980F9901400F911D
:101780002546274605E00E9949000F186D1C182DB7
:101790004ED00E9710210122634E304604F0C1F85E
:1017A00010941098072817D81098401C1090109883
:1017B000072811D81098401C1090109807280BD8B3
:1017C0001098401C10901098072805D81098401CBD
:1017D000109010980828E7D32021304604F09CF898
:1017E00032460746102100261046324604F099F88A
:1017F0001096791E4842484110990729C3D810997C
:10180000491C109110990729BDD81099491C1091B5
:1018100010990729B7D81099491C109110990729D8
:10182000B1D81099491C109110990829E7D3AAE75B
:10183000102101223C4804F074F810960F980028FB
:1018400001D003980D9010980728079C049D17D885
:101850001098401C10901098072811D81098401C20
:101860001090109807280BD81098401C10901098D2
:10187000072805D81098401C109010980828E7D326
:101880001021002228480F9204F04BF80A2003F0A0
:101890004DFF0B980E99014201D00A980743099A0F
:1018A000089B069E0D998D42284611DDB84212DA3A
:1018B0008D4213DA85421C4F00DC0546E8175B19A0
:1018C00042410598854229460DDDB1420FDA38E6DE
:1018D0000846B842ECDB38468D42EBDB0D468542CC
:1018E000114FEADDEAE70546B14200DA29E6314662
:1018F00027E6681A01992C318842029807DD401CBE
:101900000A2800D016E60A48406811B0F0BDD0178A
:10191000C00E18180F9951414009C90640180449D2
:10192000486011B0F0BDC04600080050FFFFFF7FC7
:10193000180100207D200001054948607047C0461D
:10194000704700007D200001014988607047C04653
:10195000700100209E4801218170704780B500F021
:1019600093FB9348934901F039F90E4802F0FEF8D1
:101970000D4802F04DFA0D4808F0ECFD08F0B8FCF7
:1019800001F020FD09F09AF802F09CF9FFF7FCFC49
:1019900002F056FB064808F0F7FC064808F0FCFC8D
:1019A00080BDC046F408002018080020280C002044
:1019B00000008E420AD7CD41F0B583B0624C20784A
:1019C000022865D0012871D10CF012FE0DF00EFA3C
:1019D0000DF094FA724804F0E1FC642003F0A6FED6
:1019E000052000070290012671020191324603F0A2
:1019F00098FF19204701384603F098FE69482025D2
:101A00002946324603F08DFF384603F08FFE6648C4
:101A10006649016000242046314605F03BFD09F08F
:101A200099F8142003F082FE08F0B2FB08F016FCCF
:101A300008F07AFB5E485F4901F0D0F85E480EF08E
:101A40007FF958482946224603F06BFF384603F0D9
:101A50006DFE02980199224603F063FF384603F0B9
:101A600065FE632001F080F801F0ECF8002805D055
:101A700001F05EFC01F0E6F80028F9D103F05AFF0E
:101A80003149486088608C700220087003B0F0BD56
:101A9000A078012823D100202070A07036A00EF07D
:101AA0004FF9672000F096F803B0F0BD01F040FC5C
:101AB00000F024FB01F0D2F809F00CF802F0F4FD7C
:101AC00008F020FC01F086FC02F0AAF960780128F9
:101AD00037D1012020700020607003B0F0BD03F00A
:101AE00029FF6168401A194DA84206D918A00EF0C6
:101AF00027F90120207003B0F0BD03F01BFFA1689F
:101B0000401A19214901C731884216D903F012FF42
:101B1000A06003F00FFF6168441A7D20C1002046D9
:101B2000FEF7E9FDAC4202D80521081A00E00020CA
:101B300001B21520000201F083F901F0F9FB01F078
:101B40008DF803B0F0BDC0462C01002088130000C2
:101B500054696D656F75742120566F6C74616E6485
:101B60006F2070617261206F206D6F646F205374FD
:101B70006F702E0D00000000436F6E6669726D611C
:101B8000646F21205265746F726E616E646F2061A4
:101B90006F206D6F646F20617469766F2E0D000089
:101BA00048090020000400501870004001000100A6
:101BB000800D0020C92800089758010880B57D20B5
:101BC000800003F0B3FD02480121417080BDC04692
:101BD0002C010020F0B583B0044642A00EF0B0F80E
:101BE0004A484BA10DF0C2FB0025284600F0BCFF7F
:101BF00001F09EFB4D4803F099FD09F0DFF8002845
:101C00006AD00294414C4A4920460DF0AFFB0120B6
:101C1000019000F0A9FF01F08BFB7D20C600374644
:101C2000C837384603F082FD424920460DF09EFB3E
:101C3000022000F099FF01F07BFB384603F076FDAF
:101C40003D4920460DF092FB032000F08DFF01F08E
:101C50006FFB304603F06AFDFFF760FC37A12046BA
:101C60000DF084FB042000F07FFF01F061FB3046A3
:101C700003F05CFD09F03EF808F08AFB36A120462F
:101C80000DF074FB052000F06FFF01F051FB64368E
:101C9000304603F04BFD01F06FFF002817D01B48C2
:101CA00036490DF063FB062000F05EFF01F040FBBB
:101CB000304603F03BFD32480EF042F8029800F047
:101CC00053FF01F035FB019D284603B0F0BD3B20DA
:101CD00000F04AFF01F02CFB27480EF031F82846AF
:101CE00003B0F0BD0D0A3E3E3E20494E49434941F6
:101CF0004E444F204155544F444941474E4F535451
:101D000049434F203C3C3C0D000000004058010876
:101D100045786962696E646F204C6F676F2065203B
:101D2000566572736F65732E2E2E0000B80B00007F
:101D30001C59010800590108E958010856657269E3
:101D4000666963616E646F205465726D6F6D657452
:101D5000726F2E2E2E0000005665726966696361EF
:101D60006E646F204D656D6F7269612045455052FC
:101D70004F4D2E2E2E00000076580108D65801082F
:101D80005258010880B588B015A00DF0EFFA16483A
:101D90000DF0ECFA07A806A905AA08F0B3FB002885
:101DA00008D005A8037806A8027807A801780FA034
:101DB0000DF0DCFA04A803A902AA01AB08F048FB65
:101DC000002808D002A8037803A8027804A80178A4
:101DD00011A00DF0CBFA1BA00DF0C8FA08B080BD21
:101DE0000A0D0A0D00000000A50201084173736985
:101DF0006E61747572612020202020202020202018
:101E000020202020253032643A253032643A2530B3
:101E100032640A0D00000000526573706F6E7361CA
:101E200076656C20202020202020202020202020CB
:101E3000253032642F253032642F253032640A0D6C
:101E4000000000000A0D0A0D0A0D0A0D0000000036
:101E500010B586B0072901D84C482FE0801D891F96
:101E600089B203AA0B2301F005FA002825D003A8A4
:101E70000078002829D068460024847204810194E7
:101E800000940B2101F08AFF002826D069468C724D
:101E900003A8FEF7A0F9002824D003A824A1082253
:101EA000FEF7A7F9002825D023A003A90DF05EFABC
:101EB0003E2000F055FF06B010BD12A00DF040FF0F
:101EC0003B2000F04DFF06B010BD2F480DF038FF4D
:101ED0003E2000F045FF06B010BD3B2000F040FF63
:101EE00006B010BD27480DF02BFF172000F038FF7B
:101EF00006B010BD1AA00DF023FF2E2000F030FF19
:101F000006B010BD417574683A2046616C68612066
:101F10006E6F2070617273657220726F6275737478
:101F20006F2064612073656E68612E0D00000000F3
:101F300047484B4031323300417574683A2053654D
:101F40006E686120696E636F72726574612E2044E1
:101F50006967697461646F3A20272573270D0A0049
:101F6000417574683A20456E7472616E646F206EBC
:101F7000612074656C6120646520536572766963C5
:101F80006F210D00165A01082C5A0108495A010800
:101F900010B584B0082904D23B2000F0E1FE04B063
:101FA00010BD801D891F89B201AA0B2301F062F9BF
:101FB000002816D001A8FEF707F9002813D0314CED
:101FC0002178002917D000202070641C01A9204628
:101FD000FEF701F9002820D0402000F0C1FE04B037
:101FE00010BD15A000E01EA00DF0AAFE3B2000F0E1
:101FF000B7FE04B010BD042804D23F2000F0B0FEAC
:1020000004B010BD601C01A9FEF700F9012020708A
:102010001F2000F0A5FE04B010BD204601F0C6FF51
:10202000002804D13B2000F09BFE04B010BD172017
:1020300000F096FE04B010BD417574683A20466108
:102040006C6861206E6F20706172736572206465C8
:10205000206E6F76612073656E68612E0D00000042
:10206000417574683A204E6F76612073656E6861C1
:102070002076617A6961206465736361727461645A
:10208000612E0D006401002080B502A000F01AF856
:1020900080BDC0460D0A434C492050726F6E74617A
:1020A0002E20446967697465202748454C502720D5
:1020B0007061726120636F6D616E646F732E0D0AC3
:1020C0003E20000083B010B583B0044605A80EC0C2
:1020D00005AB029301200102074822460DF086F964
:1020E000012804DB0146044801AA09F0B9FA03B04B
:1020F00010BC01BC03B00047BE010020F0B581B0A8
:10210000594E3078012800D0ACE058A0FFF7DAFF34
:10211000FEF706F805460068554C2778C15DC907EB
:1021200006D06778C15DC907A41C0029F5D1641EDB
:1021300020212046FEF73EF800281AD00021017029
:10214000811C2A684D1E2878135CDB0716D008789E
:10215000135CDB0711D04878135CDB075ED088780E
:10216000135CDB07091D002BECD18D1E002807D066
:1021700007E00025002F07D16AE00D46002800D1B6
:1021800005462778002F63D03A492046FEF747F8E6
:10219000002841D039492046FEF741F8364F002843
:1021A00040D037492046FEF73AF800283CD0354960
:1021B0002046FEF734F8002838D033492046FEF791
:1021C0002EF8002834D031492046FEF728F80028A0
:1021D00030D02F492046FEF722F800282CD02D4978
:1021E0002046FEF71CF8002828D02B492046FEF791
:1021F00016F8002824D029492046FEF710F80028B8
:1022000020D027492046FEF70AF800281CD025A038
:102210002146FFF757FF1BE0174F16E04D1C002823
:10222000AED0AEE7083710E010370EE018370CE0FC
:1022300020370AE0283708E0303706E0383704E076
:10224000403702E0483700E0503779682846884731
:1022500007488021FDF796FF0020307070803748D6
:10226000FFF730FF01B0F0BDB80000200D0A0000FC
:10227000180E002086260108B02401085526010802
:102280007C260108632601086B2601086E260108DA
:10229000812601088B260108902601085B2601088B
:1022A00073260108436F6D616E646F20646573630C
:1022B0006F6E68656369646F3A20222573222E0071
:1022C00070B51B4C2178002930D10C2817DC082868
:1022D00022D00A2817D065887E2D27D80646FDF71C
:1022E0001FFF0068805D8006C00E1FD03146124877
:1022F0004655681C608012A0FFF7E4FE70BD7F2881
:102300000AD00D28E7D1608800280CD00A490022A5
:102310000A540120207070BD6088002806D0401E3D
:10232000608004A000E00548FFF7CCFE70BDC04609
:10233000B800002008200800180E00208C25010895
:1023400025630000F0B581B01E4D281D1E49FDF724
:1023500019FF1E480121009129606121A860E960F0
:1023600000272F827F20C00568611948E86119485D
:10237000281819491CC91CC00A88028089788170F4
:102380008726164C2846203021681022FDF705FFCD
:1023900030202F54284631300A221149FDF7D9FE4A
:1023A00028463030E16A226BC2828182A1692964A9
:1023B000C77228354034761EE4D10A48009941712D
:1023C00001B0F0BD980E0020D816000073656E684D
:1023D00005000200C81600008C5E0108C802010852
:1023E0009C5E010820010020B0B58CB00BA80AA9A2
:1023F00009AA08F087F8044608A807A906AA05ABA9
:1024000008F026F8002C15D0002813D007A8037870
:1024100008A8027806A800780BA909780AAC2478E5
:1024200009AD2D7800AF33C711A005A9FFF74AFE0B
:102430000CB0B0BD02A0FFF745FE0CB0B0BDC04669
:102440004572726F3A204E616F20666F6920706F1F
:1024500073736976656C206C6572206120646174A9
:10246000612F686F726120646F205254432E000008
:10247000446174612F486F72613A202573202530C2
:1024800032752F253032752F3230253032752025A8
:102490003032753A253032753A25303275000000F9
:1024A00070B5002822D004462021FDF783FE0028C5
:1024B00020D000210170861CFDF732FE0168751ED8
:1024C00028780A5CD20718D030780A5CD20713D07B
:1024D00070780A5CD2073BD0B0780A5CD207361D10
:1024E000002AECD1B51E002809D009E02DA0FFF785
:1024F000E9FD70BD002503E03546002800D1054602
:102500001A492046FDF78BFE002817D019492046AE
:10251000FDF785FE164E002815D017492046FDF719
:102520007EFE002818D015492046FDF778FE0028C9
:1025300017D013A02146FFF7C5FD70BD0C4E716882
:102540002846884770BD083671682846884770BDA0
:10255000751C0028D3D0D3E7103671682846884709
:1025600070BD183671682846884770BD5726010827
:1025700008250108C42601083C260108C8260108D0
:10258000537562636F6D616E646F204457494E20CE
:10259000646573636F6E68656369646F3A202225B2
:1025A00073220000537562636F6D616E646F204427
:1025B00057494E2066616C74616E646F2E205573AE
:1025C00065202748454C50272E00000080B586B076
:1025D000684607F083FE0AA0FFF774FD0198FEF736
:1025E00076F802460CA00B46FFF76CFD0298FEF74A
:1025F0006EF802460FA00B46FFF764FD06B080BDE3
:102600004461646F73206465204672657175656E00
:102610006369613A0D0A000020202D2050756C730B
:102620006F732028656D203173293A20252E31667D
:102630000D0A000020202D20457363616C6120414C
:10264000202863616C63293A20252E32660D0A002A
:1026500080B586B0684607F041FE0098FEF737F86F
:10266000024603A00B46FFF72DFD06B080BDC04615
:102670004461646F732064612042616C616E6361C8
:102680003A0D0A20202D205065736F3A20252E32F6
:102690006620670D0A00000080B508F02BFBFEF7EE
:1026A00016F8024602A00B46FFF70CFD80BDC0469F
:1026B00054656D706572617475726120696E7465C0
:1026C000726E6120646F204D43553A20252E32668C
:1026D00020430D0A0000000080B582B00348044981
:1026E00001AA08F0BDFF02B080BDC04696FE0008FA
:1026F0000E04000080B52E2000F032FB80BD0000EB
:10270000B0B584B0002825D001A9009119A103AD6E
:1027100002AC2A462346FDF795FD03281FD12878F1
:10272000411EC9B21E291AD821784A1ED2B20B2ADC
:1027300015D801AA127807F031FF002814D001A89B
:10274000037802A8027803A801781BA0FFF7BAFC5F
:1027500004B0B0BD2248FFF7B5FC04B0B0BD0948D5
:10276000FFF7B0FC04B0B0BD07A0FFF7ABFC04B0AE
:10277000B0BDC046256868752F256868752F256827
:1027800068750000DE2501084572726F3A204661C7
:102790006C686120616F20736574617220612064D0
:1027A000617461206E6F2068617264776172652068
:1027B000646F205254432E004F4B2E20525443201E
:1027C000617475616C697A61646F207061726120F7
:1027D000253032752F253032752F253032750000A7
:1027E000CC26010870B584B0002822D001AE009636
:1027F00017A103AD02AC2A462346FDF723FD0328AB
:102800001CD12878172819D821783B2916D8327876
:102810003B2A13D807F0D4FE002814D001A803786F
:1028200002A8027803A801781AA0FFF74BFC04B0B5
:1028300070BD2248FFF746FC04B070BD0848FFF7A2
:1028400041FC04B070BD07A0FFF73CFC04B070BDB4
:10285000256868753A256868753A256868750000C6
:10286000912501084572726F3A2046616C686120BB
:10287000616F207365746172206120686F726120DE
:102880006E6F20686172647761726520646F205298
:1028900054432E004F4B2E205254432061747561D7
:1028A0006C697A61646F20706172612025303275C5
:1028B0003A253032753A25303275000095260108E8
:1028C00080B50AF0ABFA80BD10B5062900D2E0E071
:1028D00002785A2A00D0DCE04278A52A00D0D8E05D
:1028E000C278832A00D0D4E0427903791B029A1877
:1028F000082992B214D300237F4CA2420ED07F4C01
:10290000A2420BD07E4CA24208D08378DC1C8C42C1
:1029100006D8C3189C785B781B021B19794C23805E
:10292000794B9A4214DC844B9A4226DD834B9A42BF
:102930004ADD834B9A427FDCC1239B019A4200D13E
:1029400091E06F4B9A4200D0A3E0FFF721FB10BD4E
:102950006E4B9A4223DD6E4B9A4243DD6D4B9A4299
:1029600076DC6D4B9A4200D185E081231B029A42AE
:1029700000D08EE001F064FD10BD754B9A423FDC43
:1029800019231B029A4200D18CE0744B9A4200D169
:10299000A2E0594B9A427CD1FFF75AFA10BD624B24
:1029A0009A423ADC634B9A427FD031200002824245
:1029B00000D194E08120C00182426AD100205149B7
:1029C000085E01F087FC10BD4C4B9A4262D05E4815
:1029D000824277D05D4882425BD14A48008800F04D
:1029E000FDFE10BD4D4B9A4259D04D4B9A426ED0D0
:1029F0004C4B9A424DD1434A128801F011F810BD58
:102A000081208001824255D0524882426AD0524889
:102A100082423ED101F078F810BD05231B039A4293
:102A20004BD0424B9A4262D0414B9A4231D1354A07
:102A3000128807F02BFE10BD424B9A4221D0612331
:102A4000DB019A4225D12F4A128800F087FF10BD82
:102A500021208002824218D085200002824218D1B3
:102A600001F0ACFC10BD27480088411E4842484197
:102A700000F0FCFE10BD3F493820088000F070F9DE
:102A800010BD2020FFF7A6F810BD1E48007801F009
:102A90009FFB10BD1B4A128807F0B6FE10BD01F067
:102AA00025F810BDFEF756FF10BD164A128800F03B
:102AB00033FE10BD01F0E4FB10BD1248008806F0A3
:102AC00071FE10BD0F48008800F000FF10BD0D48DA
:102AD000008800F079FD10BDFFF770F810BD00F020
:102AE000FBFF10BD0748008800F0BCFD10BD054885
:102AF000008800F087FD10BD302000000F3000007E
:102B000060300000140E00208F3000002F70000095
:102B10008F700000FF830000907000003070000094
:102B20006070000070700000FF4F00001070000027
:102B300020700000903000000E3000003F30000098
:102B40006F30000070300000203000003030000096
:102B50003F200000502000006020000020200000E6
:102B6000044800887047C04680B50249088000F0DC
:102B7000F7F880BDA000002080B5024802F07EFC7E
:102B800080BDC0463C08002080B5024802F076FCBB
:102B900080BDC0469808002080B500680E21016203
:102BA00002F0C8FED949486100208870487080BD95
:102BB00010B54A1E3F2A0AD80068054A904206D13D
:102BC000D24C21810120607002F0B4FEA06110BDE2
:102BD00000440040CD48002101707047F0B581B03D
:102BE0000546CA4F002038707870B880F880B870F9
:102BF000FD60396178613C461C34402620463146F0
:102C0000FDF7C0FA01200102C148FDF7BBFA0C48EC
:102C10003146FDF7B7FA28462146324605F099FFBE
:102C200000280BD0F86806F061F8F86840222146C9
:102C300005F08FFF002801D001F03DF801B0F0BD94
:102C40007C250020EF480178002901D00120704741
:102C50008188C088081A411E8841704770B590B0BD
:102C600002F068FEE74E7169002908D07169411AC7
:102C700089087D2960D3002171610121B170B1788B
:102C800001291CD10020B0707070F06806F02EF899
:102C9000F06834461C344022214605F05AFF0028D3
:102CA0004AD0F06806F022F8F0684022214605F08C
:102CB00050FF002840D000F0FEFF10B070BD7178CA
:102CC000012939D1B169401A80087D2834D372B600
:102CD000348935461C35684629462246FDF739FABF
:102CE00000207070308162B6F0684022294605F0FD
:102CF00030FF00280BD0F06805F0F8FFF0684022A4
:102D0000294605F026FF002801D000F0D4FF6B46CD
:102D1000987859781A78062C10D15A2A0ED1A529FC
:102D20000CD103280AD1DD78822D07D11D794F2DD2
:102D300004D15B794B2B01D110B070BD042CFBD3B7
:102D40005A2AF9D1A529F7D1C01CC1B28C42F3D3BC
:102D50003269002AF0D06846904710B070BDC04676
:102D6000F0B581B004461C2003F0F6F90B2003F007
:102D7000F3F9E6488188C288914207D2C1888288E7
:102D8000D24389188DB20A2D07D24BE08188C288C0
:102D9000511AFF318DB20A2D44D3220A8688DC49AC
:102DA0005A238B558688761CF6B286808688A5279E
:102DB0008F558688761CF6B28680868807278F55C1
:102DC0008688761CF6B28680868882278F5586880C
:102DD000761CF6B28680868800278F558688761CFA
:102DE000F6B28680868884278F558688761CF6B250
:102DF000868086888B5583885B1CDBB283808388C2
:102E00000126CE5483885B1CDBB283808388CA543E
:102E10008288521CD2B2828082888C548188491C5C
:102E2000C9B281801C2003F0A7F90B2003F0A4F99C
:102E3000092D02D8002001B0F0BD012001B0F0BD85
:102E4000F0B581B00C4605461C2003F085F90B2037
:102E500003F082F9AD488188C288914207D2C188C7
:102E60008288D24389188EB2082E07D240E081882A
:102E7000C288511AFF318EB2082E39D3A1B22B0A63
:102E8000090A00918788FA495A22CA558288521C39
:102E9000D2B282808288A5278F548288521CD2B2F7
:102EA0008280828805278F548288521CD2B2828009
:102EB000828882278F548288521CD2B28280828874
:102EC0008B548288521CD2B2828082888D54828830
:102ED000521CD2B282808288009B8B548288521C02
:102EE000D2B2828082888C548188491CC9B2818088
:102EF0001C2003F041F90B2003F03EF9072E02D805
:102F0000002001B0F0BD012001B0F0BDBC000020E8
:102F1000BC250020F0B583B00C4605461C2003F00C
:102F20001BF90B2003F018F9D0488188C288914220
:102F300007D2C1888288D24389188EB20A2E07D25E
:102F400051E08188C288511AFF318EB20A2E4AD3CD
:102F5000210A0291210C0191210E00912B0A8188F6
:102F6000C34A5A2757548188491CC9B28180818835
:102F7000A52757548188491CC9B2818081880727B9
:102F800057548188491CC9B281808188822757544F
:102F90008188491CC9B28180818853548188491C29
:102FA000C9B28180818855548188491CC9B2818009
:102FB0008188009B53548188491CC9B281808188D3
:102FC000019B53548188491CC9B281808188029B2E
:102FD00053548188491CC9B28180818854548188A6
:102FE000491CC9B281801C2003F0C6F80B2003F0F5
:102FF000C3F8092E02D8002003B0F0BD012003B0B1
:10300000F0BDC046BC000020F0B583B0002400290C
:1030100078D00546002875D0E74FF868002871D0B1
:103020000E461C2003F098F80B2003F095F8B888A2
:10303000F98888420AD2F888B988C943401880B212
:1030400086420AD8012486420AD955E0B888F98810
:10305000081AFF3080B28642F4D9002486424BD849
:1030600002940321304608400190721E032A01D2C7
:10307000002122E08E430021D04A6B5CB8881354B3
:10308000B888401CC0B2B88068184378BC88135513
:10309000BB885B1CDBB2BB808378BC881355BB88C4
:1030A0005B1CDBB2BB80C078BB88D054B888401CA6
:1030B000C0B2B880091D8E42DFD1019E002E029C55
:1030C0001AD0685CBB88BD4AD054B888401CC0B2D6
:1030D000B880012E10D069184878BB88D054B888C1
:1030E000401CC0B2B880022E06D08878B9885054EF
:1030F000B888401CC0B2B8801C2003F03DF80B20FB
:1031000003F03AF8204603B0F0BDC046BC000020F2
:10311000BC250020F0B591B00025002A00D1A2E026
:10312000002900D19FE01446A34FFA68002A00D17D
:1031300099E0064600910846FDF746F80346A0428E
:1031400000D323465A1DD1B23D2900D98BE001ACF2
:1031500066718221E170A270A52060705A202070F3
:10316000300A2071A01D00991A461D46FCF7F1FF98
:103170002819FF21C17181711C2002F0EDFF0B2085
:1031800002F0EAFFB9880835E8B2FA8891420BD21A
:10319000F988BA88D243891889B281420BD30122B7
:1031A000009281420BD257E0B988FA88511AFF3158
:1031B00089B28142F3D20022009281424CD3032192
:1031C0000D40411E032901D2002124E0FC210840CA
:1031D00000217A4A01AB5C5CBE889455BC88641CB3
:1031E000E4B2BC805B185C78BE889455BC88641CD3
:1031F000E4B2BC809C78BE889455BC88641CE4B260
:10320000BC80DB78BC881355BB885B1CDBB2BB8001
:10321000091D8842DED1002D1ED001A8425CBB886A
:103220006648C254BA88521CD2B2BA80012D13D05B
:1032300001AA52185278BB88C254BA88521CD2B222
:10324000BA80022D08D001AA51188978BA88815411
:10325000B888401CC0B2B8801C2002F08DFF0B2043
:1032600002F08AFF009D284611B0F0BDBC0000208E
:10327000BC250020F0B583B01C4615460E46521EF4
:1032800029469141421E019090410840012E01D8EB
:10329000002100E001210140601E274687410F40C8
:1032A000012F42D128462146FCF76CFF022C38D36F
:1032B000B01EA11E884200D308460290401C009018
:1032C0000122002305E0D01C1B1D121D009988421D
:1032D00027D00198C6187178FF2922D0202900D361
:1032E000E954029898421CD0B178FF2919D02029BE
:1032F00001D3E81841700298824212D0F178FF2978
:103300000FD0202901D3E8188170901C00998842C1
:1033100007D03179FF2904D02029D4D3E818C1700F
:10332000D1E72819401E00210170384603B0F0BDD6
:1033300070B5214C207800283CD1A088E1888842D3
:1033400038D01C2002F008FF0B2002F005FF207887
:10335000012806D11C2002F00FFF0B2002F00CFF09
:1033600070BD01202070E088A188884201D100252D
:1033700011E000211148124AE388C35C5354E388EA
:103380005B1CDBB2E380E3884D1CA688B34202D00D
:103390003F292946F0D31C2002F0EEFE0B2002F05C
:1033A000EBFEE068AAB2064905F0F8FF002801D05C
:1033B0000020207070BDC046BC000020BC2500204D
:1033C0007C250020D0480121017070480021017047
:1033D0007047C046F0B58DB07D20C7006B4E307889
:1033E000002805D002F0A6FA7168401AB84244D20B
:1033F00002F0A0FAB168401AB84255D302F09AFA26
:10340000B060FFF7ADFB352801D038284AD1FFF76F
:1034100019FC002848D1684606F060FF674901980A
:10342000FDF77FF8FDF73AF90146654C204620305C
:10343000FFF770FDB6490298FDF773F8FDF72EF916
:10344000014620463030FFF765FD7078401C7070F3
:10345000C0B2052828D30020707007F04BFC054649
:1034600006F096FFAA492846FDF75BF8FDF716F926
:1034700001462046FFF7E4FC16E002F05BFA7060BC
:103480003078401E06286BD8784400794000874485
:10349000036A5B6155707600022030700E20FFF7E2
:1034A00063FBA5E70020707002F044FAF168401A4F
:1034B000B84241D302F03EFAF060FFF751FB0146FB
:1034C00013391E2934D801228A403E490A422FD09E
:1034D0000CA80BA90AAA07F015F800282CD009A8F7
:1034E00008A907AA06AB06F0B3FF002824D0684657
:1034F00010214171002101718222C2700B22827061
:10350000A52242705A220270079A8271089AC271EB
:1035100003224272099A02720C9A82720B9AC27248
:1035200041730A9901730E21FFF76EFD0DB0F0BDD6
:103530007728CDD06728CBD00DB0F0BD06203070F5
:103540001220FFF711FB53E7042030701020FFF723
:103550000BFB4DE7052030701120FFF705FB47E717
:103560000020307044E7032030700F20FFF7FCFA92
:103570003EE707203070002000F074F838E70020A4
:10358000307003A00CF0DCFB32E7C0465401002091
:10359000444953504C41593A2053657175656E63E7
:1035A0006961206465206D65646963616F20666987
:1035B0006E616C697A6164612E0D00000AD7233C4C
:1035C000302200004140004080B5044804A1202280
:1035D000FFF7A0FD3520FFF7C7FA80BD9640000039
:1035E00041646A7573744672657175656E63793A84
:1035F00020333030302E304B487A2B2F2D322E3066
:103600000000000010B50A4C002807D0FEF79AFE13
:1036100008A110222046FFF77DFD10BD0AA11B2244
:103620002046FFF777FD3020FFF79EFA10BDC04619
:103630009640000050726573657420436F6D706C26
:1036400065746F210000000050726573657420720C
:1036500065646566696E65206F7320616A75737451
:1036600065732100F0B591B088490978012903D12B
:10367000002803D007F04EF911B0F0BD06AC20468B
:1036800000F076FB207807AE314600F057FB684625
:1036900006F024FE00F078FB04461C4D102228465C
:1036A0003146FFF737FD2020315E2846C030FFF756
:1036B000C7FB0A271098784301B22846E030FFF78D
:1036C000BFFBF08C784301B22846F030FFF7B8FB1F
:1036D000012C01D00F4900E00D490598FCF721FFAE
:1036E000FCF7DCFF014690352846FFF7A9FB012CCB
:1036F00004D07720FFF738FA11B0F0BD1320FFF7A0
:1037000033FA11B0F0BDC046A200002070200000C6
:10371000000020410000C842B0B594B0502A1ED12C
:1037200001AC002020750590049003900290019058
:103730001521204600F0E6FA07AD23A128462246CF
:103740000BF040FE2846FCF73FFD82B21D4829469B
:10375000FFF7E0FC2320FFF707FA14B0B0BD01AC7F
:103760000022227505920492039202920192801D1A
:10377000891F89B215232246FFF77CFD002814D04B
:103780002078002811D001AC204600F0CFFB07AD17
:1037900007A1284622460BF015FE2846FCF714FD2B
:1037A00082B208482946FFF7B5FC14B0B0BDC04648
:1037B0004E6F766120456D70726573613A20257396
:1037C0000000000096400000417475616C20456D5A
:1037D00070726573613A20257300000070B58AB07D
:1037E000154C502814D100F0CFFA02466D4619A1AD
:1037F00028460BF0E7FD2846FCF7E6FC82B220469F
:103800002946FFF787FC1B20FFF7AEF90AB070BD11
:10381000054600F0B3FB6E4608A130462A460BF081
:10382000D1FD3046FCF7D0FC82B220463146FFF78E
:1038300071FC0AB070BDC046964000004E6F766FB6
:10384000204E525F446563696D616C733A20257543
:1038500000000000417475616C204E525F44656346
:10386000696D616C733A20257500000080B50749C9
:103870000870002804D109A10CA00BF077FD80BDD1
:1038800003A10AA00BF072FD80BDC046A20000207B
:10389000484142494C495441444100004445534148
:1038A00042494C495441444100000000446973704E
:1038B0006C61792048616E646C65723A20496D7064
:1038C00072657373616F2025730D0A0070B58AB03D
:1038D000154C502814D100F05BFA02466D4619A130
:1038E00028460BF06FFD2846FCF76EFC82B220469E
:1038F0002946FFF70FFC1A20FFF736F90AB070BD12
:10390000054600F047FB6E4608A130462A460BF0FC
:1039100059FD3046FCF758FC82B220463146FFF78D
:10392000F9FB0AB070BDC046964000004E6F766F3E
:10393000204E525F52657065746974696F6E3A20EB
:1039400025750000417475616C204E525F526570A0
:1039500065746974696F6E3A20257500B0B594B0CE
:10396000502A1ED101AC00202075059004900390D0
:10397000029001901521204600F036FA07AD23A1F0
:10398000284622460BF01EFD2846FCF71DFC82B29D
:103990001D482946FFF7BEFB2220FFF7E5F814B0CB
:1039A000B0BD01AC002222750592049203920292EE
:1039B0000192801D891F89B215232246FFF75AFC08
:1039C000002814D02078002811D001AC204600F047
:1039D0001BFB07AD07A1284622460BF0F3FC284647
:1039E000FCF7F2FB82B208482946FFF793FB14B0BC
:1039F000B0BDC0464E6F766F205573756172696FAA
:103A00003A20257300000000964000004174756163
:103A10006C205573756172696F3A20257300000040
:103A200070B592B014460D46064605A83221FCF743
:103A3000A9FB002C1BD06C46002020740390029040
:103A400001900090701D691F89B211232246FFF773
:103A500011FC002825D02078002822D012A06C4626
:103A600021460BF083FC204600F0B4FA0DE036202E
:103A7000FFF77AF86C4600202074039002900190C2
:103A800000901121204600F09BF905AD2846214603
:103A9000FCF7BCFBFCF798FB82B219482946FFF7FC
:103AA00039FB12B070BDC046446973706C617920F7
:103AB00048616E646C65723A205265636562696440
:103AC0006F206E6F766F2073657269616C3A202784
:103AD0002573270A0000000080B5094809490E2215
:103AE000FFF718FB2120FFF73FF880BD80B50448A1
:103AF00004490E22FFF70EFB3220FFF735F880BD98
:103B000096400000075A010810B5084C207800289C
:103B100000D010BD06A00CF013F90120207001F0B8
:103B200009FF60600D20FFF71FF810BD5401002051
:103B3000444953504C41593A20496E696369616E5A
:103B4000646F2073657175656E63696120646520BB
:103B50006D65646963616F2E2E2E0D000148012191
:103B600001707047B0070020002070474D49086081
:103B70007047C0460020704780B54A48006800285A
:103B800008D0A0210222642301F076FF01464042C2
:103B9000484180BD002080BDF0B585B006460020BC
:103BA000002A21D00D4600291ED014490968002999
:103BB0001AD003901148006864210291049297B2D0
:103BC000802F00D3802700950197B4B2A021022353
:103BD000224601F0F7FF002808D1ED19F619049AE2
:103BE000D21B1004E6D1012005B0F0BD04A021468F
:103BF0000BF0BCFB039805B0F0BDC0467825002053
:103C0000454550524F4D2052656164204552523A0D
:103C10002046616C686120656D20626C6F636F2067
:103C20006E6F206164647220307825580D0A0000A0
:103C300001207047F0B585B007460020002A28D043
:103C4000002926D01546174A1268002A21D0039071
:103C50001448006864220292049100917F21394047
:103C60008022561AA9B28E4200D30E460196BCB2EB
:103C7000A0210223224602F0BFF800280BD1052024
:103C800001F054FD04998919F719AD1B2804DFD1FF
:103C9000012005B0F0BD044821460BF067FB0398F6
:103CA00005B0F0BD78250020FB26010880B58020F6
:103CB00001F054FD80BD72B6FEE7000007480068C1
:103CC000406A704780B5054804F056FB80BDC04689
:103CD00002480068002141627047C046340D002050
:103CE00010B54A1E0B469341441E0246A2411A409B
:103CF000012A04D1D04B5C690460986908601046C1
:103D000010BDC046B0B54C1EA141421E05469541AE
:103D10000D40012D07D19049C74A51182246FCF7A2
:103D20003CFA002101552846B0BDC04680B50028A8
:103D300003D0C1497B4AFCF70CFA80BD70B502463E
:103D4000872801D3002300E001234C1E0846A04130
:103D5000184001280AD128235343B74AD2182032E9
:103D600038CA38C138CA38C178CA78C170BDC046AF
:103D7000002805D0B0494979872900D30021017076
:103D8000411E88417047C046AB48C08B7047C04653
:103D9000A948808B7047C04687207047B0B54C1E3D
:103DA000A141421E054695410D40012D06D1A24973
:103DB00008312246FCF7F1F9002101552846B0BD33
:103DC000B0B54C1EA141421E054695410D40012D46
:103DD00007D18B49984A51182246FCF7DEF9002199
:103DE00001552846B0BDC046B0B54C1EA141421E8B
:103DF000054695410D40012D07D18E49E74A5118DE
:103E00002246FCF7CAF9002101552846B0BDC0463C
:103E1000E14900224A710A7108608A717047C04600
:103E200070B5DD4D2879002818D0A97901294AD12B
:103E3000401E05283FD8C04678440079400087449A
:103E40002D024D574362FFF7F3FE00283BD0FFF7EA
:103E50008BFE00285FD10320287170BD687901288E
:103E600026D1FFF787FE00282DD101F063FDA96858
:103E7000401A2D49884226D3002068710126AE7170
:103E80002868002806D0C54CC64A214601F006F92C
:103E9000C64960502E71A879002814D00020BF496F
:103EA000BF4AFFF7C7FE002835D00220287170BD39
:103EB000A879002807D0012068710020A871287116
:103EC00001F038FDA86070BDBA48B449B44AFFF7A4
:103ED000B1FE00281FD00620287170BDAF49B04840
:103EE0000246FFF7A7FE002815D00420287170BDF8
:103EF000FFF79EFE0028E6D0FFF736FE00280AD125
:103F00000520287170BDFFF793FE0028DBD0FFF776
:103F10002BFE002802D00720287170BD00202871D8
:103F2000A87170BDDC16000088130000B0B5014612
:103F3000002000290ED0984CA279002A0AD1064808
:103F4000964D28181422FCF728F90448002129541A
:103F500001206071B0BDC0464C1500005F15000027
:103F600001460020862907D88B4A9379002B03D17C
:103F700001205071894A51717047C0460146864AF6
:103F80009079002803D101235371844AD183012100
:103F9000484070470146804A9079002803D10123A8
:103FA00053717E4A9183012148407047B0B5014664
:103FB000002000290DD0784CA279002A09D1774D34
:103FC000284608300A22FCF7E8F801206071002139
:103FD000A974B0BDB0B50146002000290ED06E4CCA
:103FE000A279002A0AD176486C4D28181022FCF7D5
:103FF000D4F804480021295401206071B0BDC046A6
:10400000C8160000D7160000B0B5014600200029F0
:104010000ED0614CA279002A0AD106485F4D2818BB
:104020001422FCF7BAF805480021295401206071D8
:10403000B0BDC04638150000980E00204B1500009A
:10404000F0B583B054480068002818D00024534EBF
:10405000534F204631463A46FFF79EFD012102911B
:10406000504A00280ED0514835584B480068314618
:1040700001F014F8A8420AD1029803B0F0BD002064
:1040800003B0F0BD484800210BF070F905E002468E
:10409000474800212B460BF069F9404E384631461F
:1040A0003A46FFF779FD002813D0404835583A4A80
:1040B0001068314616463B4A00F0F0FF0246A8421F
:1040C0000299084664D03A4835492B460BF04EF920
:1040D00004E0354832490BF049F92F4E35482F4D51
:1040E00029463A46FFF758FD002811D02F482B49A2
:1040F0000F5830682B4A00F0D1FF0246B8420299AF
:10410000084645D02A482B493B460BF02FF903E0DF
:10411000254828490BF02AF9281D2449FCF732F8D4
:1041200025480121019129606121A860E9602C8264
:104130007F20C00568612148E8612148281821498D
:104140004CC94CC00A8802808978817087271E4E2E
:104150002846203031681022FCF71FF830202C54FC
:10416000284631300A221949FBF7F3FF2846303040
:10417000F16A326BC2828182B1692964C4722835C6
:1041800040367F1EE4D1044E01987071204602999A
:10419000717103B0F0BDC04620010020980E0020D0
:1041A000DC160000B60500002B270108D816000019
:1041B00061270108B82D000073656E6805000200D4
:1041C000C81600008C5E0108C80201089C5E010848
:1041D000F0B581B0044619A02146FDF773FF8E4D5E
:1041E00068780A21414360182149401880B28B4EFB
:1041F000F27890421BD2400030180621445E1E48DF
:104200002146FDF75FFFB48000277770E0B2FFF72B
:10421000A7FE662068803770FEF7A6FC1748FDF7FA
:1042200051FFFF2002302880778001B0F0BD114897
:104230002146FDF747FF01B0F0BDC0464752414F50
:10424000535F4442473A20436F6E6669726D6172F4
:104250005F53656C6563616F5F50657371756973FA
:1042600061202D20536C6F743A2025750D0A0000D3
:10427000F6FF00002B5C0108835C0108A75D0108C4
:1042800070B582B00AA0FDF71DFFEC4D0020A870AC
:1042900001266E7001AC20702046FFF769FDF748DB
:1042A000662141802078A8802E7002B070BDC04683
:1042B0004752414F535F4442473A2048616E646C15
:1042C000655F456E74726164615F54656C610D0A6F
:1042D00000000000B0B5044622A02146FDF7F2FE22
:1042E0002B4D687801283CD1FFF756FD002838D0C7
:1042F000611E052935D8C0467944097949008F44A3
:104300000218113030250420295E2B48FDF7DAFE13
:1043100000246C702879FFF723FED8496720488075
:104320002C701CE0A988491E0AB2002A07D5411E3C
:1043300005E0A988491C0AB2824200DB0021CF486F
:1043400066224280A98001202870B0BD11A0FDF72F
:10435000B9FECA4967204880002169702970FEF7BC
:1043600003FCB0BD4752414F535F4442473A204897
:10437000616E646C655F4E617665676163616F2035
:104380002D205465636C613A2025640D0A000000FD
:104390007C0100204752414F535F4442473A204E30
:1043A000617665676163616F202D2043616E63658F
:1043B0006C61646F2E0D0A00C95C010870B50EA017
:1043C000FDF780FE144D2C78022C14D3134E707818
:1043D000012810D1B07801280DD168782146FCF76A
:1043E0008AF9491C69700EA02246FDF76BFE652014
:1043F00068800120307070BD4752414F535F444286
:10440000473A2048616E646C655F506167655F4341
:1044100068616E67650D0A002C0000207C01002099
:104420004752414F535F4442473A204E6F766120D6
:10443000706167696E613A2025642F25640D0A005A
:10444000F0B593B00C46054673A0FDF73BFE7B4EDE
:104450007078012800D082E0A81DA11F89B204AAAB
:104460001123FEF707FF002876D0834804AD2946C4
:10447000FDF728FE00200746F070FFF78DFC297835
:10448000002901906FD00121B170002869D0044645
:104490003D4602E06D1CA54263D0E8B209A9FFF7D2
:1044A0004DFC0028F6D004A8017809A80291002943
:1044B000034600D000230078002834D0009509ADD1
:1044C00004A904E0511868786D1C002833D00E78D8
:1044D000002E2CD003911C46FBF735FE07463046D4
:1044E000FBF731FE87420BD1002C284600D0204636
:1044F0000399491C034668786D1C0028E7D11AE02F
:10450000002C00D0651C2878FBF71DFE064602989B
:10451000FBF719FE321A5142514104AA86422B463A
:10452000D0D00023CEE702980028B3D109E0434E53
:10453000019C009D05E00878404E019C009D0028EC
:10454000A8D1002BA6D0F2781D2A41D8501CF070BB
:1045500050003018C5809DE739A0FDF7B3FD13B0BA
:10456000F0BDF27834E00023B370F27800282FD049
:104570001D2A2DD80546500080190C301946831F7E
:10458000198053181C2B1CD84C1CAC4219D2051F87
:104590002C801B2B17D8641C019DAC4213D2851EA6
:1045A0002C801A2B019D10D8641CAC420DD20480C3
:1045B000192B03D80830631CAB42DFD3081D101839
:1045C00004E0581C02E0981C00E0D81CF070C2B255
:1045D0002A4C01206070002A06D0501E2849414311
:1045E000C80F890C0818401C2070002A05D02548E7
:1045F00004A9FDF767FD652009E0234804A9FDF73C
:1046000061FD224822A11722FEF784FD3C20608034
:104610000120307013B0F0BD4752414F535F444208
:10462000473A2048616E646C655F506573717569C7
:1046300073615F546578746F0D0A00007C0100207F
:104640005B4552525D204752414F535F4442473AC7
:104650002046616C686120616F20657874726169C1
:104660007220746578746F20646120706573717551
:104670006973612E0D0A0000FB5B01082C0000200D
:10468000676600006F5D0108405D0108964000000C
:104690004E656E68756D206772616F20656E636F21
:1046A0006E747261646F2100F0B595B06048007857
:1046B000012800D0BAE05F4F79885FA0FDF702FDC6
:1046C0007888662855D1042059490C5E7D482146DA
:1046D000FDF7F8FCE0B20BA9FFF730FB002874D01F
:1046E0007A4D0BAC102228462146FEF713FD2420FC
:1046F000205E0394FBF7BEFF0090019104AE1921E8
:104700000291734A30460AF041FE3046FBF75CFDE9
:104710002946E03182B208463146FEF7FBFC2620EE
:10472000205EFBF7A7FF009001913046029C2146D6
:10473000674A0AF02BFE3046FBF746FD2946F0316A
:1047400082B208463146FEF7E5FC139B61A2304673
:1047500021460AF01BFE3046FBF736FDC03582B21B
:1047600028463146FEF7D6FC039911315A480A22F1
:104770004CE0788865282DD179783EA0FDF7A2FC21
:1047800078780A21414349480D180026484F494C82
:10479000274A09E0B85B01222146FEF7BBFC6D1CED
:1047A000B61C142E224A1CD0A8B2D1788842F1D26D
:1047B0004000101880790BA9FFF7C0FA0146B85BDA
:1047C0000029E8D00BA91022E7E73F482146FDF772
:1047D00079FC1DE078883C281AD13C20FEF7C4F90A
:1047E00016E0144F3A7879783348FDF76BFC7A7805
:1047F0003B780BAC31A120460AF0E4FD2046FBF7E4
:10480000E3FC8521090282B208462146FEF782FCBC
:10481000FEF7A6F97988884202D07888FEF7A4F9D5
:104820000020034908702D48FDF74CFC15B0F0BD81
:104830007C0100202C0000204752414F535F44422E
:10484000473A20557064617465446973706C61798E
:1048500049664E6565646564202D20417475616C00
:10486000697A616E646F2074656C612025750D0A2C
:10487000000000004752414F535F4442473A2053E3
:10488000656E64536561726368526573756C7473A9
:10489000546F446973706C6179202D205061676991
:1048A0006E613A2025640D0A00000000F6FF00004A
:1048B00078250108884E0108545E010825642F25DB
:1048C00064000000CF5D0108045E01087020000054
:1048D000845E01082575000070210000045D010858
:1048E000F0B587B0002506955422825C012A03D1D9
:1048F0000224204607B0F0BD064654360124347029
:10490000026893685B0714D407694B68022B18D1BF
:1049100004200743994887426DD19748C0430B68EC
:10492000D9430143906A084090620024002B66D46A
:10493000D2E0816D20220A4382653570204607B09F
:10494000F0BD059304231F438C4CA74262D10F682E
:104950003846894B1840936A03439362380253697F
:104960008343896801408648084018435061002409
:10497000002F00D4B0E00320820582480368194666
:1049800011403846804F0490B84200D096E07A4FEC
:104990007F1CB94200D391E07A48036893431943DE
:1049A000754A5118491C0160794800687949FBF73C
:1049B000A2FE0C214143481C06900698002800D115
:1049C0008AE00698401E06900698002800D183E0F1
:1049D0000698401E0690069800287DD00698401E36
:1049E00006900698002877D00698401E06900698F4
:1049F0000028E6D170E00B680024002B6CD5FA4843
:104A00000168624A93426BD05F4A934264D10122AB
:104A1000920567E01F27059C27400F240094039709
:104A2000BC40076E0194A74302970C68524F3C426A
:104A3000049462D0E4072F4667D1049FBC075FD47B
:104A40007C075FD43C075FD4FC061F465DD4049C02
:104A5000A30671D4630671D4230671D4E30571D41F
:104A6000049B9B0570D4049B5B056FD4049B1B05C2
:104A70006ED4049BDB046DD4049B9B046CD4049B18
:104A80005B046BD4049B1B04009F3ED4049BDB039C
:104A900066D4049B9B0365D4049B5B0364D4049B92
:104AA0001B0363D4049BDB0262D4049B9B0261D48E
:104AB000049B5B02DB1716271F4026E0334F049848
:104AC000B84209D10127BF053B4005D1C64803685C
:104AD0009343194339430BE03570204607B0F0BDCE
:104AE000254A521C1140032292050368934359182A
:104AF00001603570204607B0F0BD6300DF0E04E0B2
:104B0000012702E0022700E00327039CA740029B45
:104B10001F430766059B9B08C06998420AD9019804
:104B2000C043936A0340049FB800000FA04018439D
:104B3000906213E7049F11E70527E6E70627E4E7FD
:104B40000727E2E70827E0E70927DEE70A27DCE78F
:104B50000B27DAE70C27D8E70D27D6E70E27D4E78F
:104B60001027D2E71127D0E71227CEE71327CCE78B
:104B70001427CAE71527C8E7FFFF7F00040000805D
:104B800000FFFF7F08270140000200A4000400A8E6
:104B900030000020400D03000068006C70470000EA
:104BA000F0B589B0044600200890002C76D007901C
:104BB000A06D002807D125465435204600F016F98F
:104BC00000202870E06501273D072668B068C00016
:104BD00026D4B0687F4901402943B1607E4800680F
:104BE0007E49FBF788FD400008900898002817D000
:104BF0000898401E08900898002811D00898401E78
:104C00000890089800280BD00898401E0890089833
:104C1000002805D00898401E089008980028E7D181
:104C2000B068284208D1A06D10210143A165E06D54
:104C3000012107910843E065B06804210140A26D9D
:104C4000102002405118A16D2BD106900F20C743B0
:104C50003A46F33A1140891CA165B168C9077DD174
:104C60000390049727462037216B4A1E91410D037C
:104C7000A168227E92030A43617EC9031143A27E8A
:104C800050030843E36803432B430120C507216910
:104C900000290590029509DAA94308E0012009B02E
:104CA000F0BD0143A165384609B0F0BD41050B4395
:104CB000387B45001D433878012809D1002A11D0DE
:104CC000A06D20210143A165E06D05990843E065D1
:104CD000626A002A0CD0072080010240A16A1143B9
:104CE000294306E0059800040543626A002AF2D1D0
:104CF0002946F0683A4A02400A43F26003208207DC
:104D000063681D461540E16C387F01280ED1206C88
:104D10000090676CA06C01900098074301980743CE
:104D20002F430F43059807433D4600E00D43049F82
:104D300030692C490140294331610298834203992B
:104D40000CD093420AD005988007834206D088048D
:104D5000034025490A688243D01808607069072219
:104D60009043656B28437061706970218843A16B23
:104D7000090101437161216901235805814203D072
:104D800000290BD1B06A07E0B06AE06980001C30EE
:104D90001C2101408F40206E3843B0627069104082
:104DA000A8420AD10020E065A06D01210143022044
:104DB0008143A165079809B0F0BDA06D069908432D
:104DC00002218843A065E06D1843E065184609B0EC
:104DD000F0BDC046E8FFFF6F30000020400D03002B
:104DE0000102DEFF02FCFF1F0827014080B58AB0E8
:104DF0000021099108910791069105910491039171
:104E000000680D49884201D00AB080BD2020029080
:104E100002A802F081FB002801D0FEF74CFF012020
:104E2000000506490A6802430A60096801400191C9
:104E300001980AB080BDC0460024014040100240E5
:104E4000F0B581B00D4604464069082801D1082715
:104E500004E02068C068C0073FD1042700F06AFD65
:104E600006462168086838421CD001204202A36D22
:104E70001343A365CA681205920F4AD1A27E002A85
:104E800047D10A68120744D58A68520738D42246A7
:104E900058324B680C25AB434B60FF250235136835
:104EA000AB4334E0002D1FD0681C10D10868384295
:104EB000DBD108683842D8D108683842D5D10868B3
:104EC0003842F3D0D1E7216808683842CDD100F0EC
:104ED00031FD801BA842F6D908E0A06D20210143D6
:104EE000A165012001B0F0BD00F024FD5420002197
:104EF0002154A06D04210143A165032001B0F0BD40
:104F0000A26D20231343A36522465C32E36D034365
:104F10001360227E0020002A01D001B0F0BD0C22D7
:104F20000A6001B0F0BD000070B5014600688268FB
:104F30000220520711D454228A5C012A0DD00C465B
:104F400054340120054620700E460846FCF70CF943
:104F5000002803D000202070284670BDB06D09499C
:104F60000140012000020818B0650020F06531689A
:104F70001C220A6020708A68304B13401A1D8A6018
:104F800070BDC046FEF0FFFFF0B581B0044654206E
:104F9000205C012802D1022001B0F0BD2646543623
:104FA000012737702068816849071FD481688268AB
:104FB000D20737D00222114034D1816805220A403D
:104FC000012A27D181681D4A0A40911C8160032172
:104FD000016000F0AFFC054620688068C00721D062
:104FE00000F0A8FC401B0328F6D313E08168890772
:104FF00004D48168114A0A401032826000F09AFCA1
:105000000546206881684907D0D500F093FC401B15
:105010000328F6D3A06D10210143A165E16D5C3436
:10502000384605E0FF200230A16D8143583400204E
:10503000002232703943216001B0F0BDE8FFFF7FEC
:1050400070B503460120CC0720D0114C0C40651EE2
:10505000AC4103261546F541032D17D87D442D7923
:105060006D00AF440B0105090B4C0C400ED105E05F
:10507000084C0C400AD101E0002C07D118684161AE
:1050800081681823994311438160002070BDC04698
:1050900080FFFF7F00FFFF7F0000FF7FF0B584B03F
:1050A0000E46022141770468A16801252943A160C9
:1050B000016A01291ED002290ED0032928D1002A15
:1050C00000D103E10395032511462940042A00D3AA
:1050D000D2E033460025DEE057081ED003950321B9
:1050E0003B460B4000937B1E032B029601971AD27E
:1050F000002133E0970814D0039503233946194063
:105100000091791E03290296019349D200257AE085
:1051100000214577084604B0F0BD0021D2073CD1FC
:10512000D4E000219EE08F43002135466B882E8815
:105130003604F3182360EB88AE883604F318236036
:105140006B892E893604F3182360EB89AE89360407
:10515000F31823601035091D8F42E7D1009F002FFF
:10516000029E14D08B00F1184D88F35A1B045B1972
:105170002360012F0BD0CB888D882D04EB18236082
:10518000022F04D04B8909890904C91821600199AB
:105190008900039DD20700D198E0715A218095E0E3
:1051A0009F43002531460E7836064B781B049B1929
:1051B0008E7836029B19CE789B1923600B791B06DB
:1051C0004E793604F3188E7936029B19CE799B19E5
:1051D00023600B7A1B064E7A3604F3188E7A360259
:1051E0009B19CE7A9B1923600B7B1B064E7B3604E2
:1051F000F3188E7B36029B19CE7B9B1923601031EE
:105200002D1DAF42CFD1009F002F029E26D0A900B6
:10521000735C1B0671184D782D04EB188D782D02E8
:105220005B19CD785B192360012F17D00B791B0612
:105230004D792D04EB188D792D025B19CD795B1911
:105240002360022F0AD00B7A1B064D7A2D04EB182F
:105250008D7A2D025B19C97A591821601146019B7C
:105260009943039D03231A407A44127952009744CC
:105270002C011C24715C27E0AA43002533463768C3
:10528000276077682760B7682760F768276010365F
:105290002D1DAA42F3D1002905D0AA001D469B5816
:1052A0002360012917D1039D10E072185278715CB8
:1052B000090289182180046808E072185378715C2B
:1052C0000902C91821809178217004682168457706
:1052D000084604B0F0BDAA18536823600229039D54
:1052E000F4D091682160F1E7B0B50125002814D011
:1052F0000446407F002804D100202077204600F09B
:1053000031F8022060772079002808D0A168E2688F
:105310002046FFF795FE002808D02846B0BD20683B
:105320000F494161816818229143816000256079AD
:10533000002801D0216900E0E9432068016181680B
:105340006022914362690A438260816880229143AE
:10535000A2690A438260012060772846B0BDC0463A
:10536000B71DC10481B000680849884201D001B06E
:1053700070470120000306490A6802430A60096871
:1053800001400091009801B07047C04600300240D3
:105390003810024070B500282CD0014624314A78DC
:1053A000022A29D1046822680E239A432260426CA3
:1053B0001568314B1D401560256801229543256015
:1053C000046C1C2525401446AC40D74D2E6826435E
:1053D0002E60846CC56C6560046D002C05D025685A
:1053E0001D402560436D806D58604A70002000228A
:1053F0000A7070BD012070BD0422C263012000222A
:105400000A7070BD70B52421012444540146243132
:105410004A78022A2BD103681A680E24A2431A6024
:105420001C68012294431C60446C2568124B1D408B
:105430002560046C1C2525401446AC40BA4D2E68EE
:1054400026432E60846CC56C6560046D002C05D00D
:1054500025681D402560436D846D5C6000240C70E0
:105460004A70816B002900D08847204670BD042116
:10547000C163204670BDC046FFFEFFFFF0B585B09A
:10548000016C1C240C4004231946A140A64A121F9B
:1054900015680A4603952A4056425641049005680D
:1054A0002A6817461F4078427841304332D002952F
:1054B000012102261046304047424741A640039B47
:1054C0001E420D46019400D03946049F3C462434C8
:1054D000002931D008200240564256410198C3406D
:1054E000180700D53546002D24D1029A10680E21E8
:1054F0008843106001200146019A91408A4B1A6846
:105500000A431A60F863002121706070796B0029EA
:105510000ED10FE02868800602D4286898432860DE
:10552000814A106808431060049F396B002901D03C
:105530003846884705B0F0BD029A1068800605D449
:1055400010680A21884310600120607000202070DC
:105550007549086830430860F96A0029E8D1E9E72D
:10556000F0B587B000284AD0044601462431022015
:105570000691487027683868344901403960344ED4
:1055800030468030A0643348381814252946FBF78C
:10559000B2F880008119206405916164FC203840D4
:1055A00008382946FBF7A7F81C22024001210B46C8
:1055B0009340E364A0680490E5682646103645CE23
:1055C0000196E6690296266A039628431043019ADB
:1055D00010430E4602990843039908433968014372
:1055E000049A11433960B1031B488A420AD1002250
:1055F00005990A6062600360154613461BE00120AE
:1056000007B0F0BD6168CFB2059A17600360491E0C
:1056100000220329154613460DD8791E8A008218E8
:105620000023D36703250D403346AB400B490B6085
:105630007C32BC3005460020E06322656565A365C9
:10564000069908704E7007B0F0BDC0460F80FFFF8E
:1056500000080240F8FFFDBF8408024044090240F0
:10566000F0B583B004462420205C012802D102203A
:1056700003B0F0BD254624356878012830D100926A
:10568000022068700020E0632668326801270297D4
:10569000BA433260A26CE76C5760226D0192002A17
:1056A00002D0626DA76D5760226C1C271740029ACA
:1056B000BA401D4F3F6817431B4A17607360A368C9
:1056C000102B009F3A4600D00A46B260102B00D043
:1056D0003946F1603168226B002A06D00E2209E0BB
:1056E00002200021297003B0F0BD042291433160F3
:1056F00032680A211143316002990902626C136811
:10570000DB0302D513680B431360019B002B02D00F
:105710001A680A431A603168029A11433160002105
:10572000297003B0F0BDC04604000240B0B5044685
:1057300000F000F90546601C02D0044800782418E7
:1057400000F0F8F8401BA042FAD3B0BD08000020DA
:1057500080B5202801D1FEF701FA80BDB0B504461E
:10576000074D2868204203D02C60204600F00AF83C
:105770006868204203D06C602046FFF7E9FFB0BDA7
:105780000C18024070470000F0B58AB006900991ED
:105790000B68002B00D1B4E05B480699814201D030
:1057A000062000E005200B221207069989180A221C
:1057B000D1410091042900D3009006982030019037
:1057C00000252E46079529460FE01A436260089986
:1057D000491C099803681846C8400835B61C079A42
:1057E000121D0792002800D18BE001242046089169
:1057F000884003400393EAD0049509994A68102130
:105800001143122915D11C21079A114005960F2624
:1058100032468A40089BDB089F00019BDD59954377
:10582000099A12693240059E8A402A43DA51099941
:105830004A68032311461940B1400293B3403746EA
:10584000069E35689D430D4335603E46D94305911C
:10585000122A049D15D894402E490C420FD0069C64
:10586000A168059B1940099BDB68B3400B43A3600B
:105870001109089B9940636883430B436360032AC3
:10588000A5D0069BD8680599084009998968B14058
:105890000143D960D0009AD5182028400F218140BB
:1058A000089A029B9A43194CA218136E8B430099D5
:1058B0008140194311661648026809984068C1037F
:1058C00002D5039B1A4301E0039B9A4310490A60E7
:1058D0004A68810301D51A4300E09A430C494A60A3
:1058E0002268C10205D51A4322606268800206D58B
:1058F0006BE79A4322606268800200D565E79A43AD
:1059000064E70AB0F0BDC046001400500018024021
:10591000801802400600060000690840411E8841C8
:105920007047002A02D018228150704728228150E7
:1059300070470000014800687047C046FC26002000
:10594000B0B50246034640335C780220202C17D1C4
:105950001C78012C14D0242058701068026801248F
:10596000A2430260220305689543056002680A436A
:1059700002600168214301600020187020215970E5
:10598000B0BDB0B50246034640335C780220202CFF
:1059900017D11C78012C14D024205870106802688C
:1059A0000124A24302600F221202056895430902F6
:1059B0002943016001682143016000201870202103
:1059C0005970B0BDF0B581B0002822D005464035F1
:1059D0006978002905D100212970044600F026FBD2
:1059E00020462421697001680B68012293430B60F3
:1059F0000F231B0644689C430C618C681C4B1C40A5
:105A00008C608468C668012E06D1D60334438C604E
:105A10000CE0012001B0F0BD2127BF023C438C60A7
:105A2000022E03D1D4024E68264302E0D4024E680F
:105A3000A6434E604C680F4E26434E60CC681C4017
:105A4000CC60036944691C4383691B022343CB6018
:105A5000C369046A1C430C600B6813430B6000218C
:105A6000416420226A7001630846A97001B0F0BD4C
:105A7000FF7FFFFF00800002F0B589B00793054665
:105A8000002408940346403358780227202800D089
:105A900090E028688069000400D58BE01878012820
:105AA00000D187E0242058700120039302901870E1
:105AB00004946C64CD4801400692059113E0C461E2
:105AC00000972024002228462146079B03F062FF0E
:105AD00000285DD00898401C089008980898069AFD
