:020000040800F2
:1000000030560020D500000829B000089999000852
:1000100000000000000000000000000000000000E0
:1000200000000000000000000000000031B70008E0
:100030000000000000000000D1B00008C5B70008B3
:10004000E7000008E7000008E7000008E7000008F4
:10005000E7000008E7000008E7000008153B00087B
:10006000DDCA0008D9270008E9270008E7000008D2
:10007000E7000008E7000008E7000008E7000008C4
:10008000E7000008000000000000000095B800082C
:1000900000000000E7000008E70000089D99000844
:1000A000E7000008E7000008E7000008E700000894
:1000B00075C2000800000000000000000000000001
:1000C0000348854600F068FE00480047F9FF000835
:1000D000305600200448804704480047FEE7FEE70A
:1000E000FEE7FEE7FEE7FEE785B80008C10000086E
:1000F00030B5434351435C18010C130C0D465D436E
:100100002C1980B292B20546554351430A0C09049A
:100110004D1962415843010C00044019514130BD52
:1001200000487047F00A010810B50446FFF7F8FFD1
:100130000068005DC007C00F10BD01466139192974
:1001400000D82038704701464139192900D820309D
:10015000704703460B439B0703D009E008C9121FF1
:1001600008C0042AFAD203E00B780370401C491C33
:10017000521EF9D27047D2B201E00270401C491EF3
:10018000FBD270470022F6E710B513460A46044634
:100190001946FFF7F0FF204610BD10B5044605E0F4
:1001A0000B780370401C002B00D0491C521EF7D264
:1001B000204610BDCAB2401E4178401C8A4202D07F
:1001C0000029F9D100207047421C0178401C002909
:1001D000FBD1801A704710B5002200E0521C835CEE
:1001E0008C5CA34201D1002BF8D1D8B2E1B2401A05
:1001F00010BD30B504460020034600E05B1C93426E
:1002000003D2E05CCD5C401BF8D030BD03460A78D9
:100210000270401C491C002AF9D118467047F8B5F5
:100220000E460546002400E0641C285DFFF78BFFA6
:100230000746305DFFF787FF381A02D1295D002994
:10024000F2D1F8BD0FB400B58DB009900B9010A994
:1002500000200091C0430A9000200C9006480690B0
:10026000064807906A4609A80F9900F0A9FA0DB050
:1002700008BC04B018470000E107000801080008A6
:10028000FFB50027FF4383B000205C6801909E68A3
:100290001D46A9697F1C049888470090296A8847F1
:1002A0000028F6D10098401C0CD003204002844363
:1002B000002E19DD600614D500982B2809D02D28B2
:1002C0000FD103E00020C04307B0F0BD0120800241
:1002D0000443A9697F1C04988847761E0090002E6D
:1002E00002DD0098302803D00598002825D035E09D
:1002F000012040020443A969761E7F1C04988847A8
:100300000090002E03DD782805D0582803D00598EA
:10031000002810D022E00598002801D010281DD117
:10032000012040028443A969761E7F1C04988847F7
:100330000090102002E0082000E00A2005900DE067
:10034000012149020C43059A0199761E5143081870
:100350000190A9697F1C049888470090002E05DD54
:100360000599009800F016FA0028E9DAE96904987E
:100370008847A00502D40120C043A5E7E00722D1A9
:10038000600611D56005019800D5404229680A1D14
:100390002A600968220501D5087014E0220701D5FA
:1003A000088010E008600EE02868011D29600068E0
:1003B000210502D50199017005E02107019901D5B8
:1003C000018000E0016038467EE70000F7B5009C40
:1003D0000F4600262578641C002D05D0FFF7A0FEEF
:1003E0000068405DC007F5D12B2D02D02D2D18D00F
:1003F000641E39462046029A00F014FA002F04D0F9
:100400003968A14201D1009939607105022400299F
:100410000BDA4042002803DD0FF09EFE0460A007C7
:10042000FEBD012080020643E3E70028F8DA0FF062
:1004300093FE04600048FEBDFFFFFF7F70B50646D7
:100440000FF08AFE046805460A2200213046FFF7B5
:10045000BDFF2C6070BD70B506460FF07DFE0468D0
:1004600005460A2200213046FFF7B0FF2C6070BD20
:10047000F8B502464A40D40F42004B0052085B08D0
:100480009A4202D20246084611464A0023D0C30DC2
:100490004A00DDB2120EAD1A202D35DA49020126CE
:1004A000490AF6058A19002C00D0524220214F1B20
:1004B0001146B9402A411018C20D9A4221D0002C91
:1004C00017D0012D08DCDA05801AD20F8019D20767
:1004D000DBB200F002FAF8BDDA05801A0123400011
:1004E0001B06C01880185A428018CA0F10434900D2
:1004F00007E04908C2071143DA05801A801940084D
:10050000801800F0E2F9F8BD61000122511A001BC9
:10051000F7E70122D2075140AAE70122D207504053
:10052000A6E7024670B54A40D30FDB0740002DD046
:100530004A002AD0010E140E000212020919400AC4
:10054000520A8418E50104465443000A120A2E0494
:100550005043A4194219200CC543AA18120C0125B6
:10056000AD03521C521912047F39240400D0521CCE
:10057000104301D44000491EC2B20C06C009201825
:10058000401C4008802A02D003E0002070BD4008D3
:100590004000002900DA0020184370BD70B5024603
:1005A0004A40D50F40004A00ED0740085208002895
:1005B00014D0002A12D0C40DD30D41020120C00571
:1005C0005202490A520AE41A091812187D3491425B
:1005D00001D3641C00E04900002C01DA002070BD4A
:1005E0000023914201D3891A03434008490000289F
:1005F000F7D100290AD0914202D10121C90705E0B3
:10060000914201D2012101E00121C943E005C01856
:10061000401900F05AF970BD0122D207002800DB12
:10062000101A002900DB511A814201D201207047C3
:10063000002070470122D207002800DB101A002991
:1006400000DB511A814201D9012070470020704718
:10065000C217C10F504010B54018CA079623002199
:1006600000F03BF910BD10B500229623114600F0B2
:1006700034F910BD0EB5C217C10F5040CA0740185B
:100680000021054B0293019200910A460B4600F0AF
:100690006AF903B000BD000033040000C20F41003E
:1006A00040020123400ADB05D207090EC0187F294A
:1006B00001DA00207047962903DC9623591AC840B6
:1006C00001E096398840002AF4D040427047C20FBA
:1006D000D207400040080BD0C10D0723DB01C91829
:1006E00040020905400A1143C20840071143704700
:1006F00000200146704770B50446002903D0002051
:100700002022012310E0002801D00020C043C04671
:10071000C0460DE02546D5408D4205D30D46954097
:10072000641B1D46954040191546521E002DF1DCF4
:10073000214670BDF0B51FB40646002082B00546C4
:100740004024019100901BE0019922460F4630465B
:1007500000F04AFB049A059B801A994110D3104679
:100760001946224600F030FB361A8F410197224687
:1007700001200021009F00F027FB38184D41009018
:100780002046641E0028DFDC019B00982946324683
:1007900007B0F0BD3A2800D23038202302469A43F1
:1007A000412A01D310463738884201D30020C04384
:1007B00070470000026813785118016018467047AE
:1007C00010B5D160044951610449116200211161E1
:1007D000114600F02DFB10BDB507000829010008E7
:1007E0004268002A08D001680B78491C002B03D00E
:1007F000521E06C0184670470121C160881E70470E
:100800004268002A0BD0C3680168002B07D18368B7
:100810008B4204D0491E521C06C0002070470020A5
:10082000C0437047F7B582B0029C00272078641C53
:1008300015460197302802D0002D15D015E02078FC
:100840000127641C782804D0582802D0002D09D034
:100850000BE0002D01D0102D07D1002710252078A6
:10086000641C02E0082500E00A250026009610E03E
:100870000099012769430818020C294680B2714388
:1008800000908E183804864201D301200190207810
:10089000641C2946FFF77EFF0028E9DA0398002848
:1008A00005D0002F01D0641E00E0029C0460019876
:1008B000002806D00FF050FC02210160C81E05B0D0
:1008C000F0BD009930040843F9E7002904DA401C20
:1008D000490001D140084000704770B40024050C65
:1008E00005D11024000402D1002921D01124050EC5
:1008F00001D100020834050F01D10001241D850F2C
:1009000001D18000A41C002801DB4000641C0029E8
:1009100008D020252E1B0D46F540A14000D0012116
:100920002943084301061B1B000ADB1D02D50020DA
:1009300070BC7047DB05181880180029F8DA401CD5
:100940004900F5D170BC40084000704710B5002B3D
:1009500008DA0024401C614192185B411A4301D11E
:100960004008400010BDF0B51FB482B005460C0031
:1009700003D008460FF0D8FB02E00FF0D5FB203083
:10098000024600902146284600F01EFA049B059A74
:1009900004460F4618431143084314D01846104329
:1009A0001BD0009840210A1A1846059900F01CFA3D
:1009B00005460E46009A0599049800F005FA08438A
:1009C00005D0012004E02046394607B0F0BD0020E4
:1009D000C11705430E432C43374300990E98630516
:1009E000401A7905E40A00220C43FD0A0A3002D5B8
:1009F00000200146E9E70105101969410C9C0D9D95
:100A000000196941FFF7A2FFDFE70000F0B50746D4
:100A10000846584087B0C00F049048000E46590061
:100A200040084908BC1A884105D2384631461E465E
:100A300017460B4602465800400810434CD0300D74
:100A4000039040055900400D490D0590401A029051
:100A5000402872DA18030121000B090508430190B0
:100A600004980092002805D0019952420020884144
:100A700000920190029840210A1A0199009800F012
:100A8000A3F905460C466B4607CB00F0BEF9C0192A
:100A90007141039A0E0D0023D71756401A467A402B
:100AA000164344D0049A002A2DD0029A012A039AB0
:100AB00015DC1205C01A914101263605001C714152
:100AC000D20F059ED2070093019202962A46234632
:100AD000FFF749FF07B0F0BD38463146FAE7160583
:100AE000224A0F46B218C01AB74101210905001C5D
:100AF0004F4100187F41114618187941E20F104309
:100B00006D19644113E0E2076D0815436408C207DC
:100B10001443039A01261205C01A91413605001CA0
:100B20007141CE07400830434908C01851412A4658
:100B30002346FFF70BFFCDE7FFE7049801224000B3
:100B4000C117121A00238B4104983146C417381A72
:100B5000A141EEE730B40124E407634030BC55E71F
:100B600030B40124E407614030BC4FE70000E0FFEF
:100B7000F0B51FB488B00B99099800244840099932
:100B8000C00F490049080991C0070B99009049001E
:100B900049080B9109990898A64608431CD00B995F
:100BA0000A98084318D0099801244000420D4800D3
:100BB000410D099824050003000B204309900B9870
:100BC0000003000B20430B9050181C4940180022D2
:100BD00001901446104605E0002001460DB0F0BD1E
:100BE000032801DA034600E003239C46C11A0AAE3B
:100BF0000AE05F0008ADED5B4F00F75B7D43002727
:100C0000AA187C41491C5B1E6145F2DD410004AB22
:100C10005A522104120C0A43240C401C0828DFDB22
:100C2000019802900099704601910090059B049AEA
:100C300007990698FFF797FED0E700000DFCFFFF2D
:100C4000F0B50C465C4085B0E40FE40703944C001B
:100C50000026640859009446490802460296224339
:100C600021D062460A431ED06200570D4A000E038F
:100C70002303550D012402462C492405781B1B0B28
:100C8000360B401823432643614600901C46501AF9
:100C9000B44103D30098401C009002E092180098E1
:100CA0005B41002803DA0020014605B0F0BD0020BA
:100CB000012109050746864611E064461D46141BBE
:100CC000B54106D36546521BB341744607430C43F6
:100CD000A646CD0740084908284392185B410546BF
:100CE0000D43EAD11046184313D0604619465040D0
:100CF0007140084306D06046101AB34106D2012263
:100D0000002306E000220123DB0702E00122D24398
:100D10005310009874460105381C6141029C039DE4
:100D200000196941FFF712FEBFE70000FD03000054
:100D30004A0009030123090B1B0519430A4B10B58F
:100D4000520D9A4202DA0020014610BD064B3433A0
:100D50009A4203DC9A1A00F047F810BD034BD218F0
:100D600000F032F810BD0000FF030000CDFBFFFFD4
:100D700010B5002904DB0124E40740428C412146E0
:100D8000002B04DB1C460123DB075242A34199429E
:100D900000D1904210BD00001CB5094800900948E0
:100DA000019005460126009C05E0E36807CC33432B
:100DB0000C3C98471034AC42F7D3FFF785F900009C
:100DC000686B0108886B010810B5202A04DB014616
:100DD000203A9140002010BD914020239C1A0346E8
:100DE000E3401943904010BD10B5202A04DB0846AB
:100DF000203AD040002110BD0B46D340D0402024E3
:100E0000A21A91400843194610BD10B5202A06DBEE
:100E1000CB170846203A1041C1170B4306E00B469A
:100E20001341D0402024A21A91400843194610BD16
:100E3000F3B58DB000200A9001200B9000260846E3
:100E40000C300C4609906269012109989047051EF3
:100E50002ED0252D2DD0216A8847002818D0626910
:100E6000012109989047216A88470028F7D1411E3F
:100E700062690998904700E0761CA1690D9888473F
:100E8000216A88470028F7D1E1690D988847DAE799
:100E9000A1690D9888470746A84201D1761CD2E780
:100EA000E1690D9888477F1C02D10A98002877D005
:100EB00049E1002762693D463946099890472A284A
:100EC0000CD16269012109989047012506E00A21A9
:100ED0004F433F18303FEBD4102005436269012196
:100EE00009989047014630390A2903D29B498F421D
:100EF000DEDCECE7E90600D4994F6C280AD04C28D8
:100F000010D0682824D06A282ED074280CD07A28D3
:100F10000AD00DE062690121099890476C2823D01E
:100F200004211CE0202005436269012109989047B3
:100F3000A760656065284FD026DC582839D01ADCB8
:100F4000452849D012DC252834D04128B0D143E0CF
:100F50006269012109989047682802D008210D4351
:100F6000E6E70120C002DEE70220DCE7462833D0B6
:100F700047282CD130E05B2870D061282CD0632822
:100F80006CD0642823D161E06F284FD009DC66283B
:100F900022D0672820D0692826D06E2817D12EE0CD
:100FA000CDE070284DD073286FD075284ED07828AA
:100FB0000DD154E0A1690D9888470546252800D138
:100FC0006CE7E1690D9888476D1C00D16DE7BAE0C8
:100FD0000A224CE00A2252E0012023466A46C0431E
:100FE0000D99C046C046A3E02846402108436060F2
:100FF000A807234601D5002239E000223FE0E80798
:1010000000D020E72068011D21600068290501D576
:10101000067018E7290701D5068014E7A90703D54C
:10102000F117066041600EE706600CE72846402194
:1010300008436060A807234601D5082217E008226C
:101040001DE0484928460840606016E028464021D7
:1010500008436060A8072346BCD5B9E715E02846D9
:10106000402108436060A80707D5234610220120CD
:10107000C0430D99C046C0465AE0234610220120C5
:10108000C0430D99FFF7FCF852E000210C910B468C
:101090000091632802D05B2807D043E0E80601D422
:1010A0000120A060012000903CE0626901210998C4
:1010B00090475E2805D101200C900146626909988D
:1010C00090472169002906D10B4601AA8F00491CCF
:1010D000D3510829FADB002835D0216900290ED127
:1010E000C117C90E09184A11930001AA9A18490993
:1010F0004901411A01201368884003431360626963
:101100000121099890475D28E5D10C98002808D066
:10111000002001AB81005A58401CD2435A50082885
:10112000F8DB01AB01202246C0430D99C046C04602
:1011300000280ADA401C06D10B98002803D00020B2
:10114000C0430FB0F0BD0A98FBE7E90702D10A9946
:10115000491C0A91361800200B9074E6CCCCCC0CBC
:10116000FFFFFF7FF1F7FFFFF0B581B005460024D8
:10117000009400688168C9071CD181682B4A2F320E
:1011800011420AD0A86D10210143A965E86D012420
:101190002043E865204601B0F0BD8168234A114034
:1011A00001273943816022480068000205D4687E27
:1011B000012825D1204601B0F0BD1E4800681E4917
:1011C000FFF799FA401C009000980028EFD0009893
:1011D000401E009000980028E9D00098401E009022
:1011E00000980028E3D00098401E00900098002846
:1011F000DDD00098401E009000980028E7D1D6E787
:1012000004F050FC064604E004F04CFC801B03286C
:10121000B8D228680168C907CCD18168C907F3D161
:101220008168024A114039438160EDE7E8FFFF7FA2
:101230000827014030000020400D0300F0B583B0C6
:1012400067490A684968401A86185249CF680120E0
:101250000023BE4202460EDD4C68A64205460FDA68
:101260001543012D10D14D69AE4213DC0022BE4260
:10127000034613DA13E01A464C68A6420546EFDB34
:101280001D461543012DEED00D4608350868A742CE
:1012900017D043E00122BE42034600DB1346012B78
:1012A00006D1CB699E420EDC0022AE420EDA0EE081
:1012B00028460D46103508313C4607460868A742C7
:1012C0002CD103B0F0BD0122AE4200DB10460295E6
:1012D00000281BD0A6423BDA886809680291FFF714
:1012E00018F90546381BFFF7B3F901462846FFF702
:1012F00055F90546301BFFF7ABF901462846FFF7C5
:1013000010F90299FFF7B4F803B0F0BD0D46183597
:101310001031029C1F460868A742D2D0391B0746ED
:101320000846FFF795F9029028683946FFF7F1F86B
:101330000299FFF733F90546301BFFF789F901469B
:101340002846FFF7EEF83946FFF792F803B0F0BDF4
:101350008869019009691C46FFF7DBF80746029887
:10136000201AFFF775F901463846FFF717F90546C9
:10137000301BFFF76DF901462846FFF7D2F80199B7
:10138000FFF776F803B0F0BD0248406814490860E2
:101390007047C0468000002080B5322004F00CFA6F
:1013A000004880BDF895030080B503A00FF04EFB08
:1013B0000B490C48486080BD414453313233323AC6
:1013C000205461726520656D206D6F646F206465C7
:1013D0002073696D756C6163616F2E0D00000000F4
:1013E00030010020CD9703007D20000105494860B1
:1013F0007047C046704700007D20000101498860A9
:101400007047C046BC0100207A48012181707047B6
:1014100080B59248924901F031FA0E4802F0D8FAAC
:101420000D4802F037FC0D4809F0D6FE09F0A2FD88
:1014300001F062FD0AF07EF902F07AFBFFF7A4FFEB
:1014400002F080FD064809F0E1FD064809F0E6FDDE
:1014500080BDC046280900204C0800205C0C0020FC
:1014600000008E420AD7CD41F0B583B0614C2078A0
:10147000022865D0012871D10DF0E4FE0EF0E0FAEB
:101480000EF066FB714805F055F8642004F094F9FD
:10149000052000070290012671020191324604F0F6
:1014A000F9FA19204701384604F086F968482025E2
:1014B0002946324604F0EEFA384604F07DF96548D4
:1014C0006549016000242046314606F0AFF80AF075
:1014D0007DF9142004F070F909F09CFC09F000FD7E
:1014E00009F064FC5D485E4901F0C8F95D480FF001
:1014F000ADFA57482946224604F0CCFA384604F0A3
:101500005BF902980199224604F0C4FA384604F0C7
:1015100053F9632001F058F901F0C6F9002805D00D
:1015200001F0ACFC01F0C0F90028F9D104F0BAFADE
:101530003049486088608C700220087003B0F0BDAC
:10154000A078012821D100202070A07035A00FF0D4
:101550007DFA082000F088F803B0F0BD01F08EFCA1
:1015600000F012FB01F0ACF902F09EFB0AF0EEF87D
:1015700009F00AFD01F0CAFC6078012837D101208A
:1015800020700020607003B0F0BD04F08BFA616839
:10159000401A194DA84206D918A00FF057FA012099
:1015A000207003B0F0BD04F07DFAA168401A192143
:1015B0004901C731884216D904F074FAA06004F0DA
:1015C00071FA6168441A7D20C1002046FFF793F844
:1015D000AC4202D80521081A00E0002001B2152013
:1015E000000201F00DFA01F049FC01F069F903B0C5
:1015F000F0BDC046400100208813000054696D65AD
:101600006F75742120566F6C74616E646F20706109
:101610007261206F206D6F646F2053746F702E0D98
:1016200000000000436F6E6669726D61646F212077
:101630005265746F726E616E646F20616F206D6FA2
:10164000646F20617469766F2E0D00007C090020A4
:10165000000400501870004001000100B40D00208B
:10166000C524000813670108F0B583B0044642A002
:101670000FF0ECF94A484BA10EF0FEFC002528467D
:1016800001F0A2F801F0FAFB4D4804F095F80AF0D9
:10169000D1F900286AD00294414C4A4920460EF004
:1016A000EBFC0120019001F08FF801F0E7FB7D20B9
:1016B000C6003746C837384604F07EF8424920460F
:1016C0000EF0DAFC022001F07FF801F0D7FB38467B
:1016D00004F072F83D4920460EF0CEFC032001F0E4
:1016E00073F801F0CBFB304604F066F8FFF75CFEC0
:1016F00037A120460EF0C0FC042001F065F801F08F
:10170000BDFB304604F058F80AF030F909F082FCCD
:1017100036A120460EF0B0FC052001F055F801F08E
:10172000ADFB6436304604F047F802F063F9002858
:1017300017D01B4836490EF09FFC062001F044F8F4
:1017400001F09CFB304604F037F832480FF07EF988
:10175000029801F039F801F091FB019D284603B091
:10176000F0BD3B2001F030F801F088FB27480FF076
:101770006DF9284603B0F0BD0D0A3E3E3E20494EAD
:10178000494349414E444F204155544F44494147F4
:101790004E4F535449434F203C3C3C0D0000000049
:1017A000BC66010845786962696E646F204C6F679A
:1017B0006F206520566572736F65732E2E2E0000A4
:1017C000B80B0000986701087C670108656701088D
:1017D00056657269666963616E646F205465726DE7
:1017E0006F6D6574726F2E2E2E0000005665726943
:1017F000666963616E646F204D656D6F726961200B
:10180000454550524F4D2E2E2E000000F266010825
:1018100052670108CE66010880B588B015A00EF0A9
:101820002BFC16480EF028FC07A806A905AA09F00B
:10183000ABFC002808D005A8037806A8027807A802
:1018400001780FA00EF018FC04A803A902AA01ABAE
:1018500009F040FC002808D002A8037803A8027809
:1018600004A8017811A00EF007FC1BA00EF004FCE8
:1018700008B080BD0A0D0A0D00000000B20B01087F
:10188000417373696E61747572612020202020207D
:101890002020202020202020253032643A2530329C
:1018A000643A253032640A0D0000000052657370FE
:1018B0006F6E736176656C20202020202020202010
:1018C00020202020253032642F253032642F25300F
:1018D00032640A0D000000000A0D0A0D0A0D0A0DFF
:1018E0000000000010B586B0072901D84C482FE051
:1018F000801D891F89B203AA0B2301F07DFA0028FD
:1019000025D003A80078002829D0684600248472D6
:101910000481019400940B2102F07EF9002826D066
:1019200069468C7203A8FEF756FC002824D003A851
:1019300024A10822FEF75DFC002825D023A003A9DE
:101940000EF09AFB3E2000F03FFF06B010BD12A043
:101950000FF07CF83B2000F037FF06B010BD2F4899
:101960000FF074F83E2000F02FFF06B010BD3B20B2
:1019700000F02AFF06B010BD27480FF067F81720C7
:1019800000F022FF06B010BD1AA00FF05FF82E2065
:1019900000F01AFF06B010BD417574683A20466128
:1019A0006C6861206E6F2070617273657220726F57
:1019B000627573746F2064612073656E68612E0DAB
:1019C0000000000047484B403132330041757468D5
:1019D0003A2053656E686120696E636F7272657438
:1019E000612E20446967697461646F3A202725730A
:1019F000270D0A00417574683A20456E7472616E55
:101A0000646F206E612074656C612064652053658D
:101A1000727669636F210D00CB6801081F690108A8
:101A20003C69010810B584B0082924D3801D891FA2
:101A300089B201AA0B2301F0DFF9002816D001A812
:101A4000FEF7C2FB002813D02F4C2178002917D0B5
:101A500000202070641C01A92046FEF7BCFB002872
:101A600020D0402000F0B0FE04B010BD13A000E074
:101A70001CA00EF0EBFF3B2000F0A6FE04B010BD52
:101A8000042804D23F2000F09FFE04B010BD601C6B
:101A900001A9FEF7BBFB012020701F2000F094FE7F
:101AA00004B010BD204602F0FBF9172017A101F089
:101AB000A1FB1A480EF0CAFF04B010BD417574684E
:101AC0003A2046616C6861206E6F207061727365A8
:101AD00072206465206E6F76612073656E68612E7A
:101AE0000D000000417574683A204E6F76612073D6
:101AF000656E68612076617A6961206465736361EF
:101B000072746164612E0D00AE01002053656E6831
:101B10006120616C7465726164612100E168010893
:101B200083B0F0B582B0044607A80EC007AB01939E
:101B300001200102134822460EF0DEFA01281CDBC8
:101B4000C7480068002818D00E4C2046FEF73CFB22
:101B5000002812D00546C34EC34F032041027088AF
:101B6000401CFEF7C8FDB088814206D070882278FC
:101B70003A547180641C6D1EEFD102B0F0BC01BC00
:101B800003B00047F4010020F0B581B0594E307821
:101B9000012800D0ACE058A0FFF7C2FFFEF7C0FA62
:101BA00005460068554C2778C15DC90706D067789F
:101BB000C15DC907A41C0029F5D1641E202120465F
:101BC000FEF7F8FA00281AD000210170811C2A685B
:101BD0004D1E2878135CDB0716D00878135CDB07F2
:101BE00011D04878135CDB075ED08878135CDB0784
:101BF000091D002BECD18D1E002807D007E0002521
:101C0000002F07D16AE00D46002800D1054627784D
:101C1000002F63D03A492046FEF701FB002841D04F
:101C200039492046FEF7FBFA364F002840D03749A5
:101C30002046FEF7F4FA00283CD035492046FEF74E
:101C4000EEFA002838D033492046FEF7E8FA00289B
:101C500034D031492046FEF7E2FA002830D02F492F
:101C60002046FEF7DCFA00282CD02D492046FEF74E
:101C7000D6FA002828D02B492046FEF7D0FA0028B3
:101C800024D029492046FEF7CAFA002820D0274947
:101C90002046FEF7C4FA00281CD025A02146FFF7F5
:101CA0003FFF1BE0174F16E04D1C0028AED0AEE7FB
:101CB000083710E010370EE018370CE020370AE044
:101CC000283708E0303706E0383704E0403702E0D4
:101CD000483700E050377968284688470748802110
:101CE000FEF750FA00203070F0804648FFF718FFEA
:101CF00001B0F0BDB80000200D0A00004C0E00201D
:101D0000C7330108C02D010896330108BD3301080F
:101D1000A4330108AC330108AF330108C233010812
:101D2000CC330108D13301089C330108B4330108D6
:101D3000436F6D616E646F20646573636F6E686579
:101D40006369646F3A20222573222E00F0B581B0BA
:101D5000294D297800294DD10C2833DC08283FD0A3
:101D60000A2833D0EC887E2C44D80646FEF7D8F9F2
:101D70000068805D8006C00E3CD021480655601C7E
:101D8000E8806846002242700670354800680028E6
:101D900030D06846FEF718FA00282BD004466E466D
:101DA000314F032041026888401CFEF7A4FCA8883C
:101DB00081421FD0688832783A546980761C641E4C
:101DC000EFD117E07F280BD00D28CBD1E888002871
:101DD0000DD00B4900220A540120287001B0F0BD3B
:101DE000E888002806D0401EE88004A000E00548EE
:101DF000FFF796FE01B0F0BDB800002008200800F3
:101E00004C0E0020CD320108B0B582B014480068F5
:101E1000002823D0134C6088A18888421ED0608897
:101E20000325A188884201D9618800E06902A2885F
:101E3000A0880D4B1818891A89B2402900D3402177
:101E400001AA0AF037FA002808D10198002805D025
:101E5000A18840186902FEF74EFCA18002B0B0BD17
:101E6000E0070020B8000020CC0E0020F0B581B0C3
:101E70001E4D281D1E49FEF785F91E4801210091BF
:101E800029606121A860E96000272F827F20C005BA
:101E900068611948E8611948281819491CC91CC00B
:101EA0000A880280897881708726164C284620305F
:101EB00021681022FEF771F930202F542846313066
:101EC0000A221149FEF745F928463030E16A226BB3
:101ED000C2828182A1692964C77228354034761E86
:101EE000E4D10A480099017001B0F0BDCC14002083
:101EF000D816000073656E6805000200C816000061
:101F00004C6B0108D80B01085C6B010838010020FC
:101F1000B0B58CB00BA80AA909AA09F035F9044696
:101F200008A807A906AA05AB09F0D4F8002C15D01B
:101F3000002813D007A8037808A8027806A800781C
:101F40000BA909780AAC247809AD2D7800AF33C706
:101F500011A005A9FFF7E4FD0CB0B0BD02A0FFF78A
:101F6000DFFD0CB0B0BDC0464572726F3A204E61C5
:101F70006F20666F6920706F73736976656C206C73
:101F80006572206120646174612F686F72612064E2
:101F90006F205254432E0000446174612F486F72C9
:101FA000613A20257320253032752F253032752F68
:101FB00032302530327520253032753A2530327571
:101FC0003A2530327500000070B5002822D0044652
:101FD0002021FEF7EFF8002820D000210170861C98
:101FE000FEF79EF80168751E28780A5CD20718D0A3
:101FF00030780A5CD20713D070780A5CD2073BD0E5
:10200000B0780A5CD207361D002AECD1B51E002834
:1020100009D009E02DA0FFF783FD70BD002503E086
:102020003546002800D105461A492046FEF7F7F844
:10203000002817D019492046FEF7F1F8164E00285F
:1020400015D017492046FEF7EAF8002818D01549A0
:102050002046FEF7E4F8002817D013A02146FFF72A
:102060005FFD70BD0C4E71682846884770BD08360C
:1020700071682846884770BD751C0028D3D0D3E707
:10208000103671682846884770BD18367168284632
:10209000884770BD98330108182E010805340108DF
:1020A0007D33010809340108537562636F6D616EF9
:1020B000646F204457494E20646573636F6E686592
:1020C0006369646F3A2022257322000053756263AE
:1020D0006F6D616E646F204457494E2066616C7469
:1020E000616E646F2E20557365202748454C50273C
:1020F0002E00000080B586B0684608F031FF0AA0C7
:10210000FFF70EFD0198FEF7E2FA02460CA00B461F
:10211000FFF706FD0298FEF7DAFA02460FA00B461B
:10212000FFF7FEFC06B080BD4461646F73206465F8
:10213000204672657175656E6369613A0D0A00002B
:1021400020202D2050756C736F732028656D203111
:1021500073293A20252E31660D0A000020202D20FB
:10216000457363616C612041202863616C63293A87
:1021700020252E32660D0A0080B586B0684608F02C
:10218000EFFE0098FEF7A3FA024603A00B46FFF706
:10219000C7FC06B080BDC0464461646F73206461B3
:1021A0002042616C616E63613A0D0A20202D20503F
:1021B00065736F3A20252E326620670D0A000000F5
:1021C00080B509F0D3FBFEF782FA024602A00B4667
:1021D000FFF7A6FC80BDC04654656D7065726174E2
:1021E00075726120696E7465726E6120646F204D36
:1021F00043553A20252E326620430D0A0000000088
:10220000F0B581B035480068002865D00025344E0F
:10221000032044027088401C2146FEF76CFAB08807
:10222000814259D02F48405D72882F4B985471805D
:102230007088401C2146FEF75EFAB08881424BD080
:102240002848471978787288274B9854718070888D
:10225000401C2146FEF74FFAB08881423CD0B87846
:102260007288214B985471807088401C2146FEF77B
:1022700042FAB08881422FD0F87872881A4B98546D
:1022800071807088401C2146FEF735FAB088814283
:1022900022D038797288144B985471807088401C11
:1022A0002146FEF728FAB088814215D078797288E5
:1022B0000D4B985471807088401C2146FEF71BFA24
:1022C000B088814208D0B8797288074B98547180E1
:1022D000ED1D064885429BD101B0F0BDE00700200E
:1022E000B8000020882E0108CC0E00204404000015
:1022F00080B52E2000F01AFB80BD0000B0B584B080
:10230000002825D001A9009119A103AD02AC2A46ED
:102310002346FDF797FF03281FD12878411EC9B235
:102320001E291AD821784A1ED2B20B2A15D801AA22
:10233000127808F075FF002814D001A8037802A8CD
:10234000027803A801781BA0FFF7EAFB04B0B0BD38
:102350002248FFF7E5FB04B0B0BD0948FFF7E0FBFA
:1023600004B0B0BD07A0FFF7DBFB04B0B0BDC046B2
:10237000256868752F256868752F256868750000C1
:102380001F3301084572726F3A2046616C68612004
:10239000616F2073657461722061206461746120D3
:1023A0006E6F20686172647761726520646F20527D
:1023B00054432E004F4B2E205254432061747561BC
:1023C0006C697A61646F20706172612025303275AA
:1023D0002F253032752F2530327500000D3401085D
:1023E00070B584B0002822D001AE009617A103ADCD
:1023F00002AC2A462346FDF725FF03281CD1287886
:10240000172819D821783B2916D832783B2A13D8B7
:1024100008F018FF002814D001A8037802A8027859
:1024200003A801781AA0FFF77BFB04B070BD224817
:10243000FFF776FB04B070BD0848FFF771FB04B0EE
:1024400070BD07A0FFF76CFB04B070BD2568687510
:102450003A256868753A256868750000D232010827
:102460004572726F3A2046616C686120616F20731B
:1024700065746172206120686F7261206E6F2068E0
:102480006172647761726520646F205254432E003C
:102490004F4B2E2052544320617475616C697A61F0
:1024A000646F207061726120253032753A253032B8
:1024B000753A253032750000D633010880B50BF02F
:1024C000D7FA80BD10B5062900D233E102785A2A26
:1024D00000D02FE14278A52A00D02BE1C278832AD0
:1024E00000D027E1427903791B029A18082992B299
:1024F00014D300239A4CA2420ED09A4CA2420BD085
:10250000994CA24208D08378DC1C8C4206D8C318B0
:102510009C785B781B021B19944C2380944B9A4245
:102520001ADD954B9A4200DD5BE09A4B9A4200DC43
:1025300087E0994B9A4200DDA9E08120C0018242E8
:1025400000D1E2E005200003824200D0F2E087489B
:10255000008807F0E9F910BD934B9A4200DC52E085
:10256000844BD318312B00D987E05B007B449B88D8
:102570005B009F443100B400DF00DF00DF00DF00BC
:10258000DF00DF00DF00DF00DF00DF00DF00DF0053
:10259000DF00DF00DF00AF00DF00DF00DF00DF0073
:1025A000DF00DF00DF00DF00DF00DF00DF00DF0033
:1025B000DF00DF00DF00AA00DF00DF00DF00DF0058
:1025C000DF00DF00DF00DF00DF00DF00DF00DF0013
:1025D000DF00DF00DF00A200644A128808F056FF27
:1025E00010BD664B9A423ADD654B9A425ADC654B08
:1025F0009A4200D18FE081231B029A4200D099E0D9
:1026000002F076F910BD6A4B9A420DDC19231B02C9
:102610009A4274D0694B9A4267D0514B9A4200D08B
:1026200088E0FFF75FF910BD81208001824269D008
:10263000604882425ED0604882427BD101F058F906
:1026400010BD6123DB019A427FD0564B9A4272D073
:102650003120000282426DD101F032F910BD4A4BA7
:102660009A4277D0494B9A426AD0494B9A4261D1FB
:102670003E4A128801F08AF810BD3B4B9A426CD05A
:102680004A48824256D12020FEF7EEFF10BD434B50
:102690009A4246D0424B9A424CD1344A128808F0B2
:1026A00037FE10BD2120800282423FD085200002EB
:1026B00082423FD102F0D8F810BD2C480088411E5C
:1026C0004842484100F06CFF10BD2848008800F0E7
:1026D00011FF10BD2548008800F092FF10BD3D4954
:1026E0001920088000F022F910BD2048008800F071
:1026F000C1FD10BD1D48008800F034FE10BDFEF77E
:1027000083FE10BD01F0E8FF10BD00201749085EF0
:1027100002F016F810BD2F493820088000F006F9A5
:1027200010BD1248008800F0C3FD10BD0F480078AE
:1027300001F0D0FC10BD0D4A128800F06BFE10BDF8
:102740000A48008800F078FD10BD084A128800F0A1
:10275000ABFF10BD01F0BEF810BDFFF763F910BD6F
:10276000302000000F30000060300000480E0020D4
:102770007F300000F1CFFFFF2F7000008F7000004E
:10278000FF83000090700000307000006070000057
:10279000707000007F4000000F700000107000009B
:1027A00020700000903000000E30000070300000FB
:1027B0003F2000005020000060200000202000008A
:1027C000044800887047C04680B50249088000F080
:1027D000ADF880BDA000002080B5024802F094FE54
:1027E00080BDC0467008002080B5024802F08CFE13
:1027F00080BDC046CC08002010B50168E84CA06838
:102800000268914200D010BD00216170E18006F0A5
:1028100037FBA06801680E220A6214344022214668
:1028200006F063FA10BDC04610B50268DC4CA06823
:1028300003689A4200D010BD6278012A0BD106F0DD
:102840001FFBA06801680E220A6214344022214650
:1028500006F04BFA10BD0029EDD02069401C206124
:10286000E1800120607010BD0168CD488268126867
:10287000914200D0704700210170704710B5C84CDC
:1028800000222261227062706280A060E160A280FA
:1028900006F0F6FAA06801680E220A62143440229B
:1028A000214606F022FA10BDBD480178002901D06A
:1028B0000120704741888088081A411E884170476E
:1028C000F0B591B0F44F787801282CD172B6FC881D
:1028D00038693E46143601AD284631462246FDF79A
:1028E00038FC00207870F88062B6B86806F0C8FA44
:1028F000B86801680E220A624022314606F0F5F9F6
:10290000042C10D328785A280DD16878A5280AD12C
:1029100001A88078C01CC1B28C4204D3FA68002A96
:1029200001D001A8904711B0F0BDC046F0B581B00C
:1029300072B6D9494B888C88D84AA3420CD28B886E
:102940004C88E4431B199BB20A2B0CD262B6092BAC
:1029500053D9012001B0F0BD4B888C88E31A9B1835
:102960009BB20A2BF2D3040A00944F88CC4C5A260F
:10297000E6554F887F1C17404F804F88A525E555A9
:102980004D886D1C15404D804D88072767554D8833
:102990006D1C15404D804D88822767554D886D1CF4
:1029A00015404D804D88002767554D886D1C15409A
:1029B0004D804D88842767554D886D1C15404D808E
:1029C0004D8866554D886D1C15404D804D880126FB
:1029D00066554D886D1C15404D804D88009E66558E
:1029E0004D886D1C15404D804D8860554888401CB1
:1029F0001040488062B6092BABD8002001B0F0BD72
:102A0000F0B582B072B6F94A54889588F84EAC4257
:102A10000CD294885588ED436419A4B2082C0CD2CA
:102A200062B6072C48D9012002B0F0BD54889588C1
:102A30002C1BA419A4B2082CF2D38DB2030A009364
:102A40002B0A01935388EB4D5A27EF5453885B1C94
:102A5000334053805388A527EF5453885B1C334081
:102A6000538053880527EF5453885B1C33405380B1
:102A700053888227EF5453885B1C3340538053881C
:102A8000009FEF5453885B1C334053805388E854B5
:102A90005088401C304050805088019B2B545088F7
:102AA000401C30405080508829545088401C304091
:102AB000508062B6072CB6D8002002B0F0BDC046E8
:102AC000F0B584B072B6C94A54889588C84FAC42F4
:102AD0000CD294885588ED436419A4B20A2C0CD208
:102AE00062B6092C59D9012004B0F0BD54889588EC
:102AF0002C1BE419A4B20A2CF2D30B0A03930B0C7F
:102B000002930B0E0193030A00935388F74D5A2644
:102B1000EE5453885B1C3B4053805388A526EE54EB
:102B200053885B1C3B40538053880726EE545388E0
:102B30005B1C3B40538053888226EE5453885B1CB9
:102B40003B4053805388009EEE5453885B1C3B40AF
:102B500053805388E8545088401C38405080508837
:102B6000019B2B545088401C384050805088029B59
:102B70002B545088401C384050805088039B2B5465
:102B80005088401C38405080508829545088401C40
:102B90003840508062B6092CA5D8002004B0F0BDA2
:102BA000C0000020F0B582B00022002924D0002807
:102BB00022D0CD4B9C68002C1ED072B65D889E88BA
:102BC000CC4CB54210D29D885E88F643AD19ADB2AB
:102BD000A94210D803250A462A4000924E1E032E11
:102BE00001900CD2002732E05D889E88751B2D195C
:102BF000ADB2A942EED962B6104602B0F0BDA9430B
:102C00000027019EF05D5A881D46B84B98546A888B
:102C1000521C22406A80F019427826466C881A5568
:102C20006A88521C32406A8082786C881A556A8899
:102C3000521C32406A80C2786C881A552B46344642
:102C40006A88521C32406A803F1DB942D9D1009A2D
:102C5000002A01981AD0C65D5D88A4494E555E8849
:102C6000761C26405E80012A10D0C01945785E8807
:102C70008D555D886D1C25405D80022A06D08078C8
:102C80005A8888545888401C2040588062B60122D7
:102C9000104602B0F0BDC046C0000020FF01000099
:102CA000EC2B0020F0B593B00026002A3BD0002981
:102CB00039D014468C4A9268002A34D007460291D3
:102CC0000846FDF781FA0546A04200D325466A1D55
:102CD000D1B23D2927D803AC67718221E170A2707F
:102CE000A52060705A202070380A2071A01D02991A
:102CF0002A46FDF72EFA2819FF21C171817172B69B
:102D0000794F7A880835E9B2BB887A489A420DD261
:102D1000BA887B88DB43D21892B28A420DD301264F
:102D20008A420DD262B6304613B0F0BD7A88BB88B5
:102D30009A1A121892B28A42F1D200268A42F1D32C
:102D400001960322154002954A1E032A01D2002251
:102D500024E0FC2211400022644B03ACA65C7D8879
:102D60005E557D886D1C05407D80A41865787E8841
:102D70009D557D886D1C05407D80A5787E889D557C
:102D80007D886D1C05407D80E4787D885C557C885D
:102D9000641C04407C80121D9142DED1029D002DF6
:102DA0001ED003A98B5C7C8850490B557B885B1C2B
:102DB00003407B80012D13D003AB9B185B787C888C
:102DC0000B557B885B1C03407B80022D08D003AB36
:102DD0009A1892787B88CA547988491C0140798076
:102DE00062B6019E304613B0F0BDC046C000002060
:102DF000FF010000EC2B0020F0B583B01D46144607
:102E00000746501E164686417A1E3B469341334084
:102E10000291012901D8002100E001210B406E1E22
:102E20002846B04118401CD0019020462946FDF7A5
:102E3000A9F9022D1BD3002202211046029D7B1806
:102E40005B1E1B78FF2B0AD0202B01D3A354401C00
:102E5000C2B2964203D94B1CA9421946EFD3C0B265
:102E600006E0002C01D0002D04D103B0F0BD0020FD
:102E7000241801980021217003B0F0BDF0B581B095
:102E800072B6194C2078002803D16088A188884246
:102E900002D162B601B0F0BD0120207062B6A088F8
:102EA0006188884201D1002512E000210F48104AB4
:102EB000104BA588455D5554A5886D1C1D40A58007
:102EC000A6884D1C6788BE4202D03F292946F0D310
:102ED000A068AAB2064906F023FB002801D0002012
:102EE000207001B0F0BDC046C0000020EC2B0020D7
:102EF000AC2B0020FF010000034801210170CD48E8
:102F0000002101807047C046A4000020F0B58DB0BC
:102F10009B4E7078002844D002280DD100F0B6FEF8
:102F200000281BD000F012FE002824D03B20FFF721
:102F30004BFC954899A128E03C20FFF745FC9248BE
:102F40009AA10B22FFF7AEFE02F0ACFD9A494018A1
:102F5000B0600220707000281ED122E089480088ED
:102F6000FFF732FC344614342046FDF72DF982B2C7
:102F7000854821460AE002F095FDB16888420DD9E6
:102F80003B20FFF721FC804880A10F22FFF78AFE3B
:102F900000207070002804D00DB0F0BD70780028BB
:102FA000FAD17D20C7003078002805D002F07AFDE4
:102FB0007168401AB84244D202F074FDF168401AB8
:102FC000B84257D302F06EFDF060FFF7F9FB3528E9
:102FD00001D038284CD1FFF767FC00284AD1684659
:102FE00007F0BEFF80490198FDF79BFAFDF756FBFD
:102FF00001467E4C20462030FFF762FD7C49029856
:10300000FDF78FFAFDF74AFB014620463030FFF707
:1030100057FDB078401CB070C0B205282AD30020FC
:10302000B07008F0A3FC054607F0F4FFF749284606
:10303000FDF777FAFDF732FB01462046FFF7E0FC8B
:1030400018E002F02FFD70603078401E062800D98D
:1030500081E0C0467844007940008744037F707661
:103060006A858B00022030700E20FFF7ADFBA3E7CE
:103070000020B07002F016FD3169401AB8428BD3BF
:1030800002F010FD3061FFF79BFB0146083929294A
:1030900000D94BE07944097949008F441514141480
:1030A00014141414141414151414141414151414DE
:1030B00014141414141514141414141414141414CF
:1030C00014141414141567E70CA80BA90AAA08F025
:1030D0005BF8002800D15FE709A808A907AA06AB9A
:1030E00007F0F8FF002800D156E76846102141712B
:1030F000002101718222C2700B228270A5224270CF
:103100005A220270079A8271089AC271032242728F
:10311000099A02720C9A82720B9AC27241730A99CE
:1031200001730E21FFF73EFD0DB0F0BD7728CBD027
:1031300032E7062030701220FFF746FB3CE7042000
:1031400030701020FFF740FB36E70520307011206B
:10315000FFF73AFB30E7002030702DE70320307096
:103160000F20FFF731FB27E707203070002000F029
:10317000F9F821E70020307010A00DF067FC1BE784
:1031800068010020A2000020964000004572726F86
:103190003A2054696D656F75742100004572726F35
:1031A00020616F2073616C766172210053616C76CF
:1031B000616E646F2E2E2E00881300004449535018
:1031C0004C41593A2053657175656E63696120649D
:1031D00065206D65646963616F2066696E616C6905
:1031E0007A6164612E0D00000AD7233C3022000072
:1031F00000002041F0B581B0E04F7E78002E03D072
:103200007042704101B0F0BD0446DD480D462146D4
:103210000CF032FF00F044FDDA48048038461430E8
:1032200031222946FCF7B9FF0120787070427041C5
:1032300001B0F0BD6801002080B5044804A120223F
:10324000FFF730FD3520FFF7BFFA80BD9640000044
:1032500041646A7573744672657175656E63793A17
:1032600020333030302E304B487A2B2F2D322E30F9
:1032700000000000B0B505460824102809D02046FB
:10328000FFF7A2FA102D09D107482146FFF78AFC63
:10329000B0BD0B20FFF798FA102DF5D0034821465A
:1032A000FFF780FCB0BDC046540B01085C0B010861
:1032B00070B5002806D0FEF7D9FD124D68780028B9
:1032C00009D070BD1F4820A11B22FFF7EBFC302066
:1032D000FFF77AFA70BD0C482E2421460CF0CCFE84
:1032E00000F0DEFC094804802846143008A15CC9BF
:1032F0005CC05CC95CC05CC95CC001226A700978B2
:10330000017070BD6801002083680108A2000020E0
:1033100050726573657420636F6D706C65746F2196
:10332000000000000000000000000000000000009D
:10333000000000000000000000000000000000008D
:1033400000000000964000005072657365742072A2
:1033500065646566696E65206F7320616A75737454
:1033600065732100F0B591B095490978012903D121
:10337000002803D008F00AF911B0F0BD06AC2046D1
:1033800000F034FC207807AE314600F015FC6846AA
:1033900007F0E6FD00F036FC04461B4D10222846DF
:1033A0003146FFF77FFC2020315E2846C030FFF712
:1033B00027FB0A271098784301B22846E030FFF730
:1033C0001FFBF08C784301B22846F030FFF718FB62
:1033D000012C01D00E4900E00C490598FDF7A1F839
:1033E000FDF75CF9014690352846FFF709FB012CF3
:1033F00004D07720FFF7E8F911B0F0BD1320FFF7F4
:10340000E3F911B0F0BDC04670200000000020417B
:103410000000C842B0B594B0502A1ED101AC0020C3
:10342000207505900490039002900190152120468C
:1034300000F0A6FB07AD2AA1284622460CF048FE64
:103440002846FCF7C1FE82B2CF482946FFF72AFC86
:103450002320FFF7B9F914B0B0BD01AC00222275EA
:1034600005920492039202920192801D891F89B2F3
:1034700015232246FFF7C0FC00280FD02078002833
:103480000CD001AC204600F0D3FC07A80EA12246C8
:103490000CF01EFE0F4D6878002801D014B0B0BDAE
:1034A0000D48172421460CF0E7FD00F0F9FB0B480E
:1034B00004802846143007A93122FCF76EFE012053
:1034C000687014B0B0BDC046456D70726573613AE6
:1034D000202573006801002083680108A2000020F5
:1034E000417475616C20456D70726573613A202579
:1034F00073000000B0B58AB0502814D100F082FBF0
:1035000002466C4620A120460CF0E2FD2046FCF766
:103510005BFE82B2F4482146FFF7C4FB1B20FFF795
:1035200053F90AB0B0BD044600F0AAFC68460EA1EB
:1035300022460CF0CDFD114D6878002801D00AB06C
:10354000B0BD0F48172421460CF096FD00F0A8FBF3
:103550000C4804802846143069463122FCF71DFED1
:10356000012068700AB0B0BD436173617320646567
:1035700063696D6169733A20257500006801002058
:1035800083680108A2000020417475616C204E52CE
:103590005F446563696D616C733A202575000000B6
:1035A00080B507490870002804D109A10CA00CF0CF
:1035B00063FD80BD03A10AA00CF05EFD80BDC04686
:1035C000A4000020484142494C4954414441000074
:1035D0004445534142494C49544144410000000094
:1035E000446973706C61792048616E646C65723AED
:1035F00020496D7072657373616F2025730D0A0029
:10360000B0B58AB0502814D100F000FB02466C46D9
:103610001FA120460CF05CFD2046FCF7D5FD82B2D0
:10362000B1482146FFF73EFB1A20FFF7CDF80AB05C
:10363000B0BD044600F02CFC68460EA122460CF0FA
:1036400047FD104D6878002801D00AB0B0BD0E4883
:10365000172421460CF010FD00F022FB0B480480DB
:103660002846143069463122FCF797FD0120687026
:103670000AB0B0BD526570657469636F65733A20B6
:10368000257500006801002083680108A200002061
:10369000417475616C204E525F5265706574697437
:1036A000696F6E3A20257500B0B594B0502A1ED1CE
:1036B00001AC0020207505900490039002900190C9
:1036C0001521204600F0CEFA07AD2AA12846224651
:1036D0000CF0FEFC2846FCF777FD82B282482946B2
:1036E000FFF7E0FA2220FFF76FF814B0B0BD01AC8D
:1036F0000022227505920492039202920192801D8B
:10370000891F89B215232246FFF776FB00280FD0C8
:10371000207800280CD001AC204600F0F5FB07A86B
:103720000EA122460CF0D4FC0F4D6878002801D081
:1037300014B0B0BD0D48172421460CF09DFC00F0DC
:10374000AFFA0B4804802846143007A93122FCF751
:1037500024FD0120687014B0B0BDC046557375617A
:1037600072696F3A202573006801002083680108A0
:10377000A2000020417475616C20557375617269F7
:103780006F3A2025730000009640000070B592B09B
:1037900014460D46064605A83221FCF7F3FC002C22
:1037A00025D06C4600202074039002900190009078
:1037B000701D691F89B211232246FFF71DFB0028E7
:1037C00013D02078002810D022A06C4621460CF09F
:1037D00053FC204600F07CFB05A82AA122460CF0F1
:1037E00077FC2B4D687800281DD012B070BD3620B4
:1037F000FEF7EAFF6C4600202074039002900190CF
:1038000000901121204600F019FA05AD2846214606
:10381000FCF7FCFCFCF7D8FC82B233482946FFF7E2
:1038200041FA12B070BD1B482E2421460CF024FC36
:1038300000F036FA184804802846143005A93122D1
:10384000FCF7ABFC0120687014A00DF0FFF812B07B
:1038500070BDC046446973706C61792048616E64C4
:103860006C65723A20526563656269646F206E6FA1
:10387000766F2073657269616C3A20272573270A79
:103880000000000053657269616C3A2025730000E6
:103890006801002083680108A20000204469737059
:1038A0006C61793A2053657269616C2073616C7642
:1038B0006F20636F6D207375636573736F2E0D00DA
:1038C00080B5094809490E22FFF7ECF92120FEF7DF
:1038D0007BFF80BD80B5044804490E22FFF7E2F962
:1038E0003220FEF771FF80BD96400000BC680108E1
:1038F00010B5084C2078002800D010BD06A00DF0AF
:10390000A5F80120207002F0CDF860600D20FEF7D0
:103910005BFF10BD68010020444953504C41593AA7
:1039200020496E696369616E646F207365717565A6
:103930006E636961206465206D65646963616F2EE3
:103940002E2E0D000148012101707047E407002070
:1039500070B582B06E4D287803281BD001282DD178
:10396000A98900291ED028696B692A8900937F23C1
:1039700013408024E61A8E4200D30E460196A02101
:103980000224234602F0A4FB00280DD00120287158
:10399000052412E002F086F8A969401A05280DD323
:1039A00001240AE0042408E0686980196861A88994
:1039B000801BA8812889801928812C7002B070BDD5
:1039C00053490879012801D100220A717047C04685
:1039D0004F4900220A710A70086170474C4800780C
:1039E000FB2101404A1E9141401F421E9041084068
:1039F0007047C04610B5464C2069002817D0A0215A
:103A00000222642302F088F9002812D020690028DD
:103A100011D02F480DF01AF8206902F08DF805201A
:103A200001F0CAFE206902F01DF9206904E00020BF
:103A300010BD012010BD0020A0210222642302F04D
:103A40006BF901464042484110BDC046F0B583B015
:103A500004460020002A38D00E46002935D01546ED
:103A60002B490A69002A30D07D20C70000960195B5
:103A70000297A02102231046224602F009FA0028EC
:103A800014D023480069002813D011480CF0DEFF41
:103A90001F48006902F050F8052001F08DFE1C4817
:103AA000006902F0DFF81A48006903E0012003B062
:103AB000F0BD0020009601950297A0210223224626
:103AC00002F0E6F901464042484103B0F0BDC0466D
:103AD0008334010870B50E4C2378FB251D406E42DF
:103AE0006E415B1F5D425D4135434B1E0E469E415C
:103AF0002E40551E1346AB413340012B06D1616168
:103B00002081A2810020207101202070184670BD04
:103B10001401002080B5802001F0DEFE202001F09D
:103B2000DBFE80BD72B6FEE707480068406A70475A
:103B300080B5054804F0ECFC80BDC0460248006832
:103B4000002141627047C046680D0020DF49887837
:103B5000012801D100228A707047C04610B54A1E64
:103B60000B469341441E0246A2411A40012A04D149
:103B7000D54B5C69046098690860104610BDC0466A
:103B8000B0B54C1EA141421E054695410D40012D88
:103B900007D1B249DA4A51182246FCF7FEFA002151
:103BA00001552846B0BDC04680B5002803D0E24983
:103BB000994AFCF7CEFA80BD70B50246872801D33A
:103BC000002300E001234C1E0846A04118400128B4
:103BD0000AD128235343D84AD218203238CA38C1D0
:103BE00038CA38C178CA78C170BDC046002805D02F
:103BF000D1494979872900D300210170411E8841AC
:103C00007047C046CC48C08B7047C046CA48808BBE
:103C10007047C04687207047B0B54C1EA141421E78
:103C2000054695410D40012D06D1C3490831224674
:103C3000FCF7B3FA002101552846B0BDB0B54C1EC3
:103C4000A141421E054695410D40012D07D1AB49CA
:103C5000B94A51182246FCF7A0FA0021015528461E
:103C6000B0BDC046B0B54C1EA141421E05469541AF
:103C70000D40012D07D1AF49AF4A51182246FCF73C
:103C80008CFA002101552846B0BDC046AC480078EA
:103C90007047C046AA4900220A7048604A707047BF
:103CA000A748012101707047B0B5FFF751FEFFF73B
:103CB00095FE002808D03F484078072811D80121F8
:103CC0008140A82001420CD0FFF77AFE002809D0DD
:103CD00055480CF0BBFE3748092141700DE03549CD
:103CE0004870B0BD334D687878440079400087440F
:103CF0000C1D2E1146523A5817044C480CF0A6FEE3
:103D00002C48012181700020E9E728780028E8D0BC
:103D10000120E4E7FFF762FE0028E2D10420DEE79D
:103D200025A00CF093FE00202870D8E73D480CF049
:103D30008DFE6868002806D0D94CDB4A214601F088
:103D4000EDF9DB4960500020A8700220C7E7344835
:103D50000CF07CFE0020D249D24AFFF7BBFE0028BF
:103D600017D00320BBE721A00CF070FED248CC494D
:103D7000CC4AFFF7AFFE00280BD00720AFE727485B
:103D80000CF064FEC649C7480246FFF7A3FE0028B0
:103D90000DD10920A3E7FFF721FE0028A1D10620BD
:103DA0009DE7FFF71BFE00289BD1082097E7052021
:103DB00095E7C0463801002046534D20476572659F
:103DC0006E636961646F723A2053616C76616D65F0
:103DD0006E746F20617373696E63726F6E6F2063B0
:103DE0006F6E636C7569646F2E0D000046534D2035
:103DF000476572656E636961646F723A20457363EB
:103E0000726576656E646F206261636B75702032D7
:103E10002E2E2E0D00000000DC1600006735010874
:103E200090350108BF35010834350108F435010823
:103E3000B0B5044600280CD00848994D2818142223
:103E40002146FCF7AAF9064800212954934801218C
:103E50000170601E84412046B0BDC0464C15000074
:103E60005F150000862804D88C4901220A708C490D
:103E70004871872801D30020704701207047C04651
:103E8000864A01211170864AD08308467047C04691
:103E9000824A01211170824A908308467047C046C9
:103EA000B0B5044600280BD07D4D284608300A22C4
:103EB0002146FCF772F97948012101700020A874AD
:103EC000601E84412046B0BDCC1400203801002083
:103ED000B0B5044600280CD07A48714D281810223D
:103EE0002146FCF75AF90748002129546B48012163
:103EF0000170601E84412046B0BDC046C816000057
:103F0000CC140020D7160000B0B5044600280CD011
:103F10000848634D281814222146FCF73EF907484B
:103F2000002129545D4801210170601E8441204612
:103F3000B0BDC04638150000CC1400204B15000061
:103F400038010020F0B583B054484068002818D0EC
:103F50000024534E534F204631463A46FFF776FD34
:103F600001210291504A00280ED0514835584B4843
:103F70004068314601F0D2F8A8420AD1029803B055
:103F8000F0BD002003B0F0BD484800210CF074F8EB
:103F900005E00246474800212B460CF06DF8404EE4
:103FA000384631463A46FFF751FD002813D04048C5
:103FB00035583A4A5068314616463B4A01F0AEF849
:103FC0000246A8420299084664D03A4835492B4631
:103FD0000CF052F804E0354832490CF04DF82F4E01
:103FE00035482F4D29463A46FFF730FD002811D0BD
:103FF0002F482B490F5870682B4A01F08FF8024662
:10400000B8420299084645D02A482B493B460CF055
:1040100033F803E0254828490CF02EF8281D2449E0
:10402000FCF7B0F825480121019129606121A860C1
:10403000E9602C827F20C00568612148E861214841
:10404000281821494CC94CC00A880280897881709F
:1040500087271E4E2846203031681022FCF79DF835
:1040600030202C54284631300A221949FCF771F8C7
:1040700028463030F16A326BC2828182B16929648C
:10408000C472283540367F1EE4D1044E019830704A
:1040900020460299317003B0F0BDC04638010020BF
:1040A000CC140020DC160000B6050000AE34010878
:1040B000D8160000E4340108B82D000073656E685E
:1040C00005000200C81600004C6B0108D80B01085F
:1040D0005C6B0108F0B581B0144D69780A224A433F
:1040E00080181349401880B2124E717888421AD253
:1040F000400030180421445E0FA021460BF0BCFFA5
:10410000748000273770E0B2FFF7ACFE77700122B1
:104110006A702A70852000021549FEF7C3FD082049
:104120001449FFF767F801B0F0BDC0462C0000202D
:10413000F6FF0000C801002053656C6563616F20C5
:1041400076696120706573717569736120636F6E44
:104150006669726D6164612E20496E6469636520D1
:10416000646F204772616F3A2025642E0D0A0000AB
:10417000045D0108336B0108F0B58FB00646C64CEC
:1041800000276770FFF746FD0546002E009069D0B6
:104190003078002866D0002D00D147E1029603E078
:1041A0007F1CAF4200D141E1F8B205A9FFF704FD41
:1041B0000028F5D0317805A803910029014600D0E8
:1041C00000210078002831D00197354605AE06E081
:1041D000049D6D1C01467078761C00282FD02F7826
:1041E000002F27D004950D46FBF7ADFF0446384657
:1041F000FBF7A9FF844204D1002D3046E8D02846C1
:10420000E6E7002D00D06E1C3078FBF79CFF0746D8
:104210000398FBF798FF8742314600D00021874280
:1042200001D0029DD7E70298451CD4E70398000609
:104230000CD10CE0984C009D029E019F07E028786D
:10424000954C009D029E019F000600D00021002990
:10425000A6D060781328A3D8411C617040002018B4
:1042600087809DE76178002D00D1E3E0132900D914
:10427000E0E04800201800228280481C022D00D275
:10428000EAE0122900D9E7E04000201801228280EC
:10429000881C032D00D2DFE0112900D9DCE04000AA
:1042A000201802228280C81C042D00D2D4E01029DC
:1042B00000D9D1E04000201803228280081D052D7E
:1042C00000D2C9E00F2900D9C6E04000201804221E
:1042D0008280481D062D00D2BEE00E2900D9BBE029
:1042E0004000201805228280881D072D00D2B3E0EF
:1042F0000D2900D9B0E04000201806228280C81D98
:10430000082D00D2A8E00C2900D9A5E04000201813
:104310000722828008460830092D00D29CE00B2934
:1043200000D999E040002018082282800846093010
:104330000A2D00D290E00A2900D98DE04000201813
:104340000922828008460A300B2D00D284E0092918
:1043500000D981E0400020180A22828008460B30F4
:104360000C2D79D3082977D8400020180B228280A1
:1043700008460C300D2D6FD307296DD8400020184A
:104380000C22828008460D300E2D64D3062962D897
:104390004000414A10180D22828008460E30009AD3
:1043A0000F2A58D3052956D840003B4A10180E2230
:1043B000828008460F30009A102A4CD304294AD82C
:1043C0004000354A10180F22828010220846104300
:1043D000009B112B3FD303293DD843002E4CE318FB
:1043E0009A800A461132009B122B53D3122851D8BF
:1043F0005000294A10181122828008461230009A73
:10440000132A29D3012927D84000234A1018122241
:10441000828008461330009A142A1DD300291BD12C
:104420004000201813218180142015E060780028B6
:1044300013D102E0084600280FD1184831460BF08E
:104440001BFE3C20FEF7C0F9154816A11822FEF706
:1044500029FC0FB0F0BD104C6070F14901224A7088
:10446000401EC0B2CD234343D80A431C0B7005AC99
:10447000124920460BF02CFE2046FBF7A5FE8521B5
:10448000090282B208462146FEF70CFC00F018F83B
:104490000FB0F0BD1046DFE7C8010020EE6A01084A
:1044A000964000004E656E68756D206772616F20E2
:1044B000656E636F6E747261646F2100466B0108F4
:1044C000F0B58BB0D64840780A2141437F4FCE19D2
:1044D0003046083880B2FA4D69787D4C88420DD25A
:1044E00040002818007901A9FFF766FB00280CD0CE
:1044F0002046203880B201A9102204E0204620384E
:1045000080B2C8490122FEF7CDFBF01F80B2697866
:1045100088420AD240002818007901A9FFF74CFB15
:10452000002807D001A9102201E0BE49012220463F
:10453000FEF7B8FBB01F3840697888420DD24000C2
:104540002818007901A9FFF737FB00280CD0204676
:10455000203080B201A9102204E02046203080B231
:10456000B0490122FEF79EFB701F80B26978884235
:104570000DD240002818007901A9FFF71DFB002883
:104580000CD02046403080B201A9102204E0204621
:10459000403080B2A3490122FEF784FB301F38402F
:1045A000697888420CD240002818007901A9FFF7E9
:1045B00003FB00280AD06034A0B201A9102203E056
:1045C0006034A0B297490122FEF76CFBF01E80B266
:1045D0006978404C88420DD240002818007901A922
:1045E000FFF7EAFA00280CD02046203880B201A953
:1045F000102204E02046203880B28A490122FEF7CA
:1046000051FBB01E3840697888420AD24000281811
:10461000007901A9FFF7D0FA002807D001A91022DC
:1046200001E0804901222046FEF73CFB701E80B26B
:10463000697888420DD240002818007901A9FFF757
:10464000BBFA00280CD02046203080B201A91022ED
:1046500004E02046203080B272490122FEF722FB9E
:104660003740687887420DD278002818007901A970
:10467000FFF7A2FA00280CD02046403080B201A9F2
:10468000102204E02046403080B266490122FEF745
:1046900009FB701C80B2697888420CD2400028184F
:1046A000007901A9FFF788FA00280AD06034A0B287
:1046B00001A9102203E06034A0B25A490122FEF79A
:1046C000F1FA6520FEF780F80BB0F0BDFEFF0000A8
:1046D0002082000020830000B0B582B00AA00CF058
:1046E000B5F9904D0120287001AC002020702046C3
:1046F000FFF77CFA207868800BF018FC6620FEF744
:1047000063F802B0B0BDC0464772616F735F486125
:104710006E646C65723A20456E7472616E646F20CF
:104720006E612074656C612064652073656C6563DF
:10473000616F206465206772616F732E0D00000049
:10474000B0B50446294D287801284ED1FFF762FA0A
:1047500000284AD0611E052947D8C0467944097906
:1047600049008F4402261B4242310220295E2EA0BE
:104770000BF082FC00242C70A878FFF773FB6C70A0
:104780002748012242700270852000022549FEF769
:1047900089FA08203349FEF72DFDB0BD6988491E0E
:1047A0000AB2002A00D5411E698008B20BF0BEFB98
:1047B000B0BD6988491C0AB28242F5DB00216980DC
:1047C00008B20BF0B3FBB0BD09A00CF03FF900201C
:1047D000288013480122427002708520000211498E
:1047E000FEF760FA0820FDF7EFFFB0BDC80100201A
:1047F0004772616F735F48616E646C65723A2053F3
:10480000656C6563616F20287669612073657461EA
:1048100073292063616E63656C6164612E0D000015
:104820002C000020045D01084772616F735F4861CE
:104830006E646C65723A204772616F2028766961F8
:104840002073657461732920696E6469636520272C
:104850002564272073656C6563696F6E61646F2ED4
:104860000D0A0000336B0108B0B582B0134D2C78EF
:10487000022C20D31248007801281CD168782146E8
:10488000FBF739FF491C69700EA022460BF0F4FBC0
:104890006A782B786C46154920460BF019FC2046A7
:1048A000FBF792FC8521090282B208462146FEF7F9
:1048B000F9F9FFF705FE02B0B0BDC0462C0000209C
:1048C000C8010020506167696E6163616F3A204DD5
:1048D0007564616E646F20706172612070616769D8
:1048E0006E612025642F25640D0A0000466B0108C7
:1048F00080B586B00B4A1278012A10D1801D891F1D
:1049000089B201AA1123FEF777FA002804D001A882
:10491000FFF732FC06B080BD03A00CF097F806B09C
:1049200080BDC046C801002046616C686120616F8F
:10493000206578747261697220746578746F206480
:104940006120706573717569736120646F20706197
:10495000796C6F6164204457494E2E0D00000000B1
:10496000F0B587B0002506955422825C012A03D158
:104970000224204607B0F0BD0646543601243470A8
:10498000026893685B0714D407694B68022B18D13F
:1049900004200743994887426DD19748C0430B686C
:1049A000D9430143906A084090620024002B66D4EA
:1049B000D2E0816D20220A4382653570204607B01F
:1049C000F0BD059304231F438C4CA74262D10F68AE
:1049D0003846894B1840936A0343936238025369FF
:1049E0008343896801408648084018435061002489
:1049F000002F00D4B0E003208205824803681946E6
:104A000011403846804F0490B84200D096E07A4F6B
:104A10007F1CB94200D391E07A480368934319435D
:104A2000754A5118491C0160794800687949FBF7BB
:104A300062FE0C214143481C06900698002800D1D4
:104A40008AE00698401E06900698002800D183E070
:104A50000698401E0690069800287DD00698401EB5
:104A600006900698002877D00698401E0690069873
:104A70000028E6D170E00B680024002B6CD5FA48C2
:104A80000168624A93426BD05F4A934264D101222B
:104A9000920567E01F27059C27400F240094039789
:104AA000BC40076E0194A74302970C68524F3C42EA
:104AB000049462D0E4072F4667D1049FBC075FD4FB
:104AC0007C075FD43C075FD4FC061F465DD4049C82
:104AD000A30671D4630671D4230671D4E30571D49F
:104AE000049B9B0570D4049B5B056FD4049B1B0542
:104AF0006ED4049BDB046DD4049B9B046CD4049B98
:104B00005B046BD4049B1B04009F3ED4049BDB031B
:104B100066D4049B9B0365D4049B5B0364D4049B11
:104B20001B0363D4049BDB0262D4049B9B0261D40D
:104B3000049B5B02DB1716271F4026E0334F0498C7
:104B4000B84209D10127BF053B4005D1C6480368DB
:104B50009343194339430BE03570204607B0F0BD4D
:104B6000254A521C114003229205036893435918A9
:104B700001603570204607B0F0BD6300DF0E04E031
:104B8000012702E0022700E00327039CA740029BC5
:104B90001F430766059B9B08C06998420AD9019884
:104BA000C043936A0340049FB800000FA04018431D
:104BB000906213E7049F11E70527E6E70627E4E77D
:104BC0000727E2E70827E0E70927DEE70A27DCE70F
:104BD0000B27DAE70C27D8E70D27D6E70E27D4E70F
:104BE0001027D2E71127D0E71227CEE71327CCE70B
:104BF0001427CAE71527C8E7FFFF7F0004000080DD
:104C000000FFFF7F08270140000200A4000400A865
:104C100030000020400D03000068006C7047000069
:104C2000F0B589B0044600200890002C76D007909B
:104C3000A06D002807D125465435204600F016F90E
:104C400000202870E06501273D072668B068C00095
:104C500026D4B0687F4901402943B1607E4800688E
:104C60007E49FBF748FD400008900898002817D0BF
:104C70000898401E08900898002811D00898401EF7
:104C80000890089800280BD00898401E08900898B3
:104C9000002805D00898401E089008980028E7D101
:104CA000B068284208D1A06D10210143A165E06DD4
:104CB000012107910843E065B06804210140A26D1D
:104CC000102002405118A16D2BD106900F20C74330
:104CD0003A46F33A1140891CA165B168C9077DD1F4
:104CE0000390049727462037216B4A1E91410D03FC
:104CF000A168227E92030A43617EC9031143A27E0A
:104D000050030843E36803432B430120C50721698F
:104D100000290590029509DAA94308E0012009B0AD
:104D2000F0BD0143A165384609B0F0BD41050B4314
:104D3000387B45001D433878012809D1002A11D05D
:104D4000A06D20210143A165E06D05990843E06550
:104D5000626A002A0CD0072080010240A16A114338
:104D6000294306E0059800040543626A002AF2D14F
:104D70002946F0683A4A02400A43F260032082075B
:104D800063681D461540E16C387F01280ED1206C08
:104D90000090676CA06C019000980743019807434E
:104DA0002F430F43059807433D4600E00D43049F02
:104DB00030692C49014029433161029883420399AB
:104DC0000CD093420AD005988007834206D088040D
:104DD000034025490A688243D01808607069072299
:104DE0009043656B28437061706970218843A16BA3
:104DF000090101437161216901235805814203D0F2
:104E000000290BD1B06A07E0B06AE06980001C306D
:104E10001C2101408F40206E3843B0627069104001
:104E2000A8420AD10020E065A06D012101430220C3
:104E30008143A165079809B0F0BDA06D06990843AC
:104E400002218843A065E06D1843E065184609B06B
:104E5000F0BDC046E8FFFF6F30000020400D0300AA
:104E60000102DEFF02FCFF1F0827014080B58AB067
:104E700000210991089107910691059104910391F0
:104E800000680D49884201D00AB080BD2020029000
:104E900002A802F00DFC002801D0FEF743FE01201D
:104EA000000506490A6802430A6009680140019149
:104EB00001980AB080BDC046002401404010024065
:104EC000F0B581B00D4604464069082801D1082795
:104ED00004E02068C068C0073FD1042700F0E2FD6D
:104EE00006462168086838421CD001204202A36DA2
:104EF0001343A365CA681205920F4AD1A27E002A05
:104F000047D10A68120744D58A68520738D4224626
:104F100058324B680C25AB434B60FF2502351368B4
:104F2000AB4334E0002D1FD0681C10D10868384214
:104F3000DBD108683842D8D108683842D5D1086832
:104F40003842F3D0D1E7216808683842CDD100F06B
:104F5000A9FD801BA842F6D908E0A06D20210143DD
:104F6000A165012001B0F0BD00F09CFD542000219E
:104F70002154A06D04210143A165032001B0F0BDBF
:104F8000A26D20231343A36522465C32E36D0343E5
:104F90001360227E0020002A01D001B0F0BD0C2257
:104FA0000A6001B0F0BD000070B50146006882687B
:104FB0000220520711D454228A5C012A0DD00C46DB
:104FC00054340120054620700E460846FCF7CCF804
:104FD000002803D000202070284670BDB06D09491C
:104FE0000140012000020818B0650020F06531681A
:104FF0001C220A6020708A68304B13401A1D8A6098
:1050000070BDC046FEF0FFFFF0B581B004465420ED
:10501000205C012802D1022001B0F0BD26465436A2
:10502000012737702068816849071FD4816882682A
:10503000D20737D00222114034D1816805220A40BC
:10504000012A27D181681D4A0A40911C81600321F1
:10505000016000F027FD054620688068C00721D068
:1050600000F020FD401B0328F6D313E08168890778
:1050700004D48168114A0A401032826000F012FDA7
:105080000546206881684907D0D500F00BFD401B1C
:105090000328F6D3A06D10210143A165E16D5C34B6
:1050A000384605E0FF200230A16D814358340020CE
:1050B000002232703943216001B0F0BDE8FFFF7F6C
:1050C00070B503460120CC0720D0114C0C40651E62
:1050D000AC4103261546F541032D17D87D442D79A3
:1050E0006D00AF440B0105090B4C0C400ED105E0DF
:1050F000084C0C400AD101E0002C07D1186841612E
:1051000081681823994311438160002070BDC04617
:1051100080FFFF7F00FFFF7F0000FF7FF0B584B0BE
:105120000E46022141770468A16801252943A16048
:10513000016A01291ED002290ED0032928D1002A94
:1051400000D103E10395032511462940042A00D329
:10515000D2E033460025DEE057081ED00395032138
:105160003B460B4000937B1E032B029601971AD2FD
:10517000002133E0970814D00395032339461940E2
:105180000091791E03290296019349D200257AE005
:1051900000214577084604B0F0BD0021D2073CD17C
:1051A000D4E000219EE08F43002135466B882E8895
:1051B0003604F3182360EB88AE883604F3182360B6
:1051C0006B892E893604F3182360EB89AE89360487
:1051D000F31823601035091D8F42E7D1009F002F7F
:1051E000029E14D08B00F1184D88F35A1B045B19F2
:1051F0002360012F0BD0CB888D882D04EB18236002
:10520000022F04D04B8909890904C918216001992A
:105210008900039DD20700D198E0715A218095E062
:105220009F43002531460E7836064B781B049B19A8
:105230008E7836029B19CE789B1923600B791B065A
:105240004E793604F3188E7936029B19CE799B1964
:1052500023600B7A1B064E7A3604F3188E7A3602D8
:105260009B19CE7A9B1923600B7B1B064E7B360461
:10527000F3188E7B36029B19CE7B9B19236010316D
:105280002D1DAF42CFD1009F002F029E26D0A90036
:10529000735C1B0671184D782D04EB188D782D0268
:1052A0005B19CD785B192360012F17D00B791B0692
:1052B0004D792D04EB188D792D025B19CD795B1991
:1052C0002360022F0AD00B7A1B064D7A2D04EB18AF
:1052D0008D7A2D025B19C97A591821601146019BFC
:1052E0009943039D03231A407A441279520097444C
:1052F0002C011C24715C27E0AA4300253346376843
:10530000276077682760B7682760F76827601036DE
:105310002D1DAA42F3D1002905D0AA001D469B5895
:105320002360012917D1039D10E072185278715C37
:10533000090289182180046808E072185378715CAA
:105340000902C91821809178217004682168457785
:10535000084604B0F0BDAA18536823600229039DD3
:10536000F4D091682160F1E7B0B50125002814D090
:105370000446407F002804D100202077204600F01A
:1053800031F8022060772079002808D0A168E2680F
:105390002046FFF795FE002808D02846B0BD2068BB
:1053A0000F4941618168182291438160002560792D
:1053B000002801D0216900E0E9432068016181688B
:1053C0006022914362690A4382608168802291432E
:1053D000A2690A438260012060772846B0BDC046BA
:1053E000B71DC10481B000680849884201D001B0EE
:1053F00070470120000306490A6802430A600968F1
:1054000001400091009801B07047C0460030024052
:105410003810024070B500282CD0014624314A785B
:10542000022A29D1046822680E239A432260426C22
:105430001568314B1D401560256801229543256094
:10544000046C1C2525401446AC40DA4D2E682643DA
:105450002E60846CC56C6560046D002C05D02568D9
:105460001D402560436D806D58604A700020002209
:105470000A7070BD012070BD0422C26301200022A9
:105480000A7070BD70B524210124445401462431B2
:105490004A78022A2BD103681A680E24A2431A60A4
:1054A0001C68012294431C60446C2568124B1D400B
:1054B0002560046C1C2525401446AC40BD4D2E686B
:1054C00026432E60846CC56C6560046D002C05D08D
:1054D00025681D402560436D846D5C6000240C7060
:1054E0004A70816B002900D08847204670BD042196
:1054F000C163204670BDC046FFFEFFFFC06B704712
:105500002521405C70470000F0B585B0016C1C247B
:105510000C4004231946A140A64A121F15680A46EA
:1055200003952A4056425641049005682A6817465A
:105530001F4078427841304332D002950121022643
:105540001046304047424741A640039B1E420D464D
:10555000019400D03946049F3C462434002931D0C0
:1055600008200240564256410198C340180700D512
:105570003546002D24D1029A10680E218843106010
:1055800001200146019A91408A4B1A680A431A6029
:10559000F863002121706070796B00290ED10FE053
:1055A0002868800602D4286898432860814A1068D9
:1055B00008431060049F396B002901D038468847A2
:1055C00005B0F0BD029A1068800605D410680A2163
:1055D00088431060012060700020207075490868C1
:1055E00030430860F96A0029E8D1E9E7F0B587B0EF
:1055F00000284AD004460146243102200691487012
:1056000027683868344901403960344E304680306C
:10561000A0643348381814252946FBF76CF880003D
:105620008119206405916164FC20384008382946BE
:10563000FBF761F81C22024001210B469340E36412
:10564000A0680490E5682646103645CE0196E669C6
:105650000296266A039628431043019A10430E4689
:10566000029908430399084339680143049A114396
:105670003960B1031B488A420AD1002205990A60A9
:1056800062600360154613461BE0012007B0F0BDC1
:105690006168CFB2059A17600360491E0022032992
:1056A000154613460DD8791E8A0082180023D36749
:1056B00003250D403346AB400B490B607C32BC30B8
:1056C00005460020E06322656565A36506990870BC
:1056D0004E7007B0F0BDC0460F80FFFF00080240CB
:1056E000F8FFFDBF8408024044090240F0B583B0D2
:1056F00004462420205C012802D1022003B0F0BD22
:10570000254624356878012830D10092022068703F
:105710000020E0632668326801270297BA433260AE
:10572000A26CE76C5760226D0192002A02D0626D74
:10573000A76D5760226C1C271740029ABA401D4F74
:105740003F6817431B4A17607360A368102B009FC4
:105750003A4600D00A46B260102B00D03946F160BC
:105760003168226B002A06D00E2209E002200021B7
:10577000297003B0F0BD04229143316032680A21E0
:105780001143316002990902626C1368DB0302D590
:1057900013680B431360019B002B02D01A680A4365
:1057A0001A603168029A114331600021297003B0F8
:1057B000F0BDC04604000240B0B5044600F072F9E6
:1057C0000546601C02D004480078241800F06AF9ED
:1057D000401BA042FAD3B0BD08000020F0B58AB04B
:1057E0000390002970D00E46A648039A824201D049
:1057F000062000E005200B221207039B9B180A22BB
:10580000D3410293042B00D30290039820300190DF
:10581000002739463C463A46009626E08F40039DD5
:105820002868384328601C203C46099F3840069170
:1058300007998140D0088000019E33588B43069918
:105840003350A868A043A8606868089EB0436860A9
:10585000E868A043E860009E059C521C3046D0409A
:105860003F1D891C083400282ED001209040054699
:105870003540F2D0089009971820059420400F2455
:105880000794844003271646BE437F4B9B1904931D
:105890001E6E06942640029B83409E42BED1049C0D
:1058A00060347A4B1868A84318605868A843586059
:1058B000754B1868A84318605868A843586020685A
:1058C000069B98432060A9E70AB0F0BD80B5202868
:1058D00001D1FEF737F880BDB0B50446074D286802
:1058E000204203D02C60204600F00AF8686820426D
:1058F00003D06C602046FFF7E9FFB0BD0C180240F2
:1059000070470000F0B58AB0069009910B68002B33
:1059100000D1B4E05B480699814201D0062000E046
:1059200005200B221207069989180A22D1410091FD
:10593000042900D3009006982030019000252E46BF
:10594000079529460FE01A4362600899491C099897
:1059500003681846C8400835B61C079A121D0792FE
:10596000002800D18BE001242046089188400340A4
:105970000393EAD0049509994A681021114312292A
:1059800015D11C21079A114005960F2632468A40F0
:10599000089BDB089F00019BDD599543099A12691A
:1059A0003240059E8A402A43DA5109994A68032306
:1059B00011461940B1400293B3403746069E356800
:1059C0009D430D4335603E46D9430591122A049DFF
:1059D00015D894402E490C420FD0069CA168059B17
:1059E0001940099BDB68B3400B43A3601109089B76
:1059F0009940636883430B436360032AA5D0069BE9
:105A0000D8680599084009998968B1400143D9606F
:105A1000D0009AD5182028400F218140089A029B77
:105A20009A43194CA218136E8B4300998140194375
:105A300011661648026809984068C10302D5039BA5
:105A40001A4301E0039B9A4310490A604A688103A4
:105A500001D51A4300E09A430C494A602268C1020A
:105A600005D51A4322606268800206D56BE79A4327
:105A700022606268800200D565E79A4364E70AB055
:105A8000F0BDC046001400500018024080180240CB
:105A900006000600002A02D01822815070472822F2
:105AA00081507047014800687047C0462C2E002086
:105AB000B0B50246034640335C780220202C17D153
:105AC0001C78012C14D0242058701068026801241E
:105AD000A2430260220305689543056002680A43F9
