:020000040800F2
:10000000B0580020D500000849B50008B99E000886
:1000100000000000000000000000000000000000E0
:1000200000000000000000000000000051BD0008BA
:100030000000000000000000F1B50008E5BD000868
:10004000E7000008E7000008E7000008E7000008F4
:10005000E7000008E7000008E7000008293E000864
:1000600001D10008DD2A0008ED2A0008E700000899
:10007000E7000008E7000008E7000008E7000008C4
:10008000E70000080000000000000000B9BE000802
:1000900000000000E7000008E7000008BD9E00081F
:1000A000E7000008E7000008E7000008E700000894
:1000B00099C80008000000000000000000000000D7
:1000C0000348854600F092FE00480047C50C010831
:1000D000B05800200448804704480047FEE7FEE788
:1000E000FEE7FEE7FEE7FEE7A9BE0008C100000844
:1000F00030B5434351435C18010C130C0D465D436E
:100100002C1980B292B20546554351430A0C09049A
:100110004D1962415843010C00044019514130BD52
:1001200000487047BC17010810B50446FFF7F8FFF8
:100130000068005DC007C00F10BD01466139192974
:1001400000D82038704701464139192900D820309D
:10015000704703460B439B0703D009E008C9121FF1
:1001600008C0042AFAD203E00B780370401C491C33
:10017000521EF9D27047D2B201E00270401C491EF3
:10018000FBD270470022F6E710B513460A46044634
:100190001946FFF7F0FF204610BD10B5044605E0F4
:1001A0000B780370401C002B00D0491C521EF7D264
:1001B000204610BDCAB2401E4178401C8A4202D07F
:1001C0000029F9D100207047421C0178401C002909
:1001D000FBD1801A704710B5002200E0521C835CEE
:1001E0008C5CA34201D1002BF8D1D8B2E1B2401A05
:1001F00010BD30B504460020034600E05B1C93426E
:1002000003D2E05CCD5C401BF8D030BD03460A78D9
:100210000270401C491C002AF9D118467047F8B5F5
:100220000E460546002400E0641C285DFFF78BFFA6
:100230000746305DFFF787FF381A02D1295D002994
:10024000F2D1F8BD0FB400B58DB009900B9010A994
:1002500000200091C0430A9000200C9006480690B0
:10026000064807906A4609A80F9900F0D3FA0DB026
:1002700008BC04B0184700003508000855080008FD
:10028000FFB50027FF4383B000205C6801909E68A3
:100290001D46A9697F1C049888470090296A8847F1
:1002A0000028F6D10098401C0CD003204002844363
:1002B000002E19DD600614D500982B2809D02D28B2
:1002C0000FD103E00020C04307B0F0BD0120800241
:1002D0000443A9697F1C04988847761E0090002E6D
:1002E00002DD0098302803D00598002825D035E09D
:1002F000012040020443A969761E7F1C04988847A8
:100300000090002E03DD782805D0582803D00598EA
:10031000002810D022E00598002801D010281DD117
:10032000012040028443A969761E7F1C04988847F7
:100330000090102002E0082000E00A2005900DE067
:10034000012149020C43059A0199761E5143081870
:100350000190A9697F1C049888470090002E05DD54
:100360000599009800F040FA0028E9DAE969049854
:100370008847A00502D40120C043A5E7E00722D1A9
:10038000600611D56005019800D5404229680A1D14
:100390002A600968220501D5087014E0220701D5FA
:1003A000088010E008600EE02868011D29600068E0
:1003B000210502D50199017005E02107019901D5B8
:1003C000018000E0016038467EE70000F7B5009C40
:1003D0000F4600262578641C002D05D0FFF7A0FEEF
:1003E0000068405DC007F5D12B2D02D02D2D18D00F
:1003F000641E39462046029A00F03EFA002F04D0CF
:100400003968A14201D1009939607105022400299F
:100410000BDA4042002803DD10F004FD0460A00761
:10042000FEBD012080020643E3E70028F8DA10F061
:10043000F9FC04600048FEBDFFFFFF7F70B5064673
:1004400010F0F0FC046805460A2200213046FFF750
:10045000BDFF2C6070BD70B5064610F0E3FC04686B
:1004600005460A2200213046FFF7B0FF2C6070BD20
:10047000F8B502464A40D40F42004B0052085B08D0
:100480009A4202D20246084611464A0023D0C30DC2
:100490004A00DDB2120EAD1A202D35DA49020126CE
:1004A000490AF6058A19002C00D0524220214F1B20
:1004B0001146B9402A411018C20D9A4221D0002C91
:1004C00017D0012D08DCDA05801AD20F8019D20767
:1004D000DBB200F02CFAF8BDDA05801A01234000E7
:1004E0001B06C01880185A428018CA0F10434900D2
:1004F00007E04908C2071143DA05801A801940084D
:10050000801800F00CFAF8BD61000122511A001B9E
:10051000F7E70122D2075140AAE70122D207504053
:10052000A6E7024670B54A40D30FDB0740002DD046
:100530004A002AD0010E140E000212020919400AC4
:10054000520A8418E50104465443000A120A2E0494
:100550005043A4194219200CC543AA18120C0125B6
:10056000AD03521C521912047F39240400D0521CCE
:10057000104301D44000491EC2B20C06C009201825
:10058000401C4008802A02D003E0002070BD4008D3
:100590004000002900DA0020184370BD70B5024603
:1005A0004A40D50F40004A00ED0740085208002895
:1005B00014D0002A12D0C40DD30D41020120C00571
:1005C0005202490A520AE41A091812187D3491425B
:1005D00001D3641C00E04900002C01DA002070BD4A
:1005E0000023914201D3891A03434008490000289F
:1005F000F7D100290AD0914202D10121C90705E0B3
:10060000914201D2012101E00121C943E005C01856
:10061000401900F084F970BD0122D207002800DBE8
:10062000101A002900DB511A814201D801207047BD
:10063000002070470122D207002800DB101A002991
:1006400000DB511A814201D201207047002070471F
:100650000122D207002800DB101A002900DB511A02
:10066000814201D301207047002070470122D20748
:10067000002800DB101A002900DB511A814201D941
:1006800001207047002070470122D207002800DBBC
:10069000101A002900DB511A814201D10120704754
:1006A00000207047C217C10F504010B54018CA074C
:1006B0009623002100F03BF910BD10B500229623CF
:1006C000114600F034F910BD0EB5C217C10F5040ED
:1006D000CA0740180021054B0293019200910A4677
:1006E0000B4600F06AF903B000BD000033040000BF
:1006F000C20F410040020123400ADB05D207090E68
:10070000C0187F2901DA00207047962903DC962360
:10071000591AC84001E096398840002AF4D0404276
:100720007047C20FD207400040080BD0C10D07230D
:10073000DB01C91840020905400A1143C2084007FD
:100740001143704700200146704770B504460029E8
:1007500003D000202022012310E0002801D0002037
:10076000C043C046C0460DE02546D5408D4205D366
:100770000D469540641B1D46954040191546521E76
:10078000002DF1DC214670BDF0B51FB406460020F7
:1007900082B005464024019100901BE00199224659
:1007A0000F46304600F04AFB049A059B801A994197
:1007B00010D310461946224600F030FB361A8F41FE
:1007C0000197224601200021009F00F027FB3818E6
:1007D0004D4100902046641E0028DFDC019B0098FC
:1007E0002946324607B0F0BD3A2800D230382023DF
:1007F00002469A43412A01D310463738884201D332
:100800000020C0437047000002681378511801604F
:100810001846704710B5D16004495161044911620E
:1008200000211161114600F02DFB10BD09080008E0
:10083000290100084268002A08D001680B78491C89
:10084000002B03D0521E06C0184670470121C1601C
:10085000881E70474268002A0BD0C3680168002BCD
:1008600007D183688B4204D0491E521C06C0002069
:1008700070470020C0437047F7B582B0029C002744
:100880002078641C15460197302802D0002D15D021
:1008900015E020780127641C782804D0582802D05D
:1008A000002D09D00BE0002D01D0102D07D100271D
:1008B00010252078641C02E0082500E00A250026A7
:1008C000009610E00099012769430818020C294698
:1008D00080B2714300908E183804864201D3012003
:1008E00001902078641C2946FFF77EFF0028E9DA92
:1008F0000398002805D0002F01D0641E00E0029C60
:1009000004600198002806D010F08CFA02210160E2
:10091000C81E05B0F0BD009930040843F9E700296E
:1009200004DA401C490001D140084000704770B40F
:100930000024050C05D11024000402D1002921D087
:100940001124050E01D100020834050F01D1000168
:10095000241D850F01D18000A41C002801DB40006C
:10096000641C002908D020252E1B0D46F540A1400F
:1009700000D001212943084301061B1B000ADB1D8F
:1009800002D5002070BC7047DB05181880180029BC
:10099000F8DA401C4900F5D170BC400840007047AF
:1009A00010B5002B08DA0024401C614192185B410D
:1009B0001A4301D14008400010BDF0B51FB482B009
:1009C00005460C0003D0084610F014FA02E010F0BF
:1009D00011FA2030024600902146284600F01EFA07
:1009E000049B059A04460F4618431143084314D04C
:1009F000184610431BD0009840210A1A1846059942
:100A000000F01CFA05460E46009A0599049800F07D
:100A100005FA084305D0012004E02046394607B016
:100A2000F0BD0020C11705430E432C433743009906
:100A30000E986305401A7905E40A00220C43FD0A6A
:100A40000A3002D500200146E9E701051019694185
:100A50000C9C0D9D00196941FFF7A2FFDFE7000024
:100A6000F0B507460846584087B0C00F04904800CC
:100A70000E46590040084908BC1A884105D238463C
:100A800031461E4617460B460246580040081043A2
:100A90004CD0300D039040055900400D490D059094
:100AA000401A0290402872DA18030121000B090550
:100AB0000843019004980092002805D00199524201
:100AC0000020884100920190029840210A1A019961
:100AD000009800F0A3F905460C466B4607CB00F0E2
:100AE000BEF9C0197141039A0E0D0023D717564065
:100AF0001A467A40164344D0049A002A2DD0029A0E
:100B0000012A039A15DC1205C01A91410126360507
:100B1000001C7141D20F059ED207009301920296EC
:100B20002A462346FFF749FF07B0F0BD3846314655
:100B3000FAE71605224A0F46B218C01AB74101213A
:100B40000905001C4F4100187F41114618187941D2
:100B5000E20F10436D19644113E0E2076D0815437D
:100B60006408C2071443039A01261205C01A914172
:100B70003605001C7141CE07400830434908C018B3
:100B800051412A462346FFF70BFFCDE7FFE70498C4
:100B900001224000C117121A00238B4104983146EC
:100BA000C417381AA141EEE730B40124E4076340CA
:100BB00030BC55E730B40124E407614030BC4FE756
:100BC0000000E0FFF0B51FB488B00B99099800242D
:100BD00048400999C00F490049080991C0070B997D
:100BE0000090490049080B9109990898A6460843C6
:100BF0001CD00B990A98084318D00998012440008A
:100C0000420D4800410D099824050003000B2043C4
:100C100009900B980003000B20430B9050181C49BF
:100C20004018002201901446104605E000200146BD
:100C30000DB0F0BD032801DA034600E003239C4613
:100C4000C11A0AAE0AE05F0008ADED5B4F00F75B2A
:100C50007D430027AA187C41491C5B1E6145F2DDDB
:100C6000410004AB5A522104120C0A43240C401CCC
:100C70000828DFDB019802900099704601910090EE
:100C8000059B049A07990698FFF797FED0E70000A6
:100C90000DFCFFFFF0B50C465C4085B0E40FE407A7
:100CA00003944C0000266408590094464908024603
:100CB0000296224321D062460A431ED06200570D9D
:100CC0004A000E032303550D012402462C49240536
:100CD000781B1B0B360B40182343264361460090BC
:100CE0001C46501AB44103D30098401C009002E007
:100CF000921800985B41002803DA0020014605B0F5
:100D0000F0BD0020012109050746864611E0644632
:100D10001D46141BB54106D36546521BB3417446AC
:100D200007430C43A646CD074008490828439218BC
:100D30005B4105460D43EAD11046184313D0604687
:100D4000194650407140084306D06046101AB3411E
:100D500006D20122002306E000220123DB0702E085
:100D60000122D2435310009874460105381C61419A
:100D7000029C039D00196941FFF712FEBFE70000C6
:100D8000FD0300004A0009030123090B1B05194359
:100D90000A4B10B5520D9A4202DA0020014610BDEE
:100DA000064B34339A4203DC9A1A00F047F810BD20
:100DB000034BD21800F032F810BD0000FF03000012
:100DC000CDFBFFFF10B5002904DB0124E4074042FE
:100DD0008C412146002B04DB1C460123DB075242D9
:100DE000A341994200D1904210BD00001CB50948B2
:100DF00000900948019005460126009C05E0E36843
:100E000007CC33430C3C98471034AC42F7D3FFF780
:100E10005BF90000F8790108187A010810B5202A5A
:100E200004DB0146203A9140002010BD9140202370
:100E30009C1A0346E3401943904010BD10B5202A88
:100E400004DB0846203AD040002110BD0B46D340B9
:100E5000D0402024A21A91400843194610BD10B575
:100E6000202A06DBCB170846203A1041C1170B4356
:100E700006E00B461341D0402024A21A91400843BB
:100E8000194610BDF3B58DB000200A9001200B90DB
:100E9000002608460C300C46099062690121099829
:100EA0009047051E2ED0252D2DD0216A8847002879
:100EB00018D06269012109989047216A8847002863
:100EC000F7D1411E62690998904700E0761CA1693C
:100ED0000D988847216A88470028F7D1E1690D9865
:100EE0008847DAE7A1690D9888470746A84201D1EB
:100EF000761CD2E7E1690D9888477F1C02D10A98D9
:100F0000002877D049E1002762693D4639460998B3
:100F100090472A280CD16269012109989047012540
:100F200006E00A214F433F18303FEBD41020054321
:100F30006269012109989047014630390A2903D294
:100F40009B498F42DEDCECE7E90600D4994F6C2820
:100F50000AD04C2810D0682824D06A282ED07428B3
:100F60000CD07A280AD00DE06269012109989047D7
:100F70006C2823D004211CE0202005436269012154
:100F800009989047A760656065284FD026DC5828EF
:100F900039D01ADC452849D012DC252834D0412824
:100FA000B0D143E06269012109989047682802D0D6
:100FB00008210D43E6E70120C002DEE70220DCE75E
:100FC000462833D047282CD130E05B2870D06128E8
:100FD0002CD063286CD0642823D161E06F284FD0D7
:100FE00009DC662822D0672820D0692826D06E2800
:100FF00017D12EE0CDE070284DD073286FD0752822
:101000004ED078280DD154E0A1690D988847054647
:10101000252800D16CE7E1690D9888476D1C00D147
:101020006DE7BAE00A224CE00A2252E00120234692
:101030006A46C0430D99C046C046A3E028464021F9
:1010400008436060A807234601D5002239E000224A
:101050003FE0E80700D020E72068011D216000681C
:10106000290501D5067018E7290701D5068014E780
:10107000A90703D5F117066041600EE706600CE78B
:101080002846402108436060A807234601D508226E
:1010900017E008221DE0484928460840606016E035
:1010A0002846402108436060A8072346BCD5B9E71D
:1010B00015E02846402108436060A80707D523466D
:1010C00010220120C0430D99C046C0465AE0234675
:1010D00010220120C0430D99FFF7D2F852E0002101
:1010E0000C910B460091632802D05B2807D043E0A7
:1010F000E80601D40120A060012000903CE0626974
:101100000121099890475E2805D101200C900146E5
:101110006269099890472169002906D10B4601AA06
:101120008F00491CD3510829FADB002835D02169EA
:1011300000290ED1C117C90E09184A11930001AA3E
:101140009A1849094901411A01201368884003434C
:10115000136062690121099890475D28E5D10C98D8
:10116000002808D0002001AB81005A58401CD2430F
:101170005A500828F8DB01AB01202246C0430D99E4
:10118000C046C04600280ADA401C06D10B98002849
:1011900003D00020C0430FB0F0BD0A98FBE7E90779
:1011A00002D10A99491C0A91361800200B9074E666
:1011B000CCCCCC0CFFFFFF7FF1F7FFFFF0B581B087
:1011C00005460024009400688168C9071CD1816825
:1011D0002B4A2F3211420AD0A86D10210143A96574
:1011E000E86D01242043E865204601B0F0BD816828
:1011F000234A1140012739438160224800680002D8
:1012000005D4687E012825D1204601B0F0BD1E48D6
:1012100000681E49FFF799FA401C009000980028CA
:10122000EFD00098401E009000980028E9D0009868
:10123000401E009000980028E3D00098401E0090C7
:1012400000980028DDD00098401E009000980028EB
:10125000E7D1D6E704F0A4FD064604E004F0A0FDC3
:10126000801B0328B8D228680168C907CCD18168DF
:10127000C907F3D18168024A114039438160EDE723
:10128000E8FFFF7F0827014030000020400D0300E9
:10129000F0B583B067490A684968401A8618524910
:1012A000CF6801200023BE4202460EDD4C68A642F4
:1012B00005460FDA1543012D10D14D69AE4213DCFE
:1012C0000022BE42034613DA13E01A464C68A642D7
:1012D0000546EFDB1D461543012DEED00D460835C2
:1012E0000868A74217D043E00122BE42034600DB54
:1012F0001346012B06D1CB699E420EDC0022AE4282
:101300000EDA0EE028460D46103508313C460746F9
:101310000868A7422CD103B0F0BD0122AE4200DB29
:101320001046029500281BD0A6423BDA886809685F
:101330000291FFF7EEF80546381BFFF7B3F90146B7
:101340002846FFF72BF90546301BFFF7ABF901469E
:101350002846FFF7E6F80299FFF78AF803B0F0BDD8
:101360000D4618351031029C1F460868A742D2D09E
:10137000391B07460846FFF795F902902868394659
:10138000FFF7C7F80299FFF709F90546301BFFF789
:1013900089F901462846FFF7C4F83946FFF768F88F
:1013A00003B0F0BD8869019009691C46FFF7B1F8E8
:1013B00007460298201AFFF775F901463846FFF7ED
:1013C000EDF80546301BFFF76DF901462846FFF79B
:1013D000A8F80199FFF74CF803B0F0BD0248406847
:1013E000144908607047C0468000002080B5322054
:1013F00004F060FB004880BDF895030080B503A0B1
:1014000010F08AF90B490C48486080BD41445331C3
:101410003233323A205461726520656D206D6F64FD
:101420006F2064652073696D756C6163616F2E0D4B
:101430000000000038010020CD9703007D2000014E
:10144000054948607047C046704700007D20000194
:10145000014988607047C046E80100207D480121AD
:101460008170704710B59548954901F089FB104C83
:10147000204602F037FC0F4802F08EFD0E480AF0BD
:101480003BF90AF007F801F0C1FE0AF063FC02F034
:10149000D9FCFFF7A3FF204600F072FB02F0D0FE5C
:1014A00006480AF043F806480AF048F810BDC0465E
:1014B0005409002078080020880C002000008E428B
:1014C0000AD7CD41F0B583B0624C2078022865D0B0
:1014D000012871D10EF0C8F90EF0C4FD0EF04AFEDD
:1014E000724805F0B7FA642004F0E4FA052000071A
:1014F0000290012671020191324604F049FC192044
:101500004701384604F0D6FA694820252946324674
:1015100004F03EFC384604F0CDFA664866490160A6
:1015200000242046314606F011FB0AF061FC14202D
:1015300004F0C0FA09F0FEFE09F062FF09F0C6FEF1
:101540005E485F4901F01CFB5E4810F0E5F8584822
:101550002946224604F01CFC384604F0ABFA0298F7
:101560000199224604F014FC384604F0A3FA6320E3
:1015700001F0ACFA01F01AFB002805D001F008FEDA
:1015800001F014FB0028F9D104F00AFC314948604D
:1015900088608C700220087003B0F0BDA07801282C
:1015A00023D100202070A07036A010F0B5F80820DC
:1015B00000F08AF803B0F0BD00F05CFB01F0E8FD3C
:1015C00000F03EFC01F0FEFA02F0F0FC0AF0CEFB67
:1015D00009F06AFF01F024FE6078012837D101206C
:1015E00020700020607003B0F0BD04F0D9FB61688A
:1015F000401A194DA84206D918A010F08DF8012004
:10160000207003B0F0BD04F0CBFBA168401A192193
:101610004901C731884216D904F0C2FBA06004F02A
:10162000BFFB6168441A7D20C1002046FFF78DF89A
:10163000AC4202D80521081A00E0002001B21520B2
:10164000000201F05FFB01F0A3FD01F0BBFA03B063
:10165000F0BDC046640100208813000054696D6528
:101660006F75742120566F6C74616E646F207061A9
:101670007261206F206D6F646F2053746F702E0D38
:1016800000000000436F6E6669726D61646F212017
:101690005265746F726E616E646F20616F206D6F42
:1016A000646F20617469766F2E0D0000A809002018
:1016B000000400501870004001000100E00D0020FF
:1016C0007D2700082F740108F0B583B0044642A0BE
:1016D00010F022F84A484BA10FF034FB00252846B1
:1016E00001F0F4F901F054FD4D4804F0E3F90AF07B
:1016F000B3FC00286AD00294414C4A4920460FF0BE
:1017000021FB0120019001F0E1F901F041FD7D2074
:10171000C6003746C837384604F0CCF9424920465F
:101720000FF010FB022001F0D1F901F031FD384635
:1017300004F0C0F93D4920460FF004FB032001F0FE
:10174000C5F901F025FD304604F0B4F9FFF756FE67
:1017500037A120460FF0F6FA042001F0B7F901F0A6
:1017600017FD304604F0A6F90AF012FC09F0E2FE7B
:1017700036A120460FF0E6FA052001F0A7F901F0A6
:1017800007FD6436304604F095F902F0BDFA0028F2
:1017900017D01B4836490FF0D5FA062001F096F90C
:1017A00001F0F6FC304604F085F932480FF0B4FF42
:1017B000029801F08BF901F0EBFC019D284603B083
:1017C000F0BD3B2001F082F901F0E2FC27480FF068
:1017D000A3FF284603B0F0BD0D0A3E3E3E20494E11
:1017E000494349414E444F204155544F4449414794
:1017F0004E4F535449434F203C3C3C0D00000000E9
:10180000D873010845786962696E646F204C6F6710
:101810006F206520566572736F65732E2E2E000043
:10182000B80B0000B47401089874010881740108B1
:1018300056657269666963616E646F205465726D86
:101840006F6D6574726F2E2E2E00000056657269E2
:10185000666963616E646F204D656D6F72696120AA
:10186000454550524F4D2E2E2E0000000E7401089B
:101870006E740108EA73010880B588B015A00FF0F6
:1018800061FA16480FF05EFA07A806A905AA09F042
:101890000BFF002808D005A8037806A8027807A83F
:1018A00001780FA00FF04EFA04A803A902AA01AB19
:1018B00009F0A0FE002808D002A8037803A8027847
:1018C00004A8017811A00FF03DFA1BA00FF03AFA1E
:1018D00008B080BD0A0D0A0D000000007E18010846
:1018E000417373696E61747572612020202020201D
:1018F0002020202020202020253032643A2530323C
:10190000643A253032640A0D00000000526573709D
:101910006F6E736176656C202020202020202020AF
:1019200020202020253032642F253032642F2530AE
:1019300032640A0D000000000A0D0A0D0A0D0A0D9E
:101940000000000010B586B0072901D84C482FE0F0
:10195000801D891F89B203AA0B2301F0D7FB002841
:1019600025D003A80078002829D068460024847276
:101970000481019400940B2102F0D0FA002826D0B3
:1019800069468C7203A8FEF726FC002824D003A821
:1019900024A10822FEF72DFC002825D023A003A9AE
:1019A0000FF0D0F93E2001F091F806B010BD12A062
:1019B0000FF0B2FE3B2001F089F806B010BD2F48B1
:1019C0000FF0AAFE3E2001F081F806B010BD3B20CA
:1019D00001F07CF806B010BD27480FF09DFE1720DF
:1019E00001F074F806B010BD1AA00FF095FE2E207D
:1019F00001F06CF806B010BD417574683A2046617C
:101A00006C6861206E6F2070617273657220726FF6
:101A1000627573746F2064612073656E68612E0D4A
:101A20000000000047484B40313233004175746874
:101A30003A2053656E686120696E636F72726574D7
:101A4000612E20446967697461646F3A20272573A9
:101A5000270D0A00417574683A20456E7472616EF4
:101A6000646F206E612074656C612064652053652D
:101A7000727669636F210D00BD7601081177010848
:101A80002E77010810B584B0082924D3801D891F42
:101A900089B201AA0B2301F039FB002816D001A856
:101AA000FEF792FB002813D02F4C2178002917D085
:101AB00000202070641C01A92046FEF78CFB002842
:101AC00020D0402001F002F804B010BD13A000E0C7
:101AD0001CA00FF021FE3B2000F0F8FF04B010BD69
:101AE000042804D23F2000F0F1FF04B010BD601CB8
:101AF00001A9FEF78BFB012020701F2000F0E6FFFC
:101B000004B010BD204602F04BFB172017A101F0D6
:101B1000FBFC1A480FF000FE04B010BD417574685C
:101B20003A2046616C6861206E6F20706172736547
:101B300072206465206E6F76612073656E68612E19
:101B40000D000000417574683A204E6F7661207375
:101B5000656E68612076617A69612064657363618E
:101B600072746164612E0D00D201002053656E68AD
:101B70006120616C7465726164612100D376010833
:101B800070B582B01E4D286001AC0026267021463B
:101B90000EF0E2FE002811D120780A280ED119A0FB
:101BA0000A2100F019F92868D2210EF03BFD002827
:101BB0000AD01FA000F010F902B070BD2C4800F050
:101BC0000BF92E6002B070BD28680EF01BFD0028D6
:101BD00004D0254800F000F902B070BD2868D22476
:101BE00021460EF0C7FE0FF039F8FEF79AFD0246C7
:101BF0000B461E48214600F0EFF802B070BDC0460B
:101C0000E0010020424154455249413A20425132BC
:101C1000353632322064657465637461646F2E20DA
:101C200049443A203078253032580D0A000000002F
:101C3000424154455249413A2046414C4841206175
:101C40006F20636F6E666967757261722070617272
:101C5000616D6574726F7320646F20425132353646
:101C600032322E0D0A000000AB7901086B790108B1
:101C70003E790108F0B583B04C4C2068002800D1B3
:101C800092E00EF063FF04F08BF86168401AC00820
:101C90007D2800D288E004F083F860600EF0DAFF5F
:101CA0004349FEF7E3FC002801D0042423E00EF0B2
:101CB000D5FF04463F49FEF7D9FC002801D0032494
:101CC00019E03D492046FEF7D1FC002801D002244E
:101CD00011E03A492046FEF7C9FC002801D0012452
:101CE00009E037492046FEF797FC002801D1044659
:101CF00001E00020C443334D2888A1B2814205D0C1
:101D00001120000221B200F0FDFF2C8000F0DAFE6D
:101D1000682849D10EF09EFF05460EF097FF044655
:101D20000EF08CFF07460EF08DFF01900EF096FF2F
:101D300002900EF07FFF244E28463146FEF7F1FB5D
:101D4000FEF7D6FC0146214D284601F03BF820461F
:101D50003146FEF7E6FBFEF7CBFC01462846703025
:101D600001F030F81A493846FEF7DBFBFEF7C0FCFD
:101D700001462846803001F025F8164C019821468E
:101D8000FEF7CFFBFEF7B4FC01462846903001F089
:101D900019F802982146FEF7C4FBFEF7A9FC01469C
:101DA000A035284601F00EF803B0F0BDE001002098
:101DB000000090400000AA42000048420000F041AC
:101DC00000007041A800002000007A44902200002A
:101DD00000401C460000204183B0F0B582B00446AC
:101DE00007A80EC007AB0193012001021348224649
:101DF0000EF0E8FF01281CDBC7480068002818D057
:101E00000E4C2046FEF7E0F9002812D00546C34EDE
:101E1000C34F032041027088401CFEF796FCB08837
:101E2000814206D0708822783A547180641C6D1EFD
:101E3000EFD102B0F0BC01BC03B00047200200208B
:101E4000F0B581B0594E3078012800D0ACE058A0F0
:101E5000FFF7C2FFFEF764F905460068554C277886
:101E6000C15DC90706D06778C15DC907A41C0029F8
:101E7000F5D1641E20212046FEF79CF900281AD0D7
:101E800000210170811C2A684D1E2878135CDB0735
:101E900016D00878135CDB0711D04878135CDB0799
:101EA0005ED08878135CDB07091D002BECD18D1EFA
:101EB000002807D007E00025002F07D16AE00D4673
:101EC000002800D105462778002F63D03A492046E4
:101ED000FEF7A5F9002841D039492046FEF79FF9C1
:101EE000364F002840D037492046FEF798F90028A1
:101EF0003CD035492046FEF792F9002838D03349C6
:101F00002046FEF78CF9002834D031492046FEF7F0
:101F100086F9002830D02F492046FEF780F90028A6
:101F20002CD02D492046FEF77AF9002828D02B49DD
:101F30002046FEF774F9002824D029492046FEF7F0
:101F40006EF9002820D027492046FEF768F90028BE
:101F50001CD025A02146FFF73FFF1BE0174F16E0DE
:101F60004D1C0028AED0AEE7083710E010370EE069
:101F700018370CE020370AE0283708E0303706E051
:101F8000383704E0403702E0483700E050377968DE
:101F90002846884707488021FEF7F4F80020307073
:101FA000F0804648FFF718FF01B0F0BDC0000020E8
:101FB0000D0A000008100020E34001088C3A0108D7
:101FC000B2400108D9400108C0400108C8400108DA
:101FD000CB400108DE400108E8400108ED4001085F
:101FE000B8400108D0400108436F6D616E646F20F6
:101FF000646573636F6E68656369646F3A20222558
:1020000073222E00F0B581B0294D297800294DD1D9
:102010000C2833DC08283FD00A2833D0EC887E2CEB
:1020200044D80646FEF77CF80068805D8006C00E46
:102030003CD021480655601CE8806846002242706A
:10204000067035480068002830D06846FEF7BCF8B6
:1020500000282BD004466E46314F03204102688889
:10206000401CFEF772FBA88881421FD06888327836
:102070003A546980761C641EEFD117E07F280BD09C
:102080000D28CBD1E88800280DD00B4900220A5436
:102090000120287001B0F0BDE888002806D0401E5D
:1020A000E88004A000E00548FFF796FE01B0F0BD0F
:1020B000C00000200820080008100020E93F0108A7
:1020C000B0B582B014480068002823D0134C608853
:1020D000A18888421ED060880325A188884201D942
:1020E000618800E06902A288A0880D4B1818891A3F
:1020F00089B2402900D3402101AA0AF0EDFB002853
:1021000008D10198002805D0A18840186902FEF77F
:102110001CFBA18002B0B0BD0C080020C000002054
:1021200088100020F0B581B01E4D281D1E49FEF715
:1021300029F81E480121009129606121A860E96009
:1021400000272F827F20C00568611948E86119487F
:10215000281819491CC91CC00A8802808978817016
:102160008726164C2846203021681022FEF715F8E5
:1021700030202F54284631300A221149FDF7E9FF5B
:1021800028463030E16A226BC2828182A1692964CB
:10219000C77228354034761EE4D10A480099017090
:1021A00001B0F0BD88160020D816000073656E6877
:1021B00005000200C8160000DC790108A418010817
:1021C000EC7901085C010020B0B58CB00BA80AA91D
:1021D00009AA09F069FA044608A807A906AA05ABE6
:1021E00009F008FA002C15D0002813D007A80378AE
:1021F00008A8027806A800780BA909780AAC247808
:1022000009AD2D7800AF33C711A005A9FFF7E4FD94
:102210000CB0B0BD02A0FFF7DFFD0CB0B0BDC046F2
:102220004572726F3A204E616F20666F6920706F41
:1022300073736976656C206C6572206120646174CB
:10224000612F686F726120646F205254432E00002A
:10225000446174612F486F72613A202573202530E4
:1022600032752F253032752F3230253032752025CA
:102270003032753A253032753A253032750000001B
:1022800070B5002822D004462021FDF793FF0028D6
:1022900020D000210170861CFDF742FF0168751EE9
:1022A00028780A5CD20718D030780A5CD20713D09D
:1022B00070780A5CD2073BD0B0780A5CD207361D32
:1022C000002AECD1B51E002809D009E02DA0FFF7A7
:1022D00083FD70BD002503E03546002800D105468A
:1022E0001A492046FDF79BFF002817D019492046C0
:1022F000FDF795FF164E002815D017492046FDF72B
:102300008EFF002818D015492046FDF788FF0028C9
:1023100017D013A02146FFF75FFD70BD0C4E71680A
:102320002846884770BD083671682846884770BDC2
:10233000751C0028D3D0D3E710367168284688472B
:1023400070BD183671682846884770BDB4400108D2
:10235000E43A01082141010899400108254101089A
:10236000537562636F6D616E646F204457494E20F0
:10237000646573636F6E68656369646F3A202225D4
:1023800073220000537562636F6D616E646F204449
:1023900057494E2066616C74616E646F2E205573D0
:1023A00065202748454C50272E00000080B586B098
:1023B000684609F065F80AA0FFF70EFD0198FEF7E0
:1023C000B0F902460CA00B46FFF706FD0298FEF797
:1023D000A8F902460FA00B46FFF7FEFC06B080BD31
:1023E0004461646F73206465204672657175656E23
:1023F0006369613A0D0A000020202D2050756C732E
:102400006F732028656D203173293A20252E31669F
:102410000D0A000020202D20457363616C6120416E
:10242000202863616C63293A20252E32660D0A004C
:1024300080B586B0684609F023F80098FEF771F978
:10244000024603A00B46FFF7C7FC06B080BDC0469E
:102450004461646F732064612042616C616E6361EA
:102460003A0D0A20202D205065736F3A20252E3218
:102470006620670D0A00000080B509F089FDFEF7AF
:1024800050F9024602A00B46FFF7A6FC80BDC046ED
:1024900054656D706572617475726120696E7465E2
:1024A000726E6120646F204D43553A20252E3266AE
:1024B00020430D0A00000000F0B581B035480068E7
:1024C000002865D00025344E032044027088401C4B
:1024D0002146FEF73AF9B088814259D02F48405D35
:1024E00072882F4B985471807088401C2146FEF7EB
:1024F0002CF9B08881424BD02848471978787288E7
:10250000274B985471807088401C2146FEF71DF9B6
:10251000B08881423CD0B8787288214B9854718041
:102520007088401C2146FEF710F9B08881422FD0F8
:10253000F87872881A4B985471807088401C214634
:10254000FEF703F9B088814222D038797288144BA3
:10255000985471807088401C2146FEF7F6F8B088C8
:10256000814215D0787972880D4B985471807088AB
:10257000401C2146FEF7E9F8B088814208D0B879BE
:102580007288074B98547180ED1D064885429BD197
:1025900001B0F0BD0C080020C0000020A43B0108E1
:1025A000881000204404000080B52E2000F040FB7D
:1025B00080BD0000B0B584B0002825D001A90091ED
:1025C00019A103AD02AC2A462346FDF73BFE0328C2
:1025D0001FD12878411EC9B21E291AD821784A1E57
:1025E000D2B20B2A15D801AA127809F0A9F800284E
:1025F00014D001A8037802A8027803A801781BA0D0
:10260000FFF7EAFB04B0B0BD2248FFF7E5FB04B0DA
:10261000B0BD0948FFF7E0FB04B0B0BD07A0FFF76D
:10262000DBFB04B0B0BDC046256868752F2568681F
:10263000752F2568687500003B4001084572726F70
:102640003A2046616C686120616F20736574617225
:1026500020612064617461206E6F2068617264770C
:1026600061726520646F205254432E004F4B2E2020
:1026700052544320617475616C697A61646F207093
:1026800061726120253032752F253032752F25304B
:10269000327500002941010870B584B0002822D0AD
:1026A00001AE009617A103AD02AC2A462346FDF702
:1026B000C9FD03281CD12878172819D821783B296F
:1026C00016D832783B2A13D809F04CF8002814D0D9
:1026D00001A8037802A8027803A801781AA0FFF7DE
:1026E0007BFB04B070BD2248FFF776FB04B070BDE1
:1026F0000848FFF771FB04B070BD07A0FFF76CFB43
:1027000004B070BD256868753A256868753A256813
:1027100068750000EE3F01084572726F3A2046610D
:102720006C686120616F207365746172206120683C
:102730006F7261206E6F20686172647761726520CC
:10274000646F205254432E004F4B2E20525443208E
:10275000617475616C697A61646F20706172612067
:10276000253032753A253032753A25303275000001
:10277000F240010880B50BF08DFC80BD10B5062934
:1027800000D262E102785A2A00D05EE14278A52A9E
:1027900000D05AE1C278832A00D056E14279037909
:1027A0001B029A18082992B214D30023A94CA24202
:1027B0000ED0A94CA2420BD0A84CA24208D08378DC
:1027C000DC1C8C4206D8C3189C785B781B021B1952
:1027D000A34C2380A34B9A4218DDA44B9A4200DC01
:1027E0006FE0A34B9A4200DD80E0A44B9A4200DDEB
:1027F000C7E0A548824200D115E1A448824200D03A
:1028000023E19748008800F0A1FE10BDA54B9A4235
:1028100015DCA64B9A4200DC77E0A548824200DD39
:102820009BE081208001824200D1D9E0A34882420E
:1028300000D00AE18A48008800F01EFF10BD8A4BD4
:10284000D318312B00D97EE05B00C0467B449B88C7
:102850005B009F443100BF00FA00FA00FA00FA0062
:10286000FA00FA00FA00FA00FA00FA00FA00FA0098
:10287000FA00FA00FA00AD00FA00FA00FA00FA00D5
:10288000FA00FA00FA00FA00FA00FA00FA00FA0078
:10289000FA00FA00FA00BA00FA00FA00FA00FA00A8
:1028A000FA00FA00FA00FA00FA00FA00FA00FA0058
:1028B000FA00FA00FA00B200694A128809F076F8C4
:1028C00010BD734B9A422FDD724B9A424EDC812031
:1028D000C001824200D189E005200003824200D07D
:1028E000B3E05F48008807F0AFFA10BD614B9A4231
:1028F00053DC614B9A4200D198E081231B029A423B
:1029000000D0A2E002F072F910BD19231B029A4216
:1029100000D180E06A4B9A4273D04E4B9A4200D06D
:1029200093E0FFF70FF810BD6123DB019A4275D0E9
:102930005B4B9A426AD031200002824200D084E090
:1029400001F048F910BD454B9A427FD0564882426B
:102950007BD12020FEF7B8FE10BD5648824242D0FF
:102960005548824271D109F073F910BD4A4B9A4221
:1029700042D04A4B9A4268D1394A128808F058FF2F
:1029800010BD3F4B9A4257D03E4882425DD15249DA
:102990003820088000F04CF910BD212080028242CE
:1029A0004FD08520000282424FD102F0DBF810BDEB
:1029B0002B48008800F0AEFF10BD29480088411E5A
:1029C0004842484100F076FF10BD2548008800F0DD
:1029D0001BFF10BD40491920088000F029F910BDE7
:1029E00001F0F8FF10BD01F00DF910BD00201C49E9
:1029F000085E02F023F810BD1948008800F0E2FDDF
:102A000010BD1748008800F0BFFD10BD144A1288A1
:102A100000F08AFE10BDFEF721FD10BD104A12889D
:102A200000F0CCFF10BD01F0DFF810BD2A4968208E
:102A3000088000F0FDF810BD094A128801F030F856
:102A400010BD0748007801F0C3FC10BDFFF71AF86D
:102A500010BDC046302000000F3000006030000084
:102A6000041000207F300000F1CFFFFF2F70000026
:102A70001F710000FF830000207100006F700000D4
:102A800070700000907000003070000060700000F6
:102A90007F4000000F7000001070000020700000E8
:102AA000903000000E300000703000003F20000029
:102AB0005F200000602000009021000050200000F6
:102AC00020200000044800887047C04680B50249B5
:102AD000088000F0ADF880BDA400002080B5024859
:102AE00002F090FE80BDC0469C08002080B50248E0
:102AF00002F088FE80BDC046F808002010B50168CD
:102B0000E84CA0680268914200D010BD00216170BD
:102B1000E18006F045FCA06801680E220A621434C8
:102B20004022214606F071FB10BDC04610B5026878
:102B3000DC4CA06803689A4200D010BD6278012A7C
:102B40000BD106F02DFCA06801680E220A62143435
:102B50004022214606F059FB10BD0029EDD0206926
:102B6000401C2061E1800120607010BD0168CD48EB
:102B700082681268914200D070470021017070474E
:102B800010B5C84C00222261227062706280A06081
:102B9000E160A28006F004FCA06801680E220A62CF
:102BA00014344022214606F030FB10BDBD480178A8
:102BB000002901D00120704741888088081A411EF1
:102BC00088417047F0B591B0F44F787801282CD146
:102BD00072B6FC8838693E46143601AD2846314647
:102BE0002246FDF7B6FA00207870F88062B6B86821
:102BF00006F0D6FBB86801680E220A624022314610
:102C000006F003FB042C10D328785A280DD16878DD
:102C1000A5280AD101A88078C01CC1B28C4204D377
:102C2000FA68002A01D001A8904711B0F0BDC04653
:102C3000F0B581B072B6D9494B888C88D84AA34286
:102C40000CD28B884C88E4431B199BB20A2B0CD204
:102C500062B6092B53D9012001B0F0BD4B888C8896
:102C6000E31A9B189BB20A2BF2D3040A00944F88F4
:102C7000CC4C5A26E6554F887F1C17404F804F8812
:102C8000A525E5554D886D1C15404D804D880727BD
:102C900067554D886D1C15404D804D8882276755BE
:102CA0004D886D1C15404D804D88002767554D8817
:102CB0006D1C15404D804D88842767554D886D1CCF
:102CC00015404D804D8866554D886D1C15404D80D2
:102CD0004D88012666554D886D1C15404D804D88E8
:102CE000009E66554D886D1C15404D804D88605581
:102CF0004888401C1040488062B6092BABD80020A1
:102D000001B0F0BDF0B582B072B6A44A548895887F
:102D1000A34EAC420CD294885588ED436419A4B2FA
:102D2000082C0CD262B6072C48D9012002B0F0BDA5
:102D3000548895882C1BA419A4B2082CF2D38DB208
:102D4000030A00932B0A01935388EF4D5A27EF543F
:102D500053885B1C334053805388A527EF54538816
:102D60005B1C3340538053880527EF5453885B1C0A
:102D70003340538053888227EF5453885B1C334081
:102D800053805388009FEF5453885B1C334053801B
:102D90005388E8545088401C304050805088019B34
:102DA0002B545088401C3040508050882954508803
:102DB000401C3040508062B6072CB6D8002002B0CC
:102DC000F0BDC046F0B584B072B6CD4A548895883F
:102DD000CC4FAC420CD294885588ED436419A4B210
:102DE0000A2C0CD262B6092C59D9012004B0F0BDCE
:102DF000548895882C1BE419A4B20A2CF2D30B0A30
:102E000003930B0C02930B0E0193030A0093538858
:102E1000FB4D5A26EE5453885B1C3B40538053882D
:102E2000A526EE5453885B1C3B40538053880726ED
:102E3000EE5453885B1C3B40538053888226EE54EB
:102E400053885B1C3B4053805388009EEE5453884C
:102E50005B1C3B4053805388E8545088401C3840EA
:102E600050805088019B2B545088401C3840508023
:102E70005088029B2B545088401C3840508050880A
:102E8000039B2B545088401C384050805088295454
:102E90005088401C3840508062B6092CA5D80020CC
:102EA00004B0F0BDC8000020F0B582B000220029B7
:102EB00024D0002822D0D14B9C68002C1ED072B6A2
:102EC0005D889E88D04CB54210D29D885E88F643BE
:102ED000AD19ADB2A94210D803250A462A40009286
:102EE0004E1E032E01900CD2002732E05D889E8892
:102EF000751B2D19ADB2A942EED962B6104602B0CB
:102F0000F0BDA9430027019EF05D5A881D46BC4BC9
:102F100098546A88521C22406A80F01942782646EA
:102F20006C881A556A88521C32406A8082786C8894
:102F30001A556A88521C32406A80C2786C881A55C9
:102F40002B4634466A88521C32406A803F1DB94283
:102F5000D9D1009A002A01981AD0C65D5D88A84987
:102F60004E555E88761C26405E80012A10D0C0191E
:102F700045785E888D555D886D1C25405D80022AF0
:102F800006D080785A8888545888401C2040588041
:102F900062B60122104602B0F0BDC046C800002053
:102FA000FF010000682E0020F0B5C3B00025002A04
:102FB0003DD000293BD01746904A9268002A36D06F
:102FC000064602910846FDF7FFF80446B84200D3D2
:102FD0003C46611DCAB250087E2828D803AF7E71D6
:102FE0008220F8700191B970A52078705A2038704D
:102FF000300A3871B81D029915462246FDF7A9F826
:10300000E019FF21C171817172B67C4E7288E91C92
:10301000B3887D4C9A420DD2B2887388DB43D218B4
:1030200092B291420DD8012591420DD962B628463F
:1030300043B0F0BD7288B3889A1A121992B29142C5
:10304000F1D900259142F1D8324626460295032354
:103050000846184000900198040628D099430023A0
:10306000674C104603ADEF5C4288A7544288521C5F
:1030700032404280ED186A784788E2554288521CF7
:1030800032404280AA784788E2554288521C32403A
:103090004280EA78458862554288521C324042801C
:1030A0001B1D9942DED1009A002A05D123E000239E
:1030B0001046009A002A1ED003A9CC5C45885049CE
:1030C0004C554488641C34404480012A13D003AC1E
:1030D000E418647845884C554488641C3440448026
:1030E000022A08D003AAD21892784388CA54418889
:1030F000491C3140418062B6029D284643B0F0BD74
:10310000C8000020FF010000682E0020F0B583B049
:103110001D4614460746501E164686417A1E3B46FB
:10312000934133400291012901D8002100E001219F
:103130000B406E1E2846B04118401CD0019020461E
:103140002946FDF71FF8022D1BD30022022110464D
:10315000029D7B185B1E1B78FF2B0AD0202B01D30E
:10316000A354401CC2B2964203D94B1CA942194633
:10317000EFD3C0B206E0002C01D0002D04D103B083
:10318000F0BD0020241801980021217003B0F0BD8B
:10319000F0B581B072B6194C2078002803D1608850
:1031A000A188884202D162B601B0F0BD0120207032
:1031B00062B6A0886188884201D1002512E0002112
:1031C0000F48104A104BA588455D5554A5886D1CC5
:1031D0001D40A580A6884D1C6788BE4202D0FF29ED
:1031E0002946F0D3A068AAB2064906F029FC0028B7
:1031F00001D00020207001B0F0BDC046C800002002
:10320000682E0020682D0020FF01000003480121E6
:103210000170CD48002101807047C046AA000020FF
:10322000F0B58DB09B4E7078002844D002280DD1A7
:1032300000F0AEFE00281BD000F012FE002824D0C3
:103240003B20FFF743FC954899A128E03C20FFF77D
:103250003DFC92489AA10B22FFF7A6FE02F0A0FDCA
:103260009A494018B0600220707000281ED122E0F8
:1032700089480088FFF72AFC344614342046FCF7BE
:10328000A3FF82B2854821460AE002F089FDB168B9
:1032900088420DD93B20FFF719FC804880A10F22FE
:1032A000FFF782FE00207070002804D00DB0F0BD42
:1032B00070780028FAD17D20C7003078002805D02A
:1032C00002F06EFD7168401AB84244D202F068FD07
:1032D000F168401AB84257D302F062FDF060FFF780
:1032E000F1FB352801D038284CD1FFF75FFC0028CE
:1032F0004AD1684608F0C4F880490198FDF711F9F1
:10330000FDF7F6F901467E4C20462030FFF75AFDC6
:103310007C490298FDF705F9FDF7EAF901462046D8
:103320003030FFF74FFDB078401CB070C0B20528B8
:103330002AD30020B07008F02BFE054608F0FAF8FA
:10334000F7492846FDF7EDF8FDF7D2F9014620468A
:10335000FFF7D8FC18E002F023FD70603078401EC3
:10336000062800D981E0C0467844007940008744AF
:10337000037F70766A858B00022030700E20FFF785
:10338000A5FBA3E70020B07002F00AFD3169401AE6
:10339000B8428BD302F004FD3061FFF793FB014686
:1033A0000839292900D94BE07944097949008F442B
:1033B00015141414141414141414141514141414CB
:1033C00014151414141414141415141414141414BB
:1033D0001414141414141414141567E70CA80BA96E
:1033E0000AAA08F061F9002800D15FE709A808A936
:1033F00007AA06AB08F0FEF8002800D156E7684699
:1034000010214171002101718222C2700B22827051
:10341000A52242705A220270079A8271089AC271DC
:1034200003224272099A02720C9A82720B9AC27239
:1034300041730A9901730E21FFF736FD0DB0F0BDFF
:103440007728CBD032E7062030701220FFF73EFB02
:103450003CE7042030701020FFF738FB36E70520EA
:1034600030701120FFF732FB30E7002030702DE77D
:10347000032030700F20FFF729FB27E7072030706B
:10348000002000F0F9F821E70020307010A00EF0C5
:1034900043F91BE78C010020A600002096400000A5
:1034A0004572726F3A2054696D656F757421000022
:1034B0004572726F20616F2073616C7661722100BA
:1034C00053616C76616E646F2E2E2E00881300009F
:1034D000444953504C41593A2053657175656E63A8
:1034E0006961206465206D65646963616F20666948
:1034F0006E616C697A6164612E0D00000AD7233C0D
:103500003022000000002041F0B581B0E04F7E780D
:10351000002E03D07042704101B0F0BD0446DD487A
:103520000D4621460DF00EFC00F03CFDDA4804800B
:103530003846143031222946FCF72FFE01207870DE
:103540007042704101B0F0BD8C01002080B504488C
:1035500004A12022FFF728FD3520FFF7B7FA80BD30
:103560009640000041646A757374467265717565B2
:103570006E63793A20333030302E304B487A2B2F1F
:103580002D322E3000000000B0B50546082410286A
:1035900009D02046FFF79AFA102D09D10748214695
:1035A000FFF782FCB0BD0B20FFF790FA102DF5D08D
:1035B00003482146FFF778FCB0BDC046201801083B
:1035C0002818010870B5002806D0FEF7ABFD124D93
:1035D0006878002809D070BD1F4820A11B22FFF782
:1035E000E3FC3020FFF772FA70BD0C482E24214610
:1035F0000DF0A8FB00F0D6FC0948048028461430E2
:1036000008A15CC95CC05CC95CC05CC95CC001222B
:103610006A700978017070BD8C0100207576010810
:10362000A600002050726573657420636F6D706C26
:1036300065746F2100000000000000000000000021
:10364000000000000000000000000000000000007A
:1036500000000000000000009640000050726573FA
:103660006574207265646566696E65206F7320619C
:103670006A75737465732100F0B591B09549097846
:10368000012903D1002803D008F010FA11B0F0BDD1
:1036900006AC204600F02CFC207807AE314600F046
:1036A0000DFC684607F0ECFE00F02EFC04461B4DB6
:1036B000102228463146FFF777FC2020315E28464D
:1036C000C030FFF71FFB0A271098784301B2284645
:1036D000E030FFF717FBF08C784301B22846F0305A
:1036E000FFF710FB012C01D00E4900E00C490598B2
:1036F000FCF717FFFCF7FCFF014690352846FFF763
:1037000001FB012C04D07720FFF7E0F911B0F0BDE8
:103710001320FFF7DBF911B0F0BDC04670200000A8
:10372000000020410000C842B0B594B0502A1ED11C
:1037300001AC002020750590049003900290019048
:103740001521204600F0A6FB07AD2AA128462246F7
:103750000DF024FB2846FCF737FD82B2CF482946FE
:10376000FFF722FC2320FFF7B1F914B0B0BD01AC84
:103770000022227505920492039202920192801D0A
:10378000891F89B215232246FFF7C0FC00280FD0FD
:10379000207800280CD001AC204600F0C9FC07A816
:1037A0000EA122460DF0FAFA0F4D6878002801D0DC
:1037B00014B0B0BD0D48172421460DF0C3FA00F037
:1037C000F1FB0B4804802846143007A93122FCF78E
:1037D000E4FC0120687014B0B0BDC046456D707245
:1037E0006573613A202573008C010020757601080D
:1037F000A6000020417475616C20456D7072657380
:10380000613A202573000000B0B58AB0502814D169
:1038100000F07AFB02466C4620A120460DF0BEFA6D
:103820002046FCF7D1FC82B2F4482146FFF7BCFBEE
:103830001B20FFF74BF90AB0B0BD044600F0A0FC16
:1038400068460EA122460DF0A9FA114D68780028AD
:1038500001D00AB0B0BD0F48172421460DF072FA0E
:1038600000F0A0FB0C480480284614306946312241
:10387000FCF793FC012068700AB0B0BD436173612E
:103880007320646563696D6169733A202575000072
:103890008C01002075760108A60000204174756136
:1038A0006C204E525F446563696D616C733A2025EC
:1038B0007500000080B507490870002804D109A1EF
:1038C0000CA00DF03FFA80BD03A10AA00DF03AFA5A
:1038D00080BDC046AA000020484142494C4954419D
:1038E000444100004445534142494C4954414441FC
:1038F00000000000446973706C61792048616E6457
:103900006C65723A20496D7072657373616F202522
:10391000730D0A00B0B58AB0502814D100F0F8FA3F
:1039200002466C461FA120460DF038FA2046FCF7EF
:103930004BFC82B2B1482146FFF736FB1A20FFF755
:10394000C5F80AB0B0BD044600F022FC68460EA1DE
:1039500022460DF023FA104D6878002801D00AB0F5
:10396000B0BD0E48172421460DF0ECF900F01AFB0B
:103970000B4804802846143069463122FCF70DFCC0
:10398000012068700AB0B0BD526570657469636FDC
:1039900065733A20257500008C01002075760108BA
:1039A000A6000020417475616C204E525F52657014
:1039B00065746974696F6E3A20257500B0B594B06E
:1039C000502A1ED101AC0020207505900490039070
:1039D000029001901521204600F0C6FA07AD2AA1F9
:1039E000284622460DF0DAF92846FCF7EDFB82B2B4
:1039F00082482946FFF7D8FA2220FFF767F814B06B
:103A0000B0BD01AC0022227505920492039202928D
:103A10000192801D891F89B215232246FFF776FB8C
:103A200000280FD0207800280CD001AC204600F0F0
:103A3000E9FB07A80EA122460DF0B0F90F4D6878FA
:103A4000002801D014B0B0BD0D48172421460DF058
:103A500079F900F0A7FA0B4804802846143007A92A
:103A60003122FCF79AFB0120687014B0B0BDC0464B
:103A70005573756172696F3A202573008C010020BF
:103A800075760108A6000020417475616C2055739D
:103A9000756172696F3A202573000000964000003E
:103AA00070B592B014460D46064605A83221FCF7C3
:103AB00069FB002C25D06C460020207403900290F6
:103AC00001900090701D691F89B211232246FFF7F3
:103AD0001DFB002813D02078002810D022A06C46AF
:103AE00021460DF02FF9204600F070FB05A82AA111
:103AF00022460DF053F92B4D687800281DD012B0E6
:103B000070BD3620FEF7E2FF6C4600202074039063
:103B10000290019000901121204600F011FA05ADAD
:103B200028462146FCF772FBFCF74EFB82B2334875
:103B30002946FFF739FA12B070BD1B482E242146E2
:103B40000DF000F900F02EFA1848048028461430D1
:103B500005A93122FCF721FB0120687014A00DF0AB
:103B6000DBFD12B070BDC046446973706C61792092
:103B700048616E646C65723A20526563656269647F
:103B80006F206E6F766F2073657269616C3A2027C3
:103B90002573270A0000000053657269616C3A20A2
:103BA000257300008C01002075760108A600002016
:103BB000446973706C61793A2053657269616C2055
:103BC00073616C766F20636F6D20737563657373BB
:103BD0006F2E0D0080B5094809490E22FFF7E4F960
:103BE0002120FEF773FF80BD80B5044804490E22F2
:103BF000FFF7DAF93220FEF769FF80BD964000003A
:103C0000AE76010810B5084C2078002800D010BD11
:103C100006A00DF081FD0120207002F0C1F8606067
:103C20000D20FEF753FF10BD8C0100204449535076
:103C30004C41593A20496E696369616E646F207323
:103C4000657175656E636961206465206D65646981
:103C500063616F2E2E2E0D00014801210170704707
:103C60001008002070B582B06E4D287803281BD054
:103C700001282DD1A98900291ED028696B692A89BC
:103C800000937F2313408024E61A8E4200D30E4611
:103C90000196A0210224234602F0AAFC00280DD0A0
:103CA00001202871052412E002F07AF8A969401A6F
:103CB00005280DD301240AE0042408E0686980196E
:103CC0006861A889801BA8812889801928812C70A7
:103CD00002B070BD53490879012801D100220A7150
:103CE0007047C0464F4900220A710A700861704748
:103CF0004C480078FB2101404A1E9141401F421E62
:103D0000904108407047C04610B5464C20690028D5
:103D100017D0A0210222642302F07CF9002812D0DF
:103D20002069002811D02F480DF0F6FC206902F020
:103D300081F8052001F0BEFE206902F011F920692A
:103D400004E0002010BD012010BD0020A0210222AF
:103D5000642302F05FF901464042484110BDC0466D
:103D6000F0B583B004460020002A38D00E46002962
:103D700035D015462B490A69002A30D07D20C7006E
:103D8000009601950297A02102231046224602F0D8
:103D9000FDF9002814D023480069002813D01148E9
:103DA0000DF0BAFC1F48006902F044F8052001F04C
:103DB00081FE1C48006902F0D3F81A48006903E04C
:103DC000012003B0F0BD0020009601950297A021CC
:103DD0000223224602F0DAF901464042484103B08C
:103DE000F0BDC0469F41010870B50E4C2378FB25FD
:103DF0001D406E426E415B1F5D425D4135434B1E6F
:103E00000E469E412E40551E1346AB413340012BBA
:103E100006D161612081A2810020207101202070E3
:103E2000184670BD1C01002080B5802001F0D2FE34
:103E3000202001F0CFFE80BD72B6FEE70748006883
:103E4000406A704780B5054804F0F2FD80BDC04669
:103E500002480068002141627047C046940D00206E
:103E6000D9498878012801D100228A707047C0465C
:103E700010B54A1E0B469341441E0246A2411A4009
:103E8000012A04D1DD4B5C69046098690860104622
:103E900010BDC046B0B54C1EA141421E054695411D
:103EA0000D40012D07D1AD49D44A51182246FCF7E7
:103EB00074F9002101552846B0BDC04670B50246D0
:103EC000872801D3002300E001234C1E0846A041AF
:103ED000184001280AD128235343D64AD218203249
:103EE00038CA38C138CA38C178CA78C170BDC0462E
:103EF000002805D0CF494979872900D300210170D6
:103F0000411E88417047C046CA48C08B7047C046B2
:103F1000C848808B7047C04687207047B0B54C1E9C
:103F2000A141421E054695410D40012D06D1C149D2
:103F300008312246FCF731F9002101552846B0BD71
:103F4000B0B54C1EA141421E054695410D40012DC4
:103F500007D1A949B74A51182246FCF71EF900219A
:103F600001552846B0BDC046B0B54C1EA141421E09
:103F7000054695410D40012D07D1AD49AD4A511877
:103F80002246FCF70AF9002101552846B0BDC0467B
:103F9000AA4800787047C046A84900220A704860C5
:103FA0004A707047A548012101707047B0B5FFF70E
:103FB00059FEFFF79DFE002808D03F4840780728AB
:103FC00011D801218140A82001420CD0FFF782FEC8
:103FD000002809D054480DF09FFB37480921417053
:103FE0000DE035494870B0BD334D687878440079AC
:103FF000400087440C1D2E1146523A5817044B4876
:104000000DF08AFB2C48012181700020E9E7287817
:104010000028E8D00120E4E7FFF76AFE0028E2D19B
:104020000420DEE725A00DF077FB00202870D8E7FC
:104030003C480DF071FB6868002806D0D74CD94A7F
:10404000214601F0E9F9D94960500020A87002200A
:10405000C7E733480DF060FB0020D049D04AFFF796
:10406000C3FE002817D00320BBE721A00DF054FBAE
:10407000D048CA49CA4AFFF7B7FE00280BD007202C
:10408000AFE726480DF048FBC449C5480246FFF794
:10409000ABFE00280DD10920A3E7FFF729FE002879
:1040A000A1D106209DE7FFF723FE00289BD1082021
:1040B00097E7052095E7C0465C01002046534D2058
:1040C000476572656E636961646F723A2053616C13
:1040D00076616D656E746F20617373696E63726F64
:1040E0006E6F20636F6E636C7569646F2E0D0000D8
:1040F00046534D20476572656E636961646F723A1D
:1041000020457363726576656E646F206261636BD0
:10411000757020322E2E2E0D000000008342010803
:10412000AC420108DB42010850420108104301087B
:10413000B0B5044600280CD00848984D2818142221
:104140002146FCF72AF8064800212954924801210B
:104150000170601E84412046B0BDC0464C15000071
:104160005F150000862804D88B4901220A708B490C
:104170004871872801D30020704701207047C0464E
:10418000854A01211170854AD08308467047C04690
:10419000814A01211170814A908308467047C046C8
:1041A000B0B5044600280BD07C4D284608300A22C2
:1041B0002146FBF7F2FF7848012101700020A87426
:1041C000601E84412046B0BD5C010020B0B50446AD
:1041D00000280CD07A48714D281810222146FBF790
:1041E000DCFF0748002129546B4801210170601E43
:1041F00084412046B0BDC046C81600008816002085
:10420000D7160000B0B5044600280CD00848634D0E
:10421000281814222146FBF7C0FF07480021295423
:104220005D4801210170601E84412046B0BDC0463A
:1042300038150000881600204B1500005C01002096
:10424000F0B583B054484068002818D00024534E7D
:10425000534F204631463A46FFF782FD0121029135
:10426000504A00280ED0514835584B4840683146D6
:1042700001F0D2F8A8420AD1029803B0F0BD0020A4
:1042800003B0F0BD484800210CF05CFD05E002469B
:10429000474800212B460CF055FD404E384631462C
:1042A0003A46FFF75DFD002813D0404835583A4A9A
:1042B0005068314616463B4A01F0AEF80246A84225
:1042C0000299084664D03A4835492B460CF03AFD2D
:1042D00004E0354832490CF035FD2F4E35482F4D5E
:1042E00029463A46FFF73CFD002811D02F482B49BC
:1042F0000F5870682B4A01F08FF80246B8420299B5
:10430000084645D02A482B493B460CF01BFD03E0EC
:10431000254828490CF016FD281D2449FBF732FFDB
:1043200025480121019129606121A860E9602C8262
:104330007F20C00568612148E8612148281821498B
:104340004CC94CC00A8802808978817087271E4E2C
:104350002846203031681022FBF71FFF30202C54F4
:10436000284631300A221949FBF7F3FE284630303F
:10437000F16A326BC2828182B1692964C4722835C4
:1043800040367F1EE4D1044E0198307020460299D9
:10439000317003B0F0BDC0465C01002088160020DB
:1043A000DC160000B6050000CA410108D81600005E
:1043B00000420108B82D000073656E680500020018
:1043C000C8160000DC790108A4180108EC7901087E
:1043D000F0B581B0144D69780A224A438018134918
:1043E000401880B2124E717888421AD240003018BC
:1043F0000421445E0FA021460CF0A4FC7480002729
:104400003770E0B2FFF7AEFE777001226A702A7053
:10441000852000021549FEF7C7FD08201449FFF763
:1044200073F801B0F0BDC0462C000020F6FF00007C
:10443000F401002053656C6563616F20766961202B
:10444000706573717569736120636F6E6669726DF3
:104450006164612E20496E6469636520646F204742
:1044600072616F3A2025642E0D0A0000206A01084F
:1044700025790108F0B58FB00646C64C0027677055
:10448000FFF74AFD0546002E009069D030780028DD
:1044900066D0002D00D147E1029603E07F1CAF42B9
:1044A00000D141E1F8B205A9FFF708FD0028F5D0D9
:1044B000317805A803910029014600D00021007839
:1044C000002831D00197354605AE06E0049D6D1CED
:1044D00001467078761C00282FD02F78002F27D027
:1044E00004950D46FBF72FFE04463846FBF72BFEDE
:1044F000844204D1002D3046E8D02846E6E7002D5E
:1045000000D06E1C3078FBF71EFE07460398FBF7C1
:104510001AFE8742314600D00021874201D0029D19
:10452000D7E70298451CD4E7039800060CD10CE0AD
:10453000984C009D029E019F07E02878954C009DB5
:10454000029E019F000600D000210029A6D06078BD
:104550001328A3D8411C61704000201887809DE774
:104560006178002D00D1E3E0132900D9E0E0480094
:10457000201800228280481C022D00D2EAE0122975
:1045800000D9E7E04000201801228280881C032D1A
:1045900000D2DFE0112900D9DCE04000201802221F
:1045A0008280C81C042D00D2D4E0102900D9D1E0AB
:1045B0004000201803228280081D052D00D2C9E08A
:1045C0000F2900D9C6E04000201804228280481D2F
:1045D000062D00D2BEE00E2900D9BBE04000201815
:1045E00005228280881D072D00D2B3E00D2900D955
:1045F000B0E04000201806228280C81D082D00D29D
:10460000A8E00C2900D9A5E04000201807228280EC
:1046100008460830092D00D29CE00B2900D999E00A
:104620004000201808228280084609300A2D00D256
:1046300090E00A2900D98DE04000201809228280EC
:1046400008460A300B2D00D284E0092900D981E008
:10465000400020180A22828008460B300C2D79D3A6
:10466000082977D8400020180B22828008460C3099
:104670000D2D6FD307296DD8400020180C228280A1
:1046800008460D300E2D64D3062962D84000414AF9
:1046900010180D22828008460E30009A0F2A58D337
:1046A000052956D840003B4A10180E228280084641
:1046B0000F30009A102A4CD304294AD84000354ABA
:1046C00010180F228280102208461043009B112BE5
:1046D0003FD303293DD843002E4CE3189A800A4665
:1046E0001132009B122B53D3122851D85000294A63
:1046F00010181122828008461230009A132A29D3FA
:10470000012927D84000234A101812228280084627
:104710001330009A142A1DD300291BD14000201801
:1047200013218180142015E06078002813D102E065
:10473000084600280FD1184831460CF003FB3C20F6
:10474000FEF7C4F9154816A11822FEF72DFC0FB08C
:10475000F0BD104C6070F14901224A70401EC0B299
:10476000CD234343D80A431C0B7005AC12492046A5
:104770000CF014FB2046FBF727FD8521090282B2CD
:1047800008462146FEF710FC00F018F80FB0F0BD07
:104790001046DFE7F4010020E078010896400000B1
:1047A0004E656E68756D206772616F20656E636F10
:1047B0006E747261646F210038790108F0B58BB0B6
:1047C000D64840780A2141437F4FCE1930460838F9
:1047D00080B2FA4D69787D4C88420DD2400028188D
:1047E000007901A9FFF76AFB00280CD02046203889
:1047F00080B201A9102204E02046203880B2C849C6
:104800000122FEF7D1FBF01F80B2697888420AD2FC
:1048100040002818007901A9FFF750FB002807D0B5
:1048200001A9102201E0BE4901222046FEF7BCFB8F
:10483000B01F3840697888420DD2400028180079AE
:1048400001A9FFF73BFB00280CD02046203080B2A6
:1048500001A9102204E02046203080B2B049012294
:10486000FEF7A2FB701F80B2697888420DD240002B
:104870002818007901A9FFF721FB00280CD0204659
:10488000403080B201A9102204E02046403080B2BE
:10489000A3490122FEF788FB301F3840697888421F
:1048A0000CD240002818007901A9FFF707FB002867
:1048B0000AD06034A0B201A9102203E06034A0B293
:1048C00097490122FEF770FBF01E80B26978404CD8
:1048D00088420DD240002818007901A9FFF7EEFAAE
:1048E00000280CD02046203880B201A9102204E014
:1048F0002046203880B28A490122FEF755FBB01EBF
:104900003840697888420AD240002818007901A905
:10491000FFF7D4FA002807D001A9102201E080494E
:1049200001222046FEF740FB701E80B26978884263
:104930000DD240002818007901A9FFF7BFFA00281E
:104940000CD02046203080B201A9102204E020467D
:10495000203080B272490122FEF726FB374068788A
:1049600087420DD278002818007901A9FFF7A6FA2E
:1049700000280CD02046403080B201A9102204E06B
:104980002046403080B266490122FEF70DFB701CC4
:1049900080B2697888420CD240002818007901A9B9
:1049A000FFF78CFA00280AD06034A0B201A91022C7
:1049B00003E06034A0B25A490122FEF7F5FA6520FF
:1049C000FEF784F80BB0F0BDFEFF0000208200006F
:1049D00020830000B0B582B00AA00CF09DFE904D7F
:1049E0000120287001AC002020702046FFF780FADB
:1049F000207868800BF0ACFD6620FEF767F802B007
:104A0000B0BDC0464772616F735F48616E646C658C
:104A1000723A20456E7472616E646F206E6120740C
:104A2000656C612064652073656C6563616F2064EB
:104A300065206772616F732E0D000000B0B50446EB
:104A4000294D287801284ED1FFF766FA00284AD070
:104A5000611E052947D8C0467944097949008F4429
:104A600002261B4242310220295E2EA00CF06AF978
:104A700000242C70A878FFF775FB6C702748012282
:104A800042700270852000022549FEF78DFA082049
:104A90003349FEF739FDB0BD6988491E0AB2002AC4
:104AA00000D5411E698008B20BF052FDB0BD698887
:104AB000491C0AB28242F5DB0021698008B20BF082
:104AC00047FDB0BD09A00CF027FE00202880134848
:104AD000012242700270852000021149FEF764FA3B
:104AE0000820FDF7F3FFB0BDF40100204772616FAD
:104AF000735F48616E646C65723A2053656C6563E0
:104B0000616F202876696120736574617329206361
:104B1000616E63656C6164612E0D00002C000020E5
:104B2000206A01084772616F735F48616E646C654B
:104B3000723A204772616F2028766961207365742C
:104B400061732920696E64696365202725642720C5
:104B500073656C6563696F6E61646F2E0D0A00008A
:104B600025790108B0B582B0134D2C78022C20D3E2
:104B70001248007801281CD168782146FBF7E5FD32
:104B8000491C69700EA022460CF0DCF86A782B787C
:104B90006C46154920460CF001F92046FBF714FB42
:104BA0008521090282B208462146FEF7FDF9FFF78A
:104BB00005FE02B0B0BDC0462C000020F40100206C
:104BC000506167696E6163616F3A204D7564616E13
:104BD000646F207061726120706167696E61202569
:104BE000642F25640D0A00003879010880B586B06D
:104BF0000B4A1278012A10D1801D891F89B201AA9F
:104C00001123FEF783FA002804D001A8FFF732FC35
:104C100006B080BD03A00CF07FFD06B080BDC0468D
:104C2000F401002046616C686120616F2065787432
:104C30007261697220746578746F20646120706598
:104C400073717569736120646F207061796C6F6135
:104C500064204457494E2E0D00000000F0B587B087
:104C6000002506955422825C012A03D102242046A5
:104C700007B0F0BD064654360124347002689368CC
:104C80005B0714D407694B68022B18D10420074333
:104C9000994887426DD19748C0430B68D943014377
:104CA000906A084090620024002B66D4D2E0816DA7
:104CB00020220A4382653570204607B0F0BD059377
:104CC00004231F438C4CA74262D10F683846894B9E
:104CD0001840936A03439362380253698343896897
:104CE000014086480840184350610024002F00D43A
:104CF000B0E0032082058248036819461140384617
:104D0000804F0490B84200D096E07A4F7F1CB942A1
:104D100000D391E07A48036893431943754A5118C8
:104D2000491C0160794800687949FBF70EFD0C21A8
:104D30004143481C06900698002800D18AE0069856
:104D4000401E06900698002800D183E00698401E79
:104D50000690069800287DD00698401E069006987A
:104D6000002877D00698401E069006980028E6D1C5
:104D700070E00B680024002B6CD5FA480168624A89
:104D800093426BD05F4A934264D10122920567E05F
:104D90001F27059C27400F2400940397BC40076EF3
:104DA0000194A74302970C68524F3C42049462D08E
:104DB000E4072F4667D1049FBC075FD47C075FD40C
:104DC0003C075FD4FC061F465DD4049CA30671D447
:104DD000630671D4230671D4E30571D4049B9B054B
:104DE00070D4049B5B056FD4049B1B056ED4049B9D
:104DF000DB046DD4049B9B046CD4049B5B046BD4D8
:104E0000049B1B04009F3ED4049BDB0366D4049BDD
:104E10009B0365D4049B5B0364D4049B1B0363D492
:104E2000049BDB0262D4049B9B0261D4049B5B0263
:104E3000DB1716271F4026E0334F0498B84209D1EC
:104E40000127BF053B4005D1C6480368934319437A
:104E500039430BE03570204607B0F0BD254A521C9F
:104E6000114003229205036893435918016035707D
:104E7000204607B0F0BD6300DF0E04E0012702E02A
:104E8000022700E00327039CA740029B1F430766FD
:104E9000059B9B08C06998420AD90198C043936A50
:104EA0000340049FB800000FA0401843906213E72E
:104EB000049F11E70527E6E70627E4E70727E2E76F
:104EC0000827E0E70927DEE70A27DCE70B27DAE710
:104ED0000C27D8E70D27D6E70E27D4E71027D2E70F
:104EE0001127D0E71227CEE71327CCE71427CAE70C
:104EF0001527C8E7FFFF7F000400008000FFFF7F49
:104F000008270140000200A4000400A8300000208F
:104F1000400D03000068006C70470000F0B589B0D8
:104F2000044600200890002C76D00790A06D002841
:104F300007D125465435204600F016F90020287088
:104F4000E06501273D072668B068C00026D4B06838
:104F50007F4901402943B1607E4800687E49FBF7E4
:104F6000F4FB400008900898002817D00898401ECD
:104F700008900898002811D00898401E08900898BA
:104F800000280BD00898401E08900898002805D0EB
:104F90000898401E089008980028E7D1B068284279
:104FA00008D1A06D10210143A165E06D0121079199
:104FB0000843E065B06804210140A26D1020024062
:104FC0005118A16D2BD106900F20C7433A46F33AF2
:104FD0001140891CA165B168C9077DD10390049770
:104FE00027462037216B4A1E91410D03A168227E7E
:104FF00092030A43617EC9031143A27E5003084312
:10500000E36803432B430120C5072169002905906C
:10501000029509DAA94308E0012009B0F0BD014377
:10502000A165384609B0F0BD41050B43387B45000A
:105030001D433878012809D1002A11D0A06D202104
:105040000143A165E06D05990843E065626A002AA5
:105050000CD0072080010240A16A1143294306E0D9
:10506000059800040543626A002AF2D12946F068D7
:105070003A4A02400A43F2600320820763681D46F1
:105080001540E16C387F01280ED1206C0090676CD0
:10509000A06C019000980743019807432F430F43EA
:1050A000059807433D4600E00D43049F30692C49B5
:1050B0000140294331610298834203990CD0934205
:1050C0000AD005988007834206D08804034025490A
:1050D0000A688243D0180860706907229043656BA4
:1050E00028437061706970218843A16B09010143F5
:1050F0007161216901235805814203D000290BD138
:10510000B06A07E0B06AE06980001C301C210140F1
:105110008F40206E3843B06270691040A8420AD1B7
:105120000020E065A06D0121014302208143A165BB
:10513000079809B0F0BDA06D069908430221884385
:10514000A065E06D1843E065184609B0F0BDC046A3
:10515000E8FFFF6F30000020400D03000102DEFF7A
:1051600002FCFF1F0827014080B58AB00021099189
:1051700008910791069105910491039100680D49EA
:10518000884201D00AB080BD2020029002A802F01F
:105190001FFD002801D0FEF74FFE01200005064943
:1051A0000A6802430A6009680140019101980AB047
:1051B00080BDC0460024014040100240F0B581B0DF
:1051C0000D4604464069082801D1082704E02068FC
:1051D000C068C0073FD1042700F0E2FD0646216801
:1051E000086838421CD001204202A36D1343A36516
:1051F000CA681205920F4AD1A27E002A47D10A68D6
:10520000120744D58A68520738D4224658324B6870
:105210000C25AB434B60FF2502351368AB4334E0EC
:10522000002D1FD0681C10D108683842DBD10868F7
:105230003842D8D108683842D5D108683842F3D00E
:10524000D1E7216808683842CDD100F0A9FD801B64
:10525000A842F6D908E0A06D20210143A1650120F4
:1052600001B0F0BD00F09CFD542000212154A06D40
:1052700004210143A165032001B0F0BDA26D2023EC
:105280001343A36522465C32E36D03431360227E21
:105290000020002A01D001B0F0BD0C220A6001B04C
:1052A000F0BD000070B50146006882680220520718
:1052B00011D454228A5C012A0DD00C4654340120AA
:1052C000054620700E460846FBF778FF002803D0FD
:1052D00000202070284670BDB06D094901400120B2
:1052E00000020818B0650020F06531681C220A60D1
:1052F00020708A68304B13401A1D8A6070BDC0460A
:10530000FEF0FFFFF0B581B004465420205C012878
:1053100002D1022001B0F0BD264654360127377075
:105320002068816849071FD481688268D20737D016
:105330000222114034D1816805220A40012A27D176
:1053400081681D4A0A40911C81600321016000F0C0
:1053500027FD054620688068C00721D000F020FDA9
:10536000401B0328F6D313E08168890704D48168C1
:10537000114A0A401032826000F012FD0546206892
:1053800081684907D0D500F00BFD401B0328F6D3F8
:10539000A06D10210143A165E16D5C34384605E044
:1053A000FF200230A16D814358340020002232706A
:1053B0003943216001B0F0BDE8FFFF7F70B50346BF
:1053C0000120CC0720D0114C0C40651EAC410326B7
:1053D0001546F541032D17D87D442D796D00AF4456
:1053E0000B0105090B4C0C400ED105E0084C0C409C
:1053F0000AD101E0002C07D11868416181681823A7
:10540000994311438160002070BDC04680FFFF7F3B
:1054100000FFFF7F0000FF7FF0B584B00E46022141
:1054200041770468A16801252943A160016A012927
:105430001ED002290ED0032928D1002A00D103E171
:105440000395032511462940042A00D3D2E03346B0
:105450000025DEE057081ED0039503213B460B4094
:1054600000937B1E032B029601971AD2002133E092
:10547000970814D003950323394619400091791EEB
:1054800003290296019349D200257AE0002145774D
:10549000084604B0F0BD0021D2073CD1D4E0002181
:1054A0009EE08F43002135466B882E883604F31822
:1054B0002360EB88AE883604F31823606B892E894D
:1054C0003604F3182360EB89AE893604F3182360A1
:1054D0001035091D8F42E7D1009F002F029E14D086
:1054E0008B00F1184D88F35A1B045B192360012FC0
:1054F0000BD0CB888D882D04EB182360022F04D0AD
:105500004B8909890904C918216001998900039D03
:10551000D20700D198E0715A218095E09F43002581
:1055200031460E7836064B781B049B198E7836026E
:105530009B19CE789B1923600B791B064E79360494
:10554000F3188E7936029B19CE799B1923600B7A5A
:105550001B064E7A3604F3188E7A36029B19CE7AE1
:105560009B1923600B7B1B064E7B3604F3188E7B46
:1055700036029B19CE7B9B19236010312D1DAF4243
:10558000CFD1009F002F029E26D0A900735C1B067E
:1055900071184D782D04EB188D782D025B19CD789C
:1055A0005B192360012F17D00B791B064D792D0451
:1055B000EB188D792D025B19CD795B192360022FD1
:1055C0000AD00B7A1B064D7A2D04EB188D7A2D022A
:1055D0005B19C97A591821601146019B9943039DB3
:1055E00003231A407A441279520097442C011C2458
:1055F000715C27E0AA430025334637682760776847
:105600002760B7682760F768276010362D1DAA420B
:10561000F3D1002905D0AA001D469B58236001291B
:1056200017D1039D10E072185278715C0902891835
:105630002180046808E072185378715C0902C91867
:10564000218091782170046821684577084604B06C
:10565000F0BDAA18536823600229039DF4D0916815
:105660002160F1E7B0B50125002814D00446407F41
:10567000002804D100202077204600F031F80220D5
:1056800060772079002808D0A168E2682046FFF7FB
:1056900095FE002808D02846B0BD20680F4941611A
:1056A000816818229143816000256079002801D02B
:1056B000216900E0E943206801618168602291432B
:1056C00062690A438260816880229143A2690A4329
:1056D0008260012060772846B0BDC046B71DC10476
:1056E00081B000680849884201D001B070470120AC
:1056F000000306490A6802430A60096801400091F4
:10570000009801B07047C046003002403810024097
:1057100070B500282CD0014624314A78022A29D1BC
:10572000046822680E239A432260426C1568314B4C
:105730001D4015602568012295432560046C1C25D9
:1057400025401446AC40DA4D2E6826432E60846C0A
:10575000C56C6560046D002C05D025681D40256072
:10576000436D806D58604A70002000220A7070BD41
:10577000012070BD0422C263012000220A7070BDA6
:1057800070B5242101244454014624314A78022A68
:105790002BD103681A680E24A2431A601C680122E8
:1057A00094431C60446C2568124B1D402560046CBA
:1057B0001C2525401446AC40BD4D2E6826432E6066
:1057C000846CC56C6560046D002C05D025681D4097
:1057D0002560436D846D5C6000240C704A70816BA1
:1057E000002900D08847204670BD0421C1632046AF
:1057F00070BDC046FFFEFFFFC06B70472521405CB7
:1058000070470000F0B585B0016C1C240C400423E7
:105810001946A140A64A121F15680A4603952A4058
:1058200056425641049005682A6817461F40784240
:105830007841304332D00295012102261046304093
:1058400047424741A640039B1E420D46019400D0AB
:105850003946049F3C462434002931D008200240B8
:10586000564256410198C340180700D53546002DD1
:1058700024D1029A10680E2188431060012001464D
:10588000019A91408A4B1A680A431A60F863002112
:1058900021706070796B00290ED10FE028688006B6
:1058A00002D4286898432860814A10680843106031
:1058B000049F396B002901D03846884705B0F0BDF8
:1058C000029A1068800605D410680A218843106087
:1058D000012060700020207075490868304308601E
:1058E000F96A0029E8D1E9E7F0B587B000284AD085
:1058F0000446014624310220069148702768386822
:10590000344901403960344E30468030A064334819
:10591000381814252946FAF718FF800081192064E9
:1059200005916164FC20384008382946FAF70DFFDC
:105930001C22024001210B469340E364A0680490BE
:10594000E5682646103645CE0196E6690296266A37
:10595000039628431043019A10430E4602990843C8
:105960000399084339680143049A11433960B1032C
:105970001B488A420AD1002205990A6062600360CE
:10598000154613461BE0012007B0F0BD6168CFB299
:10599000059A17600360491E002203291546134625
:1059A0000DD8791E8A0082180023D36703250D4085
:1059B0003346AB400B490B607C32BC3005460020BF
:1059C000E06322656565A365069908704E7007B0AF
:1059D000F0BDC0460F80FFFF00080240F8FFFDBF8A
:1059E0008408024044090240F0B583B004462420F4
:1059F000205C012802D1022003B0F0BD25462435E9
:105A00006878012830D10092022068700020E0639D
:105A10002668326801270297BA433260A26CE76CAD
:105A20005760226D0192002A02D0626DA76D576007
:105A3000226C1C271740029ABA401D4F3F6817433B
:105A40001B4A17607360A368102B009F3A4600D072
:105A50000A46B260102B00D03946F1603168226BE3
:105A6000002A06D00E2209E002200021297003B08E
:105A7000F0BD04229143316032680A211143316044
:105A800002990902626C1368DB0302D513680B43A9
:105A90001360019B002B02D01A680A431A60316818
:105AA000029A114331600021297003B0F0BDC04655
:105AB00004000240B0B5044600F072F90546601CCF
:105AC00002D004480078241800F06AF9401BA04274
:105AD000FAD3B0BD08000020F0B58AB003900029C9
