:020000040800F2
:10000000084F0020D500000845B30008B59C000843
:1000100000000000000000000000000000000000E0
:1000200000000000000000000000000059BA0008B5
:100030000000000000000000EDB30008EDBA000869
:10004000E7000008E7000008E7000008E7000008F4
:10005000E7000008E7000008E7000008593E000834
:1000600029CE0008752B0008852B0008E700000842
:10007000E7000008E7000008E7000008E7000008C4
:10008000E70000080000000000000000BDBB000801
:1000900000000000E7000008E7000008B99C000825
:1000A000E7000008E7000008E7000008E700000894
:1000B000C1C50008000000000000000000000000B2
:1000C0000348854600F068FE0048004745030108E4
:1000D000084F00200448804704480047FEE7FEE739
:1000E000FEE7FEE7FEE7FEE7ADBB0008C100000843
:1000F00030B5434351435C18010C130C0D465D436E
:100100002C1980B292B20546554351430A0C09049A
:100110004D1962415843010C00044019514130BD52
:1001200000487047380E010810B50446FFF7F8FF85
:100130000068005DC007C00F10BD01466139192974
:1001400000D82038704701464139192900D820309D
:10015000704703460B439B0703D009E008C9121FF1
:1001600008C0042AFAD203E00B780370401C491C33
:10017000521EF9D27047D2B201E00270401C491EF3
:10018000FBD270470022F6E710B513460A46044634
:100190001946FFF7F0FF204610BD10B5044605E0F4
:1001A0000B780370401C002B00D0491C521EF7D264
:1001B000204610BDCAB2401E4178401C8A4202D07F
:1001C0000029F9D100207047421C0178401C002909
:1001D000FBD1801A704710B5002200E0521C835CEE
:1001E0008C5CA34201D1002BF8D1D8B2E1B2401A05
:1001F00010BD30B504460020034600E05B1C93426E
:1002000003D2E05CCD5C401BF8D030BD03460A78D9
:100210000270401C491C002AF9D118467047F8B5F5
:100220000E460546002400E0641C285DFFF78BFFA6
:100230000746305DFFF787FF381A02D1295D002994
:10024000F2D1F8BD0FB400B58DB009900B9010A994
:1002500000200091C0430A9000200C9006480690B0
:10026000064807906A4609A80F9900F0A9FA0DB050
:1002700008BC04B018470000E107000801080008A6
:10028000FFB50027FF4383B000205C6801909E68A3
:100290001D46A9697F1C049888470090296A8847F1
:1002A0000028F6D10098401C0CD003204002844363
:1002B000002E19DD600614D500982B2809D02D28B2
:1002C0000FD103E00020C04307B0F0BD0120800241
:1002D0000443A9697F1C04988847761E0090002E6D
:1002E00002DD0098302803D00598002825D035E09D
:1002F000012040020443A969761E7F1C04988847A8
:100300000090002E03DD782805D0582803D00598EA
:10031000002810D022E00598002801D010281DD117
:10032000012040028443A969761E7F1C04988847F7
:100330000090102002E0082000E00A2005900DE067
:10034000012149020C43059A0199761E5143081870
:100350000190A9697F1C049888470090002E05DD54
:100360000599009800F016FA0028E9DAE96904987E
:100370008847A00502D40120C043A5E7E00722D1A9
:10038000600611D56005019800D5404229680A1D14
:100390002A600968220501D5087014E0220701D5FA
:1003A000088010E008600EE02868011D29600068E0
:1003B000210502D50199017005E02107019901D5B8
:1003C000018000E0016038467EE70000F7B5009C40
:1003D0000F4600262578641C002D05D0FFF7A0FEEF
:1003E0000068405DC007F5D12B2D02D02D2D18D00F
:1003F000641E39462046029A00F014FA002F04D0F9
:100400003968A14201D1009939607105022400299F
:100410000BDA4042002803DD10F042F80460A00728
:10042000FEBD012080020643E3E70028F8DA10F061
:1004300037F804600048FEBDFFFFFF7F70B5064639
:1004400010F02EF8046805460A2200213046FFF716
:10045000BDFF2C6070BD70B5064610F021F8046831
:1004600005460A2200213046FFF7B0FF2C6070BD20
:10047000F8B502464A40D40F42004B0052085B08D0
:100480009A4202D20246084611464A0023D0C30DC2
:100490004A00DDB2120EAD1A202D35DA49020126CE
:1004A000490AF6058A19002C00D0524220214F1B20
:1004B0001146B9402A411018C20D9A4221D0002C91
:1004C00017D0012D08DCDA05801AD20F8019D20767
:1004D000DBB200F002FAF8BDDA05801A0123400011
:1004E0001B06C01880185A428018CA0F10434900D2
:1004F00007E04908C2071143DA05801A801940084D
:10050000801800F0E2F9F8BD61000122511A001BC9
:10051000F7E70122D2075140AAE70122D207504053
:10052000A6E7024670B54A40D30FDB0740002DD046
:100530004A002AD0010E140E000212020919400AC4
:10054000520A8418E50104465443000A120A2E0494
:100550005043A4194219200CC543AA18120C0125B6
:10056000AD03521C521912047F39240400D0521CCE
:10057000104301D44000491EC2B20C06C009201825
:10058000401C4008802A02D003E0002070BD4008D3
:100590004000002900DA0020184370BD70B5024603
:1005A0004A40D50F40004A00ED0740085208002895
:1005B00014D0002A12D0C40DD30D41020120C00571
:1005C0005202490A520AE41A091812187D3491425B
:1005D00001D3641C00E04900002C01DA002070BD4A
:1005E0000023914201D3891A03434008490000289F
:1005F000F7D100290AD0914202D10121C90705E0B3
:10060000914201D2012101E00121C943E005C01856
:10061000401900F05AF970BD0122D207002800DB12
:10062000101A002900DB511A814201D201207047C3
:10063000002070470122D207002800DB101A002991
:1006400000DB511A814201D9012070470020704718
:10065000C217C10F504010B54018CA079623002199
:1006600000F03BF910BD10B500229623114600F0B2
:1006700034F910BD0EB5C217C10F5040CA0740185B
:100680000021054B0293019200910A460B4600F0AF
:100690006AF903B000BD000033040000C20F41003E
:1006A00040020123400ADB05D207090EC0187F294A
:1006B00001DA00207047962903DC9623591AC840B6
:1006C00001E096398840002AF4D040427047C20FBA
:1006D000D207400040080BD0C10D0723DB01C91829
:1006E00040020905400A1143C20840071143704700
:1006F00000200146704770B50446002903D0002051
:100700002022012310E0002801D00020C043C04671
:10071000C0460DE02546D5408D4205D30D46954097
:10072000641B1D46954040191546521E002DF1DCF4
:10073000214670BDF0B51FB40646002082B00546C4
:100740004024019100901BE0019922460F4630465B
:1007500000F04AFB049A059B801A994110D3104679
:100760001946224600F030FB361A8F410197224687
:1007700001200021009F00F027FB38184D41009018
:100780002046641E0028DFDC019B00982946324683
:1007900007B0F0BD3A2800D23038202302469A43F1
:1007A000412A01D310463738884201D30020C04384
:1007B00070470000026813785118016018467047AE
:1007C00010B5D160044951610449116200211161E1
:1007D000114600F02DFB10BDB507000829010008E7
:1007E0004268002A08D001680B78491C002B03D00E
:1007F000521E06C0184670470121C160881E70470E
:100800004268002A0BD0C3680168002B07D18368B7
:100810008B4204D0491E521C06C0002070470020A5
:10082000C0437047F7B582B0029C00272078641C53
:1008300015460197302802D0002D15D015E02078FC
:100840000127641C782804D0582802D0002D09D034
:100850000BE0002D01D0102D07D1002710252078A6
:10086000641C02E0082500E00A250026009610E03E
:100870000099012769430818020C294680B2714388
:1008800000908E183804864201D301200190207810
:10089000641C2946FFF77EFF0028E9DA0398002848
:1008A00005D0002F01D0641E00E0029C0460019876
:1008B000002806D00FF0F4FD02210160C81E05B02B
:1008C000F0BD009930040843F9E7002904DA401C20
:1008D000490001D140084000704770B40024050C65
:1008E00005D11024000402D1002921D01124050EC5
:1008F00001D100020834050F01D10001241D850F2C
:1009000001D18000A41C002801DB4000641C0029E8
:1009100008D020252E1B0D46F540A14000D0012116
:100920002943084301061B1B000ADB1D02D50020DA
:1009300070BC7047DB05181880180029F8DA401CD5
:100940004900F5D170BC40084000704710B5002B3D
:1009500008DA0024401C614192185B411A4301D11E
:100960004008400010BDF0B51FB482B005460C0031
:1009700003D008460FF07CFD02E00FF079FD203037
:10098000024600902146284600F01EFA049B059A74
:1009900004460F4618431143084314D01846104329
:1009A0001BD0009840210A1A1846059900F01CFA3D
:1009B00005460E46009A0599049800F005FA08438A
:1009C00005D0012004E02046394607B0F0BD0020E4
:1009D000C11705430E432C43374300990E98630516
:1009E000401A7905E40A00220C43FD0A0A3002D5B8
:1009F00000200146E9E70105101969410C9C0D9D95
:100A000000196941FFF7A2FFDFE70000F0B50746D4
:100A10000846584087B0C00F049048000E46590061
:100A200040084908BC1A884105D2384631461E465E
:100A300017460B4602465800400810434CD0300D74
:100A4000039040055900400D490D0590401A029051
:100A5000402872DA18030121000B090508430190B0
:100A600004980092002805D0019952420020884144
:100A700000920190029840210A1A0199009800F012
:100A8000A3F905460C466B4607CB00F0BEF9C0192A
:100A90007141039A0E0D0023D71756401A467A402B
:100AA000164344D0049A002A2DD0029A012A039AB0
:100AB00015DC1205C01A914101263605001C714152
:100AC000D20F059ED2070093019202962A46234632
:100AD000FFF749FF07B0F0BD38463146FAE7160583
:100AE000224A0F46B218C01AB74101210905001C5D
:100AF0004F4100187F41114618187941E20F104309
:100B00006D19644113E0E2076D0815436408C207DC
:100B10001443039A01261205C01A91413605001CA0
:100B20007141CE07400830434908C01851412A4658
:100B30002346FFF70BFFCDE7FFE7049801224000B3
:100B4000C117121A00238B4104983146C417381A72
:100B5000A141EEE730B40124E407634030BC55E71F
:100B600030B40124E407614030BC4FE70000E0FFEF
:100B7000F0B51FB488B00B99099800244840099932
:100B8000C00F490049080991C0070B99009049001E
:100B900049080B9109990898A64608431CD00B995F
:100BA0000A98084318D0099801244000420D4800D3
:100BB000410D099824050003000B204309900B9870
:100BC0000003000B20430B9050181C4940180022D2
:100BD00001901446104605E0002001460DB0F0BD1E
:100BE000032801DA034600E003239C46C11A0AAE3B
:100BF0000AE05F0008ADED5B4F00F75B7D43002727
:100C0000AA187C41491C5B1E6145F2DD410004AB22
:100C10005A522104120C0A43240C401C0828DFDB22
:100C2000019802900099704601910090059B049AEA
:100C300007990698FFF797FED0E700000DFCFFFF2D
:100C4000F0B50C465C4085B0E40FE40703944C001B
:100C50000026640859009446490802460296224339
:100C600021D062460A431ED06200570D4A000E038F
:100C70002303550D012402462C492405781B1B0B28
:100C8000360B401823432643614600901C46501AF9
:100C9000B44103D30098401C009002E092180098E1
:100CA0005B41002803DA0020014605B0F0BD0020BA
:100CB000012109050746864611E064461D46141BBE
:100CC000B54106D36546521BB341744607430C43F6
:100CD000A646CD0740084908284392185B410546BF
:100CE0000D43EAD11046184313D0604619465040D0
:100CF0007140084306D06046101AB34106D2012263
:100D0000002306E000220123DB0702E00122D24398
:100D10005310009874460105381C6141029C039DE4
:100D200000196941FFF712FEBFE70000FD03000054
:100D30004A0009030123090B1B0519430A4B10B58F
:100D4000520D9A4202DA0020014610BD064B3433A0
:100D50009A4203DC9A1A00F047F810BD034BD218F0
:100D600000F032F810BD0000FF030000CDFBFFFFD4
:100D700010B5002904DB0124E40740428C412146E0
:100D8000002B04DB1C460123DB075242A34199429E
:100D900000D1904210BD00001CB5094800900948E0
:100DA000019005460126009C05E0E36807CC33432B
:100DB0000C3C98471034AC42F7D3FFF785F900009C
:100DC000D06E0108F06E010810B5202A04DB014640
:100DD000203A9140002010BD914020239C1A0346E8
:100DE000E3401943904010BD10B5202A04DB0846AB
:100DF000203AD040002110BD0B46D340D0402024E3
:100E0000A21A91400843194610BD10B5202A06DBEE
:100E1000CB170846203A1041C1170B4306E00B469A
:100E20001341D0402024A21A91400843194610BD16
:100E3000F3B58DB000200A9001200B9000260846E3
:100E40000C300C4609906269012109989047051EF3
:100E50002ED0252D2DD0216A8847002818D0626910
:100E6000012109989047216A88470028F7D1411E3F
:100E700062690998904700E0761CA1690D9888473F
:100E8000216A88470028F7D1E1690D988847DAE799
:100E9000A1690D9888470746A84201D1761CD2E780
:100EA000E1690D9888477F1C02D10A98002877D005
:100EB00049E1002762693D463946099890472A284A
:100EC0000CD16269012109989047012506E00A21A9
:100ED0004F433F18303FEBD4102005436269012196
:100EE00009989047014630390A2903D29B498F421D
:100EF000DEDCECE7E90600D4994F6C280AD04C28D8
:100F000010D0682824D06A282ED074280CD07A28D3
:100F10000AD00DE062690121099890476C2823D01E
:100F200004211CE0202005436269012109989047B3
:100F3000A760656065284FD026DC582839D01ADCB8
:100F4000452849D012DC252834D04128B0D143E0CF
:100F50006269012109989047682802D008210D4351
:100F6000E6E70120C002DEE70220DCE7462833D0B6
:100F700047282CD130E05B2870D061282CD0632822
:100F80006CD0642823D161E06F284FD009DC66283B
:100F900022D0672820D0692826D06E2817D12EE0CD
:100FA000CDE070284DD073286FD075284ED07828AA
:100FB0000DD154E0A1690D9888470546252800D138
:100FC0006CE7E1690D9888476D1C00D16DE7BAE0C8
:100FD0000A224CE00A2252E0012023466A46C0431E
:100FE0000D99C046C046A3E02846402108436060F2
:100FF000A807234601D5002239E000223FE0E80798
:1010000000D020E72068011D21600068290501D576
:10101000067018E7290701D5068014E7A90703D54C
:10102000F117066041600EE706600CE72846402194
:1010300008436060A807234601D5082217E008226C
:101040001DE0484928460840606016E028464021D7
:1010500008436060A8072346BCD5B9E715E02846D9
:10106000402108436060A80707D5234610220120CD
:10107000C0430D99C046C0465AE0234610220120C5
:10108000C0430D99FFF7FCF852E000210C910B468C
:101090000091632802D05B2807D043E0E80601D422
:1010A0000120A060012000903CE0626901210998C4
:1010B00090475E2805D101200C900146626909988D
:1010C00090472169002906D10B4601AA8F00491CCF
:1010D000D3510829FADB002835D0216900290ED127
:1010E000C117C90E09184A11930001AA9A18490993
:1010F0004901411A01201368884003431360626963
:101100000121099890475D28E5D10C98002808D066
:10111000002001AB81005A58401CD2435A50082885
:10112000F8DB01AB01202246C0430D99C046C04602
:1011300000280ADA401C06D10B98002803D00020B2
:10114000C0430FB0F0BD0A98FBE7E90702D10A9946
:10115000491C0A91361800200B9074E6CCCCCC0CBC
:10116000FFFFFF7FF1F7FFFFF0B581B005460024D8
:10117000009400688168C9071CD181682B4A2F320E
:1011800011420AD0A86D10210143A965E86D012420
:101190002043E865204601B0F0BD8168234A114034
:1011A00001273943816022480068000205D4687E27
:1011B000012825D1204601B0F0BD1E4800681E4917
:1011C000FFF799FA401C009000980028EFD0009893
:1011D000401E009000980028E9D00098401E009022
:1011E00000980028E3D00098401E00900098002846
:1011F000DDD00098401E009000980028E7D1D6E787
:1012000004F0D4FD064604E004F0D0FD801B032862
:10121000B8D228680168C907CCD18168C907F3D161
:101220008168024A114039438160EDE7E8FFFF7FA2
:101230000827014030000020400D0300F0B583B0C6
:101240005E490A684968401A86185B49CF680120E0
:101250000023BE4202460EDD4C68A64205460FDA68
:101260001543012D10D14D69AE4213DC0022BE4260
:10127000034613DA13E01A464C68A6420546EFDB34
:101280001D461543012DEED00D4608350868A742CE
:1012900017D043E00122BE42034600DB1346012B78
:1012A00006D1CB699E420EDC0022AE420EDA0EE081
:1012B00028460D46103508313C4607460868A742C7
:1012C0002CD103B0F0BD0122AE4200DB10460295E6
:1012D00000281BD0A6423BDA886809680291FFF714
:1012E00018F90546381BFFF7B3F901462846FFF702
:1012F00055F90546301BFFF7ABF901462846FFF7C5
:1013000010F90299FFF7B4F803B0F0BD0D46183597
:101310001031029C1F460868A742D2D0391B0746ED
:101320000846FFF795F9029028683946FFF7F1F86B
:101330000299FFF733F90546301BFFF789F901469B
:101340002846FFF7EEF83946FFF792F803B0F0BDF4
:101350008869019009691C46FFF7DBF80746029887
:10136000201AFFF775F901463846FFF717F90546C9
:10137000301BFFF76DF901462846FFF7D2F80199B7
:10138000FFF776F803B0F0BDB0B50A4C0125002296
:101390002046294604F001FD284604F08BFB204638
:1013A00029462A4604F0F9FC0348406803490860CE
:1013B000B0BDC0460004005080000020380100206D
:1013C000F0B585B000252C46009505E0019F790019
:1013D0000D18641C182C4ED00195102101223D4897
:1013E00004F0DBFC009803900398072817D80398B3
:1013F000401C03900398072811D80398401C0390C1
:10140000039807280BD80398401C039003980728DB
:1014100005D80398401C039003980828E7D320219F
:101420002C4F384604F0B4FC0546102100263846FF
:10143000324604F0B2FC0496691E484248410499C1
:101440000729C3D80499491C049104990729BDD8D8
:101450000499491C049104990729B7D80499491C97
:10146000049104990729B1D80499491C049104995D
:101470000829E7D3AAE710210122164804F08DFCC1
:1014800002960298072817D80298401C02900298EA
:10149000072811D80298401C0290029807280BD800
:1014A0000298401C02900298072805D80298401C18
:1014B000029002980828E7D310210022054804F082
:1014C0006CFC780202D5FF2000060543284605B0D3
:1014D000F0BDC04600080050B0B5FFF771FF0446EC
:1014E000FFF76EFF8442254609DA84420ADDFFF7E2
:1014F00067FF84420BDAA5420CDD2846B0BD0546E5
:101500008442F4DC0446FFF75BFF8442F3DB0446CD
:10151000A542F2DC25462846B0BD0000F0B591B0EA
:10152000012080050B90FF20019000060A9000200A
:10153000FD4F0C900290FD494D1C0C9A1446134629
:1015400003E0641C202C00D1D3E107940893099296
:10155000069128460C9D2C46059005E00E99490001
:101560000D18641C182C4ED00E95102101223846FF
:1015700004F013FC0C9810901098072817D81098B6
:10158000401C10901098072811D81098401C1090FB
:10159000109807280BD81098401C10901098072816
:1015A00005D81098401C109010980828E7D32021E7
:1015B000384604F0EDFB0546102100263846324639
:1015C00004F0EBFB0D961096691E484248411099B5
:1015D0000729C3D81099491C109110990729BDD823
:1015E0001099491C109110990729B7D81099491CD6
:1015F000109110990729B1D81099491C1091109990
:101600000829E7D3AAE710210122384604F0C5FBD8
:101610000D9810901098072817D81098401C10901B
:101620001098072811D81098401C1090109807287F
:101630000BD81098401C10901098072805D81098C7
:10164000401C109010980828E7D3102138460D9CB4
:10165000224604F0A2FB29460A98014304910B9804
:101660000E9901400E912646204606E00F9949004A
:101670000818761C182EAC4F4ED00F901021012266
:10168000384604F08AFB0D9810901098072817D858
:101690001098401C10901098072811D81098401CE2
:1016A0001090109807280BD81098401C1090109894
:1016B000072805D81098401C109010980828E7D3E8
:1016C0002021384604F064FB3A46074610210024E6
:1016D0001046224604F061FB1094791E48424841AE
:1016E00010990729C2D81099491C109110990729FF
:1016F000BCD81099491C109110990729B6D8109997
:10170000491C109110990729B0D81099491C1091C3
:1017100010990829E7D3A9E70D9010210122384636
:1017200004F03BFB10940E98002800D0049D049513
:101730001098072817D81098401C10901098072868
:1017400011D81098401C1090109807280BD81098AA
:10175000401C10901098072805D81098401C109035
:1017600010980828E7D310213846224604F015FBCC
:101770000D990A98014303910B980F9901400F911D
:101780002546274605E00E9949000F186D1C182DB7
:101790004ED00E9710210122634E304604F0FDFA20
:1017A00010941098072817D81098401C1090109883
:1017B000072811D81098401C1090109807280BD8B3
:1017C0001098401C10901098072805D81098401CBD
:1017D000109010980828E7D32021304604F0D8FA5A
:1017E00032460746102100261046324604F0D5FA4C
:1017F0001096791E4842484110990729C3D810997C
:10180000491C109110990729BDD81099491C1091B5
:1018100010990729B7D81099491C109110990729D8
:10182000B1D81099491C109110990829E7D3AAE75B
:10183000102101223C4804F0B0FA10960F980028BD
:1018400001D003980D9010980728079C049D17D885
:101850001098401C10901098072811D81098401C20
:101860001090109807280BD81098401C10901098D2
:10187000072805D81098401C109010980828E7D326
:101880001021002228480F9204F087FA0A2004F061
:1018900011F90B980E99014201D00A980743099A51
:1018A000089B069E0D998D42284611DDB84212DA3A
:1018B0008D4213DA85421C4F00DC0546E8175B19A0
:1018C00042410598854229460DDDB1420FDA38E6DE
:1018D0000846B842ECDB38468D42EBDB0D468542CC
:1018E000114FEADDEAE70546B14200DA29E6314662
:1018F00027E6681A01992C318842029807DD401CBE
:101900000A2800D016E60A48406811B0F0BDD0178A
:10191000C00E18180F9951414009C90640180449D2
:10192000486011B0F0BDC04600080050FFFFFF7FC7
:10193000380100207D200001054948607047C046FD
:10194000704700007D200001014988607047C04653
:10195000900100209D4801218170704780B500F002
:1019600091FB9248924901F041F90E4802F0DEF9EC
:101970000D4802F025FB0D4809F0BCFD09F088FC7C
:1019800001F0C2FD0AF06AF802F074FAFFF7FCFCFD
:1019900002F080FC064809F0C7FC064809F0CCFCC0
:1019A00080BDC046FC08002020080020300C00202C
:1019B00000008E420AD7CD41F0B583B0614C20784B
:1019C000022865D0012871D10DF0E2FD0EF0DEF99C
:1019D0000EF064FA714804F031FF642004F06AF8F4
:1019E000052000070290012671020191324604F0A1
:1019F000D4F919204701384604F05CF868482025DE
:101A00002946324604F0C9F9384604F053F86548CF
:101A10006549016000242046314605F08BFF0AF03D
:101A200069F8142004F046F809F082FB09F0E6FB9F
:101A300009F04AFB5D485E4901F0D8F85D480FF0B7
:101A4000A9F957482946224604F0A7F9384604F078
:101A500031F802980199224604F09FF9384604F0C3
:101A600029F8632001F07EF801F0F6F8002805D08F
:101A700001F000FD01F0F0F80028F9D104F096F92A
:101A80003049486088608C700220087003B0F0BD57
:101A9000A078012821D100202070A07035A00FF07F
:101AA00079F9672000F094F803B0F0BD01F0E2FC92
:101AB00000F022FB01F0DCF809F0DCFF09F0F2FB9A
:101AC00001F02AFD02F084FA6078012837D1012064
:101AD00020700020607003B0F0BD04F067F9616809
:101AE000401A194DA84206D918A00FF053F9012049
:101AF000207003B0F0BD04F059F9A168401A192113
:101B00004901C731884216D904F050F9A06004F0A9
:101B10004DF96168441A7D20C1002046FEF7EBFDB7
:101B2000AC4202D80521081A00E0002001B21520BD
:101B3000000201F02DFA01F09DFC01F099F803B0CC
:101B4000F0BDC0464C0100208813000054696D654B
:101B50006F75742120566F6C74616E646F207061B4
:101B60007261206F206D6F646F2053746F702E0D43
:101B700000000000436F6E6669726D61646F212022
:101B80005265746F726E616E646F20616F206D6F4D
:101B9000646F20617469766F2E0D0000500900207B
:101BA000000400501870004001000100880D002062
:101BB000C52800083D6A010880B57D20800003F03B
:101BC00079FF02480121417080BDC0464C010020D0
:101BD000F0B583B0044642A00FF0DCF84A484BA1B0
:101BE0000EF0EEFB0025284600F0BCFF01F042FCA1
:101BF0004D4803F05FFF0AF0B1F800286AD0029464
:101C0000414C4A4920460EF0DBFB0120019000F0D8
:101C1000A9FF01F02FFC7D20C6003746C8373846A3
:101C200003F048FF424920460EF0CAFB022000F0B4
:101C300099FF01F01FFC384603F03CFF3D49204668
:101C40000EF0BEFB032000F08DFF01F013FC3046C8
:101C500003F030FFFFF762FC37A120460EF0B0FB27
:101C6000042000F07FFF01F005FC304603F022FF66
:101C70000AF010F809F05CFB36A120460EF0A0FB3C
:101C8000052000F06FFF01F0F5FB6436304603F0ED
:101C900011FF02F05DF8002817D01B4836490EF0FE
:101CA0008FFB062000F05EFF01F0E4FB304603F0FE
:101CB00001FF32480FF06EF8029800F053FF01F078
:101CC000D9FB019D284603B0F0BD3B2000F04AFF40
:101CD00001F0D0FB27480FF05DF8284603B0F0BDB7
:101CE0000D0A3E3E3E20494E494349414E444F2055
:101CF0004155544F444941474E4F535449434F2057
:101D00003C3C3C0D00000000E66901084578696232
:101D1000696E646F204C6F676F2065205665727323
:101D20006F65732E2E2E0000B80B0000C26A0108EA
:101D3000A66A01088F6A010856657269666963615F
:101D40006E646F205465726D6F6D6574726F2E2EA8
:101D50002E00000056657269666963616E646F20CB
:101D60004D656D6F72696120454550524F4D2E2E65
:101D70002E0000001C6A01087C6A0108F86901084D
:101D800080B588B015A00EF01BFB16480EF018FBAE
:101D900007A806A905AA09F085FB002808D005A810
:101DA000037806A8027807A801780FA00EF008FBB8
:101DB00004A803A902AA01AB09F01AFB002808D065
:101DC00002A8037803A8027804A8017811A00EF0F5
:101DD000F7FA1BA00EF0F4FA08B080BD0A0D0A0D48
:101DE00000000000F9120108417373696E61747597
:101DF0007261202020202020202020202020202050
:101E0000253032643A253032643A253032640A0D86
:101E100000000000526573706F6E736176656C2010
:101E20002020202020202020202020202530326447
:101E30002F253032642F253032640A0D0000000057
:101E40000A0D0A0D0A0D0A0D0000000010B586B03B
:101E5000072901D84C482FE0801D891F89B203AAA9
:101E60000B2301F0A9FA002825D003A80078002848
:101E700029D06846002484720481019400940B21C7
:101E800002F064F8002826D069468C7203A8FEF799
:101E9000A2F9002824D003A824A10822FEF7A9F95A
:101EA000002825D023A003A90EF08AFA3E2000F0D6
:101EB00059FE06B010BD12A00EF06CFF3B2000F0E2
:101EC00051FE06B010BD2F480EF064FF3E2000F01A
:101ED00049FE06B010BD3B2000F044FE06B010BD28
:101EE00027480EF057FF172000F03CFE06B010BD4B
:101EF0001AA00EF04FFF2E2000F034FE06B010BDE9
:101F0000417574683A2046616C6861206E6F20707C
:101F1000617273657220726F627573746F20646191
:101F20002073656E68612E0D0000000047484B402D
:101F300031323300417574683A2053656E68612010
:101F4000696E636F72726574612E2044696769748B
:101F500061646F3A20272573270D0A004175746864
:101F60003A20456E7472616E646F206E61207465F4
:101F70006C61206465205365727669636F210D0082
:101F8000BC6B0108D26B0108EF6B010810B584B07F
:101F9000082904D23B2000F0E5FD04B010BD801DEF
:101FA000891F89B201AA0B2301F006FA002816D076
:101FB00001A8FEF709F9002813D0314C2178002937
:101FC00017D000202070641C01A92046FEF703F9F9
:101FD000002820D0402000F0C5FD04B010BD15A0A1
:101FE00000E01EA00EF0D6FE3B2000F0BBFD04B0CA
:101FF00010BD042804D23F2000F0B4FD04B010BD91
:10200000601C01A9FEF702F9012020701F2000F0DA
:10201000A9FD04B010BD204602F0ECF8002804D160
:102020003B2000F09FFD04B010BD172000F09AFD8A
:1020300004B010BD417574683A2046616C68612037
:102040006E6F20706172736572206465206E6F76AA
:10205000612073656E68612E0D0000004175746823
:102060003A204E6F76612073656E68612076617AE2
:10207000696120646573636172746164612E0D002F
:102080008401002080B502A000F01AF880BDC0468F
:102090000D0A434C492050726F6E74612E204469C2
:1020A00067697465202748454C502720706172612C
:1020B00020636F6D616E646F732E0D0A3E20000009
:1020C00083B010B583B0044605A80EC005AB0293DB
:1020D00001200102074822460EF0B2F9012804DB74
:1020E0000146044801AA0AF08BFA03B010BC01BCF7
:1020F00003B00047C8010020F0B581B0594E3078D8
:10210000012800D0ACE058A0FFF7DAFFFEF708F88E
:1021100005460068554C2778C15DC90706D0677829
:10212000C15DC907A41C0029F5D1641E20212046E9
:10213000FEF740F800281AD000210170811C2A689F
:102140004D1E2878135CDB0716D00878135CDB077C
:1021500011D04878135CDB075ED08878135CDB070E
:10216000091D002BECD18D1E002807D007E00025AB
:10217000002F07D16AE00D46002800D105462778D8
:10218000002F63D03A492046FEF749F8002841D095
:1021900039492046FEF743F8364F002840D03749EA
:1021A0002046FEF73CF800283CD035492046FEF793
:1021B00036F8002838D033492046FEF730F800289A
:1021C00034D031492046FEF72AF8002830D02F4974
:1021D0002046FEF724F800282CD02D492046FEF793
:1021E0001EF8002828D02B492046FEF718F80028B2
:1021F00024D029492046FEF712F8002820D027498C
:102200002046FEF70CF800281CD025A02146FFF739
:1022100057FF1BE0174F16E04D1C0028AED0AEE76D
:10222000083710E010370EE018370CE020370AE0CE
:10223000283708E0303706E0383704E0403702E05E
:10224000483700E05037796828468847074880219A
:10225000FDF798FF0020307070803748FFF730FF9F
:1022600001B0F0BDB80000200D0A0000200E0020D3
:10227000C63601080435010895360108BC36010848
:10228000A3360108AB360108AE360108C136010895
:10229000CB360108D03601089B360108B336010859
:1022A000436F6D616E646F20646573636F6E686504
:1022B0006369646F3A20222573222E0070B51B4C8F
:1022C0002178002930D10C2817DC082822D00A28D0
:1022D00017D065887E2D27D80646FDF721FF0068B8
:1022E000805D8006C00E1FD0314612484655681CDE
:1022F000608012A0FFF7E4FE70BD7F280AD00D2891
:10230000E7D1608800280CD00A4900220A54012035
:10231000207070BD6088002806D0401E608004A038
:1023200000E00548FFF7CCFE70BDC046B8000020B5
:1023300008200800200E0020CC350108256300008D
:10234000F0B581B01E4D281D1E49FDF71BFF1E482C
:102350000121009129606121A860E96000272F8296
:102360007F20C00568611948E86119482818194993
:102370001CC91CC00A880280897881708726164C87
:102380002846203021681022FDF707FF30202F5407
:10239000284631300A221149FDF7DBFE284630304D
:1023A000E16A226BC2828182A1692964C7722835E1
:1023B0004034761EE4D10A480099417101B0F0BD65
:1023C000A00E0020D816000073656E68050002009C
:1023D000C8160000B46E01081C130108C46E010881
:1023E00040010020B0B58CB00BA80AA909AA09F0D9
:1023F00059F8044608A807A906AA05AB08F0F8FF93
:10240000002C15D0002813D007A8037808A802785C
:1024100006A800780BA909780AAC247809AD2D78B4
:1024200000AF33C711A005A9FFF74AFE0CB0B0BD3D
:1024300002A0FFF745FE0CB0B0BDC0464572726FFA
:102440003A204E616F20666F6920706F73736976F2
:10245000656C206C6572206120646174612F686F07
:10246000726120646F205254432E000044617461F5
:102470002F486F72613A20257320253032752F2541
:102480003032752F32302530327520253032753A92
:10249000253032753A2530327500000070B50028BD
:1024A00022D004462021FDF785FE002820D00021FF
:1024B0000170861CFDF734FE0168751E28780A5CE1
:1024C000D20718D030780A5CD20713D070780A5C33
:1024D000D2073BD0B0780A5CD207361D002AECD177
:1024E000B51E002809D009E02DA0FFF7E9FD70BD59
:1024F000002503E03546002800D105461A4920464C
:10250000FDF78DFE002817D019492046FDF787FEFC
:10251000164E002815D017492046FDF780FE0028EA
:1025200018D015492046FDF77AFE002817D013A0D1
:102530002146FFF7C5FD70BD0C4E716828468847DF
:1025400070BD083671682846884770BD751C002824
:10255000D3D0D3E7103671682846884770BD183647
:1025600071682846884770BD973601085C350108B8
:10257000043701087C360108083701085375626387
:102580006F6D616E646F204457494E2064657363BC
:102590006F6E68656369646F3A20222573220000BC
:1025A000537562636F6D616E646F204457494E20AE
:1025B00066616C74616E646F2E20557365202748C8
:1025C000454C50272E00000080B586B0684608F0C4
:1025D00055FE0AA0FFF774FD0198FEF778F8024651
:1025E0000CA00B46FFF76CFD0298FEF770F8024650
:1025F0000FA00B46FFF764FD06B080BD4461646F19
:1026000073206465204672657175656E6369613A11
:102610000D0A000020202D2050756C736F73202848
:10262000656D203173293A20252E31660D0A000090
:1026300020202D20457363616C6120412028636157
:102640006C63293A20252E32660D0A0080B586B0CB
:10265000684608F013FE0098FEF739F8024603A01A
:102660000B46FFF72DFD06B080BDC0464461646F88
:10267000732064612042616C616E63613A0D0A20CF
:10268000202D205065736F3A20252E326620670D6D
:102690000A00000080B509F0FDFAFEF718F80246BE
:1026A00002A00B46FFF70CFD80BDC04654656D705F
:1026B0006572617475726120696E7465726E6120F5
:1026C000646F204D43553A20252E326620430D0A73
:1026D0000000000080B582B00348044901AA09F057
:1026E0008FFF02B080BDC046EA0E01080E04000054
:1026F00080B52E2000F0D8FB80BD0000B0B584B0BE
:10270000002825D001A9009119A103AD02AC2A46E9
:102710002346FDF797FD03281FD12878411EC9B233
:102720001E291AD821784A1ED2B20B2A15D801AA1E
:10273000127808F003FF002814D001A8037802A83B
:10274000027803A801781BA0FFF7BAFC04B0B0BD63
:102750002248FFF7B5FC04B0B0BD0948FFF7B0FC54
:1027600004B0B0BD07A0FFF7ABFC04B0B0BDC046DD
:10277000256868752F256868752F256868750000BD
:102780001E3601084572726F3A2046616C686120FE
:10279000616F2073657461722061206461746120CF
:1027A0006E6F20686172647761726520646F205279
:1027B00054432E004F4B2E205254432061747561B8
:1027C0006C697A61646F20706172612025303275A6
:1027D0002F253032752F2530327500000C37010857
:1027E00070B584B0002822D001AE009617A103ADC9
:1027F00002AC2A462346FDF725FD03281CD1287884
:10280000172819D821783B2916D832783B2A13D8B3
:1028100008F0A6FE002814D001A8037802A80278C8
:1028200003A801781AA0FFF74BFC04B070BD224842
:10283000FFF746FC04B070BD0848FFF741FC04B048
:1028400070BD07A0FFF73CFC04B070BD256868753B
:102850003A256868753A256868750000D135010821
:102860004572726F3A2046616C686120616F207317
:1028700065746172206120686F7261206E6F2068DC
:102880006172647761726520646F205254432E0038
:102890004F4B2E2052544320617475616C697A61EC
:1028A000646F207061726120253032753A253032B4
:1028B000753A253032750000D536010880B50BF029
:1028C0007DFA80BD10B5062900D2E0E002785A2AD0
:1028D00000D0DCE04278A52A00D0D8E0C278832A74
:1028E00000D0D4E0427903791B029A18082992B2E9
:1028F00014D300237F4CA2420ED07F4CA2420BD0B7
:102900007E4CA24208D08378DC1C8C4206D8C318C7
:102910009C785B781B021B19794C2380794B9A4277
:1029200014DC844B9A4226DD834B9A424ADD834B6A
:102930009A427FDCC1239B019A4200D191E06F4B08
:102940009A4200D0A3E0FFF721FB10BD6E4B9A42E4
:1029500023DD6E4B9A4243DD6D4B9A4276DC6D4B24
:102960009A4200D185E081231B029A4200D08EE07A
:1029700002F03EF910BD754B9A423FDC19231B0251
:102980009A4200D18CE0744B9A4200D1A2E0594B9C
:102990009A427CD1FFF75AFA10BD624B9A423ADC58
:1029A000634B9A427FD031200002824200D194E0F2
:1029B0008120C00182426AD100205149085E02F0A4
:1029C0005FF810BD4C4B9A4262D05E48824277D08D
:1029D0005D4882425BD14A48008800F0A1FF10BDEB
:1029E0004D4B9A4259D04D4B9A426ED04C4B9A4225
:1029F0004DD1434A128801F0B5F810BD8120800105
:102A0000824255D0524882426AD0524882423ED1D8
:102A100001F01CF910BD05231B039A424BD0424B19
:102A20009A4262D0414B9A4231D1354A128808F01D
:102A3000FDFD10BD424B9A4221D06123DB019A4239
:102A400025D12F4A128801F02BF810BD21208002D9
:102A5000824218D085200002824218D102F07AF812
:102A600010BD27480088411E4842484100F0A0FFA1
:102A700010BD3F493820088000F016FA10BD202014
:102A8000FFF7A6F810BD1E48007801F0CBFC10BD82
:102A90001B4A128808F088FE10BD01F0C9F810BD6D
:102AA000FEF758FF10BD164A128800F0D7FE10BD81
:102AB00001F0CCFF10BD1248008807F0C3F810BD2C
:102AC0000F48008800F0A4FF10BD0D48008800F0FA
:102AD0001DFE10BDFFF770F810BD01F09FF810BD8E
:102AE0000748008800F060FE10BD0548008800F02F
:102AF0002BFE10BD302000000F30000060300000C1
:102B00001C0E00208F3000002F7000008F7000001E
:102B1000FF830000907000003070000060700000C3
:102B200070700000FF4F0000107000002070000067
:102B3000903000000E3000003F3000006F30000089
:102B40007030000020300000303000003F200000D6
:102B50005020000060200000202000000448008871
:102B60007047C04680B50249088000F09DF980BDDD
:102B7000A000002080B5024802F044FE80BDC0469F
:102B80004408002080B5024802F03CFE80BDC046EB
:102B9000A008002080B500680E21016203F006F94C
:102BA0009C49886100208870487080BD10B500681D
:102BB0000B4A904200D010BDF34C60783F22D243C4
:102BC0000B46413B9342F6D3C007F4D16069401CE9
:102BD000606121810120607003F0E8F8E06110BDC0
:102BE00000440040E848002101707047F0B581B012
:102BF0000546E54F0020786138707870B880F8801D
:102C0000B870FD603961B8613C46203440262046EA
:102C10003146FDF7B7FA01200102DC48FDF7B2FAB0
:102C20000C483146FDF7AEFA28462146324606F0FA
:102C3000E0F900280BD0F86806F0A8FAF8684022FE
:102C4000214606F0D6F9002801D001F00DF901B0B7
:102C5000F0BDC04680250020CB480178002901D076
:102C6000012070478188C088081A411E884170473A
:102C7000F0B593B003F09AF8664DA969002908D021
:102C8000A969411A642900D2B1E00021A96101219A
:102C9000A970A978012924D10020A870687003F0D8
:102CA00085F801467F480DF08BFBE86806F06EFA68
:102CB000E8682C4620344022214606F09AF9002884
:102CC00000D194E0E86806F061FAE8684022214605
:102CD00006F08FF9002800D189E001F0C5F813B0A3
:102CE000F0BD6978012900D081E0E969401A142813
:102CF0007DD31C27384603F07FFC0924204603F0CF
:102D00007BFC2A89686901902E46203603A831464B
:102D10000292FDF71EFA002068702881204603F019
:102D20007BFC384603F078FCE8684022314606F028
:102D300060F900280BD0E86806F028FAE86840221D
:102D4000314606F056F9002801D001F08DF803F065
:102D50002DF8014630A0019A029C23460DF030FB6D
:102D6000002C0AD003AC39A6029F217830460DF022
:102D700027FB7F1E641C002FF7D136A00EF00AF847
:102D800003AB987859781A78029F062F13D15A2AE4
:102D900011D1A5290FD103280DD1DC78822C0AD1BD
:102DA0001C794F2C07D15B794B2B04D102F0FEFF2D
:102DB00001463B4818E0042F12D35A2A10D1A52906
:102DC0000ED1C01CC6B2B74213D202F0EFFF0146CB
:102DD00000963248019A3B460DF0F2FA13B0F0BD6E
:102DE00002F0E4FF01461CA0019A0DF0E9FA13B0CD
:102DF000F0BD28690028FAD002F0D8FF0146264825
:102E0000019A0DF0DDFA2A6903A83146904713B004
:102E1000F0BDC046BC0000205B25303130755D2020
:102E20005B4457494E205258202325755D20506140
:102E3000636F746520726563656269646F20286CD6
:102E4000656E3D2575293A20000000002530325876
:102E5000200000000D0000005B25303130755D2042
:102E60005B4457494E205258202325755D202D3E46
:102E7000204552524F3A205061636F746520696E4D
:102E800076616C69646F20646573636172746164F8
:102E90006F2E0D0A00000000E33701083B370108E0
:102EA00087370108B7370108F0B581B004461C2008
:102EB00003F0A2FB0A2003F09FFBE5488188C2884B
:102EC000914207D2C1888288D24389188DB20A2DD7
:102ED00007D24BE08188C288511AFF318DB20A2D8A
:102EE00044D3220A8688DB495A238B558688761C70
:102EF000F6B286808688A5278F558688761CF6B21E
:102F00008680868807278F558688761CF6B286804D
:102F1000868882278F558688761CF6B286808688BA
:102F200000278F558688761CF6B28680868884278F
:102F30008F558688761CF6B2868086888B55838866
:102F40005B1CDBB2838083880126CE5483885B1CA4
:102F5000DBB283808388CA548288521CD2B28280BA
:102F600082888C548188491CC9B281800A2003F070
:102F700053FB1C2003F050FB092D02D8002001B0A8
:102F8000F0BD012001B0F0BDBC000020C025002034
:102F9000F0B581B00C4605461C2003F02DFB0A203D
:102FA00003F02AFBAA488188C288914207D2C188CF
:102FB0008288D24389188EB2082E07D240E08188D9
:102FC000C288511AFF318EB2082E39D3A1B22B0A12
:102FD000090A00918788F7495A22CA558288521CEB
:102FE000D2B282808288A5278F548288521CD2B2A6
:102FF0008280828805278F548288521CD2B28280B8
:10300000828882278F548288521CD2B28280828822
:103010008B548288521CD2B2828082888D548288DE
:10302000521CD2B282808288009B8B548288521CB0
:10303000D2B2828082888C548188491CC9B2818036
:103040000A2003F0E9FA1C2003F0E6FA072E02D862
:10305000002001B0F0BD012001B0F0BDF0B583B09B
:103060000C4605461C2003F0C7FA0A2003F0C4FAF8
:10307000CF488188C288914207D2C1888288D243D2
:1030800089188EB20A2E07D251E08188C288511A5F
:10309000FF318EB20A2E4AD3210A0291210C0191EE
:1030A000210E00912B0A8188C24A5A2757548188E1
:1030B000491CC9B281808188A52757548188491C41
:1030C000C9B281808188072757548188491CC9B2B9
:1030D00081808188822757548188491CC9B28180A8
:1030E000818853548188491CC9B281808188555494
:1030F0008188491CC9B281808188009B5354818892
:10310000491CC9B281808188019B53548188491C24
:10311000C9B281808188029B53548188491CC9B2FD
:103120008180818854548188491CC9B281800A20D9
:1031300003F072FA1C2003F06FFA092E02D8002067
:1031400003B0F0BD012003B0F0BDC046F0B583B0C0
:103150000024002978D00546002875D0E74FF8688C
:10316000002871D00E461C2003F046FA0A2003F016
:1031700043FAB888F98888420AD2F888B988C943DE
:10318000401880B286420AD8012486420AD955E006
:10319000B888F988081AFF3080B28642F4D9002432
:1031A00086424BD802940321304608400190721E9B
:1031B000032A01D2002122E08E430021D04A6B5C19
:1031C000B8881354B888401CC0B2B88068184378D7
:1031D000BC881355BB885B1CDBB2BB808378BC8882
:1031E0001355BB885B1CDBB2BB80C078BB88D05456
:1031F000B888401CC0B2B880091D8E42DFD1019E44
:10320000002E029C1AD0685CBB88BD4AD054B88896
:10321000401CC0B2B880012E10D069184878BB8815
:10322000D054B888401CC0B2B880022E06D088782E
:10323000B9885054B888401CC0B2B8800A2003F046
:10324000EBF91C2003F0E8F9204603B0F0BDC046BE
:10325000BC000020C0250020F0B591B00025002A58
:1032600000D1A2E0002900D19FE01446A34FFA68E4
:10327000002A00D199E0064600910846FCF7A4FF19
:103280000346A04200D323465A1DD1B23D2900D99E
:103290008BE001AC66718221E170A270A5206070A4
:1032A0005A202070300A2071A01D00991A461D4630
:1032B000FCF74FFF2819FF21C17181711C2003F019
:1032C0009BF90A2003F098F9B9880835E8B2FA8822
:1032D00091420BD2F988BA88D243891889B28142C7
:1032E0000BD30122009281420BD257E0B988FA88B1
:1032F000511AFF3189B28142F3D2002200928142F9
:103300004CD303210D40411E032901D2002124E0AA
:10331000FC21084000217A4A01AB5C5CBE889455D0
:10332000BC88641CE4B2BC805B185C78BE88945591
:10333000BC88641CE4B2BC809C78BE889455BC8870
:10334000641CE4B2BC80DB78BC881355BB885B1C72
:10335000DBB2BB80091D8842DED1002D1ED001A842
:10336000425CBB886648C254BA88521CD2B2BA804A
:10337000012D13D001AA52185278BB88C254BA88C2
:10338000521CD2B2BA80022D08D001AA51188978F5
:10339000BA888154B888401CC0B2B8800A2003F0B3
:1033A0003BF91C2003F038F9009D284611B0F0BD10
:1033B000BC000020C0250020F0B583B01C46154697
:1033C0000E46521E29469141421E019090410840EE
:1033D000012E01D8002100E001210140601E274696
:1033E00087410F40012F42D128462146FCF7CAFEF3
:1033F000022C38D3B01EA11E884200D3084602908A
:10340000401C00900122002305E0D01C1B1D121D52
:103410000099884227D00198C6187178FF2922D0D8
:10342000202900D3E954029898421CD0B178FF2992
:1034300019D0202901D3E81841700298824212D095
:10344000F178FF290FD0202901D3E8188170901C52
:103450000099884207D03179FF2904D02029D4D39C
:10346000E818C170D1E72819401E002101703846C4
:1034700003B0F0BD70B5214C207800283CD1A08865
:10348000E188884238D01C2003F0B6F80A2003F007
:10349000B3F82078012806D10A2003F0BDF81C20DB
:1034A00003F0BAF870BD01202070E088A18888423E
:1034B00001D1002511E000211148124AE388C35CC4
:1034C0005354E3885B1CDBB2E380E3884D1CA68881
:1034D000B34202D03F292946F0D30A2003F09CF8DA
:1034E0001C2003F099F8E068AAB2064906F0A6F994
:1034F000002801D00020207070BDC046BC00002014
:10350000C025002080250020D0480121017070488E
:10351000002101707047C046F0B58DB07D20C70016
:103520006B4E3078002805D002F040FC7168401ADC
:10353000B84244D202F03AFCB168401AB84255D3BE
:1035400002F034FCB060FFF709FB352801D03828C1
:103550004AD1FFF781FB002848D1684607F08EFE6C
:1035600067490198FCF7DDFFFDF798F80146654CC7
:1035700020462030FFF772FDB6490298FCF7D1FFD4
:10358000FDF78CF8014620463030FFF767FD707874
:10359000401C7070C0B2052828D30020707008F05D
:1035A00079FB054607F0C4FEAA492846FCF7B9FF97
:1035B000FDF774F801462046FFF7EAFC16E002F03A
:1035C000F5FB70603078401E06286BD8784400798F
:1035D00040008744036A5B615570760002203070BA
:1035E0000E20FFF7BFFAA5E70020707002F0DEFBA7
:1035F000F168401AB84241D302F0D8FBF060FFF7FF
:10360000ADFA014613391E2934D801228A403E49B9
:103610000A422FD00CA80BA90AAA07F043FF0028E2
:103620002CD009A808A907AA06AB07F0E1FE0028DC
:1036300024D0684610214171002101718222C2709C
:103640000B228270A52242705A220270079A827160
:10365000089AC27103224272099A02720C9A82720B
:103660000B9AC27241730A9901730E21FFF76EFD26
:103670000DB0F0BD7728CDD06728CBD00DB0F0BD10
:10368000062030701220FFF76DFA53E704203070E7
:103690001020FFF767FA4DE7052030701120FFF783
:1036A00061FA47E70020307044E7032030700F20B4
:1036B000FFF758FA3EE707203070002000F074F85A
:1036C00038E70020307003A00DF064FB32E7C046FD
:1036D00074010020444953504C41593A20536571BC
:1036E00075656E636961206465206D6564696361F9
:1036F0006F2066696E616C697A6164612E0D0000ED
:103700000AD7233C302200004140004080B50448E5
:1037100004A12022FFF7A0FD3520FFF723FA80BD8A
:103720009640000041646A757374467265717565F0
:103730006E63793A20333030302E304B487A2B2F5D
:103740002D322E300000000010B50A4C002807D0A2
:10375000FEF7F6FD08A110222046FFF77DFD10BD03
:103760000AA11B222046FFF777FD3020FFF7FAF968
:1037700010BDC046964000005072657365742043CA
:103780006F6D706C65746F2100000000507265737E
:103790006574207265646566696E65206F7320616B
:1037A0006A75737465732100F0B591B08849097822
:1037B000012903D1002803D008F07CF811B0F0BD36
:1037C00006AC204600F0ACFB207807AE314600F096
:1037D0008DFB684607F052FD00F0AEFB04461C4D21
:1037E000102228463146FFF737FD2020315E28465B
:1037F000C030FFF7CDFB0A271098784301B2284666
:10380000E030FFF7C5FBF08C784301B22846F0307A
:10381000FFF7BEFB012C01D00F4900E00D490598D0
:10382000FCF77FFEFCF73AFF014690352846FFF78C
:10383000AFFB012C04D07720FFF794F911B0F0BD55
:103840001320FFF78FF911B0F0BDC046A200002091
:1038500070200000000020410000C842B0B594B0C4
:10386000502A1ED101AC00202075059004900390D1
:10387000029001901521204600F01CFB07AD23A10A
:10388000284622460CF0C8FD2846FCF79DFC82B273
:103890001D482946FFF7E0FC2320FFF763F914B029
:1038A000B0BD01AC002222750592049203920292EF
:1038B0000192801D891F89B215232246FFF77CFDE6
:1038C000002814D02078002811D001AC204600F048
:1038D00051FC07AD07A1284622460CF09DFD284665
:1038E000FCF772FC82B208482946FFF7B5FC14B019
:1038F000B0BDC0464E6F766120456D7072657361D4
:103900003A20257300000000964000004174756164
:103910006C20456D70726573613A2025730000005C
:1039200070B58AB0154C502814D100F005FB024642
:103930006D4619A128460CF06FFD2846FCF744FCA3
:1039400082B220462946FFF787FC1B20FFF70AF9C1
:103950000AB070BD054600F035FC6E4608A1304641
:103960002A460CF059FD3046FCF72EFC82B2204668
:103970003146FFF771FC0AB070BDC04696400000AA
:103980004E6F766F204E525F446563696D616C7354
:103990003A20257500000000417475616C204E527C
:1039A0005F446563696D616C733A202575000000A2
:1039B00080B507490870002804D109A10CA00CF0BB
:1039C000FFFC80BD03A10AA00CF0FAFC80BDC0463C
:1039D000A2000020484142494C4954414441000062
:1039E0004445534142494C49544144410000000080
:1039F000446973706C61792048616E646C65723AD9
:103A000020496D7072657373616F2025730D0A0014
:103A100070B58AB0154C502814D100F091FA0246C6
:103A20006D4619A128460CF0F7FC2846FCF7CCFBA4
:103A300082B220462946FFF70FFC1A20FFF792F8C2
:103A40000AB070BD054600F0C9FB6E4608A13046BD
:103A50002A460CF0E1FC3046FCF7B6FB82B2204669
:103A60003146FFF7F9FB0AB070BDC0469640000032
:103A70004E6F766F204E525F52657065746974693F
:103A80006F6E3A2025750000417475616C204E52AE
:103A90005F52657065746974696F6E3A20257500B0
:103AA000B0B594B0502A1ED101AC0020207505900D
:103AB00004900390029001901521204600F06CFACA
:103AC00007AD23A1284622460CF0A6FC2846FCF7A9
:103AD0007BFB82B21D482946FFF7BEFB2220FFF781
:103AE00041F814B0B0BD01AC0022227505920492D9
:103AF000039202920192801D891F89B215232246EA
:103B0000FFF75AFC002814D02078002811D001AC0F
:103B1000204600F0A1FB07AD07A1284622460CF085
:103B20007BFC2846FCF750FB82B208482946FFF789
:103B300093FB14B0B0BDC0464E6F766F20557375C1
:103B40006172696F3A202573000000009640000002
:103B5000417475616C205573756172696F3A2025E7
:103B60007300000070B592B014460D46064605A8D5
:103B70003221FCF707FB002C1BD06C460020207480
:103B80000390029001900090701D691F89B211236B
:103B90002246FFF711FC002825D02078002822D0EB
:103BA00012A06C4621460CF00BFC204600F038FBBE
:103BB0000DE03620FEF7D6FF6C46002020740390FF
:103BC0000290019000901121204600F0D1F905AD3E
:103BD00028462146FCF71AFBFCF7F6FA82B2194890
:103BE0002946FFF739FB12B070BDC04644697370B7
:103BF0006C61792048616E646C65723A205265632D
:103C0000656269646F206E6F766F2073657269619B
:103C10006C3A20272573270A0000000080B5094868
:103C200009490E22FFF718FB2120FEF79BFF80BDFC
:103C300080B5044804490E22FFF70EFB3220FEF740
:103C400091FF80BD96400000AD6B010810B5084C97
:103C50002078002800D010BD06A00DF09BF80120B0
:103C6000207002F0A3F860600D20FEF77BFF10BD0E
:103C700074010020444953504C41593A20496E691F
:103C80006369616E646F2073657175656E636961E8
:103C9000206465206D65646963616F2E2E2E0D00B2
:103CA0000148012101707047B807002070B582B04B
:103CB000684D287803281DD001282CD1A989002916
:103CC00020D028696A692B8900929A187F231340B3
:103CD0008024E61A8E4200D30E46019692B2A021AD
:103CE0000224234602F078FB00280DD00120287121
:103CF00005240FE002F05AF8A969401A05280AD3F2
:103D0000012407E0042405E0686980196861A88936
:103D1000801BA8812C7002B070BDC0464D49087947
:103D2000012801D100220A717047C046494900228A
:103D30000A710A700861704746480078FB2101400B
:103D40004A1E9141401F421E904108407047C046A4
:103D500010B5404C206900281CD0A0210222642309
:103D600002F05EF9002817D02A480DF013F82069F8
:103D700002F066F8052001F09DFE206902F0F6F8D9
:103D80002069A0210222642302F04AF90146404240
:103D9000484110BD002010BD012010BDF0B583B01A
:103DA00004460020002A2FD00E4600292CD01546AC
:103DB00028490A69002A27D07D20C700009601956E
:103DC0000297A02102231046224602F0E5F90028BE
:103DD0001CD010480CF0DEFF1E48006902F030F8DD
:103DE000052001F067FE1B48006902F0BFF8194882
:103DF0000069009601950297A0210223224602F055
:103E0000CBF901464042484103B0F0BD012003B068
:103E1000F0BDC0462D38010870B50E4C2378FB2547
:103E20001D406E426E415B1F5D425D4135434B1E3E
:103E30000E469E412E40551E1346AB413340012B8A
:103E400006D161612081A2810020207101202070B3
:103E5000184670BD1C01002080B5802001F0BAFE1C
:103E6000202001F0B7FE80BD72B6FEE7074800686B
:103E7000406A704780B5054804F0CEFC80BDC0465E
:103E800002480068002141627047C0463C0D002096
:103E900010B54A1E0B469341441E0246A2411A40E9
:103EA000012A04D1DD4B5C69046098690860104602
:103EB00010BDC046B0B54C1EA141421E05469541FD
:103EC0000D40012D07D1B649E14A51182246FCF7B1
:103ED00064F9002101552846B0BDC04680B50028D0
:103EE00003D0DB49904AFCF734F980BD70B5024637
:103EF000872801D3002300E001234C1E0846A0417F
:103F0000184001280AD128235343E04AD21820320E
:103F100038CA38C138CA38C178CA78C170BDC046FD
:103F2000002805D0D9494979872900D3002101709B
:103F3000411E88417047C046D448C08B7047C04678
:103F4000D248808B7047C04687207047B0B54C1E62
:103F5000A141421E054695410D40012D06D1CB4998
:103F600008312246FCF719F9002101552846B0BD59
:103F7000B0B54C1EA141421E054695410D40012D94
:103F800007D1B249C14A51182246FCF706F900216F
:103F900001552846B0BDC046B0B54C1EA141421ED9
:103FA000054695410D40012D07D1B749B74A511833
:103FB0002246FCF7F2F8002101552846B0BDC04664
:103FC000B04900224A710A7108608A608A7170479C
:103FD00070B5FFF76BFE464D287900281DD0A979F2
:103FE000012900D082E0401E072800D97EE0C046AB
:103FF00078440079400087443303454E3C616D5B53
:10400000FFF79AFE002871D1FFF788FE00285FD1E4
:104010004EA00CF0BFFE032467E06879012865D14B
:10402000FFF78AFE002861D101F0C0FEA968401A9E
:10403000314988425AD3002068710126AE71286840
:10404000002806D0374CEC4A214601F0E7F9EC494C
:10405000605047480CF09EFE2E71A879002845D08C
:1040600000203049304AFFF7D7FE002830D0022424
:104070003BE02B482B492C4AFFF7CEFE002827D0E7
:10408000062432E0274928480246FFF7C5FE0028EB
:104090001ED0042429E0FFF74FFE002826D1FFF7A9
:1040A0003DFE002814D121A00CF074FE05241CE074
:1040B00012A00CF06FFE0024AC7116E0FFF73CFE7E
:1040C000002813D1FFF72AFE002801D108240CE0B4
:1040D00007240AE0074808490CF072F90024AC7183
:1040E0000120687101F062FEA8602C7170BDC046AD
:1040F00040010020583801088813000053746F7283
:104100006167652046534D3A2053616C76616D6559
:104110006E746F20636F6D706C65746F2E0D000090
:10412000B82D0000A00E0020DC16000053746F7242
:104130006167652046534D3A20426C6F636F2042A1
:104140004B5031204F4B2E0D0000000053746F7206
:104150006167652046534D3A20426C6F636F205073
:1041600072696D6172696F204F4B2E0D0000000067
:1041700026390108B0B50146002000290ED09B4C1D
:10418000A279002A0AD10648994D28181422FCF772
:1041900004F804480021295401206071B0BDC046D4
:1041A0004C1500005F15000001460020862907D845
:1041B0008E4A9379002B03D1012050718C4A5171A2
:1041C0007047C0460146894A9079002803D10123EF
:1041D0005371874AD1830121484070470146834A81
:1041E0009079002803D101235371814A91830121E1
:1041F00048407047B0B50146002000290DD07B4CE7
:10420000A279002A09D17A4D284608300A22FBF704
:10421000C4FF012060710021A974B0BDA00E002070
:10422000B0B50146002000290ED0704CA279002ABA
:104230000AD178486E4D28181022FBF7AEFF0548CA
:104240000021295401206071B0BDC046C81600008D
:10425000A00E0020D7160000B0B5014600200029AE
:104260000ED0624CA279002A0AD10748604D281866
:104270001422FBF792FF06480021295401206071A7
:10428000B0BDC0464001002038150000A00E00203F
:104290004B150000F0B583B054480068002818D0D2
:1042A0000024534E534F204631463A46FFF776FDE1
:1042B00001210291504A00280ED0514835584B48F0
:1042C0000068314601F0AAF8A8420AD1029803B06A
:1042D000F0BD002003B0F0BD484800210CF070F89C
:1042E00005E00246474800212B460CF069F8404E95
:1042F000384631463A46FFF751FD002813D0404872
:1043000035583A4A1068314616463B4A01F086F85D
:104310000246A8420299084664D03A4835492B46DD
:104320000CF04EF804E0354832490CF049F82F4EB5
:1043300035482F4D29463A46FFF730FD002811D069
:104340002F482B490F5830682B4A01F067F8024676
:10435000B8420299084645D02A482B493B460CF002
:104360002FF803E0254828490CF02AF8281D244995
:10437000FBF708FF25480121019129606121A86010
:10438000E9602C827F20C00568612148E8612148EE
:10439000281821494CC94CC00A880280897881704C
:1043A00087271E4E2846203031681022FBF7F5FE85
:1043B00030202C54284631300A221949FBF7C9FE17
:1043C00028463030F16A326BC2828182B169296439
:1043D000C472283540367F1EE4D1044E01987071B6
:1043E00020460299717103B0F0BDC0464001002023
:1043F000A00E0020DC160000B6050000A038010861
:10440000D8160000D6380108B82D000073656E6814
:1044100005000200C8160000B46E01081C13010854
:10442000C46E0108F0B581B0FB4949780A224A43BD
:1044300080181949401880B2EE4F7978884228D206
:10444000400038180421445E144821460BF0B8FFA0
:104450007C8000263E70E0B2FFF7A6FE10480CF00C
:1044600099FC01243C706D462E702846FFF758FDDC
:10447000287878800BF000FF6620FEF715FD7E702F
:10448000E548447004708520000206492246FEF784
:10449000E3FE01B0F0BDC046F6FF0000A16D0108CB
:1044A000706E01082E600108F0B58FB00646D14C41
:1044B00000276770FFF748FD0546002E009069D081
:1044C0003078002866D0002D00D149E1029603E043
:1044D0007F1CAF4200D143E1F8B205A9FFF706FD0A
:1044E0000028F5D0317805A803910029014600D0B5
:1044F00000210078002831D00197354605AE06E04E
:10450000049D6D1C01467078761C00282FD02F78F2
:10451000002F27D004950D46FBF715FE04463846BC
:10452000FBF711FE844204D1002D3046E8D0284626
:10453000E6E7002D00D06E1C3078FBF704FE07463E
:104540000398FBF700FE8742314600D000218742E6
:1045500001D0029DD7E70298451CD4E703980006D6
:104560000CD10CE0A34C009D029E019F07E028782F
:10457000A04C009D029E019F000600D00021002952
:10458000A6D060781328A3D8411C61704000201881
:1045900087809DE76178002D00D1E5E0132900D9DF
:1045A000E2E04800201800228280481C022D00D240
:1045B000F6E0122900D9F3E04000201801228280A1
:1045C000881C032D00D2EBE0112900D9E8E040005F
:1045D000201802228280C81C042D00D2E0E010299D
:1045E00000D9DDE04000201803228280081D052D3F
:1045F00000D2D5E00F2900D9D2E0400020180422D3
:104600008280481D062D00D2CAE00E2900D9C7E0DD
:104610004000201805228280881D072D00D2BFE0AF
:104620000D2900D9BCE04000201806228280C81D58
:10463000082D00D2B4E00C2900D9B1E040002018C8
:104640000722828008460830092D00D2A8E00B29F5
:1046500000D9A5E0400020180822828008460930D1
:104660000A2D00D29CE00A2900D999E040002018C8
:104670000922828008460A300B2D00D290E00929D9
:1046800000D98DE0400020180A22828008460B30B5
:104690000C2D00D284E0082900D981E040002018C8
:1046A0000B22828008460C300D2D79D3072977D84C
:1046B000400020180C22828008460D300E2D6ED34B
:1046C00006296CD840004B4A10180D2282800846FB
:1046D0000E30009A0F2A62D3052960D84000454A5F
:1046E00010180E22828008460F30009A102A56D3E6
:1046F000042954D840003F4A10180F22828010220B
:1047000008461043009B112B49D3032947D8430087
:10471000384CE3189A800A461132009B122B67D35B
:10472000122865D85000334A10181122828008469A
:104730001230009A132A33D3012931D840002D4A70
:1047400010181222828008461330009A142A27D3A8
:10475000002925D1400020181321818014201FE05A
:10476000607800281DD102E00846002819D12248AF
:1047700031460BF025FE3C20FEF796FB1F4820A19A
:104780001822FEF769FDFEF767FA002805D0FEF74C
:1047900071FEFEF761FA0028F9D10FB0F0BD154C9B
:1047A0006070E94901224A70401EC0B2CD234343E4
:1047B000D80A431C0B7005AC184920460BF02CFEA0
:1047C0002046FBF701FD8521090282B208462146F9
:1047D000FEF742FDFEF740FA002805D0FEF74AFE3C
:1047E000FEF73AFA0028F9D100F01AF80FB0F0BD40
:1047F0001046D5E79C0100202B6E01089640000072
:104800004E656E68756D206772616F20656E636FAF
:104810006E747261646F21002C000020AD6E01087F
:10482000F0B58BB0E54840780A214143844FCE195A
:104830003046083880B2FB4D6978824C88420DD2F0
:1048400040002818007901A9FFF750FB00280CD080
:104850002046203880B201A9102204E020462038EA
:1048600080B2BA490122FEF7F7FCF01F80B26978E6
:1048700088420AD240002818007901A9FFF736FBC8
:10488000002807D001A9102201E0B04901222046EA
:10489000FEF7E2FCB01F3840697888420DD2400034
:1048A0002818007901A9FFF721FB00280CD0204629
:1048B000203080B201A9102204E02046203080B2CE
:1048C000A2490122FEF7C8FC701F80B269788842B5
:1048D0000DD240002818007901A9FFF707FB002836
:1048E0000CD02046403080B201A9102204E02046BE
:1048F000403080B295490122FEF7AEFC301F3840AF
:10490000697888420CD240002818007901A9FFF785
:10491000EDFA00280AD06034A0B201A9102203E009
:104920006034A0B289490122FEF796FCF01E80B2E5
:104930006978454C88420DD240002818007901A9B9
:10494000FFF7D4FA00280CD02046203880B201A905
:10495000102204E02046203880B27C490122FEF774
:104960007BFCB01E3840697888420AD24000281883
:10497000007901A9FFF7BAFA002807D001A910228F
:1049800001E0724901222046FEF766FC701E80B2EB
:10499000697888420DD240002818007901A9FFF7F4
:1049A000A5FA00280CD02046203080B201A91022A0
:1049B00004E02046203080B264490122FEF74CFC1E
:1049C0003740687887420DD278002818007901A90D
:1049D000FFF78CFA00280CD02046403080B201A9A5
:1049E000102204E02046403080B258490122FEF7F0
:1049F00033FC701C80B2697888420CD240002818C1
:104A0000007901A9FFF772FA00280AD06034A0B239
:104A100001A9102203E06034A0B24C490122FEF744
:104A20001BFC6520FEF740FAFEF716F9002805D0BA
:104A3000FEF720FDFEF710F90028F9D10BB0F0BD0C
:104A4000FEFF00002082000020830000B0B582B08D
:104A50000A480CF09FF9734D0120287001AC00202A
:104A600020702046FFF75CFA207868800BF004FC89
:104A70006620FEF719FA02B0B0BDC046706E01089C
:104A8000B0B50446234D2878012841D1FFF75CFAE0
:104A900000283DD0611E05293AD8C04679440979DD
:104AA00049008F4402190E3535240220295E28481A
:104AB0000BF086FC00242C70A878FFF775FB6C7057
:104AC0001AE06988491E0AB2002A00D5411E698091
:104AD00008B20BF0D1FBB0BD6988491C0AB2824212
:104AE000F5DB0021698008B20BF0C6FBB0BD0AA05F
:104AF0000CF050F9002028803048012242700270EA
:104B0000852000021149FEF7A7FB6720FEF7CCF9CC
:104B1000B0BDC0469C0100204772616F735F486161
:104B20006E646C65723A2053656C6563616F202812
:104B3000766961207365746173292063616E6365B2
:104B40006C6164612E0D00002C0000202E600108B5
:104B5000E46D0108B0B582B0184D2C78022C2AD330
:104B600017480078012826D168782146FBF7C3FD55
:104B7000491C697013A022460BF022FC6A782B783E
:104B80006C461A4920460BF047FC2046FBF71CFBFD
:104B90008521090282B208462146FEF75DFBFEF739
:104BA0005BF8002805D0FEF765FCFEF755F80028F5
:104BB000F9D1FFF735FE02B0B0BDC0462C00002091
:104BC0009C010020506167696E6163616F3A204DFE
:104BD0007564616E646F20706172612070616769D5
:104BE0006E612025642F25640D0A0000AD6E01085A
:104BF00080B586B00B4A1278012A10D1801D891F1A
:104C000089B201AA1123FEF7D7FB002804D001A81E
:104C1000FFF74AFC06B080BD03A00CF0BBF806B05D
:104C200080BDC0469C01002046616C686120616FB8
:104C3000206578747261697220746578746F20647D
:104C40006120706573717569736120646F20706194
:104C5000796C6F6164204457494E2E0D00000000AE
:104C6000F0B587B0002506955422825C012A03D155
:104C70000224204607B0F0BD0646543601243470A5
:104C8000026893685B0714D407694B68022B18D13C
:104C900004200743994887426DD19748C0430B6869
:104CA000D9430143906A084090620024002B66D4E7
:104CB000D2E0816D20220A4382653570204607B01C
:104CC000F0BD059304231F438C4CA74262D10F68AB
:104CD0003846894B1840936A0343936238025369FC
:104CE0008343896801408648084018435061002486
:104CF000002F00D4B0E003208205824803681946E3
:104D000011403846804F0490B84200D096E07A4F68
:104D10007F1CB94200D391E07A480368934319435A
:104D2000754A5118491C0160794800687949FBF7B8
:104D3000E2FC0C214143481C06900698002800D153
:104D40008AE00698401E06900698002800D183E06D
:104D50000698401E0690069800287DD00698401EB2
:104D600006900698002877D00698401E0690069870
:104D70000028E6D170E00B680024002B6CD5FA48BF
:104D80000168624A93426BD05F4A934264D1012228
:104D9000920567E01F27059C27400F240094039786
:104DA000BC40076E0194A74302970C68524F3C42E7
:104DB000049462D0E4072F4667D1049FBC075FD4F8
:104DC0007C075FD43C075FD4FC061F465DD4049C7F
:104DD000A30671D4630671D4230671D4E30571D49C
:104DE000049B9B0570D4049B5B056FD4049B1B053F
:104DF0006ED4049BDB046DD4049B9B046CD4049B95
:104E00005B046BD4049B1B04009F3ED4049BDB0318
:104E100066D4049B9B0365D4049B5B0364D4049B0E
:104E20001B0363D4049BDB0262D4049B9B0261D40A
:104E3000049B5B02DB1716271F4026E0334F0498C4
:104E4000B84209D10127BF053B4005D1C6480368D8
:104E50009343194339430BE03570204607B0F0BD4A
:104E6000254A521C114003229205036893435918A6
:104E700001603570204607B0F0BD6300DF0E04E02E
:104E8000012702E0022700E00327039CA740029BC2
:104E90001F430766059B9B08C06998420AD9019881
:104EA000C043936A0340049FB800000FA04018431A
:104EB000906213E7049F11E70527E6E70627E4E77A
:104EC0000727E2E70827E0E70927DEE70A27DCE70C
:104ED0000B27DAE70C27D8E70D27D6E70E27D4E70C
:104EE0001027D2E71127D0E71227CEE71327CCE708
:104EF0001427CAE71527C8E7FFFF7F0004000080DA
:104F000000FFFF7F08270140000200A4000400A862
:104F100030000020400D03000068006C7047000066
:104F2000F0B589B0044600200890002C76D0079098
:104F3000A06D002807D125465435204600F016F90B
:104F400000202870E06501273D072668B068C00092
:104F500026D4B0687F4901402943B1607E4800688B
:104F60007E49FBF7C8FB400008900898002817D03E
:104F70000898401E08900898002811D00898401EF4
:104F80000890089800280BD00898401E08900898B0
:104F9000002805D00898401E089008980028E7D1FE
:104FA000B068284208D1A06D10210143A165E06DD1
:104FB000012107910843E065B06804210140A26D1A
:104FC000102002405118A16D2BD106900F20C7432D
:104FD0003A46F33A1140891CA165B168C9077DD1F1
:104FE0000390049727462037216B4A1E91410D03F9
:104FF000A168227E92030A43617EC9031143A27E07
:1050000050030843E36803432B430120C50721698C
:1050100000290590029509DAA94308E0012009B0AA
:10502000F0BD0143A165384609B0F0BD41050B4311
:10503000387B45001D433878012809D1002A11D05A
:10504000A06D20210143A165E06D05990843E0654D
:10505000626A002A0CD0072080010240A16A114335
:10506000294306E0059800040543626A002AF2D14C
:105070002946F0683A4A02400A43F2600320820758
:1050800063681D461540E16C387F01280ED1206C05
:105090000090676CA06C019000980743019807434B
:1050A0002F430F43059807433D4600E00D43049FFF
:1050B00030692C49014029433161029883420399A8
:1050C0000CD093420AD005988007834206D088040A
:1050D000034025490A688243D01808607069072296
:1050E0009043656B28437061706970218843A16BA0
:1050F000090101437161216901235805814203D0EF
:1051000000290BD1B06A07E0B06AE06980001C306A
:105110001C2101408F40206E3843B06270691040FE
:10512000A8420AD10020E065A06D012101430220C0
:105130008143A165079809B0F0BDA06D06990843A9
:1051400002218843A065E06D1843E065184609B068
:10515000F0BDC046E8FFFF6F30000020400D0300A7
:105160000102DEFF02FCFF1F0827014080B58AB064
:1051700000210991089107910691059104910391ED
:1051800000680D49884201D00AB080BD20200290FD
:1051900002A802F011FC002801D0FEF765FE0120F4
:1051A000000506490A6802430A6009680140019146
:1051B00001980AB080BDC046002401404010024062
:1051C000F0B581B00D4604464069082801D1082792
:1051D00004E02068C068C0073FD1042700F0E6FD66
:1051E00006462168086838421CD001204202A36D9F
:1051F0001343A365CA681205920F4AD1A27E002A02
:1052000047D10A68120744D58A68520738D4224623
:1052100058324B680C25AB434B60FF2502351368B1
:10522000AB4334E0002D1FD0681C10D10868384211
:10523000DBD108683842D8D108683842D5D108682F
:105240003842F3D0D1E7216808683842CDD100F068
:10525000ADFD801BA842F6D908E0A06D20210143D6
:10526000A165012001B0F0BD00F0A0FD5420002197
:105270002154A06D04210143A165032001B0F0BDBC
:10528000A26D20231343A36522465C32E36D0343E2
:105290001360227E0020002A01D001B0F0BD0C2254
:1052A0000A6001B0F0BD000070B501460068826878
:1052B0000220520711D454228A5C012A0DD00C46D8
:1052C00054340120054620700E460846FBF74CFF7B
:1052D000002803D000202070284670BDB06D094919
:1052E0000140012000020818B0650020F065316817
:1052F0001C220A6020708A68304B13401A1D8A6095
:1053000070BDC046FEF0FFFFF0B581B004465420EA
:10531000205C012802D1022001B0F0BD264654369F
:10532000012737702068816849071FD48168826827
:10533000D20737D00222114034D1816805220A40B9
:10534000012A27D181681D4A0A40911C81600321EE
:10535000016000F02BFD054620688068C00721D061
:1053600000F024FD401B0328F6D313E08168890771
:1053700004D48168114A0A401032826000F016FDA0
:105380000546206881684907D0D500F00FFD401B15
:105390000328F6D3A06D10210143A165E16D5C34B3
:1053A000384605E0FF200230A16D814358340020CB
:1053B000002232703943216001B0F0BDE8FFFF7F69
:1053C00070B503460120CC0720D0114C0C40651E5F
:1053D000AC4103261546F541032D17D87D442D79A0
:1053E0006D00AF440B0105090B4C0C400ED105E0DC
:1053F000084C0C400AD101E0002C07D1186841612B
:1054000081681823994311438160002070BDC04614
:1054100080FFFF7F00FFFF7F0000FF7FF0B584B0BB
:105420000E46022141770468A16801252943A16045
:10543000016A01291ED002290ED0032928D1002A91
:1054400000D103E10395032511462940042A00D326
:10545000D2E033460025DEE057081ED00395032135
:105460003B460B4000937B1E032B029601971AD2FA
:10547000002133E0970814D00395032339461940DF
:105480000091791E03290296019349D200257AE002
:1054900000214577084604B0F0BD0021D2073CD179
:1054A000D4E000219EE08F43002135466B882E8892
:1054B0003604F3182360EB88AE883604F3182360B3
:1054C0006B892E893604F3182360EB89AE89360484
:1054D000F31823601035091D8F42E7D1009F002F7C
:1054E000029E14D08B00F1184D88F35A1B045B19EF
:1054F0002360012F0BD0CB888D882D04EB182360FF
:10550000022F04D04B8909890904C9182160019927
:105510008900039DD20700D198E0715A218095E05F
:105520009F43002531460E7836064B781B049B19A5
:105530008E7836029B19CE789B1923600B791B0657
:105540004E793604F3188E7936029B19CE799B1961
:1055500023600B7A1B064E7A3604F3188E7A3602D5
:105560009B19CE7A9B1923600B7B1B064E7B36045E
:10557000F3188E7B36029B19CE7B9B19236010316A
:105580002D1DAF42CFD1009F002F029E26D0A90033
:10559000735C1B0671184D782D04EB188D782D0265
:1055A0005B19CD785B192360012F17D00B791B068F
:1055B0004D792D04EB188D792D025B19CD795B198E
:1055C0002360022F0AD00B7A1B064D7A2D04EB18AC
:1055D0008D7A2D025B19C97A591821601146019BF9
:1055E0009943039D03231A407A4412795200974449
:1055F0002C011C24715C27E0AA4300253346376840
:10560000276077682760B7682760F76827601036DB
:105610002D1DAA42F3D1002905D0AA001D469B5892
:105620002360012917D1039D10E072185278715C34
:10563000090289182180046808E072185378715CA7
:105640000902C91821809178217004682168457782
:10565000084604B0F0BDAA18536823600229039DD0
:10566000F4D091682160F1E7B0B50125002814D08D
:105670000446407F002804D100202077204600F017
:1056800031F8022060772079002808D0A168E2680C
:105690002046FFF795FE002808D02846B0BD2068B8
:1056A0000F4941618168182291438160002560792A
:1056B000002801D0216900E0E94320680161816888
:1056C0006022914362690A4382608168802291432B
:1056D000A2690A438260012060772846B0BDC046B7
:1056E000B71DC10481B000680849884201D001B0EB
:1056F00070470120000306490A6802430A600968EE
:1057000001400091009801B07047C046003002404F
:105710003810024070B500282CD0014624314A7858
:10572000022A29D1046822680E239A432260426C1F
:105730001568314B1D401560256801229543256091
:10574000046C1C2525401446AC40D94D2E682643D8
:105750002E60846CC56C6560046D002C05D02568D6
:105760001D402560436D806D58604A700020002206
:105770000A7070BD012070BD0422C26301200022A6
:105780000A7070BD70B524210124445401462431AF
:105790004A78022A2BD103681A680E24A2431A60A1
:1057A0001C68012294431C60446C2568124B1D4008
:1057B0002560046C1C2525401446AC40BC4D2E6869
:1057C00026432E60846CC56C6560046D002C05D08A
:1057D00025681D402560436D846D5C6000240C705D
:1057E0004A70816B002900D08847204670BD042193
:1057F000C163204670BDC046FFFEFFFF2521405C0F
:1058000070470000F0B585B0016C1C240C400423E7
:105810001946A140A64A121F15680A4603952A4058
:1058200056425641049005682A6817461F40784240
:105830007841304332D00295012102261046304093
:1058400047424741A640039B1E420D46019400D0AB
:105850003946049F3C462434002931D008200240B8
:10586000564256410198C340180700D53546002DD1
:1058700024D1029A10680E2188431060012001464D
:10588000019A91408A4B1A680A431A60F863002112
:1058900021706070796B00290ED10FE028688006B6
:1058A00002D4286898432860814A10680843106031
:1058B000049F396B002901D03846884705B0F0BDF8
:1058C000029A1068800605D410680A218843106087
:1058D000012060700020207075490868304308601E
:1058E000F96A0029E8D1E9E7F0B587B000284AD085
:1058F0000446014624310220069148702768386822
:10590000344901403960344E30468030A064334819
:10591000381814252946FAF7EEFE80008119206414
:1059200005916164FC20384008382946FAF7E3FE07
:105930001C22024001210B469340E364A0680490BE
:10594000E5682646103645CE0196E6690296266A37
:10595000039628431043019A10430E4602990843C8
:105960000399084339680143049A11433960B1032C
:105970001B488A420AD1002205990A6062600360CE
:10598000154613461BE0012007B0F0BD6168CFB299
:10599000059A17600360491E002203291546134625
:1059A0000DD8791E8A0082180023D36703250D4085
:1059B0003346AB400B490B607C32BC3005460020BF
:1059C000E06322656565A365069908704E7007B0AF
:1059D000F0BDC0460F80FFFF00080240F8FFFDBF8A
:1059E0008408024044090240F0B583B004462420F4
:1059F000205C012802D1022003B0F0BD25462435E9
:105A00006878012830D10092022068700020E0639D
:105A10002668326801270297BA433260A26CE76CAD
:105A20005760226D0192002A02D0626DA76D576007
:105A3000226C1C271740029ABA401D4F3F6817433B
:105A40001B4A17607360A368102B009F3A4600D072
:105A50000A46B260102B00D03946F1603168226BE3
:105A6000002A06D00E2209E002200021297003B08E
:105A7000F0BD04229143316032680A211143316044
:105A800002990902626C1368DB0302D513680B43A9
:105A90001360019B002B02D01A680A431A60316818
:105AA000029A114331600021297003B0F0BDC04655
:105AB00004000240B0B5044600F078F90546601CC9
:105AC00002D004480078241800F070F9401BA0426E
:105AD000FAD3B0BD08000020F0B58AB003900029C9
