:020000040800F2
:10000000004F0020D5000008A9B00008E99C0008B6
:1000100000000000000000000000000000000000E0
:10002000000000000000000000000000B1B7000860
:10003000000000000000000051B1000845B80008B1
:10004000E7000008E7000008E7000008E7000008F4
:10005000E7000008E7000008E7000008553B00083B
:1000600081CB00081D2700082D270008E7000008A5
:10007000E7000008E7000008E7000008E7000008C4
:10008000E7000008000000000000000015B90008AB
:1000900000000000E7000008E7000008ED9C0008F1
:1000A000E7000008E7000008E7000008E700000894
:1000B00019C300080000000000000000000000005C
:1000C0000348854600F068FE004800479D0001088F
:1000D000004F00200448804704480047FEE7FEE741
:1000E000FEE7FEE7FEE7FEE705B90008C1000008ED
:1000F00030B5434351435C18010C130C0D465D436E
:100100002C1980B292B20546554351430A0C09049A
:100110004D1962415843010C00044019514130BD52
:1001200000487047900B010810B50446FFF7F8FF30
:100130000068005DC007C00F10BD01466139192974
:1001400000D82038704701464139192900D820309D
:10015000704703460B439B0703D009E008C9121FF1
:1001600008C0042AFAD203E00B780370401C491C33
:10017000521EF9D27047D2B201E00270401C491EF3
:10018000FBD270470022F6E710B513460A46044634
:100190001946FFF7F0FF204610BD10B5044605E0F4
:1001A0000B780370401C002B00D0491C521EF7D264
:1001B000204610BDCAB2401E4178401C8A4202D07F
:1001C0000029F9D100207047421C0178401C002909
:1001D000FBD1801A704710B5002200E0521C835CEE
:1001E0008C5CA34201D1002BF8D1D8B2E1B2401A05
:1001F00010BD30B504460020034600E05B1C93426E
:1002000003D2E05CCD5C401BF8D030BD03460A78D9
:100210000270401C491C002AF9D118467047F8B5F5
:100220000E460546002400E0641C285DFFF78BFFA6
:100230000746305DFFF787FF381A02D1295D002994
:10024000F2D1F8BD0FB400B58DB009900B9010A994
:1002500000200091C0430A9000200C9006480690B0
:10026000064807906A4609A80F9900F0A9FA0DB050
:1002700008BC04B018470000E107000801080008A6
:10028000FFB50027FF4383B000205C6801909E68A3
:100290001D46A9697F1C049888470090296A8847F1
:1002A0000028F6D10098401C0CD003204002844363
:1002B000002E19DD600614D500982B2809D02D28B2
:1002C0000FD103E00020C04307B0F0BD0120800241
:1002D0000443A9697F1C04988847761E0090002E6D
:1002E00002DD0098302803D00598002825D035E09D
:1002F000012040020443A969761E7F1C04988847A8
:100300000090002E03DD782805D0582803D00598EA
:10031000002810D022E00598002801D010281DD117
:10032000012040028443A969761E7F1C04988847F7
:100330000090102002E0082000E00A2005900DE067
:10034000012149020C43059A0199761E5143081870
:100350000190A9697F1C049888470090002E05DD54
:100360000599009800F016FA0028E9DAE96904987E
:100370008847A00502D40120C043A5E7E00722D1A9
:10038000600611D56005019800D5404229680A1D14
:100390002A600968220501D5087014E0220701D5FA
:1003A000088010E008600EE02868011D29600068E0
:1003B000210502D50199017005E02107019901D5B8
:1003C000018000E0016038467EE70000F7B5009C40
:1003D0000F4600262578641C002D05D0FFF7A0FEEF
:1003E0000068405DC007F5D12B2D02D02D2D18D00F
:1003F000641E39462046029A00F014FA002F04D0F9
:100400003968A14201D1009939607105022400299F
:100410000BDA4042002803DD0FF0EEFE0460A00777
:10042000FEBD012080020643E3E70028F8DA0FF062
:10043000E3FE04600048FEBDFFFFFF7F70B5064687
:100440000FF0DAFE046805460A2200213046FFF765
:10045000BDFF2C6070BD70B506460FF0CDFE046880
:1004600005460A2200213046FFF7B0FF2C6070BD20
:10047000F8B502464A40D40F42004B0052085B08D0
:100480009A4202D20246084611464A0023D0C30DC2
:100490004A00DDB2120EAD1A202D35DA49020126CE
:1004A000490AF6058A19002C00D0524220214F1B20
:1004B0001146B9402A411018C20D9A4221D0002C91
:1004C00017D0012D08DCDA05801AD20F8019D20767
:1004D000DBB200F002FAF8BDDA05801A0123400011
:1004E0001B06C01880185A428018CA0F10434900D2
:1004F00007E04908C2071143DA05801A801940084D
:10050000801800F0E2F9F8BD61000122511A001BC9
:10051000F7E70122D2075140AAE70122D207504053
:10052000A6E7024670B54A40D30FDB0740002DD046
:100530004A002AD0010E140E000212020919400AC4
:10054000520A8418E50104465443000A120A2E0494
:100550005043A4194219200CC543AA18120C0125B6
:10056000AD03521C521912047F39240400D0521CCE
:10057000104301D44000491EC2B20C06C009201825
:10058000401C4008802A02D003E0002070BD4008D3
:100590004000002900DA0020184370BD70B5024603
:1005A0004A40D50F40004A00ED0740085208002895
:1005B00014D0002A12D0C40DD30D41020120C00571
:1005C0005202490A520AE41A091812187D3491425B
:1005D00001D3641C00E04900002C01DA002070BD4A
:1005E0000023914201D3891A03434008490000289F
:1005F000F7D100290AD0914202D10121C90705E0B3
:10060000914201D2012101E00121C943E005C01856
:10061000401900F05AF970BD0122D207002800DB12
:10062000101A002900DB511A814201D201207047C3
:10063000002070470122D207002800DB101A002991
:1006400000DB511A814201D9012070470020704718
:10065000C217C10F504010B54018CA079623002199
:1006600000F03BF910BD10B500229623114600F0B2
:1006700034F910BD0EB5C217C10F5040CA0740185B
:100680000021054B0293019200910A460B4600F0AF
:100690006AF903B000BD000033040000C20F41003E
:1006A00040020123400ADB05D207090EC0187F294A
:1006B00001DA00207047962903DC9623591AC840B6
:1006C00001E096398840002AF4D040427047C20FBA
:1006D000D207400040080BD0C10D0723DB01C91829
:1006E00040020905400A1143C20840071143704700
:1006F00000200146704770B50446002903D0002051
:100700002022012310E0002801D00020C043C04671
:10071000C0460DE02546D5408D4205D30D46954097
:10072000641B1D46954040191546521E002DF1DCF4
:10073000214670BDF0B51FB40646002082B00546C4
:100740004024019100901BE0019922460F4630465B
:1007500000F04AFB049A059B801A994110D3104679
:100760001946224600F030FB361A8F410197224687
:1007700001200021009F00F027FB38184D41009018
:100780002046641E0028DFDC019B00982946324683
:1007900007B0F0BD3A2800D23038202302469A43F1
:1007A000412A01D310463738884201D30020C04384
:1007B00070470000026813785118016018467047AE
:1007C00010B5D160044951610449116200211161E1
:1007D000114600F02DFB10BDB507000829010008E7
:1007E0004268002A08D001680B78491C002B03D00E
:1007F000521E06C0184670470121C160881E70470E
:100800004268002A0BD0C3680168002B07D18368B7
:100810008B4204D0491E521C06C0002070470020A5
:10082000C0437047F7B582B0029C00272078641C53
:1008300015460197302802D0002D15D015E02078FC
:100840000127641C782804D0582802D0002D09D034
:100850000BE0002D01D0102D07D1002710252078A6
:10086000641C02E0082500E00A250026009610E03E
:100870000099012769430818020C294680B2714388
:1008800000908E183804864201D301200190207810
:10089000641C2946FFF77EFF0028E9DA0398002848
:1008A00005D0002F01D0641E00E0029C0460019876
:1008B000002806D00FF0A0FC02210160C81E05B080
:1008C000F0BD009930040843F9E7002904DA401C20
:1008D000490001D140084000704770B40024050C65
:1008E00005D11024000402D1002921D01124050EC5
:1008F00001D100020834050F01D10001241D850F2C
:1009000001D18000A41C002801DB4000641C0029E8
:1009100008D020252E1B0D46F540A14000D0012116
:100920002943084301061B1B000ADB1D02D50020DA
:1009300070BC7047DB05181880180029F8DA401CD5
:100940004900F5D170BC40084000704710B5002B3D
:1009500008DA0024401C614192185B411A4301D11E
:100960004008400010BDF0B51FB482B005460C0031
:1009700003D008460FF028FC02E00FF025FC2030E1
:10098000024600902146284600F01EFA049B059A74
:1009900004460F4618431143084314D01846104329
:1009A0001BD0009840210A1A1846059900F01CFA3D
:1009B00005460E46009A0599049800F005FA08438A
:1009C00005D0012004E02046394607B0F0BD0020E4
:1009D000C11705430E432C43374300990E98630516
:1009E000401A7905E40A00220C43FD0A0A3002D5B8
:1009F00000200146E9E70105101969410C9C0D9D95
:100A000000196941FFF7A2FFDFE70000F0B50746D4
:100A10000846584087B0C00F049048000E46590061
:100A200040084908BC1A884105D2384631461E465E
:100A300017460B4602465800400810434CD0300D74
:100A4000039040055900400D490D0590401A029051
:100A5000402872DA18030121000B090508430190B0
:100A600004980092002805D0019952420020884144
:100A700000920190029840210A1A0199009800F012
:100A8000A3F905460C466B4607CB00F0BEF9C0192A
:100A90007141039A0E0D0023D71756401A467A402B
:100AA000164344D0049A002A2DD0029A012A039AB0
:100AB00015DC1205C01A914101263605001C714152
:100AC000D20F059ED2070093019202962A46234632
:100AD000FFF749FF07B0F0BD38463146FAE7160583
:100AE000224A0F46B218C01AB74101210905001C5D
:100AF0004F4100187F41114618187941E20F104309
:100B00006D19644113E0E2076D0815436408C207DC
:100B10001443039A01261205C01A91413605001CA0
:100B20007141CE07400830434908C01851412A4658
:100B30002346FFF70BFFCDE7FFE7049801224000B3
:100B4000C117121A00238B4104983146C417381A72
:100B5000A141EEE730B40124E407634030BC55E71F
:100B600030B40124E407614030BC4FE70000E0FFEF
:100B7000F0B51FB488B00B99099800244840099932
:100B8000C00F490049080991C0070B99009049001E
:100B900049080B9109990898A64608431CD00B995F
:100BA0000A98084318D0099801244000420D4800D3
:100BB000410D099824050003000B204309900B9870
:100BC0000003000B20430B9050181C4940180022D2
:100BD00001901446104605E0002001460DB0F0BD1E
:100BE000032801DA034600E003239C46C11A0AAE3B
:100BF0000AE05F0008ADED5B4F00F75B7D43002727
:100C0000AA187C41491C5B1E6145F2DD410004AB22
:100C10005A522104120C0A43240C401C0828DFDB22
:100C2000019802900099704601910090059B049AEA
:100C300007990698FFF797FED0E700000DFCFFFF2D
:100C4000F0B50C465C4085B0E40FE40703944C001B
:100C50000026640859009446490802460296224339
:100C600021D062460A431ED06200570D4A000E038F
:100C70002303550D012402462C492405781B1B0B28
:100C8000360B401823432643614600901C46501AF9
:100C9000B44103D30098401C009002E092180098E1
:100CA0005B41002803DA0020014605B0F0BD0020BA
:100CB000012109050746864611E064461D46141BBE
:100CC000B54106D36546521BB341744607430C43F6
:100CD000A646CD0740084908284392185B410546BF
:100CE0000D43EAD11046184313D0604619465040D0
:100CF0007140084306D06046101AB34106D2012263
:100D0000002306E000220123DB0702E00122D24398
:100D10005310009874460105381C6141029C039DE4
:100D200000196941FFF712FEBFE70000FD03000054
:100D30004A0009030123090B1B0519430A4B10B58F
:100D4000520D9A4202DA0020014610BD064B3433A0
:100D50009A4203DC9A1A00F047F810BD034BD218F0
:100D600000F032F810BD0000FF030000CDFBFFFFD4
:100D700010B5002904DB0124E40740428C412146E0
:100D8000002B04DB1C460123DB075242A34199429E
:100D900000D1904210BD00001CB5094800900948E0
:100DA000019005460126009C05E0E36807CC33432B
:100DB0000C3C98471034AC42F7D3FFF785F900009C
:100DC000A86C0108C86C010810B5202A04DB014694
:100DD000203A9140002010BD914020239C1A0346E8
:100DE000E3401943904010BD10B5202A04DB0846AB
:100DF000203AD040002110BD0B46D340D0402024E3
:100E0000A21A91400843194610BD10B5202A06DBEE
:100E1000CB170846203A1041C1170B4306E00B469A
:100E20001341D0402024A21A91400843194610BD16
:100E3000F3B58DB000200A9001200B9000260846E3
:100E40000C300C4609906269012109989047051EF3
:100E50002ED0252D2DD0216A8847002818D0626910
:100E6000012109989047216A88470028F7D1411E3F
:100E700062690998904700E0761CA1690D9888473F
:100E8000216A88470028F7D1E1690D988847DAE799
:100E9000A1690D9888470746A84201D1761CD2E780
:100EA000E1690D9888477F1C02D10A98002877D005
:100EB00049E1002762693D463946099890472A284A
:100EC0000CD16269012109989047012506E00A21A9
:100ED0004F433F18303FEBD4102005436269012196
:100EE00009989047014630390A2903D29B498F421D
:100EF000DEDCECE7E90600D4994F6C280AD04C28D8
:100F000010D0682824D06A282ED074280CD07A28D3
:100F10000AD00DE062690121099890476C2823D01E
:100F200004211CE0202005436269012109989047B3
:100F3000A760656065284FD026DC582839D01ADCB8
:100F4000452849D012DC252834D04128B0D143E0CF
:100F50006269012109989047682802D008210D4351
:100F6000E6E70120C002DEE70220DCE7462833D0B6
:100F700047282CD130E05B2870D061282CD0632822
:100F80006CD0642823D161E06F284FD009DC66283B
:100F900022D0672820D0692826D06E2817D12EE0CD
:100FA000CDE070284DD073286FD075284ED07828AA
:100FB0000DD154E0A1690D9888470546252800D138
:100FC0006CE7E1690D9888476D1C00D16DE7BAE0C8
:100FD0000A224CE00A2252E0012023466A46C0431E
:100FE0000D99C046C046A3E02846402108436060F2
:100FF000A807234601D5002239E000223FE0E80798
:1010000000D020E72068011D21600068290501D576
:10101000067018E7290701D5068014E7A90703D54C
:10102000F117066041600EE706600CE72846402194
:1010300008436060A807234601D5082217E008226C
:101040001DE0484928460840606016E028464021D7
:1010500008436060A8072346BCD5B9E715E02846D9
:10106000402108436060A80707D5234610220120CD
:10107000C0430D99C046C0465AE0234610220120C5
:10108000C0430D99FFF7FCF852E000210C910B468C
:101090000091632802D05B2807D043E0E80601D422
:1010A0000120A060012000903CE0626901210998C4
:1010B00090475E2805D101200C900146626909988D
:1010C00090472169002906D10B4601AA8F00491CCF
:1010D000D3510829FADB002835D0216900290ED127
:1010E000C117C90E09184A11930001AA9A18490993
:1010F0004901411A01201368884003431360626963
:101100000121099890475D28E5D10C98002808D066
:10111000002001AB81005A58401CD2435A50082885
:10112000F8DB01AB01202246C0430D99C046C04602
:1011300000280ADA401C06D10B98002803D00020B2
:10114000C0430FB0F0BD0A98FBE7E90702D10A9946
:10115000491C0A91361800200B9074E6CCCCCC0CBC
:10116000FFFFFF7FF1F7FFFFF0B581B005460024D8
:10117000009400688168C9071CD181682B4A2F320E
:1011800011420AD0A86D10210143A965E86D012420
:101190002043E865204601B0F0BD8168234A114034
:1011A00001273943816022480068000205D4687E27
:1011B000012825D1204601B0F0BD1E4800681E4917
:1011C000FFF799FA401C009000980028EFD0009893
:1011D000401E009000980028E9D00098401E009022
:1011E00000980028E3D00098401E00900098002846
:1011F000DDD00098401E009000980028E7D1D6E787
:1012000004F044FD064604E004F040FD801B032882
:10121000B8D228680168C907CCD18168C907F3D161
:101220008168024A114039438160EDE7E8FFFF7FA2
:101230000827014030000020400D0300F0B583B0C6
:1012400067490A684968401A86185249CF680120E0
:101250000023BE4202460EDD4C68A64205460FDA68
:101260001543012D10D14D69AE4213DC0022BE4260
:10127000034613DA13E01A464C68A6420546EFDB34
:101280001D461543012DEED00D4608350868A742CE
:1012900017D043E00122BE42034600DB1346012B78
:1012A00006D1CB699E420EDC0022AE420EDA0EE081
:1012B00028460D46103508313C4607460868A742C7
:1012C0002CD103B0F0BD0122AE4200DB10460295E6
:1012D00000281BD0A6423BDA886809680291FFF714
:1012E00018F90546381BFFF7B3F901462846FFF702
:1012F00055F90546301BFFF7ABF901462846FFF7C5
:1013000010F90299FFF7B4F803B0F0BD0D46183597
:101310001031029C1F460868A742D2D0391B0746ED
:101320000846FFF795F9029028683946FFF7F1F86B
:101330000299FFF733F90546301BFFF789F901469B
:101340002846FFF7EEF83946FFF792F803B0F0BDF4
:101350008869019009691C46FFF7DBF80746029887
:10136000201AFFF775F901463846FFF717F90546C9
:10137000301BFFF76DF901462846FFF7D2F80199B7
:10138000FFF776F803B0F0BD0248406814490860E2
:101390007047C0468000002080B5322004F000FB7A
:1013A000004880BDF895030080B503A00FF09EFBB8
:1013B0000B490C48486080BD414453313233323AC6
:1013C000205461726520656D206D6F646F206465C7
:1013D0002073696D756C6163616F2E0D00000000F4
:1013E00038010020CD9703007D20000105494860A9
:1013F0007047C046704700007D20000101498860A9
:101400007047C0468C0100209C48012181707047C4
:1014100080B500F0DBFB9148914901F0BBF90E4823
:1014200002F096FA0D4802F04FFD0D4809F014FF46
:1014300009F0E0FD01F03CFE0AF0BCF902F09EFC70
:10144000FFF7A2FF02F088FE064809F01FFE0648DB
:1014500009F024FE80BDC046F80800201C080020CA
:101460002C0C002000008E420AD7CD41F0B583B08D
:10147000604C2078022865D0012871D10DF034FF2E
:101480000EF030FB0EF0B6FB704805F0F1F9642069
:1014900004F086FA052000070290012671020191EE
:1014A000324604F0EBFB19204701384604F078FA85
:1014B000674820252946324604F0E0FB384604F010
:1014C0006FFA64486449016000242046314606F002
:1014D0004BFA0AF0BBF9142004F062FA09F0DAFCC6
:1014E00009F03EFD09F0A2FC5C485D4901F052F9AB
:1014F0005C480FF0FBFA56482946224604F0BEFB32
:10150000384604F04DFA02980199224604F0B6FBE1
:10151000384604F045FA632001F0F8F801F070F95C
:10152000002805D001F07AFD01F06AF90028F9D110
:1015300004F0ACFB2F49486088608C700220087072
:1015400003B0F0BDA07801281FD100202070A0704A
:1015500034A00FF0CBFA672000F092F803B0F0BD92
:1015600001F05CFD00F06CFB01F056F90AF02EF979
:1015700009F04AFD01F0A4FD6078012837D101206F
:1015800020700020607003B0F0BD04F07FFB616844
:10159000401A194DA84206D918A00FF0A7FA012049
:1015A000207003B0F0BD04F071FBA168401A19214E
:1015B0004901C731884216D904F068FBA06004F0E5
:1015C00065FB6168441A7D20C1002046FFF793F84F
:1015D000AC4202D80521081A00E0002001B2152013
:1015E000000201F0A9FA01F019FD01F015F903B0AC
:1015F000F0BDC046480100208813000054696D65A5
:101600006F75742120566F6C74616E646F20706109
:101610007261206F206D6F646F2053746F702E0D98
:1016200000000000436F6E6669726D61646F212077
:101630005265746F726E616E646F20616F206D6FA2
:10164000646F20617469766F2E0D00004C090020D4
:10165000000400501870004001000100840D0020BB
:101660000D2400084768010880B57D20800004F043
:1016700097F902480121417080BDC0464801002011
:10168000F0B583B0044642A00FF030FA4A484BA1AF
:101690000EF042FD0025284601F038F801F0BEFCAE
:1016A0004D4804F07DF90AF005FA00286AD002944A
:1016B000414C4A4920460EF02FFD0120019001F0D7
:1016C00025F801F0ABFC7D20C6003746C837384608
:1016D00004F066F9424920460EF01EFD022001F09A
:1016E00015F801F09BFC384604F05AF93D492046B4
:1016F0000EF012FD032001F009F801F08FFC3046D6
:1017000004F04EF9FFF750FE37A120460EF004FD1D
:10171000042000F0FBFF01F081FC304604F040F9AA
:101720000AF064F909F0B6FC36A120460EF0F4FC8C
:10173000052000F0EBFF01F071FC6436304604F048
:101740002FF902F00BF9002817D01B4836490EF08C
:10175000E3FC062000F0DAFF01F060FC304604F004
:101760001FF932480FF0C2F9029800F0CFFF01F0E4
:1017700055FC019D284603B0F0BD3B2000F0C6FF9C
:1017800001F04CFC27480FF0B1F9284603B0F0BD3A
:101790000D0A3E3E3E20494E494349414E444F20AA
:1017A0004155544F444941474E4F535449434F20AC
:1017B0003C3C3C0D00000000F06701084578696280
:1017C000696E646F204C6F676F2065205665727379
:1017D0006F65732E2E2E0000B80B0000CC68010838
:1017E000B0680108996801085665726966696361A5
:1017F0006E646F205465726D6F6D6574726F2E2EFE
:101800002E00000056657269666963616E646F2020
:101810004D656D6F72696120454550524F4D2E2EBA
:101820002E00000026680108866801080268010889
:1018300080B588B015A00EF06FFC16480EF06CFC59
:1018400007A806A905AA09F0DFFC002808D005A80A
:10185000037806A8027807A801780FA00EF05CFCB8
:1018600004A803A902AA01AB09F074FC002808D05F
:1018700002A8037803A8027804A8017811A00EF04A
:101880004BFC1BA00EF048FC08B080BD0A0D0A0DF1
:101890000000000051100108417373696E61747596
:1018A00072612020202020202020202020202020A5
:1018B000253032643A253032643A253032640A0DDC
:1018C00000000000526573706F6E736176656C2066
:1018D000202020202020202020202020253032649D
:1018E0002F253032642F253032640A0D00000000AD
:1018F0000A0D0A0D0A0D0A0D0000000010B586B091
:10190000072901D84C482FE0801D891F89B203AAFE
:101910000B2301F025FB002825D003A80078002820
:1019200029D06846002484720481019400940B211C
:1019300002F090FA002826D069468C7203A8FEF7C0
:101940004AFC002824D003A824A10822FEF751FC59
:10195000002825D023A003A90EF0DEFB3E2000F0D6
:10196000D5FE06B010BD12A00FF0C0F83B2000F06D
:10197000CDFE06B010BD2F480FF0B8F83E2000F0A5
:10198000C5FE06B010BD3B2000F0C0FE06B010BD85
:1019900027480FF0ABF8172000F0B8FE06B010BDD6
:1019A0001AA00FF0A3F82E2000F0B0FE06B010BD74
:1019B000417574683A2046616C6861206E6F2070D2
:1019C000617273657220726F627573746F206461E7
:1019D0002073656E68612E0D0000000047484B4083
:1019E00031323300417574683A2053656E68612066
:1019F000696E636F72726574612E204469676974E1
:101A000061646F3A20272573270D0A0041757468B9
:101A10003A20456E7472616E646F206E6120746549
:101A20006C61206465205365727669636F210D00D7
:101A3000C6690108DC690108196A0108B0B584B0FB
:101A4000082921D3801D891F89B201AA0B2301F027
:101A500087FA002813D001A8FEF7B6FB002810D0A3
:101A60004A4C2178002914D000202070641C01A960
:101A70002046FEF7B0FB002817D0402005E030A03C
:101A800000E039A00FF032F83B2000F03FFE04B038
:101A9000B0BD042801D23F20F7E7601C01A9FEF782
:101AA000B5FB012020701F20EFE7204602F006FB67
:101AB0003C2000F02BFE364D36A11122284601F0C5
:101AC0009FF900F09DFE002805D001F0A7FA00F074
:101AD00097FE0028F9D1642003F062FF02F0FAF9C2
:101AE0000446002812D0172000F010FE32A10F2269
:101AF000284601F085F900F083FE00281AD001F095
:101B00008DFA00F07DFE0028F9D111E03B2000F0B5
:101B1000FDFD25A10F22284601F072F900F070FEAC
:101B20000028B4D001F07AFA00F06AFE0028F9D15A
:101B3000002CACD024480EF0D9FF04B0B0BDC04694
:101B4000417574683A2046616C6861206E6F207040
:101B50006172736572206465206E6F7661207365B3
:101B60006E68612E0D000000417574683A204E6F5A
:101B700076612073656E68612076617A69612064A0
:101B80006573636172746164612E0D0080010020D1
:101B90009640000053616C76616E646F2073656ED1
:101BA00068612E2E2E0000004572726F20616F203A
:101BB00073616C766172210053656E686120616C9F
:101BC0007465726164612100F969010880B502A041
:101BD00000F01AF880BDC0460D0A434C49205072EF
:101BE0006F6E74612E2044696769746520274845CB
:101BF0004C5027207061726120636F6D616E646F5D
:101C0000732E0D0A3E20000083B010B583B0044649
:101C100005A80EC005AB0293012001020748224629
:101C20000EF0BAFA012804DB0146044801AA0AF0C2
:101C300093FB03B010BC01BC03B00047C4010020FB
:101C4000F0B581B0594E3078012800D0ACE058A0F2
:101C5000FFF7DAFFFEF764FA05460068554C27786F
:101C6000C15DC90706D06778C15DC907A41C0029FA
:101C7000F5D1641E20212046FEF79CFA00281AD0D8
:101C800000210170811C2A684D1E2878135CDB0737
:101C900016D00878135CDB0711D04878135CDB079B
:101CA0005ED08878135CDB07091D002BECD18D1EFC
:101CB000002807D007E00025002F07D16AE00D4675
:101CC000002800D105462778002F63D03A492046E6
:101CD000FEF7A5FA002841D039492046FEF79FFAC1
:101CE000364F002840D037492046FEF798FA0028A2
:101CF0003CD035492046FEF792FA002838D03349C7
:101D00002046FEF78CFA002834D031492046FEF7F1
:101D100086FA002830D02F492046FEF780FA0028A6
:101D20002CD02D492046FEF77AFA002828D02B49DE
:101D30002046FEF774FA002824D029492046FEF7F1
:101D40006EFA002820D027492046FEF768FA0028BE
:101D50001CD025A02146FFF757FF1BE0174F16E0C8
:101D60004D1C0028AED0AEE7083710E010370EE06B
:101D700018370CE020370AE0283708E0303706E053
:101D8000383704E0403702E0483700E050377968E0
:101D90002846884707488021FEF7F4F90020307074
:101DA00070803748FFF730FF01B0F0BDB800002069
:101DB0000D0A00001C0E00201E3401085C320108D0
:101DC000ED33010814340108FB3301080334010822
:101DD00006340108193401082334010828340108A5
:101DE000F33301080B340108436F6D616E646F209B
:101DF000646573636F6E68656369646F3A2022255A
:101E000073222E0070B51B4C2178002930D10C288C
:101E100017DC082822D00A2817D065887E2D27D8FD
:101E20000646FEF77DF90068805D8006C00E1FD073
:101E3000314612484655681C608012A0FFF7E4FE48
:101E400070BD7F280AD00D28E7D1608800280CD00B
:101E50000A4900220A540120207070BD60880028C1
:101E600006D0401E608004A000E00548FFF7CCFECD
:101E700070BDC046B8000020082008001C0E0020DD
:101E80002433010825630000F0B581B01E4D281DE4
:101E90001E49FEF777F91E48012100912960612152
:101EA000A860E96000272F827F20C005686119487B
:101EB000E8611948281819491CC91CC00A88028001
:101EC000897881708726164C284620302168102298
:101ED000FEF763F930202F54284631300A22114989
:101EE000FEF737F928463030E16A226BC2828182E0
:101EF000A1692964C77228354034761EE4D10A48A6
:101F00000099017001B0F0BD9C0E0020D8160000B1
:101F100073656E6805000200C81600008C6C01082D
:101F2000741001089C6C010840010020B0B58CB011
:101F30000BA80AA909AA09F067F9044608A807A985
:101F400006AA05AB09F006F9002C15D0002813D01D
:101F500007A8037808A8027806A800780BA90978D2
:101F60000AAC247809AD2D7800AF33C711A005A9BC
:101F7000FFF74AFE0CB0B0BD02A0FFF745FE0CB063
:101F8000B0BDC0464572726F3A204E616F20666FD9
:101F90006920706F73736976656C206C657220615F
:101FA00020646174612F686F726120646F205254E5
:101FB000432E0000446174612F486F72613A2025FE
:101FC0007320253032752F253032752F3230253071
:101FD000327520253032753A253032753A25303247
:101FE0007500000070B5002822D004462021FEF7BD
:101FF000E1F8002820D000210170861CFEF790F83F
:102000000168751E28780A5CD20718D030780A5CFF
:10201000D20713D070780A5CD2073BD0B0780A5C44
:10202000D207361D002AECD1B51E002809D009E0E0
:102030002DA0FFF7E9FD70BD002503E0354600281F
:1020400000D105461A492046FEF7E9F8002817D0C6
:1020500019492046FEF7E3F8164E002815D0174917
:102060002046FEF7DCF8002818D015492046FEF778
:10207000D6F8002817D013A02146FFF7C5FD70BD84
:102080000C4E71682846884770BD0836716828462E
:10209000884770BD751C0028D3D0D3E7103671680F
:1020A0002846884770BD183671682846884770BD35
:1020B000EF330108B43201085C340108D43301085D
:1020C00060340108537562636F6D616E646F204404
:1020D00057494E20646573636F6E68656369646F0A
:1020E0003A20222573220000537562636F6D616E82
:1020F000646F204457494E2066616C74616E646F52
:102100002E20557365202748454C50272E0000008F
:1021100080B586B0684608F063FF0AA0FFF774FD3B
:102120000198FEF7D4FA02460CA00B46FFF76CFDAF
:102130000298FEF7CCFA02460FA00B46FFF764FDAB
:1021400006B080BD4461646F73206465204672658B
:102150007175656E6369613A0D0A000020202D20BB
:1021600050756C736F732028656D203173293A2088
:10217000252E31660D0A000020202D204573636155
:102180006C612041202863616C63293A20252E323E
:10219000660D0A0080B586B0684608F021FF0098F9
:1021A000FEF795FA024603A00B46FFF72DFD06B099
:1021B00080BDC0464461646F732064612042616CDD
:1021C000616E63613A0D0A20202D205065736F3ACD
:1021D00020252E326620670D0A00000080B509F028
:1021E00005FCFEF774FA024602A00B46FFF70CFD51
:1021F00080BDC04654656D706572617475726120F2
:10220000696E7465726E6120646F204D43553A208B
:10221000252E326620430D0A0000000080B582B0F2
:102220000348044901AA0AF097F802B080BDC046ED
:10223000420C01080E04000080B52E2000F008FCBE
:1022400080BD0000B0B584B0002825D001A9009160
:1022500019A103AD02AC2A462346FDF7F3FF03287C
:102260001FD12878411EC9B21E291AD821784A1ECA
:10227000D2B20B2A15D801AA127809F011F8002859
:1022800014D001A8037802A8027803A801781BA043
:10229000FFF7BAFC04B0B0BD2248FFF7B5FC04B0AC
:1022A000B0BD0948FFF7B0FC04B0B0BD07A0FFF710
:1022B000ABFC04B0B0BDC046256868752F256868C2
:1022C000752F256868750000763301084572726FB6
:1022D0003A2046616C686120616F20736574617299
:1022E00020612064617461206E6F20686172647780
:1022F00061726520646F205254432E004F4B2E2094
:1023000052544320617475616C697A61646F207006
:1023100061726120253032752F253032752F2530BE
:10232000327500006434010870B584B0002822D0F2
:1023300001AE009617A103AD02AC2A462346FDF775
:1023400081FF03281CD12878172819D821783B2928
:1023500016D832783B2A13D808F0B4FF002814D0DE
:1023600001A8037802A8027803A801781AA0FFF751
:102370004BFC04B070BD2248FFF746FC04B070BDB2
:102380000848FFF741FC04B070BD07A0FFF73CFC14
:1023900004B070BD256868753A256868753A256887
:1023A00068750000293301084572726F3A20466152
:1023B0006C686120616F20736574617220612068B0
:1023C0006F7261206E6F2068617264776172652040
:1023D000646F205254432E004F4B2E205254432002
:1023E000617475616C697A61646F207061726120DB
:1023F000253032753A253032753A25303275000075
:102400002D34010880B50BF085FB80BD10B5062981
:1024100000D231E102785A2A00D02DE14278A52A73
:1024200000D029E1C278832A00D025E142790379DE
:102430001B029A18082992B214D30023994CA24285
:102440000ED0994CA2420BD0984CA24208D083786F
:10245000DC1C8C4206D8C3189C785B781B021B19C5
:10246000934C2380934B9A421ADD944B9A4200DDA1
:102470005BE0994B9A4200DC87E0984B9A4200DD82
:10248000A9E08120C001824200D1E0E005200003E4
:10249000824200D0F0E08648008807F0EDFB10BDD6
:1024A000924B9A4200DC52E0834BD318312B00D977
:1024B00087E05B007B449B885B009F443100B40055
:1024C000DD00DD00DD00DD00DD00DD00DD00DD0024
:1024D000DD00DD00DD00DD00DD00DD00DD00AF0042
:1024E000DD00DD00DD00DD00DD00DD00DD00DD0004
:1024F000DD00DD00DD00DD00DD00DD00DD00AA0027
:10250000DD00DD00DD00DD00DD00DD00DD00DD00E3
:10251000DD00DD00DD00DD00DD00DD00DD00A2000E
:10252000634A128808F0F2FF10BD654B9A423ADD0B
:10253000644B9A425ADC644B9A4200D18DE081236D
:102540001B029A4200D097E002F0C8FA10BD694B16
:102550009A420DDC19231B029A4272D0684B9A42B0
:1025600067D0504B9A4200D086E0FFF7C7F910BD04
:1025700081208001824267D05F4882425CD05F4800
:10258000824279D101F0B4F910BD6123DB019A4296
:102590007DD0554B9A4270D03120000282426BD1DF
:1025A00001F08EF910BD494B9A4275D0484B9A42C2
:1025B00068D0484B9A425FD13D4A128801F0FCF83E
:1025C00010BD3A4B9A426AD04948824254D12020E9
:1025D000FFF756F810BD424B9A4244D0414B9A4205
:1025E0004AD1334A128808F0D3FE10BD2120800260
:1025F00082423DD08520000282423DD102F020FA85
:1026000010BD2B480088411E4842484100F0DAFFC7
:1026100010BD2748008800F07BFF10BD24480088CB
:1026200001F000F810BD3C491920088000F010FAB4
:1026300010BDFFF719F810BD1D48008800F09EFE80
:1026400010BDFEF7E1FE10BD02F05CF910BD0020E8
:102650001749085E02F070F910BD2F493820088034
:1026600000F0F6F910BD1248008800F041FE10BDE0
:102670000F48007801F038FE10BD0D4A128800F0B6
:10268000D7FE10BD0A48008800F014FE10BD084AAD
:10269000128801F01FF810BD01F01CF910BDFFF702
:1026A000CDF910BD302000000F3000006030000078
:1026B000180E00207F300000F1CFFFFF2F700000C8
:1026C0008F700000FF8300009070000030700000E9
:1026D00060700000707000007F4000000F7000000C
:1026E0001070000020700000903000000E300000DC
:1026F000703000003F2000005020000060200000EB
:1027000020200000044800887047C04680B5024978
:10271000088000F09DF980BDA000002080B502482F
:1027200002F0E6FF80BDC0464008002080B50248A8
:1027300002F0DEFF80BDC0469C08002080B5006826
:102740000E21016203F0A2FA9C4988610020887082
:10275000487080BD10B500680B4A904200D010BD93
:10276000F34C60783F22D2430B46413B9342F6D371
:10277000C007F4D16069401C606121810120607054
:1027800003F084FAE06110BD00440040E8480021F5
:1027900001707047F0B581B00546E54F00207861C3
:1027A00038707870B880F880B870FD603961B861B1
:1027B0003C462034402620463146FDF7E3FC01200C
:1027C0000102DC48FDF7DEFC0C483146FDF7DAFC7F
:1027D00028462146324606F026FC00280BD0F86831
:1027E00006F0EEFCF8684022214606F01CFC0028AA
:1027F00001D001F0B7F901B0F0BDC0467C25002042
:10280000CB480178002901D0012070478188C08819
:10281000081A411E88417047F0B593B003F036FAAC
:10282000664DA969002908D0A969411A642900D216
:10283000B1E00021A9610121A970A978012924D161
:102840000020A870687003F021FA01467F480DF05F
:1028500063FCE86806F0B4FCE8682C4620344022AB
:10286000214606F0E0FB002800D194E0E86806F07D
:10287000A7FCE8684022214606F0D5FB002800D1DD
:1028800089E001F06FF913B0F0BD6978012900D03B
:1028900081E0E969401A14287DD31C27384603F0EB
:1028A000C5FE0924204603F0C1FE2A89686901900B
:1028B0002E46203603A831460292FDF74AFC00203E
:1028C00068702881204603F0C1FE384603F0BEFE42
:1028D000E8684022314606F0A6FB00280BD0E868E5
:1028E00006F06EFCE8684022314606F09CFB0028AA
:1028F00001D001F037F903F0C9F9014630A0019A7F
:10290000029C23460DF008FC002C0AD003AC39A62B
:10291000029F217830460DF0FFFB7F1E641C002FC4
:10292000F7D136A00EF0E2F803AB987859781A7810
:10293000029F062F13D15A2A11D1A5290FD103289E
:102940000DD1DC78822C0AD11C794F2C07D15B7910
:102950004B2B04D103F09AF901463B4818E0042FB1
:1029600012D35A2A10D1A5290ED1C01CC6B2B74223
:1029700013D203F08BF9014600963248019A3B4688
:102980000DF0CAFB13B0F0BD03F080F901461CA0A6
:10299000019A0DF0C1FB13B0F0BD28690028FAD0F0
:1029A00003F074F901462648019A0DF0B5FB2A6937
:1029B00003A83146904713B0F0BDC046BC000020CC
:1029C0005B25303130755D205B4457494E205258AD
:1029D000202325755D205061636F746520726563E7
:1029E000656269646F20286C656E3D2575293A2003
:1029F0000000000025303258200000000D000000CB
:102A00005B25303130755D205B4457494E2052586C
:102A1000202325755D202D3E204552524F3A2050EF
:102A200061636F746520696E76616C69646F2064A0
:102A300065736361727461646F2E0D0A000000009B
:102A40003B35010893340108DF3401080F350108D4
:102A5000F0B581B004461C2003F0E8FD0A2003F025
:102A6000E5FDE5488188C288914207D2C188828805
:102A7000D24389188DB20A2D07D24BE08188C288D3
:102A8000511AFF318DB20A2D44D3220A8688DB49C0
:102A90005A238B558688761CF6B286808688A527B1
:102AA0008F558688761CF6B28680868807278F55D4
:102AB0008688761CF6B28680868882278F5586881F
:102AC000761CF6B28680868800278F558688761C0D
:102AD000F6B28680868884278F558688761CF6B263
:102AE000868086888B5583885B1CDBB283808388D5
:102AF0000126CE5483885B1CDBB283808388CA5452
:102B00008288521CD2B2828082888C548188491C6F
:102B1000C9B281800A2003F099FD1C2003F096FDC4
:102B2000092D02D8002001B0F0BD012001B0F0BD98
:102B3000BC000020BC250020F0B581B00C46054645
:102B40001C2003F073FD0A2003F070FDAA48818861
:102B5000C288914207D2C1888288D24389188EB236
:102B6000082E07D240E08188C288511AFF318EB208
:102B7000082E39D3A1B22B0A090A00918788F74998
:102B80005A22CA558288521CD2B282808288A527D6
:102B90008F548288521CD2B28280828805278F543B
:102BA0008288521CD2B28280828882278F54828887
:102BB000521CD2B2828082888B548288521CD2B23C
:102BC000828082888D548288521CD2B28280828810
:102BD000009B8B548288521CD2B2828082888C5493
:102BE0008188491CC9B281800A2003F02FFD1C2076
:102BF00003F02CFD072E02D8002001B0F0BD01200B
:102C000001B0F0BDF0B583B00C4605461C2003F0C2
:102C10000DFD0A2003F00AFDCF488188C288914249
:102C200007D2C1888288D24389188EB20A2E07D271
:102C300051E08188C288511AFF318EB20A2E4AD3E0
:102C4000210A0291210C0191210E00912B0A818809
:102C5000C24A5A2757548188491CC9B28180818849
:102C6000A52757548188491CC9B2818081880727CC
:102C700057548188491CC9B2818081888227575462
:102C80008188491CC9B28180818853548188491C3C
:102C9000C9B28180818855548188491CC9B281801C
:102CA0008188009B53548188491CC9B281808188E6
:102CB000019B53548188491CC9B281808188029B41
:102CC00053548188491CC9B28180818854548188B9
:102CD000491CC9B281800A2003F0B8FC1C2003F013
:102CE000B5FC092E02D8002003B0F0BD012003B0CE
:102CF000F0BDC046F0B583B00024002978D0054669
:102D0000002875D0E74FF868002871D00E461C20C7
:102D100003F08CFC0A2003F089FCB888F98888420B
:102D20000AD2F888B988C943401880B286420AD8C6
:102D3000012486420AD955E0B888F988081AFF307C
:102D400080B28642F4D9002486424BD802940321F3
:102D5000304608400190721E032A01D2002122E071
:102D60008E430021D04A6B5CB8881354B888401C4D
:102D7000C0B2B88068184378BC881355BB885B1C08
:102D8000DBB2BB808378BC881355BB885B1CDBB28D
:102D9000BB80C078BB88D054B888401CC0B2B88013
:102DA000091D8E42DFD1019E002E029C1AD0685C64
:102DB000BB88BD4AD054B888401CC0B2B880012E30
:102DC00010D069184878BB88D054B888401CC0B26D
:102DD000B880022E06D08878B9885054B888401C34
:102DE000C0B2B8800A2003F031FC1C2003F02EFC96
:102DF000204603B0F0BDC046BC000020BC2500202A
:102E0000F0B591B00025002A00D1A2E0002900D140
:102E10009FE01446A34FFA68002A00D199E00646C5
:102E200000910846FDF7D0F90346A04200D323469F
:102E30005A1DD1B23D2900D98BE001AC66718221C7
:102E4000E170A270A52060705A202070300A2071B5
:102E5000A01D00991A461D46FDF77BF92819FF2190
:102E6000C17181711C2003F0E1FB0A2003F0DEFB3D
:102E7000B9880835E8B2FA8891420BD2F988BA8845
:102E8000D243891889B281420BD301220092814238
:102E90000BD257E0B988FA88511AFF3189B28142C2
:102EA000F3D20022009281424CD303210D40411EF7
:102EB000032901D2002124E0FC21084000217A4AA4
:102EC00001AB5C5CBE889455BC88641CE4B2BC80D9
:102ED0005B185C78BE889455BC88641CE4B2BC80E6
:102EE0009C78BE889455BC88641CE4B2BC80DB78B6
:102EF000BC881355BB885B1CDBB2BB80091D8842B4
:102F0000DED1002D1ED001A8425CBB886648C254A9
:102F1000BA88521CD2B2BA80012D13D001AA52181D
:102F20005278BB88C254BA88521CD2B2BA80022DE1
:102F300008D001AA51188978BA888154B888401CF1
:102F4000C0B2B8800A2003F081FB1C2003F07EFB96
:102F5000009D284611B0F0BDBC000020BC2500201B
:102F6000F0B583B01C4615460E46521E29469141C7
:102F7000421E019090410840012E01D8002100E03E
:102F800001210140601E274687410F40012F42D199
:102F900028462146FDF7F6F8022C38D3B01EA11EB4
:102FA000884200D308460290401C00900122002372
:102FB00005E0D01C1B1D121D0099884227D00198E6
:102FC000C6187178FF2922D0202900D3E95402982D
:102FD00098421CD0B178FF2919D0202901D3E818D4
:102FE00041700298824212D0F178FF290FD0202937
:102FF00001D3E8188170901C0099884207D031797C
:10300000FF2904D02029D4D3E818C170D1E72819AA
:10301000401E00210170384603B0F0BD70B5214C50
:10302000207800283CD1A088E188884238D01C2034
:1030300003F0FCFA0A2003F0F9FA2078012806D1FF
:103040000A2003F003FB1C2003F000FB70BD0120ED
:103050002070E088A188884201D1002511E000217C
:103060001148124AE388C35C5354E3885B1CDBB20B
:10307000E380E3884D1CA688B34202D03F2929464D
:10308000F0D30A2003F0E2FA1C2003F0DFFAE06834
:10309000AAB2064906F0ECFB002801D000202070FF
:1030A00070BDC046BC000020BC2500207C2500204F
:1030B000DB48012101707048002101707047C04653
:1030C000F0B58DB07D20C7006B4E3078002805D05C
:1030D00002F0DCFD7168401AB84244D202F0D6FD1D
:1030E000B168401AB84255D302F0D0FDB060FFF786
:1030F00009FB352801D038284AD1FFF781FB002889
:1031000048D1684607F06CFF67490198FDF709FA56
:10311000FDF7C4FA0146654C20462030FFF772FDEA
:10312000C1490298FDF7FDF9FDF7B8FA01462046BE
:103130003030FFF767FD7078401C7070C0B2052812
:1031400028D30020707008F051FC054607F0A2FF5C
:10315000B5492846FDF7E5F9FDF7A0FA01462046F6
:10316000FFF7EAFC16E002F091FD70603078401E37
:1031700006286BD87844007940008744036A5B6175
:1031800055707600022030700E20FFF7BFFAA5E7D9
:103190000020707002F07AFDF168401AB84241D305
:1031A00002F074FDF060FFF7ADFA014613391E29F5
:1031B00034D801228A403E490A422FD00CA80BA9DC
:1031C0000AAA08F021F800282CD009A808A907AA03
:1031D00006AB07F0BFFF002824D0684610214171DC
:1031E000002101718222C2700B228270A5224270DE
:1031F0005A220270079A8271089AC271032242729F
:10320000099A02720C9A82720B9AC27241730A99DD
:1032100001730E21FFF76EFD0DB0F0BD7728CDD004
:103220006728CBD00DB0F0BD062030701220FFF71C
:103230006DFA53E7042030701020FFF767FA4DE76E
:10324000052030701120FFF761FA47E70020307049
:1032500044E7032030700F20FFF758FA3EE70720BD
:103260003070002000F08AF838E70020307003A0AA
:103270000DF03CFC32E7C046700100204449535039
:103280004C41593A2053657175656E6369612064DC
:1032900065206D65646963616F2066696E616C6944
:1032A0007A6164612E0D00000AD7233C30220000B1
:1032B0004140004080B5044804A12022FFF7A0FD52
:1032C0003520FFF723FA80BD9640000041646A75FF
:1032D00073744672657175656E63793A2033303068
:1032E000302E304B487A2B2F2D322E30000000002C
:1032F00080B500280BD0FEF7C7FD09A02E2100F0F5
:1033000033FC002802D00BA00DF0F0FB80BD134869
:1033100013A11B22FFF774FD3020FFF7F7F980BDE2
:1033200050726573657420636F6D706C65746F2186
:1033300000000000446973706C61793A2050726536
:103340007365742065786563757461646F20636F5D
:103350006D207375636573736F2E0D0096400000CA
:10336000507265736574207265646566696E652068
:103370006F7320616A75737465732100F0B591B045
:1033800098490978012903D1002803D008F03EF9B3
:1033900011B0F0BD06AC204600F046FD207807AE27
:1033A000314600F027FD684607F01AFE00F048FDA0
:1033B00004461C4D102228463146FFF721FD2020EF
:1033C000315E2846C030FFF7B7FB0A2710987843D4
:1033D00001B22846E030FFF7AFFBF08C784301B232
:1033E0002846F030FFF7A8FB012C01D00F4900E080
:1033F0000D490598FDF795F8FDF750F90146903510
:103400002846FFF799FB012C04D07720FFF77EF9BF
:1034100011B0F0BD1320FFF779F911B0F0BDC0462F
:10342000A200002070200000000020410000C842DF
:10343000B0B594B0502A1ED101AC00202075059083
:1034400004900390029001901521204600F0B6FCF4
:1034500007AD2AA1284622460CF08AFE2846FCF732
:10346000B3FE82B2D3482946FFF7CAFC2320FFF7F8
:103470004DF914B0B0BD01AC002222750592049242
:10348000039202920192801D891F89B21523224660
:10349000FFF766FD002815D02078002812D001AC77
:1034A000204600F0D3FD07AD07A1284622460CF0C8
:1034B0005FFE1721284600F057FB002802D005A028
:1034C0000DF014FB14B0B0BD456D70726573613AB8
:1034D00020257300446973706C61793A20456D70E2
:1034E000726573612073616C766120636F6D207308
:1034F00075636573736F2E0D000000004174756174
:103500006C20456D70726573613A20257300000070
:10351000B0B58AB0502814D100F092FC02466C4637
:1035200022A120460CF024FE2046FCF74DFE82B27C
:10353000ED482146FFF764FC1B20FFF7E7F80AB0CF
:10354000B0BD044600F0AAFD6D4608A128462246FB
:103550000CF00EFE1721284600F006FB002802D0D2
:1035600007A00DF0C3FA0AB0B0BDC0464361736155
:103570007320646563696D6169733A202575000085
:10358000446973706C61793A204E525F4465636997
:103590006D616C732073616C766F20636F6D207347
:1035A00075636573736F2E0D0000000041747561C3
:1035B0006C204E525F446563696D616C733A2025DF
:1035C0007500000080B507490870002804D109A1E2
:1035D0000CA00CF0A1FD80BD03A10AA00CF09CFD85
:1035E00080BDC046A2000020484142494C49544198
:1035F000444100004445534142494C4954414441EF
:1036000000000000446973706C61792048616E6449
:103610006C65723A20496D7072657373616F202515
:10362000730D0A00B0B58AB0502814D100F00CFC1C
:1036300002466C4621A120460CF09AFD2046FCF77C
:10364000C3FD82B2A8482146FFF7DAFB1A20FFF734
:103650005DF80AB0B0BD044600F028FD6D4608A133
:10366000284622460CF084FD1721284600F07CFAFB
:10367000002802D006A00DF039FA0AB0B0BDC0464D
:10368000526570657469636F65733A202575000033
:10369000446973706C61793A204E525F526570656F
:1036A000746974696F6E732073616C766F20636FD9
:1036B0006D207375636573736F2E0D0041747561B2
:1036C0006C204E525F52657065746974696F6E3A12
:1036D00020257500B0B594B0502A1ED101AC002051
:1036E00020750590049003900290019015212046CA
:1036F00000F0D6FB07AD2AA1284622460CF038FD83
:103700002846FCF761FD82B277482946FFF778FB2F
:103710002220FEF7FBFF14B0B0BD01AC00222275E1
:1037200005920492039202920192801D891F89B230
:1037300015232246FFF714FC002815D02078002816
:1037400012D001AC204600F0E9FC07AD07A12846E5
:1037500022460CF00DFD1721284600F005FA00283E
:1037600002D005A00DF0C2F914B0B0BD557375615B
:1037700072696F3A20257300446973706C61793AFD
:10378000205573756172696F2073616C766F206369
:103790006F6D207375636573736F2E0D00000000ED
:1037A000417475616C205573756172696F3A20259B
:1037B000730000009640000070B592B014460D46AC
:1037C000064605A83221FCF7DDFC002C2BD06C4608
:1037D000002020740390029001900090701D691FDA
:1037E00089B211232246FFF7BBFB002819D02078AD
:1037F000002816D01AA06C4621460CF08DFC2046FD
:1038000000F070FC05AD22A1284622460CF0B0FC69
:103810002E21284600F0A8F9002802D01FA00DF0A4
:1038200065F912B070BD3620FEF770FF6C460020BF
:10383000207403900290019000901121204600F026
:103840001BFB05AD28462146FCF7E0FCFCF7BCFC61
:1038500082B2EC482946FFF7D3FA12B070BDC046D9
:10386000446973706C61792048616E646C65723A6A
:1038700020526563656269646F206E6F766F207396
:10388000657269616C3A20272573270A00000000E1
:1038900053657269616C3A20257300004469737046
:1038A0006C61793A2053657269616C2073616C7642
:1038B0006F20636F6D207375636573736F2E0D00DA
:1038C00080B5D04809490E22FFF79AFA2120FEF769
:1038D0001DFF80BD80B5CB4804490E22FFF790FA4A
:1038E0003220FEF713FF80BD96400000B769010843
:1038F00010B5084C2078002800D010BD06A00DF0AF
:10390000F5F80120207002F0C1F960600D20FEF78B
:10391000FDFE10BD70010020444953504C41593AFE
:1039200020496E696369616E646F207365717565A6
:103930006E636961206465206D65646963616F2EE3
:103940002E2E0D000148012101707047B4070020A0
:103950007E4900220A710A700861704710B57B4CDD
:10396000206900281CD0A0210222642302F0C8FA9A
:10397000002817D02A480DF0B9F8206902F0D0F9D4
:10398000052002F00DF8206902F060FA2069A021FC
:103990000222642302F0B4FA01464042484110BDBD
:1039A000002010BD012010BDF0B583B004460020FA
:1039B000002A2FD00E4600292CD0154663490A69EB
:1039C000002A27D07D20C700009601950297A021EC
:1039D00002231046224602F03BFB00281CD0104870
:1039E0000DF084F85948006902F09AF9052001F0B9
:1039F000D7FF5648006902F029FA5448006900963A
:103A000001950297A0210223224602F021FB0146E4
:103A10004042484103B0F0BD012003B0F0BDC046B4
:103A2000CC350108F0B58BB006910446474E30699D
:103A300000287CD00120002A77D003907D20C00090
:103A4000079000273D4604920A953069A02115464B
:103A50000222642302F054FA1F212346214020222F
:103A6000521A0A99691A0A9D89B209928A4200D3A8
:103A700009910699C91908910527002838461C465E
:103A800010D10597306908990091099F019707990E
:103A90000291A2B2A021022302F0F4FB002835D04B
:103AA0000A20059F01F07CFF3069A02102226423D7
:103AB00002F026FA0028384610D105973069089997
:103AC0000091099F019707990291A2B2A0210223B8
:103AD00002F0D8FB002819D00A20059F01F060FFF2
:103AE0003069A0210222642302F00AFA002822D1C0
:103AF000306908990091099F019707990291A2B234
:103B0000A021022302F0BEFB002813D17D193069E9
:103B1000A0210522642302F0F3F90028F7D13C1913
:103B2000AFB2049A97428FD303980BB0F0BD002038
:103B30000BB0F0BD0A27384601F032FFA1B20448AD
:103B40000CF0EAFA00200BB0F0BDC0461C010020CA
:103B50008535010880B5802001F0B2FF202001F0FA
:103B6000AFFF80BD72B6FEE7F0B581B00F460646E6
:103B70003C20FEF7CBFD234D23A10B222846FFF767
:103B80003FF9FEF73DFE002805D0FFF747FAFEF7A4
:103B900037FE0028F9D1642001F002FF00F09AF905
:103BA0000446002817D03846FEF7B0FD3046FCF733
:103BB0000BFB82B228463146FFF722F9FEF720FEC2
:103BC000002805D0FFF72AFAFEF71AFE0028F9D1DF
:103BD000204601B0F0BD0FA00CF088FF3B20FEF79F
:103BE00095FD18A10F222846FFF70AF9FEF708FEF7
:103BF0000028EDD0FFF712FAFEF702FE0028F9D1F7
:103C0000E6E7C0469640000053616C76616E646FD3
:103C10002E2E2E004552524F204352495449434FB5
:103C20003A2046616C686120616F2073616C766137
:103C30007220636F6E66696775726163616F210DD3
:103C4000000000004572726F20616F2073616C7616
:103C50006172210070B582B005463C20FEF756FD2A
:103C6000274C28A118222046FFF7CAF8FEF7C8FD06
:103C7000002805D0FFF7D2F9FEF7C2FD0028F9D1E0
:103C8000642001F08DFEE8B200F0FAF900F022F9AC
:103C9000002820D032480CF029FF324D00266E70EB
:103CA0003148012444700470852000022F492246C7
:103CB000FFF7A6F82E480CF019FF2C7001AC267007
:103CC000204600F0B1F8207868800CF081F9662079
:103CD000FEF71CFD0DE012A00CF008FF3B20FEF7E4
:103CE00015FD1BA10F222046FFF78AF801E0FFF720
:103CF00095F9FEF785FD0028F9D102B070BDC046E8
:103D00009640000053616C76616E646F20636F6E45
:103D100066696775726163616F2E2E2E0000000068
:103D20004552524F204352495449434F3A2046612D
:103D30006C686120616F2073616C76617220612014
:103D4000636F6E66696775726163616F210D000054
:103D50004572726F20616F2073616C766172210011
:103D6000106C0108980100202C000020385E01082A
:103D7000496C010807480068406A704780B50548EB
:103D800004F064FD80BDC046024800680021416225
:103D90007047C046380D002010B54A1E0B469341AF
:103DA000441E0246A2411A40012A04D1D94B5C6943
:103DB000046098690860104610BDC046B0B54C1E3E
:103DC000A141421E054695410D40012D07D1AA494A
:103DD000DE4A51182246FCF7E0F900210155284639
:103DE000B0BDC04680B5002803D0D849794AFCF759
:103DF000B0F980BD70B50246872801D3002300E0EA
:103E000001234C1E0846A041184001280AD128234E
:103E10005343CE4AD218203238CA38C138CA38C1C2
:103E200078CA78C170BDC046002805D0C749497915
:103E3000872900D300210170411E88417047C04688
:103E4000C248C08B7047C046C048808B7047C04690
:103E500087207047B0B54C1EA141421E05469541D2
:103E60000D40012D06D1B94908312246FCF795F9DC
:103E7000002101552846B0BDB0B54C1EA141421EDF
:103E8000054695410D40012D07D1A149AF4A511872
:103E90002246FCF782F9002101552846B0BDC046F4
:103EA000B0B54C1EA141421E054695410D40012D65
:103EB00007D1A549A54A51182246FCF76EF9002101
:103EC00001552846B0BDC046A24900220A7048608C
:103ED0007047C046F0B581B02F4F387801260128D1
:103EE00040D12EA00CF002FE1C2002F09FFB092006
:103EF00002F09CFB7868002806D0334C334A2146F8
:103F000001F002FA3249605000242F49314D204619
:103F10002A46FFF787FD002828D03DA00CF0E6FDDB
:103F2000294928462A46FFF77DFD002820D03EA0DB
:103F30000CF0DCFDE54824492A46FFF773FD002814
:103F400018D040480CF0D2FD092002F07FFB1C2065
:103F500002F07CFB394805F033F93B480CF0C6FD14
:103F6000002038703446204601B0F0BD1AA002E0AF
:103F70002C4800E030480CF0B9FD092002F066FB47
:103F80001C2002F063FB2D4805F01AF92C480CF0B8
:103F9000ADFD204601B0F0BD40010020496E6963CF
:103FA00069616E646F2073616C76616D656E746FAC
:103FB0002073696E63726F6E6F206E61204545508D
:103FC000524F4D2E2E2E0D009C0E0020B6050000E7
:103FD000D8160000DC1600004552524F3A204661C8
:103FE0006C686120616F206573637265766572200D
:103FF0006E6F20626C6F636F207072696D617269A1
:104000006F20646120454550524F4D2E0D00000039
:10401000426C6F636F207072696D6172696F204FBF
:104020004B2E0D007D360108426C6F636F20424BB2
:104030005031204F4B2E0D00AC360108840D00206E
:10404000EB360108DB36010836370108B0B5044607
:1040500000280CD00848974D281814222146FCF758
:104060009CF8064800212954914801210170601EE6
:1040700084412046B0BDC0464C1500005F150000CD
:10408000862804D88A4901220A708A4948718728FB
:1040900001D30020704701207047C046844A0121A7
:1040A0001170844AD08308467047C046804A012177
:1040B0001170804A908308467047C046B0B50446E8
:1040C00000280BD07B4D284608300A222146FCF7F9
:1040D00064F87748012101700020A874601E8441B3
:1040E0002046B0BDB0B5044600280CD07A48714DCA
:1040F000281810222146FCF750F8074800212954BF
:104100006B4801210170601E84412046B0BDC0464D
:10411000C81600009C0E0020D7160000B0B504465B
:1041200000280CD00848634D281814222146FCF7BB
:1041300034F80748002129545D4801210170601EB0
:1041400084412046B0BDC046381500009C0E0020BA
:104150004B15000040010020F0B583B05448406882
:10416000002818D00024534E534F204631463A467B
:10417000FFF71AFC01210291504A00280ED0514845
:1041800035584B484068314601F0BEF8A8420AD184
:10419000029803B0F0BD002003B0F0BD48480021F4
:1041A0000BF0BAFF05E00246474800212B460BF012
:1041B000B3FF404E384631463A46FFF7F5FB00283C
:1041C00013D0404835583A4A5068314616463B4A63
:1041D00001F09AF80246A8420299084664D03A488B
:1041E00035492B460BF098FF04E0354832490BF077
:1041F00093FF2F4E35482F4D29463A46FFF7D4FB03
:10420000002811D02F482B490F5870682B4A01F015
:104210007BF80246B8420299084645D02A482B4905
:104220003B460BF079FF03E0254828490BF074FF6B
:10423000281D2449FBF7A6FF25480121019129608B
:104240006121A860E9602C827F20C0056861214857
:10425000E8612148281821494CC94CC00A880280CD
:104260008978817087271E4E2846203031681022B9
:10427000FBF793FF30202C54284631300A2219498D
:10428000FBF767FF28463030F16A326BC2828182C9
:10429000B1692964C472283540367F1EE4D1044ECA
:1042A0000198307020460299317003B0F0BDC046CD
:1042B000400100209C0E0020DC160000B605000026
:1042C000F7350108D81600002D360108B82D00007A
:1042D00073656E6805000200C81600008C6C01084A
:1042E000741001089C6C0108B0B50D4949780A2288
:1042F0004A4380180B49401880B20B4D69788842B8
:104300000DD2400028180421445E08A021460BF07D
:1043100003FF6C80002028702046FFF79BFCB0BD97
:104320002C000020F6FF00009801002053656C650A
:1043300063616F207669612070657371756973615F
:1043400020636F6E6669726D6164612E20496E64D0
:1043500069636520646F204772616F3A2025642E7F
:104360000D0A0000F0B58FB00646D14C00276770EB
:10437000FFF76EFD0546002E009069D030780028CA
:1043800066D0002D00D149E1029603E07F1CAF42C8
:1043900000D143E1F8B205A9FFF72CFD0028F5D0C4
:1043A000317805A803910029014600D0002100784A
:1043B000002831D00197354605AE06E0049D6D1CFE
:1043C00001467078761C00282FD02F78002F27D038
:1043D00004950D46FBF7B7FE04463846FBF7B3FEDF
:1043E000844204D1002D3046E8D02846E6E7002D6F
:1043F00000D06E1C3078FBF7A6FE07460398FBF74B
:10440000A2FE8742314600D00021874201D0029DA2
:10441000D7E70298451CD4E7039800060CD10CE0BE
:10442000A34C009D029E019F07E02878A04C009DB0
:10443000029E019F000600D000210029A6D06078CE
:104440001328A3D8411C61704000201887809DE785
:104450006178002D00D1E5E0132900D9E2E04800A1
:10446000201800228280481C022D00D2F6E012297A
:1044700000D9F3E04000201801228280881C032D1F
:1044800000D2EBE0112900D9E8E040002018022218
:104490008280C81C042D00D2E0E0102900D9DDE0A4
:1044A0004000201803228280081D052D00D2D5E08F
:1044B0000F2900D9D2E04000201804228280481D34
:1044C000062D00D2CAE00E2900D9C7E0400020180E
:1044D00005228280881D072D00D2BFE00D2900D95A
:1044E000BCE04000201806228280C81D082D00D2A2
:1044F000B4E00C2900D9B1E04000201807228280E6
:1045000008460830092D00D2A8E00B2900D9A5E003
:104510004000201808228280084609300A2D00D267
:104520009CE00A2900D999E04000201809228280E5
:1045300008460A300B2D00D290E0092900D98DE001
:10454000400020180A22828008460B300C2D00D231
:1045500084E0082900D981E0400020180B228280E5
:1045600008460C300D2D79D3072977D84000201844
:104570000C22828008460D300E2D6ED306296CD891
:1045800040004B4A10180D22828008460E30009AD7
:104590000F2A62D3052960D84000454A10180E2220
:1045A000828008460F30009A102A56D3042954D826
:1045B00040003F4A10180F22828010220846104304
:1045C000009B112B49D3032947D84300384CE318EB
:1045D0009A800A461132009B122B67D3122865D8A5
:1045E0005000334A10181122828008461230009A77
:1045F000132A33D3012931D840002D4A1018122232
:10460000828008461330009A142A27D3002925D126
:10461000400020181321818014201FE060780028BA
:104620001DD102E00846002819D1224831460BF07E
:1046300073FD3C20FEF76AF81F4820A11822FEF700
:10464000DFFBFEF7DDF8002805D0FEF7E7FCFEF7FC
:10465000D7F80028F9D10FB0F0BD154C6070E749CC
:1046600001224A70401EC0B2CD234343D80A431CE6
:104670000B7005AC174920460BF07AFD2046FBF77E
:10468000A3FD8521090282B208462146FEF7B8FB48
:10469000FEF7B6F8002805D0FEF7C0FCFEF7B0F82C
:1046A0000028F9D100F018F80FB0F0BD1046D5E79A
:1046B00098010020CB6B0108964000004E656E68A3
:1046C000756D206772616F20656E636F6E747261C5
:1046D000646F2100866C0108F0B58BB0F248407819
:1046E0000A214143844FCE193046083880B2EF4D3D
:1046F0006978824C88420DD240002818007901A9BF
:10470000FFF778FB00280CD02046203880B201A9A2
:10471000102204E02046203880B2B9490122FEF779
:104720006FFBF01F80B2697888420AD240002818D7
:10473000007901A9FFF75EFB002807D001A910222C
:1047400001E0AF4901222046FEF75AFBB01F384076
:10475000697888420DD240002818007901A9FFF736
:1047600049FB00280CD02046203080B201A910223D
:1047700004E02046203080B2A1490122FEF740FB30
:10478000701F80B2697888420DD2400028180079E5
:1047900001A9FFF72FFB00280CD02046403080B243
:1047A00001A9102204E02046403080B29449012241
:1047B000FEF726FB301F3840697888420CD2400053
:1047C0002818007901A9FFF715FB00280AD06034EA
:1047D000A0B201A9102203E06034A0B288490122EE
:1047E000FEF70EFBF01E80B26978454C88420DD270
:1047F00040002818007901A9FFF7FCFA00280CD026
:104800002046203880B201A9102204E0204620383A
:1048100080B27B490122FEF7F3FAB01E3840697876
:1048200088420AD240002818007901A9FFF7E2FA6D
:10483000002807D001A9102201E071490122204679
:10484000FEF7DEFA701E80B2697888420DD2400011
:104850002818007901A9FFF7CDFA00280CD02046CE
:10486000203080B201A9102204E02046203080B21E
:1048700063490122FEF7C4FA3740687887420DD2B7
:1048800078002818007901A9FFF7B4FA00280CD0A5
:104890002046403080B201A9102204E0204640307A
:1048A00080B257490122FEF7ABFA701C80B26978DA
:1048B00088420CD240002818007901A9FFF79AFA23
:1048C00000280AD06034A0B201A9102203E06034AD
:1048D000A0B24B490122FEF793FA6520FDF716FFBF
:1048E000FDF78EFF002805D0FEF798FBFDF788FF47
:1048F0000028F9D10BB0F0BDFEFF000020820000BF
:1049000020830000B0B582B00A480CF0EFF8804D6B
:104910000120287001AC002020702046FFF784FAA7
:10492000207868800BF054FB6620FDF7EFFE02B0A4
:10493000B0BDC046496C0108B0B50446224D287888
:10494000012840D1FFF784FA00283CD0611E0529D8
:1049500039D8C0467944097949008F4402180D348A
:1049600034230224295F27A00BF0D6FB00202870F7
:10497000285FFFF76FF923E06988491E0AB2002A11
:1049800000D5411E698008B20BF022FBB0BD6988DA
:10499000491C0AB28242F5DB0021698008B20BF0A3
:1049A00017FBB0BD09A00CF0A1F800202880134827
:1049B000012242700270852000021149FEF720FAA0
:1049C0006720FDF7A3FEB0BD980100204772616F1C
:1049D000735F48616E646C65723A2053656C656301
:1049E000616F202876696120736574617329206383
:1049F000616E63656C6164612E0D00002C00002007
:104A0000385E01084772616F735F48616E646C6560
:104A1000723A204772616F2028766961207365744D
:104A200061732920696E64696365202725642720E6
:104A300073656C6563696F6E61646F2E0D0A0000AB
:104A4000B0B582B0184D2C78022C2AD317480078C4
:104A5000012826D168782146FBF74DFE491C697074
:104A600013A022460BF058FB6A782B786C461A4943
:104A700020460BF07DFB2046FBF7A6FB85210902B3
:104A800082B208462146FEF7BBF9FDF7B9FE0028C1
:104A900005D0FEF7C3FAFDF7B3FE0028F9D1FFF702
:104AA0001BFE02B0B0BDC0462C00002098010020C3
:104AB000506167696E6163616F3A204D7564616E24
:104AC000646F207061726120706167696E6120257A
:104AD000642F25640D0A0000866C010880B586B03D
:104AE0000B4A1278012A10D1801D891F89B201AAB0
:104AF0001123FEF735FA002804D001A8FFF732FC95
:104B000006B080BD03A00BF0F1FF06B080BDC0462B
:104B10009801002046616C686120616F206578749F
:104B20007261697220746578746F206461207065A9
:104B300073717569736120646F207061796C6F6146
:104B400064204457494E2E0D00000000F0B587B098
:104B5000002506955422825C012A03D102242046B6
:104B600007B0F0BD064654360124347002689368DD
:104B70005B0714D407694B68022B18D10420074344
:104B8000994887426DD19748C0430B68D943014388
:104B9000906A084090620024002B66D4D2E0816DB8
:104BA00020220A4382653570204607B0F0BD059388
:104BB00004231F438C4CA74262D10F683846894BAF
:104BC0001840936A034393623802536983438968A8
:104BD000014086480840184350610024002F00D44B
:104BE000B0E0032082058248036819461140384628
:104BF000804F0490B84200D096E07A4F7F1CB942B3
:104C000000D391E07A48036893431943754A5118D9
:104C1000491C0160794800687949FBF76CFD0C215B
:104C20004143481C06900698002800D18AE0069867
:104C3000401E06900698002800D183E00698401E8A
:104C40000690069800287DD00698401E069006988B
:104C5000002877D00698401E069006980028E6D1D6
:104C600070E00B680024002B6CD5FA480168624A9A
:104C700093426BD05F4A934264D10122920567E070
:104C80001F27059C27400F2400940397BC40076E04
:104C90000194A74302970C68524F3C42049462D09F
:104CA000E4072F4667D1049FBC075FD47C075FD41D
:104CB0003C075FD4FC061F465DD4049CA30671D458
:104CC000630671D4230671D4E30571D4049B9B055C
:104CD00070D4049B5B056FD4049B1B056ED4049BAE
:104CE000DB046DD4049B9B046CD4049B5B046BD4E9
:104CF000049B1B04009F3ED4049BDB0366D4049BEF
:104D00009B0365D4049B5B0364D4049B1B0363D4A3
:104D1000049BDB0262D4049B9B0261D4049B5B0274
:104D2000DB1716271F4026E0334F0498B84209D1FD
:104D30000127BF053B4005D1C6480368934319438B
:104D400039430BE03570204607B0F0BD254A521CB0
:104D5000114003229205036893435918016035708E
:104D6000204607B0F0BD6300DF0E04E0012702E03B
:104D7000022700E00327039CA740029B1F4307660E
:104D8000059B9B08C06998420AD90198C043936A61
:104D90000340049FB800000FA0401843906213E73F
:104DA000049F11E70527E6E70627E4E70727E2E780
:104DB0000827E0E70927DEE70A27DCE70B27DAE721
:104DC0000C27D8E70D27D6E70E27D4E71027D2E720
:104DD0001127D0E71227CEE71327CCE71427CAE71D
:104DE0001527C8E7FFFF7F000400008000FFFF7F5A
:104DF00008270140000200A4000400A830000020A1
:104E0000400D03000068006C70470000F0B589B0E9
:104E1000044600200890002C76D00790A06D002852
:104E200007D125465435204600F016F90020287099
:104E3000E06501273D072668B068C00026D4B06849
:104E40007F4901402943B1607E4800687E49FBF7F5
:104E500052FC400008900898002817D00898401E7F
:104E600008900898002811D00898401E08900898CB
:104E700000280BD00898401E08900898002805D0FC
:104E80000898401E089008980028E7D1B06828428A
:104E900008D1A06D10210143A165E06D01210791AA
:104EA0000843E065B06804210140A26D1020024073
:104EB0005118A16D2BD106900F20C7433A46F33A03
:104EC0001140891CA165B168C9077DD10390049781
:104ED00027462037216B4A1E91410D03A168227E8F
:104EE00092030A43617EC9031143A27E5003084323
:104EF000E36803432B430120C5072169002905907E
:104F0000029509DAA94308E0012009B0F0BD014388
:104F1000A165384609B0F0BD41050B43387B45001B
:104F20001D433878012809D1002A11D0A06D202115
:104F30000143A165E06D05990843E065626A002AB6
:104F40000CD0072080010240A16A1143294306E0EA
:104F5000059800040543626A002AF2D12946F068E8
:104F60003A4A02400A43F2600320820763681D4602
:104F70001540E16C387F01280ED1206C0090676CE1
:104F8000A06C019000980743019807432F430F43FB
:104F9000059807433D4600E00D43049F30692C49C6
:104FA0000140294331610298834203990CD0934216
:104FB0000AD005988007834206D08804034025491B
:104FC0000A688243D0180860706907229043656BB5
:104FD00028437061706970218843A16B0901014306
:104FE0007161216901235805814203D000290BD149
:104FF000B06A07E0B06AE06980001C301C21014003
:105000008F40206E3843B06270691040A8420AD1C8
:105010000020E065A06D0121014302208143A165CC
:10502000079809B0F0BDA06D069908430221884396
:10503000A065E06D1843E065184609B0F0BDC046B4
:10504000E8FFFF6F30000020400D03000102DEFF8B
:1050500002FCFF1F0827014080B58AB0002109919A
:1050600008910791069105910491039100680D49FB
:10507000884201D00AB080BD2020029002A802F030
:10508000B5FC002801D0FEF76DFD012000050649A2
:105090000A6802430A6009680140019101980AB058
:1050A00080BDC0460024014040100240F0B581B0F0
:1050B0000D4604464069082801D1082704E020680D
:1050C000C068C0073FD1042700F0E0FD0646216814
:1050D000086838421CD001204202A36D1343A36527
:1050E000CA681205920F4AD1A27E002A47D10A68E7
:1050F000120744D58A68520738D4224658324B6882
:105100000C25AB434B60FF2502351368AB4334E0FD
:10511000002D1FD0681C10D108683842DBD1086808
:105120003842D8D108683842D5D108683842F3D01F
:10513000D1E7216808683842CDD100F0A7FD801B77
:10514000A842F6D908E0A06D20210143A165012005
:1051500001B0F0BD00F09AFD542000212154A06D53
:1051600004210143A165032001B0F0BDA26D2023FD
:105170001343A36522465C32E36D03431360227E32
:105180000020002A01D001B0F0BD0C220A6001B05D
:10519000F0BD000070B50146006882680220520729
:1051A00011D454228A5C012A0DD00C4654340120BB
:1051B000054620700E460846FBF7D6FF002803D0B0
:1051C00000202070284670BDB06D094901400120C3
:1051D00000020818B0650020F06531681C220A60E2
:1051E00020708A68304B13401A1D8A6070BDC0461B
:1051F000FEF0FFFFF0B581B004465420205C01288A
:1052000002D1022001B0F0BD264654360127377086
:105210002068816849071FD481688268D20737D027
:105220000222114034D1816805220A40012A27D187
:1052300081681D4A0A40911C81600321016000F0D1
:1052400025FD054620688068C00721D000F01EFDBE
:10525000401B0328F6D313E08168890704D48168D2
:10526000114A0A401032826000F010FD05462068A5
:1052700081684907D0D500F009FD401B0328F6D30B
:10528000A06D10210143A165E16D5C34384605E055
:10529000FF200230A16D814358340020002232707B
:1052A0003943216001B0F0BDE8FFFF7F70B50346D0
:1052B0000120CC0720D0114C0C40651EAC410326C8
:1052C0001546F541032D17D87D442D796D00AF4467
:1052D0000B0105090B4C0C400ED105E0084C0C40AD
:1052E0000AD101E0002C07D11868416181681823B8
:1052F000994311438160002070BDC04680FFFF7F4D
:1053000000FFFF7F0000FF7FF0B584B00E46022152
:1053100041770468A16801252943A160016A012938
:105320001ED002290ED0032928D1002A00D103E182
:105330000395032511462940042A00D3D2E03346C1
:105340000025DEE057081ED0039503213B460B40A5
:1053500000937B1E032B029601971AD2002133E0A3
:10536000970814D003950323394619400091791EFC
:1053700003290296019349D200257AE0002145775E
:10538000084604B0F0BD0021D2073CD1D4E0002192
:105390009EE08F43002135466B882E883604F31833
:1053A0002360EB88AE883604F31823606B892E895E
:1053B0003604F3182360EB89AE893604F3182360B2
:1053C0001035091D8F42E7D1009F002F029E14D097
:1053D0008B00F1184D88F35A1B045B192360012FD1
:1053E0000BD0CB888D882D04EB182360022F04D0BE
:1053F0004B8909890904C918216001998900039D15
:10540000D20700D198E0715A218095E09F43002592
:1054100031460E7836064B781B049B198E7836027F
:105420009B19CE789B1923600B791B064E793604A5
:10543000F3188E7936029B19CE799B1923600B7A6B
:105440001B064E7A3604F3188E7A36029B19CE7AF2
:105450009B1923600B7B1B064E7B3604F3188E7B57
:1054600036029B19CE7B9B19236010312D1DAF4254
:10547000CFD1009F002F029E26D0A900735C1B068F
:1054800071184D782D04EB188D782D025B19CD78AD
:105490005B192360012F17D00B791B064D792D0462
:1054A000EB188D792D025B19CD795B192360022FE2
:1054B0000AD00B7A1B064D7A2D04EB188D7A2D023B
:1054C0005B19C97A591821601146019B9943039DC4
:1054D00003231A407A441279520097442C011C2469
:1054E000715C27E0AA430025334637682760776858
:1054F0002760B7682760F768276010362D1DAA421D
:10550000F3D1002905D0AA001D469B58236001292C
:1055100017D1039D10E072185278715C0902891846
:105520002180046808E072185378715C0902C91878
:10553000218091782170046821684577084604B07D
:10554000F0BDAA18536823600229039DF4D0916826
:105550002160F1E7B0B50125002814D00446407F52
:10556000002804D100202077204600F031F80220E6
:1055700060772079002808D0A168E2682046FFF70C
:1055800095FE002808D02846B0BD20680F4941612B
:10559000816818229143816000256079002801D03C
:1055A000216900E0E943206801618168602291433C
:1055B00062690A438260816880229143A2690A433A
:1055C0008260012060772846B0BDC046B71DC10487
:1055D00081B000680849884201D001B070470120BD
:1055E000000306490A6802430A6009680140009105
:1055F000009801B07047C0460030024038100240A9
:1056000070B500282CD0014624314A78022A29D1CD
:10561000046822680E239A432260426C1568314B5D
:105620001D4015602568012295432560046C1C25EA
:1056300025401446AC40D94D2E6826432E60846C1C
:10564000C56C6560046D002C05D025681D40256083
:10565000436D806D58604A70002000220A7070BD52
:10566000012070BD0422C263012000220A7070BDB7
:1056700070B5242101244454014624314A78022A79
:105680002BD103681A680E24A2431A601C680122F9
:1056900094431C60446C2568124B1D402560046CCB
:1056A0001C2525401446AC40BC4D2E6826432E6078
:1056B000846CC56C6560046D002C05D025681D40A8
:1056C0002560436D846D5C6000240C704A70816BB2
:1056D000002900D08847204670BD0421C1632046C0
:1056E00070BDC046FFFEFFFF2521405C70470000F3
:1056F000F0B585B0016C1C240C4004231946A14070
:10570000A64A121F15680A4603952A40564256417A
:10571000049005682A6817461F4078427841304354
:1057200032D00295012102261046304047424741BF
:10573000A640039B1E420D46019400D03946049FAB
:105740003C462434002931D00820024056425641BC
:105750000198C340180700D53546002D24D1029A80
:1057600010680E218843106001200146019A914083
:105770008A4B1A680A431A60F8630021217060702E
:10578000796B00290ED10FE02868800602D42868C2
:1057900098432860814A106808431060049F396B61
:1057A000002901D03846884705B0F0BD029A10683C
:1057B000800605D410680A218843106001206070BB
:1057C000002020707549086830430860F96A002994
:1057D000E8D1E9E7F0B587B000284AD00446014691
:1057E0002431022006914870276838683449014006
:1057F0003960344E30468030A06433483818142560
:105800002946FAF778FF80008119206405916164C8
:10581000FC20384008382946FAF76DFF1C22024068
:1058200001210B469340E364A0680490E568264696
:10583000103645CE0196E6690296266A03962843FD
:105840001043019A10430E460299084303990843F6
:1058500039680143049A11433960B1031B488A42F5
:105860000AD1002205990A6062600360154613465A
:105870001BE0012007B0F0BD6168CFB2059A176048
:105880000360491E00220329154613460DD8791ED0
:105890008A0082180023D36703250D403346AB40AE
:1058A0000B490B607C32BC3005460020E06322656A
:1058B0006565A365069908704E7007B0F0BDC046D7
:1058C0000F80FFFF00080240F8FFFDBF8408024080
:1058D00044090240F0B583B004462420205C01282E
:1058E00002D1022003B0F0BD254624356878012896
:1058F00030D10092022068700020E0632668326890
:1059000001270297BA433260A26CE76C5760226DA0
:105910000192002A02D0626DA76D5760226C1C278D
:105920001740029ABA401D4F3F6817431B4A176041
:105930007360A368102B009F3A4600D00A46B260FD
:10594000102B00D03946F1603168226B002A06D056
:105950000E2209E002200021297003B0F0BD0422CC
:105960009143316032680A21114331600299090282
:10597000626C1368DB0302D513680B431360019B51
:10598000002B02D01A680A431A603168029A114348
:1059900031600021297003B0F0BDC0460400024010
:1059A000B0B5044600F072F90546601C02D0044808
:1059B0000078241800F06AF9401BA042FAD3B0BD69
:1059C00008000020F0B58AB00390002970D00E4680
:1059D000A648039A824201D0062000E005200B224F
:1059E0001207039B9B180A22D3410293042B00D376
:1059F0000290039820300190002739463C463A46F1
:105A0000009626E08F40039D2868384328601C20BC
:105A10003C46099F3840069107998140D008800094
:105A2000019E33588B4306993350A868A043A86061
:105A30006868089EB0436860E868A043E860009E1C
:105A4000059C521C3046D0403F1D891C083400285C
:105A50002ED00120904005463540F2D0089009979D
:105A60001820059420400F240794844003271646ED
:105A7000BE437F4B9B1904931E6E06942640029BE7
:105A800083409E42BED1049C60347A4B1868A84380
:105A900018605868A8435860754B1868A843186088
:105AA0005868A84358602068069B98432060A9E77F
:105AB0000AB0F0BD80B5202801D1FDF743FF80BDBD
:105AC000B0B50446074D2868204203D02C6020461C
:105AD00000F00AF86868204203D06C602046FFF7A7
